{"@manifoldxyz/creator-core-solidity/contracts/ERC721Creator.sol":{"ERC721Creator":{"abi":[{"inputs":[{"internalType":"string","name":"_name","type":"string"},{"internalType":"string","name":"_symbol","type":"string"}],"stateMutability":"nonpayable","type":"constructor"},{"anonymous":false,"inputs":[{"indexed":true,"internalType":"address","name":"account","type":"address"},{"indexed":true,"internalType":"address","name":"sender","type":"address"}],"name":"AdminApproved","type":"event"},{"anonymous":false,"inputs":[{"indexed":true,"internalType":"address","name":"account","type":"address"},{"indexed":true,"internalType":"address","name":"sender","type":"address"}],"name":"AdminRevoked","type":"event"},{"anonymous":false,"inputs":[{"indexed":true,"internalType":"address","name":"owner","type":"address"},{"indexed":true,"internalType":"address","name":"approved","type":"address"},{"indexed":true,"internalType":"uint256","name":"tokenId","type":"uint256"}],"name":"Approval","type":"event"},{"anonymous":false,"inputs":[{"indexed":true,"internalType":"address","name":"owner","type":"address"},{"indexed":true,"internalType":"address","name":"operator","type":"address"},{"indexed":false,"internalType":"bool","name":"approved","type":"bool"}],"name":"ApprovalForAll","type":"event"},{"anonymous":false,"inputs":[{"indexed":false,"internalType":"address payable[]","name":"receivers","type":"address[]"},{"indexed":false,"internalType":"uint256[]","name":"basisPoints","type":"uint256[]"}],"name":"DefaultRoyaltiesUpdated","type":"event"},{"anonymous":false,"inputs":[{"indexed":true,"internalType":"address","name":"extension","type":"address"},{"indexed":false,"internalType":"bool","name":"enabled","type":"bool"}],"name":"ExtensionApproveTransferUpdated","type":"event"},{"anonymous":false,"inputs":[{"indexed":true,"internalType":"address","name":"extension","type":"address"},{"indexed":true,"internalType":"address","name":"sender","type":"address"}],"name":"ExtensionBlacklisted","type":"event"},{"anonymous":false,"inputs":[{"indexed":true,"internalType":"address","name":"extension","type":"address"},{"indexed":true,"internalType":"address","name":"sender","type":"address"}],"name":"ExtensionRegistered","type":"event"},{"anonymous":false,"inputs":[{"indexed":true,"internalType":"address","name":"extension","type":"address"},{"indexed":false,"internalType":"address payable[]","name":"receivers","type":"address[]"},{"indexed":false,"internalType":"uint256[]","name":"basisPoints","type":"uint256[]"}],"name":"ExtensionRoyaltiesUpdated","type":"event"},{"anonymous":false,"inputs":[{"indexed":true,"internalType":"address","name":"extension","type":"address"},{"indexed":true,"internalType":"address","name":"sender","type":"address"}],"name":"ExtensionUnregistered","type":"event"},{"anonymous":false,"inputs":[{"indexed":true,"internalType":"address","name":"extension","type":"address"},{"indexed":true,"internalType":"address","name":"permissions","type":"address"},{"indexed":true,"internalType":"address","name":"sender","type":"address"}],"name":"MintPermissionsUpdated","type":"event"},{"anonymous":false,"inputs":[{"indexed":true,"internalType":"address","name":"previousOwner","type":"address"},{"indexed":true,"internalType":"address","name":"newOwner","type":"address"}],"name":"OwnershipTransferred","type":"event"},{"anonymous":false,"inputs":[{"indexed":true,"internalType":"uint256","name":"tokenId","type":"uint256"},{"indexed":false,"internalType":"address payable[]","name":"receivers","type":"address[]"},{"indexed":false,"internalType":"uint256[]","name":"basisPoints","type":"uint256[]"}],"name":"RoyaltiesUpdated","type":"event"},{"anonymous":false,"inputs":[{"indexed":true,"internalType":"address","name":"from","type":"address"},{"indexed":true,"internalType":"address","name":"to","type":"address"},{"indexed":true,"internalType":"uint256","name":"tokenId","type":"uint256"}],"name":"Transfer","type":"event"},{"inputs":[{"internalType":"address","name":"to","type":"address"},{"internalType":"uint256","name":"tokenId","type":"uint256"}],"name":"approve","outputs":[],"stateMutability":"nonpayable","type":"function"},{"inputs":[{"internalType":"address","name":"admin","type":"address"}],"name":"approveAdmin","outputs":[],"stateMutability":"nonpayable","type":"function"},{"inputs":[{"internalType":"address","name":"owner","type":"address"}],"name":"balanceOf","outputs":[{"internalType":"uint256","name":"","type":"uint256"}],"stateMutability":"view","type":"function"},{"inputs":[{"internalType":"address","name":"extension","type":"address"}],"name":"blacklistExtension","outputs":[],"stateMutability":"nonpayable","type":"function"},{"inputs":[{"internalType":"uint256","name":"tokenId","type":"uint256"}],"name":"burn","outputs":[],"stateMutability":"nonpayable","type":"function"},{"inputs":[],"name":"getAdmins","outputs":[{"internalType":"address[]","name":"admins","type":"address[]"}],"stateMutability":"view","type":"function"},{"inputs":[{"internalType":"uint256","name":"tokenId","type":"uint256"}],"name":"getApproved","outputs":[{"internalType":"address","name":"","type":"address"}],"stateMutability":"view","type":"function"},{"inputs":[],"name":"getExtensions","outputs":[{"internalType":"address[]","name":"extensions","type":"address[]"}],"stateMutability":"view","type":"function"},{"inputs":[{"internalType":"uint256","name":"tokenId","type":"uint256"}],"name":"getFeeBps","outputs":[{"internalType":"uint256[]","name":"","type":"uint256[]"}],"stateMutability":"view","type":"function"},{"inputs":[{"internalType":"uint256","name":"tokenId","type":"uint256"}],"name":"getFeeRecipients","outputs":[{"internalType":"address payable[]","name":"","type":"address[]"}],"stateMutability":"view","type":"function"},{"inputs":[{"internalType":"uint256","name":"tokenId","type":"uint256"}],"name":"getFees","outputs":[{"internalType":"address payable[]","name":"","type":"address[]"},{"internalType":"uint256[]","name":"","type":"uint256[]"}],"stateMutability":"view","type":"function"},{"inputs":[{"internalType":"uint256","name":"tokenId","type":"uint256"}],"name":"getRoyalties","outputs":[{"internalType":"address payable[]","name":"","type":"address[]"},{"internalType":"uint256[]","name":"","type":"uint256[]"}],"stateMutability":"view","type":"function"},{"inputs":[{"internalType":"address","name":"admin","type":"address"}],"name":"isAdmin","outputs":[{"internalType":"bool","name":"","type":"bool"}],"stateMutability":"view","type":"function"},{"inputs":[{"internalType":"address","name":"owner","type":"address"},{"internalType":"address","name":"operator","type":"address"}],"name":"isApprovedForAll","outputs":[{"internalType":"bool","name":"","type":"bool"}],"stateMutability":"view","type":"function"},{"inputs":[{"internalType":"address","name":"to","type":"address"}],"name":"mintBase","outputs":[{"internalType":"uint256","name":"","type":"uint256"}],"stateMutability":"nonpayable","type":"function"},{"inputs":[{"internalType":"address","name":"to","type":"address"},{"internalType":"string","name":"uri","type":"string"}],"name":"mintBase","outputs":[{"internalType":"uint256","name":"","type":"uint256"}],"stateMutability":"nonpayable","type":"function"},{"inputs":[{"internalType":"address","name":"to","type":"address"},{"internalType":"string[]","name":"uris","type":"string[]"}],"name":"mintBaseBatch","outputs":[{"internalType":"uint256[]","name":"tokenIds","type":"uint256[]"}],"stateMutability":"nonpayable","type":"function"},{"inputs":[{"internalType":"address","name":"to","type":"address"},{"internalType":"uint16","name":"count","type":"uint16"}],"name":"mintBaseBatch","outputs":[{"internalType":"uint256[]","name":"tokenIds","type":"uint256[]"}],"stateMutability":"nonpayable","type":"function"},{"inputs":[{"internalType":"address","name":"to","type":"address"}],"name":"mintExtension","outputs":[{"internalType":"uint256","name":"","type":"uint256"}],"stateMutability":"nonpayable","type":"function"},{"inputs":[{"internalType":"address","name":"to","type":"address"},{"internalType":"string","name":"uri","type":"string"}],"name":"mintExtension","outputs":[{"internalType":"uint256","name":"","type":"uint256"}],"stateMutability":"nonpayable","type":"function"},{"inputs":[{"internalType":"address","name":"to","type":"address"},{"internalType":"string[]","name":"uris","type":"string[]"}],"name":"mintExtensionBatch","outputs":[{"internalType":"uint256[]","name":"tokenIds","type":"uint256[]"}],"stateMutability":"nonpayable","type":"function"},{"inputs":[{"internalType":"address","name":"to","type":"address"},{"internalType":"uint16","name":"count","type":"uint16"}],"name":"mintExtensionBatch","outputs":[{"internalType":"uint256[]","name":"tokenIds","type":"uint256[]"}],"stateMutability":"nonpayable","type":"function"},{"inputs":[],"name":"name","outputs":[{"internalType":"string","name":"","type":"string"}],"stateMutability":"view","type":"function"},{"inputs":[],"name":"owner","outputs":[{"internalType":"address","name":"","type":"address"}],"stateMutability":"view","type":"function"},{"inputs":[{"internalType":"uint256","name":"tokenId","type":"uint256"}],"name":"ownerOf","outputs":[{"internalType":"address","name":"","type":"address"}],"stateMutability":"view","type":"function"},{"inputs":[{"internalType":"address","name":"extension","type":"address"},{"internalType":"string","name":"baseURI","type":"string"}],"name":"registerExtension","outputs":[],"stateMutability":"nonpayable","type":"function"},{"inputs":[{"internalType":"address","name":"extension","type":"address"},{"internalType":"string","name":"baseURI","type":"string"},{"internalType":"bool","name":"baseURIIdentical","type":"bool"}],"name":"registerExtension","outputs":[],"stateMutability":"nonpayable","type":"function"},{"inputs":[],"name":"renounceOwnership","outputs":[],"stateMutability":"nonpayable","type":"function"},{"inputs":[{"internalType":"address","name":"admin","type":"address"}],"name":"revokeAdmin","outputs":[],"stateMutability":"nonpayable","type":"function"},{"inputs":[{"internalType":"uint256","name":"tokenId","type":"uint256"},{"internalType":"uint256","name":"value","type":"uint256"}],"name":"royaltyInfo","outputs":[{"internalType":"address","name":"","type":"address"},{"internalType":"uint256","name":"","type":"uint256"}],"stateMutability":"view","type":"function"},{"inputs":[{"internalType":"address","name":"from","type":"address"},{"internalType":"address","name":"to","type":"address"},{"internalType":"uint256","name":"tokenId","type":"uint256"}],"name":"safeTransferFrom","outputs":[],"stateMutability":"nonpayable","type":"function"},{"inputs":[{"internalType":"address","name":"from","type":"address"},{"internalType":"address","name":"to","type":"address"},{"internalType":"uint256","name":"tokenId","type":"uint256"},{"internalType":"bytes","name":"data","type":"bytes"}],"name":"safeTransferFrom","outputs":[],"stateMutability":"nonpayable","type":"function"},{"inputs":[{"internalType":"address","name":"operator","type":"address"},{"internalType":"bool","name":"approved","type":"bool"}],"name":"setApprovalForAll","outputs":[],"stateMutability":"nonpayable","type":"function"},{"inputs":[{"internalType":"bool","name":"enabled","type":"bool"}],"name":"setApproveTransferExtension","outputs":[],"stateMutability":"nonpayable","type":"function"},{"inputs":[{"internalType":"string","name":"uri","type":"string"}],"name":"setBaseTokenURI","outputs":[],"stateMutability":"nonpayable","type":"function"},{"inputs":[{"internalType":"string","name":"uri","type":"string"}],"name":"setBaseTokenURIExtension","outputs":[],"stateMutability":"nonpayable","type":"function"},{"inputs":[{"internalType":"string","name":"uri","type":"string"},{"internalType":"bool","name":"identical","type":"bool"}],"name":"setBaseTokenURIExtension","outputs":[],"stateMutability":"nonpayable","type":"function"},{"inputs":[{"internalType":"address","name":"extension","type":"address"},{"internalType":"address","name":"permissions","type":"address"}],"name":"setMintPermissions","outputs":[],"stateMutability":"nonpayable","type":"function"},{"inputs":[{"internalType":"uint256","name":"tokenId","type":"uint256"},{"internalType":"address payable[]","name":"receivers","type":"address[]"},{"internalType":"uint256[]","name":"basisPoints","type":"uint256[]"}],"name":"setRoyalties","outputs":[],"stateMutability":"nonpayable","type":"function"},{"inputs":[{"internalType":"address payable[]","name":"receivers","type":"address[]"},{"internalType":"uint256[]","name":"basisPoints","type":"uint256[]"}],"name":"setRoyalties","outputs":[],"stateMutability":"nonpayable","type":"function"},{"inputs":[{"internalType":"address","name":"extension","type":"address"},{"internalType":"address payable[]","name":"receivers","type":"address[]"},{"internalType":"uint256[]","name":"basisPoints","type":"uint256[]"}],"name":"setRoyaltiesExtension","outputs":[],"stateMutability":"nonpayable","type":"function"},{"inputs":[{"internalType":"uint256","name":"tokenId","type":"uint256"},{"internalType":"string","name":"uri","type":"string"}],"name":"setTokenURI","outputs":[],"stateMutability":"nonpayable","type":"function"},{"inputs":[{"internalType":"uint256[]","name":"tokenIds","type":"uint256[]"},{"internalType":"string[]","name":"uris","type":"string[]"}],"name":"setTokenURI","outputs":[],"stateMutability":"nonpayable","type":"function"},{"inputs":[{"internalType":"uint256[]","name":"tokenIds","type":"uint256[]"},{"internalType":"string[]","name":"uris","type":"string[]"}],"name":"setTokenURIExtension","outputs":[],"stateMutability":"nonpayable","type":"function"},{"inputs":[{"internalType":"uint256","name":"tokenId","type":"uint256"},{"internalType":"string","name":"uri","type":"string"}],"name":"setTokenURIExtension","outputs":[],"stateMutability":"nonpayable","type":"function"},{"inputs":[{"internalType":"string","name":"prefix","type":"string"}],"name":"setTokenURIPrefix","outputs":[],"stateMutability":"nonpayable","type":"function"},{"inputs":[{"internalType":"string","name":"prefix","type":"string"}],"name":"setTokenURIPrefixExtension","outputs":[],"stateMutability":"nonpayable","type":"function"},{"inputs":[{"internalType":"bytes4","name":"interfaceId","type":"bytes4"}],"name":"supportsInterface","outputs":[{"internalType":"bool","name":"","type":"bool"}],"stateMutability":"view","type":"function"},{"inputs":[],"name":"symbol","outputs":[{"internalType":"string","name":"","type":"string"}],"stateMutability":"view","type":"function"},{"inputs":[{"internalType":"uint256","name":"tokenId","type":"uint256"}],"name":"tokenExtension","outputs":[{"internalType":"address","name":"","type":"address"}],"stateMutability":"view","type":"function"},{"inputs":[{"internalType":"uint256","name":"tokenId","type":"uint256"}],"name":"tokenURI","outputs":[{"internalType":"string","name":"","type":"string"}],"stateMutability":"view","type":"function"},{"inputs":[{"internalType":"address","name":"from","type":"address"},{"internalType":"address","name":"to","type":"address"},{"internalType":"uint256","name":"tokenId","type":"uint256"}],"name":"transferFrom","outputs":[],"stateMutability":"nonpayable","type":"function"},{"inputs":[{"internalType":"address","name":"newOwner","type":"address"}],"name":"transferOwnership","outputs":[],"stateMutability":"nonpayable","type":"function"},{"inputs":[{"internalType":"address","name":"extension","type":"address"}],"name":"unregisterExtension","outputs":[],"stateMutability":"nonpayable","type":"function"}],"evm":{"bytecode":{"linkReferences":{},"object":"60806040526000600a553480156200001657600080fd5b5060405162004ee538038062004ee583398101604081905262000039916200022d565b8181620000463362000080565b6001805581516200005f906004906020850190620000d0565b50805162000075906005906020840190620000d0565b5050505050620002ea565b600080546001600160a01b038381166001600160a01b0319831681178455604051919092169283917f8be0079c531659141344cd1fd0a4f28419497f9722a3daafe3b4186f6b6457e09190a35050565b828054620000de9062000297565b90600052602060002090601f0160209004810192826200010257600085556200014d565b82601f106200011d57805160ff19168380011785556200014d565b828001600101855582156200014d579182015b828111156200014d57825182559160200191906001019062000130565b506200015b9291506200015f565b5090565b5b808211156200015b576000815560010162000160565b600082601f8301126200018857600080fd5b81516001600160401b0380821115620001a557620001a5620002d4565b604051601f8301601f19908116603f01168101908282118183101715620001d057620001d0620002d4565b81604052838152602092508683858801011115620001ed57600080fd5b600091505b83821015620002115785820183015181830184015290820190620001f2565b83821115620002235760008385830101525b9695505050505050565b600080604083850312156200024157600080fd5b82516001600160401b03808211156200025957600080fd5b620002678683870162000176565b935060208501519150808211156200027e57600080fd5b506200028d8582860162000176565b9150509250929050565b600181811c90821680620002ac57607f821691505b60208210811415620002ce57634e487b7160e01b600052602260045260246000fd5b50919050565b634e487b7160e01b600052604160045260246000fd5b614beb80620002fa6000396000f3fe608060405234801561001057600080fd5b50600436106102725760003560e01c806301ffc9a71461027757806302e7afb71461029f57806306fdde03146102b4578063081812fc146102c9578063095ea7b3146102f45780630ebd4c7f14610307578063162094c41461032757806320e4afe21461033a578063239be3171461034d57806323b872dd1461036057806324d7806c146103735780632928ca58146103865780632a55205a146103a75780632d345670146103c857806330176e13146103db5780633071a0f9146103ee57806331ae450b14610401578063332dd1ae1461041657806338e52e78146104295780633e6134b81461043c5780633f0f37f61461044f57806342842e0e1461046257806342966c681461047557806361e5bc6b146104885780636352211e1461049b57806366d1e9d0146104ae5780636d73e669146104c157806370a08231146104d4578063715018a6146104e757806372ff03d3146104ef5780637884af44146105025780637aa15f161461051557806382dcc0c81461052857806383b7db631461053b5780638da5cb5b1461054357806395d89b411461054b57806399e0dd7c14610553578063a22cb46514610566578063aafb2d4414610579578063ac0c8cfa1461058c578063ad2d0ddd1461059f578063b0fe87c9146105b2578063b88d4fde146105c5578063b9c4d9fb146105d8578063bb3bafd6146105f8578063c87b56dd14610619578063ce8aee9d1461062c578063d5a06d4c146105f8578063e00aab4b1461063f578063e92a89f614610652578063e985e9c514610665578063f0cdc49914610678578063f2fde38b1461068b578063fe2e1f581461069e575b600080fd5b61028a6102853660046141ba565b6106b1565b60405190151581526020015b60405180910390f35b6102b26102ad366004613cf7565b6106e0565b005b6102bc610735565b60405161029691906146ae565b6102dc6102d7366004614301565b6107c7565b6040516001600160a01b039091168152602001610296565b6102b2610302366004614023565b6107ee565b61031a610315366004614301565b610904565b604051610296919061469b565b6102b2610335366004614350565b61098a565b6102b261034836600461431a565b6109d5565b6102dc61035b366004614301565b610a4e565b6102b261036e366004613d4d565b610a7e565b61028a610381366004613cf7565b610aaf565b610399610394366004613cf7565b610ade565b604051908152602001610296565b6103ba6103b5366004614382565b610b52565b604051610296929190614579565b6102b26103d6366004613cf7565b610b90565b6102b26103e93660046141f4565b610bed565b6102b26103fc366004613f40565b610c6c565b610409610ce8565b6040516102969190614592565b6102b261042436600461404f565b610d96565b61031a610437366004613ebe565b610de3565b6102b261044a3660046141f4565b610f20565b6102b261045d366004613f87565b610f53565b6102b2610470366004613d4d565b610fc8565b6102b2610483366004614301565b610fe3565b6102b26104963660046140ba565b611089565b6102dc6104a9366004614301565b611134565b6102b26104bc3660046141f4565b611169565b6102b26104cf366004613cf7565b61119a565b6103996104e2366004613cf7565b6111f2565b6102b2611278565b6103996104fd366004613cf7565b61128c565b610399610510366004613f40565b61130f565b61031a610523366004613ebe565b6113c5565b6102b2610536366004614235565b61150f565b610409611541565b6102dc6115eb565b6102bc6115fa565b6102b26105613660046141f4565b611609565b6102b2610574366004613f12565b611653565b6102b26105873660046140ba565b61165e565b6102b261059a366004614180565b611722565b61031a6105ad366004613fee565b611846565b6102b26105c0366004613e3c565b611962565b6102b26105d3366004613d8e565b6119af565b6105eb6105e6366004614301565b6119e1565b6040516102969190614663565b61060b610606366004614301565b611a70565b604051610296929190614676565b6102bc610627366004614301565b611b54565b6102b261063a366004613cf7565b611b84565b61031a61064d366004613fee565b611bcd565b6102b2610660366004614350565b611cc5565b61028a610673366004613d14565b611cf7565b6102b2610686366004613d14565b611d25565b6102b2610699366004613cf7565b611d6f565b6103996106ac366004613f40565b611de5565b60006106bc82611e76565b806106cb57506106cb82611e9b565b806106da57506106da82611ed6565b92915050565b336106e96115eb565b6001600160a01b031614806107045750610704600233611f0b565b6107295760405162461bcd60e51b815260040161072090614854565b60405180910390fd5b61073281611f27565b50565b60606004805461074490614a48565b80601f016020809104026020016040519081016040528092919081815260200182805461077090614a48565b80156107bd5780601f10610792576101008083540402835291602001916107bd565b820191906000526020600020905b8154815290600101906020018083116107a057829003601f168201915b5050505050905090565b60006107d28261200d565b506000908152600860205260409020546001600160a01b031690565b60006107f982611134565b9050806001600160a01b0316836001600160a01b031614156108675760405162461bcd60e51b815260206004820152602160248201527f4552433732313a20617070726f76616c20746f2063757272656e74206f776e656044820152603960f91b6064820152608401610720565b336001600160a01b038216148061088357506108838133611cf7565b6108f55760405162461bcd60e51b815260206004820152603e60248201527f4552433732313a20617070726f76652063616c6c6572206973206e6f7420746f60448201527f6b656e206f776e6572206e6f7220617070726f76656420666f7220616c6c00006064820152608401610720565b6108ff8383612032565b505050565b606061090f826120a0565b61092b5760405162461bcd60e51b81526004016107209061479f565b610934826120bd565b80548060200260200160405190810160405280929190818152602001828054801561097e57602002820191906000526020600020905b81548152602001906001019080831161096a575b50505050509050919050565b336109936115eb565b6001600160a01b031614806109ae57506109ae600233611f0b565b6109ca5760405162461bcd60e51b815260040161072090614854565b6108ff838383612149565b336109de6115eb565b6001600160a01b031614806109f957506109f9600233611f0b565b610a155760405162461bcd60e51b815260040161072090614854565b610a1e856120a0565b610a3a5760405162461bcd60e51b81526004016107209061479f565b610a478585858585612198565b5050505050565b6000610a59826120a0565b610a755760405162461bcd60e51b81526004016107209061479f565b6106da82612297565b610a883382612325565b610aa45760405162461bcd60e51b815260040161072090614898565b6108ff838383612384565b6000816001600160a01b0316610ac36115eb565b6001600160a01b031614806106da57506106da600283611f0b565b600060026001541415610b035760405162461bcd60e51b8152600401610720906148e6565b6002600155610b13600b33611f0b565b610b2f5760405162461bcd60e51b815260040161072090614769565b610b488260405180602001604052806000815250612519565b6001805592915050565b600080610b5e846120a0565b610b7a5760405162461bcd60e51b81526004016107209061479f565b610b848484612593565b915091505b9250929050565b610b9861267a565b610ba3600282611f0b565b156107325760405133906001600160a01b038316907f7c0c3c84c67c85fcac635147348bfe374c24a1a93d0366d1cfe9d8853cbf89d590600090a3610be96002826126d9565b5050565b33610bf66115eb565b6001600160a01b03161480610c115750610c11600233611f0b565b610c2d5760405162461bcd60e51b815260040161072090614854565b610be982828080601f0160208091040260200160405190810160405280939291908181526020018383808284376000920191909152506126ee92505050565b33610c756115eb565b6001600160a01b03161480610c905750610c90600233611f0b565b610cac5760405162461bcd60e51b815260040161072090614854565b82610cb8600d82611f0b565b15610cd55760405162461bcd60e51b815260040161072090614713565b610ce2848484600061270e565b50505050565b6060610cf46002612850565b6001600160401b03811115610d0b57610d0b614b26565b604051908082528060200260200182016040528015610d34578160200160208202803683370190505b50905060005b610d446002612850565b811015610d9257610d5660028261285a565b828281518110610d6857610d68614b10565b6001600160a01b039092166020928302919091019091015280610d8a81614a9f565b915050610d3a565b5090565b33610d9f6115eb565b6001600160a01b03161480610dba5750610dba600233611f0b565b610dd65760405162461bcd60e51b815260040161072090614854565b610ce23085858585612866565b606060026001541415610e085760405162461bcd60e51b8152600401610720906148e6565b6002600155610e18600b33611f0b565b610e345760405162461bcd60e51b815260040161072090614769565b816001600160401b03811115610e4c57610e4c614b26565b604051908082528060200260200182016040528015610e75578160200160208202803683370190505b50905060005b82811015610f1457610ee585858584818110610e9957610e99614b10565b9050602002810190610eab919061491d565b8080601f01602080910402602001604051908101604052809392919081815260200183838082843760009201919091525061251992505050565b828281518110610ef757610ef7614b10565b602090810291909101015280610f0c81614a9f565b915050610e7b565b50600180559392505050565b610f2b600b33611f0b565b610f475760405162461bcd60e51b815260040161072090614769565b610be9828260006129cd565b33610f5c6115eb565b6001600160a01b03161480610f775750610f77600233611f0b565b610f935760405162461bcd60e51b815260040161072090614854565b83610f9f600d82611f0b565b15610fbc5760405162461bcd60e51b815260040161072090614713565b610a478585858561270e565b6108ff838383604051806020016040528060008152506119af565b600260015414156110065760405162461bcd60e51b8152600401610720906148e6565b60026001556110153382612325565b6110615760405162461bcd60e51b815260206004820181905260248201527f43616c6c6572206973206e6f74206f776e6572206e6f7220617070726f7665646044820152606401610720565b600061106c82611134565b905061107782612a0a565b6110818183612a9f565b505060018055565b611094600b33611f0b565b6110b05760405162461bcd60e51b815260040161072090614769565b825181146110d05760405162461bcd60e51b8152600401610720906147ca565b60005b8351811015610ce2576111228482815181106110f1576110f1614b10565b602002602001015184848481811061110b5761110b614b10565b905060200281019061111d919061491d565b612bb3565b8061112c81614a9f565b9150506110d3565b6000818152600660205260408120546001600160a01b0316806106da5760405162461bcd60e51b8152600401610720906147f1565b611174600b33611f0b565b6111905760405162461bcd60e51b815260040161072090614769565b610be98282612be9565b6111a261267a565b6111ad600282611f0b565b6107325760405133906001600160a01b038316907f7e1a1a08d52e4ba0e21554733d66165fd5151f99460116223d9e3a608eec5cb190600090a3610be9600282612c03565b60006001600160a01b03821661125c5760405162461bcd60e51b815260206004820152602960248201527f4552433732313a2061646472657373207a65726f206973206e6f7420612076616044820152683634b21037bbb732b960b91b6064820152608401610720565b506001600160a01b031660009081526007602052604090205490565b61128061267a565b61128a6000612c18565b565b6000600260015414156112b15760405162461bcd60e51b8152600401610720906148e6565b6002600155336112bf6115eb565b6001600160a01b031614806112da57506112da600233611f0b565b6112f65760405162461bcd60e51b815260040161072090614854565b610b488260405180602001604052806000815250612c68565b6000600260015414156113345760405162461bcd60e51b8152600401610720906148e6565b6002600155336113426115eb565b6001600160a01b0316148061135d575061135d600233611f0b565b6113795760405162461bcd60e51b815260040161072090614854565b6113b98484848080601f016020809104026020016040519081016040528093929190818152602001838380828437600092019190915250612c6892505050565b60018055949350505050565b6060600260015414156113ea5760405162461bcd60e51b8152600401610720906148e6565b6002600155336113f86115eb565b6001600160a01b031614806114135750611413600233611f0b565b61142f5760405162461bcd60e51b815260040161072090614854565b816001600160401b0381111561144757611447614b26565b604051908082528060200260200182016040528015611470578160200160208202803683370190505b50905060005b82811015610f14576114e08585858481811061149457611494614b10565b90506020028101906114a6919061491d565b8080601f016020809104026020016040519081016040528093929190818152602001838380828437600092019190915250612c6892505050565b8282815181106114f2576114f2614b10565b60209081029190910101528061150781614a9f565b915050611476565b61151a600b33611f0b565b6115365760405162461bcd60e51b815260040161072090614769565b6108ff8383836129cd565b606061154d600b612850565b6001600160401b0381111561156457611564614b26565b60405190808252806020026020018201604052801561158d578160200160208202803683370190505b50905060005b61159d600b612850565b811015610d92576115af600b8261285a565b8282815181106115c1576115c1614b10565b6001600160a01b0390921660209283029190910190910152806115e381614a9f565b915050611593565b6000546001600160a01b031690565b60606005805461074490614a48565b336116126115eb565b6001600160a01b0316148061162d575061162d600233611f0b565b6116495760405162461bcd60e51b815260040161072090614854565b610be98282612cab565b610be9338383612cc5565b336116676115eb565b6001600160a01b031614806116825750611682600233611f0b565b61169e5760405162461bcd60e51b815260040161072090614854565b825181146116be5760405162461bcd60e51b8152600401610720906147ca565b60005b8351811015610ce2576117108482815181106116df576116df614b10565b60200260200101518484848181106116f9576116f9614b10565b905060200281019061170b919061491d565b612149565b8061171a81614a9f565b9150506116c1565b61172d600b33611f0b565b6117495760405162461bcd60e51b815260040161072090614769565b801580611762575061176233634ce6d51160e11b612d90565b6117d45760405162461bcd60e51b815260206004820152603f60248201527f457874656e73696f6e206d75737420696d706c656d656e74204945524337323160448201527f43726561746f72457874656e73696f6e417070726f76655472616e73666572006064820152608401610720565b3360009081526010602052604090205460ff161515811515146107325733600081815260106020908152604091829020805460ff191685151590811790915591519182527f072a7592283e2c2d1d56d21517ff6013325e0f55483f4828373ff4d98b0a1a36910160405180910390a250565b60606002600154141561186b5760405162461bcd60e51b8152600401610720906148e6565b6002600155336118796115eb565b6001600160a01b031614806118945750611894600233611f0b565b6118b05760405162461bcd60e51b815260040161072090614854565b8161ffff166001600160401b038111156118cc576118cc614b26565b6040519080825280602002602001820160405280156118f5578160200160208202803683370190505b50905060005b8261ffff168161ffff161015611957576119248460405180602001604052806000815250612c68565b828261ffff168151811061193a5761193a614b10565b60209081029190910101528061194f81614a7d565b9150506118fb565b506001805592915050565b3361196b6115eb565b6001600160a01b031614806119865750611986600233611f0b565b6119a25760405162461bcd60e51b815260040161072090614854565b610a478585858585612866565b6119b93383612325565b6119d55760405162461bcd60e51b815260040161072090614898565b610ce284848484612dac565b60606119ec826120a0565b611a085760405162461bcd60e51b81526004016107209061479f565b611a1182612ddf565b80548060200260200160405190810160405280929190818152602001828054801561097e57602002820191906000526020600020905b81546001600160a01b03168152600190910190602001808311611a475750505050509050919050565b606080611a7c836120a0565b611a985760405162461bcd60e51b81526004016107209061479f565b611aa183612e6b565b815460408051602080840282018101909252828152918491830182828015611af257602002820191906000526020600020905b81546001600160a01b03168152600190910190602001808311611ad4575b5050505050915080805480602002602001604051908101604052809291908181526020018280548015611b4457602002820191906000526020600020905b815481526020019060010190808311611b30575b5050505050905091509150915091565b6060611b5f826120a0565b611b7b5760405162461bcd60e51b81526004016107209061479f565b6106da82612e89565b33611b8d6115eb565b6001600160a01b03161480611ba85750611ba8600233611f0b565b611bc45760405162461bcd60e51b815260040161072090614854565b61073281613112565b606060026001541415611bf25760405162461bcd60e51b8152600401610720906148e6565b6002600155611c02600b33611f0b565b611c1e5760405162461bcd60e51b815260040161072090614769565b8161ffff166001600160401b03811115611c3a57611c3a614b26565b604051908082528060200260200182016040528015611c63578160200160208202803683370190505b50905060005b8261ffff168161ffff16101561195757611c928460405180602001604052806000815250612519565b828261ffff1681518110611ca857611ca8614b10565b602090810291909101015280611cbd81614a7d565b915050611c69565b611cd0600b33611f0b565b611cec5760405162461bcd60e51b815260040161072090614769565b6108ff838383612bb3565b6001600160a01b03918216600090815260096020908152604080832093909416825291909152205460ff1690565b33611d2e6115eb565b6001600160a01b03161480611d495750611d49600233611f0b565b611d655760405162461bcd60e51b815260040161072090614854565b610be98282613151565b611d7761267a565b6001600160a01b038116611ddc5760405162461bcd60e51b815260206004820152602660248201527f4f776e61626c653a206e6577206f776e657220697320746865207a65726f206160448201526564647265737360d01b6064820152608401610720565b61073281612c18565b600060026001541415611e0a5760405162461bcd60e51b8152600401610720906148e6565b6002600155611e1a600b33611f0b565b611e365760405162461bcd60e51b815260040161072090614769565b6113b98484848080601f01602080910402602001604051908101604052809392919081815260200183838082843760009201919091525061251992505050565b60006001600160e01b03198216639088c20760e01b14806106da57506106da82613286565b60006001600160e01b031982166380ac58cd60e01b14806106cb57506001600160e01b03198216635b5e139f60e01b14806106da57506106da825b60006001600160e01b03198216632a9f3abf60e11b14806106da57506301ffc9a760e01b6001600160e01b03198316146106da565b6000611f20836001600160a01b03841661331c565b9392505050565b6001600160a01b038116301415611f7c5760405162461bcd60e51b815260206004820152601960248201527821b0b73737ba10313630b1b5b634b9ba103cb7bab939b2b63360391b6044820152606401610720565b611f87600b82611f0b565b15611fbd5760405133906001600160a01b03831690600080516020614b7683398151915290600090a3611fbb600b826126d9565b505b611fc8600d82611f0b565b6107325760405133906001600160a01b038316907f05ac7bc5a606cd92a63365f9fda244499b9add0526b22d99937b6bd88181059c90600090a3610be9600d82612c03565b612016816120a0565b6107325760405162461bcd60e51b8152600401610720906147f1565b600081815260086020526040902080546001600160a01b0319166001600160a01b038416908117909155819061206782611134565b6001600160a01b03167f8c5be1e5ebec7d5bd14f71427d1e84f3dd0314c0f7b2291e5b200ac8c7c3b92560405160405180910390a45050565b6000908152600660205260409020546001600160a01b0316151590565b600081815260196020526040812054156120e35750600090815260196020526040902090565b6000828152601160209081526040808320546001600160a01b0316835260179091529020541561213557506000908152601160209081526040808320546001600160a01b031683526017909152902090565b505030600090815260176020526040902090565b6000838152601160205260409020546001600160a01b0316301461217f5760405162461bcd60e51b815260040161072090614742565b6000838152601560205260409020610ce2908383613aa6565b8281146121b75760405162461bcd60e51b8152600401610720906147ca565b6000805b828110156121fb578383828181106121d5576121d5614b10565b90506020020135826121e791906149ba565b9150806121f381614a9f565b9150506121bb565b50612710811061221d5760405162461bcd60e51b815260040161072090614823565b6000868152601860205260409020612236908686613b26565b506000868152601960205260409020612250908484613b79565b50857fabb46fe0761d77584bde75697647804ffd8113abd4d8d06bc664150395eccdee8686868660405161228794939291906145df565b60405180910390a2505050505050565b6000818152601160205260409020546001600160a01b0316308114156122f85760405162461bcd60e51b815260206004820152601660248201527527379032bc3a32b739b4b7b7103337b9103a37b5b2b760511b6044820152606401610720565b612303600d82611f0b565b156123205760405162461bcd60e51b815260040161072090614713565b919050565b60008061233183611134565b9050806001600160a01b0316846001600160a01b0316148061235857506123588185611cf7565b8061237c5750836001600160a01b0316612371846107c7565b6001600160a01b0316145b949350505050565b826001600160a01b031661239782611134565b6001600160a01b0316146123fb5760405162461bcd60e51b815260206004820152602560248201527f4552433732313a207472616e736665722066726f6d20696e636f72726563742060448201526437bbb732b960d91b6064820152608401610720565b6001600160a01b03821661245d5760405162461bcd60e51b8152602060048201526024808201527f4552433732313a207472616e7366657220746f20746865207a65726f206164646044820152637265737360e01b6064820152608401610720565b612468838383613334565b612473600082612032565b6001600160a01b038316600090815260076020526040812080546001929061249c908490614a05565b90915550506001600160a01b03821660009081526007602052604081208054600192906124ca9084906149ba565b909155505060008181526006602052604080822080546001600160a01b0319166001600160a01b038681169182179092559151849391871691600080516020614b9683398151915291a4505050565b600a80546000918261252a83614a9f565b9190505550600a54905061253e838261333f565b600081815260116020526040902080546001600160a01b0319163317905561256683826133cc565b81511561258e576000818152601560209081526040909120835161258c92850190613bb3565b505b6106da565b60008060006125a185612ddf565b8054909150600110156125f55760405162461bcd60e51b815260206004820152601c60248201527b26b7b932903a3430b71018903937bcb0b63a3c903932b1b2b4bb32b960211b6044820152606401610720565b8054612608573060009250925050610b89565b8060008154811061261b5761261b614b10565b6000918252602090912001546001600160a01b03166127108561263d886120bd565b60008154811061264f5761264f614b10565b906000526020600020015461266491906149e6565b61266e91906149d2565b92509250509250929050565b336126836115eb565b6001600160a01b03161461128a5760405162461bcd60e51b815260206004820181905260248201527f4f776e61626c653a2063616c6c6572206973206e6f7420746865206f776e65726044820152606401610720565b6000611f20836001600160a01b0384166133e6565b3060009081526012602090815260409091208251610be992840190613bb3565b6001600160a01b03841630141561275a5760405162461bcd60e51b815260206004820152601060248201526f10dc99585d1bdc8e88125b9d985b1a5960821b6044820152606401610720565b61276c846001600160a01b03166134d9565b6127c65760405162461bcd60e51b815260206004820152602560248201527f43726561746f723a20457874656e73696f6e206d757374206265206120636f6e6044820152641d1c9858dd60da1b6064820152608401610720565b6127d1600b85611f0b565b610ce2576001600160a01b03841660009081526012602052604090206127f8908484613aa6565b506001600160a01b038416600081815260136020526040808220805460ff1916851515179055513392917fd8cb8ba4086944eabf43c5535b7712015e4d4c714b24bf812c040ea5b7a3e42a91a3610a47600b85612c03565b60006106da825490565b6000611f2083836134e8565b8281146128855760405162461bcd60e51b8152600401610720906147ca565b6000805b828110156128c9578383828181106128a3576128a3614b10565b90506020020135826128b591906149ba565b9150806128c181614a9f565b915050612889565b5061271081106128eb5760405162461bcd60e51b815260040161072090614823565b6001600160a01b038616600090815260166020526040902061290e908686613b26565b506001600160a01b0386166000908152601760205260409020612932908484613b79565b506001600160a01b038616301415612986577f2b6849d5976d799a5b0ca4dfd6b40a3d7afe9ea72c091fa01a958594f9a2659b8585858560405161297994939291906145df565b60405180910390a16129c5565b856001600160a01b03167f535a93d2cb000582c0ebeaa9be4890ec6a287f98eb2df00c54c300612fd78d8f8686868660405161228794939291906145df565b505050505050565b3360009081526012602052604090206129e7908484613aa6565b50336000908152601360205260409020805460ff19169115159190911790555050565b6000612a1582611134565b9050612a2381600084613334565b612a2e600083612032565b6001600160a01b0381166000908152600760205260408120805460019290612a57908490614a05565b909155505060008281526006602052604080822080546001600160a01b0319169055518391906001600160a01b03841690600080516020614b96833981519152908390a45050565b6000818152601160205260409020546001600160a01b03163014612b5d57600081815260116020526040902054612ae6906001600160a01b03166311686e4b60e21b612d90565b15612b5d57600081815260116020526040908190205490516311686e4b60e21b81526001600160a01b03909116906345a1b92c90612b2a9085908590600401614579565b600060405180830381600087803b158015612b4457600080fd5b505af1158015612b58573d6000803e3d6000fd5b505050505b60008181526015602052604090208054612b7690614a48565b159050612b94576000818152601560205260408120612b9491613c27565b600090815260116020526040902080546001600160a01b031916905550565b6000838152601160205260409020546001600160a01b0316331461217f5760405162461bcd60e51b815260040161072090614742565b3360009081526014602052604090206108ff908383613aa6565b6000611f20836001600160a01b038416613512565b600080546001600160a01b038381166001600160a01b0319831681178455604051919092169283917f8be0079c531659141344cd1fd0a4f28419497f9722a3daafe3b4186f6b6457e09190a35050565b600a805460009182612c7983614a9f565b9091555050600a54600081815260116020526040902080546001600160a01b03191630179055905061256683826133cc565b3060009081526014602052604090206108ff908383613aa6565b816001600160a01b0316836001600160a01b03161415612d235760405162461bcd60e51b815260206004820152601960248201527822a9219b99189d1030b8383937bb32903a379031b0b63632b960391b6044820152606401610720565b6001600160a01b03838116600081815260096020908152604080832094871680845294825291829020805460ff191686151590811790915591519182527f17307eab39ab6107e8899845ad3d59bd9653f200f220920489ca2b5937696c31910160405180910390a3505050565b6000612d9b8361355c565b8015611f205750611f20838361358f565b612db7848484612384565b612dc384848484613618565b610ce25760405162461bcd60e51b8152600401610720906146c1565b60008181526018602052604081205415612e055750600090815260186020526040902090565b6000828152601160209081526040808320546001600160a01b03168352601690915290205415612e5757506000908152601160209081526040808320546001600160a01b031683526016909152902090565b505030600090815260166020526040902090565b600080612e7783612ddf565b612e80846120bd565b91509150915091565b6000818152601160205260409020546060906001600160a01b0316612eaf600d82611f0b565b15612ecc5760405162461bcd60e51b815260040161072090614713565b60008381526015602052604090208054612ee590614a48565b159050612fff576001600160a01b03811660009081526014602052604090208054612f0f90614a48565b159050612f60576001600160a01b038116600090815260146020908152604080832086845260158352928190209051612f49939201614503565b604051602081830303815290604052915050919050565b60008381526015602052604090208054612f7990614a48565b80601f0160208091040260200160405190810160405280929190818152602001828054612fa590614a48565b8015612ff25780601f10612fc757610100808354040283529160200191612ff2565b820191906000526020600020905b815481529060010190602001808311612fd557829003601f168201915b5050505050915050919050565b6130108163e9dc637560e01b612d90565b156130975760405163e9dc637560e01b81526001600160a01b0382169063e9dc6375906130439030908790600401614579565b60006040518083038186803b15801561305b57600080fd5b505afa15801561306f573d6000803e3d6000fd5b505050506040513d6000823e601f3d908101601f19168201604052611f20919081019061428b565b6001600160a01b03811660009081526013602052604090205460ff166130e9576001600160a01b03811660009081526012602052604090206130d88461372c565b604051602001612f499291906144de565b6001600160a01b03811660009081526012602052604090208054612f7990614a48565b50919050565b61311d600b82611f0b565b156107325760405133906001600160a01b03831690600080516020614b7683398151915290600090a3610be9600b826126d9565b61315c600b83611f0b565b6131a85760405162461bcd60e51b815260206004820152601e60248201527f43726561746f72436f72653a20496e76616c696420657874656e73696f6e00006044820152606401610720565b6001600160a01b03811615806131ca57506131ca81631e05385b60e31b612d90565b6132085760405162461bcd60e51b815260206004820152600f60248201526e496e76616c6964206164647265737360881b6044820152606401610720565b6001600160a01b038281166000908152600f6020526040902054811690821614610be9576001600160a01b038281166000818152600f602052604080822080546001600160a01b031916948616948517905551339392917f6a835c4fcf7e0d398db3762332fdaa1471814ad39f1e2d6d0b3fdabf8efee3e091a45050565b60006001600160e01b031982166328f10a2160e01b14806132ab57506132ab82611e9b565b806132c657506001600160e01b03198216635d9dd7eb60e11b145b806132e157506001600160e01b03198216632dde656160e21b145b806132fc57506001600160e01b031982166335681b5360e21b145b806106da57506001600160e01b0319821663152a902d60e11b1492915050565b60009081526001919091016020526040902054151590565b6108ff838383613829565b336000908152600f60205260409020546001600160a01b031615610be957336000818152600f602052604090819020549051631e05385b60e31b81526001600160a01b039091169163f029c2d89161339e919086908690600401614518565b600060405180830381600087803b1580156133b857600080fd5b505af11580156129c5573d6000803e3d6000fd5b610be9828260405180602001604052806000815250613947565b600081815260018301602052604081205480156134cf57600061340a600183614a05565b855490915060009061341e90600190614a05565b905081811461348357600086600001828154811061343e5761343e614b10565b906000526020600020015490508087600001848154811061346157613461614b10565b6000918252602080832090910192909255918252600188019052604090208390555b855486908061349457613494614afa565b6001900381819060005260206000200160009055905585600101600086815260200190815260200160002060009055600193505050506106da565b60009150506106da565b6001600160a01b03163b151590565b60008260000182815481106134ff576134ff614b10565b9060005260206000200154905092915050565b600061351e838361331c565b613554575081546001818101845560008481526020808220909301849055845484825282860190935260409020919091556106da565b5060006106da565b600061356f826301ffc9a760e01b61358f565b80156106da5750613588826001600160e01b031961358f565b1592915050565b604080516001600160e01b03198316602480830191909152825180830390910181526044909101909152602080820180516001600160e01b03166301ffc9a760e01b178152825160009392849283928392918391908a617530fa92503d91506000519050828015613601575060208210155b801561360d5750600081115b979650505050505050565b600061362c846001600160a01b03166134d9565b1561372157604051630a85bd0160e11b81526001600160a01b0385169063150b7a029061366390339089908890889060040161453c565b602060405180830381600087803b15801561367d57600080fd5b505af19250505080156136ad575060408051601f3d908101601f191682019092526136aa918101906141d7565b60015b613707573d8080156136db576040519150601f19603f3d011682016040523d82523d6000602084013e6136e0565b606091505b5080516136ff5760405162461bcd60e51b8152600401610720906146c1565b805181602001fd5b6001600160e01b031916630a85bd0160e11b14905061237c565b506001949350505050565b6060816137505750506040805180820190915260018152600360fc1b602082015290565b8160005b811561377a578061376481614a9f565b91506137739050600a836149d2565b9150613754565b6000816001600160401b0381111561379457613794614b26565b6040519080825280601f01601f1916602001820160405280156137be576020820181803683370190505b5090505b841561237c576137d3600183614a05565b91506137e0600a86614aba565b6137eb9060306149ba565b60f81b81838151811061380057613800614b10565b60200101906001600160f81b031916908160001a905350613822600a866149d2565b94506137c2565b6000818152601160209081526040808320546001600160a01b03168352601090915290205460ff16156108ff5760008181526011602052604090819020549051638258080560e01b81526001600160a01b039091169063825808059061389790869086908690600401614518565b602060405180830381600087803b1580156138b157600080fd5b505af11580156138c5573d6000803e3d6000fd5b505050506040513d601f19601f820116820180604052508101906138e9919061419d565b6108ff5760405162461bcd60e51b815260206004820152602960248201527f45524337323143726561746f723a20457874656e73696f6e20617070726f76616044820152686c206661696c75726560b81b6064820152608401610720565b613951838361397a565b61395e6000848484613618565b6108ff5760405162461bcd60e51b8152600401610720906146c1565b6001600160a01b0382166139d05760405162461bcd60e51b815260206004820181905260248201527f4552433732313a206d696e7420746f20746865207a65726f20616464726573736044820152606401610720565b6139d9816120a0565b15613a255760405162461bcd60e51b815260206004820152601c60248201527b115490cdcc8c4e881d1bdad95b88185b1c9958591e481b5a5b9d195960221b6044820152606401610720565b613a3160008383613334565b6001600160a01b0382166000908152600760205260408120805460019290613a5a9084906149ba565b909155505060008181526006602052604080822080546001600160a01b0319166001600160a01b0386169081179091559051839290600080516020614b96833981519152908290a45050565b828054613ab290614a48565b90600052602060002090601f016020900481019282613ad45760008555613b1a565b82601f10613aed5782800160ff19823516178555613b1a565b82800160010185558215613b1a579182015b82811115613b1a578235825591602001919060010190613aff565b50610d92929150613c5d565b828054828255906000526020600020908101928215613b1a579160200282015b82811115613b1a5781546001600160a01b0319166001600160a01b03843516178255602090920191600190910190613b46565b828054828255906000526020600020908101928215613b1a5791602002820182811115613b1a578235825591602001919060010190613aff565b828054613bbf90614a48565b90600052602060002090601f016020900481019282613be15760008555613b1a565b82601f10613bfa57805160ff1916838001178555613b1a565b82800160010185558215613b1a579182015b82811115613b1a578251825591602001919060010190613c0c565b508054613c3390614a48565b6000825580601f10613c43575050565b601f01602090049060005260206000209081019061073291905b5b80821115610d925760008155600101613c5e565b60008083601f840112613c8457600080fd5b5081356001600160401b03811115613c9b57600080fd5b6020830191508360208260051b8501011115610b8957600080fd5b60008083601f840112613cc857600080fd5b5081356001600160401b03811115613cdf57600080fd5b602083019150836020828501011115610b8957600080fd5b600060208284031215613d0957600080fd5b8135611f2081614b3c565b60008060408385031215613d2757600080fd5b8235613d3281614b3c565b91506020830135613d4281614b3c565b809150509250929050565b600080600060608486031215613d6257600080fd5b8335613d6d81614b3c565b92506020840135613d7d81614b3c565b929592945050506040919091013590565b60008060008060808587031215613da457600080fd5b8435613daf81614b3c565b93506020850135613dbf81614b3c565b92506040850135915060608501356001600160401b03811115613de157600080fd5b8501601f81018713613df257600080fd5b8035613e05613e0082614993565b614963565b818152886020838501011115613e1a57600080fd5b8160208401602083013760006020838301015280935050505092959194509250565b600080600080600060608688031215613e5457600080fd5b8535613e5f81614b3c565b945060208601356001600160401b0380821115613e7b57600080fd5b613e8789838a01613c72565b90965094506040880135915080821115613ea057600080fd5b50613ead88828901613c72565b969995985093965092949392505050565b600080600060408486031215613ed357600080fd5b8335613ede81614b3c565b925060208401356001600160401b03811115613ef957600080fd5b613f0586828701613c72565b9497909650939450505050565b60008060408385031215613f2557600080fd5b8235613f3081614b3c565b91506020830135613d4281614b51565b600080600060408486031215613f5557600080fd5b8335613f6081614b3c565b925060208401356001600160401b03811115613f7b57600080fd5b613f0586828701613cb6565b60008060008060608587031215613f9d57600080fd5b8435613fa881614b3c565b935060208501356001600160401b03811115613fc357600080fd5b613fcf87828801613cb6565b9094509250506040850135613fe381614b51565b939692955090935050565b6000806040838503121561400157600080fd5b823561400c81614b3c565b9150602083013561ffff81168114613d4257600080fd5b6000806040838503121561403657600080fd5b823561404181614b3c565b946020939093013593505050565b6000806000806040858703121561406557600080fd5b84356001600160401b038082111561407c57600080fd5b61408888838901613c72565b909650945060208701359150808211156140a157600080fd5b506140ae87828801613c72565b95989497509550505050565b6000806000604084860312156140cf57600080fd5b83356001600160401b03808211156140e657600080fd5b818601915086601f8301126140fa57600080fd5b813560208282111561410e5761410e614b26565b8160051b61411d828201614963565b8381528281019086840183880185018d101561413857600080fd5b600097505b8588101561415b57803583526001979097019691840191840161413d565b50985050508701359250508082111561417357600080fd5b50613f0586828701613c72565b60006020828403121561419257600080fd5b8135611f2081614b51565b6000602082840312156141af57600080fd5b8151611f2081614b51565b6000602082840312156141cc57600080fd5b8135611f2081614b5f565b6000602082840312156141e957600080fd5b8151611f2081614b5f565b6000806020838503121561420757600080fd5b82356001600160401b0381111561421d57600080fd5b61422985828601613cb6565b90969095509350505050565b60008060006040848603121561424a57600080fd5b83356001600160401b0381111561426057600080fd5b61426c86828701613cb6565b909450925050602084013561428081614b51565b809150509250925092565b60006020828403121561429d57600080fd5b81516001600160401b038111156142b357600080fd5b8201601f810184136142c457600080fd5b80516142d2613e0082614993565b8181528560208385010111156142e757600080fd5b6142f8826020830160208601614a1c565b95945050505050565b60006020828403121561431357600080fd5b5035919050565b60008060008060006060868803121561433257600080fd5b8535945060208601356001600160401b0380821115613e7b57600080fd5b60008060006040848603121561436557600080fd5b8335925060208401356001600160401b03811115613f7b57600080fd5b6000806040838503121561439557600080fd5b50508035926020909101359150565b600081518084526020808501945080840160005b838110156143dd5781516001600160a01b0316875295820195908201906001016143b8565b509495945050505050565b600081518084526020808501945080840160005b838110156143dd578151875295820195908201906001016143fc565b60008151808452614430816020860160208601614a1c565b601f01601f19169290920160200192915050565b8054600090600181811c908083168061445e57607f831692505b602080841082141561448057634e487b7160e01b600052602260045260246000fd5b81801561449457600181146144a5576144d2565b60ff198616895284890196506144d2565b60008881526020902060005b868110156144ca5781548b8201529085019083016144b1565b505084890196505b50505050505092915050565b60006144ea8285614444565b83516144fa818360208801614a1c565b01949350505050565b600061237c6145128386614444565b84614444565b6001600160a01b039384168152919092166020820152604081019190915260600190565b6001600160a01b038581168252841660208201526040810183905260806060820181905260009061456f90830184614418565b9695505050505050565b6001600160a01b03929092168252602082015260400190565b6020808252825182820181905260009190848201906040850190845b818110156145d35783516001600160a01b0316835292840192918401916001016145ae565b50909695505050505050565b6040808252810184905260008560608301825b8781101561462257823561460581614b3c565b6001600160a01b03168252602092830192909101906001016145f2565b5083810360208501528481526001600160fb1b0385111561464257600080fd5b8460051b915081866020830137600091016020019081529695505050505050565b602081526000611f2060208301846143a4565b60408152600061468960408301856143a4565b82810360208401526142f881856143e8565b602081526000611f2060208301846143e8565b602081526000611f206020830184614418565b60208082526032908201527f4552433732313a207472616e7366657220746f206e6f6e20455243373231526560408201527131b2b4bb32b91034b6b83632b6b2b73a32b960711b606082015260800190565b602080825260159082015274115e1d195b9cda5bdb88189b1858dadb1a5cdd1959605a1b604082015260600190565b6020808252600d908201526c24b73b30b634b2103a37b5b2b760991b604082015260600190565b6020808252601c908201527b26bab9ba103132903932b3b4b9ba32b932b21032bc3a32b739b4b7b760211b604082015260600190565b6020808252601190820152702737b732bc34b9ba32b73a103a37b5b2b760791b604082015260600190565b6020808252600d908201526c125b9d985b1a59081a5b9c1d5d609a1b604082015260600190565b602080825260189082015277115490cdcc8c4e881a5b9d985b1a59081d1bdad95b88125160421b604082015260600190565b602080825260179082015276496e76616c696420746f74616c20726f79616c7469657360481b604082015260600190565b60208082526024908201527f41646d696e436f6e74726f6c3a204d757374206265206f776e6572206f7220616040820152633236b4b760e11b606082015260800190565b6020808252602e908201527f4552433732313a2063616c6c6572206973206e6f7420746f6b656e206f776e6560408201526d1c881b9bdc88185c1c1c9bdd995960921b606082015260800190565b6020808252601f908201527f5265656e7472616e637947756172643a207265656e7472616e742063616c6c00604082015260600190565b6000808335601e1984360301811261493457600080fd5b8301803591506001600160401b0382111561494e57600080fd5b602001915036819003821315610b8957600080fd5b604051601f8201601f191681016001600160401b038111828210171561498b5761498b614b26565b604052919050565b60006001600160401b038211156149ac576149ac614b26565b50601f01601f191660200190565b600082198211156149cd576149cd614ace565b500190565b6000826149e1576149e1614ae4565b500490565b6000816000190483118215151615614a0057614a00614ace565b500290565b600082821015614a1757614a17614ace565b500390565b60005b83811015614a37578181015183820152602001614a1f565b83811115610ce25750506000910152565b600181811c90821680614a5c57607f821691505b6020821081141561310c57634e487b7160e01b600052602260045260246000fd5b600061ffff80831681811415614a9557614a95614ace565b6001019392505050565b6000600019821415614ab357614ab3614ace565b5060010190565b600082614ac957614ac9614ae4565b500690565b634e487b7160e01b600052601160045260246000fd5b634e487b7160e01b600052601260045260246000fd5b634e487b7160e01b600052603160045260246000fd5b634e487b7160e01b600052603260045260246000fd5b634e487b7160e01b600052604160045260246000fd5b6001600160a01b038116811461073257600080fd5b801515811461073257600080fd5b6001600160e01b03198116811461073257600080fdfed19cf84cf0fec6bec9ddfa29c63adf83a55707c712f32c8285d6180a78901479ddf252ad1be2c89b69c2b068fc378daa952ba7f163c4a11628f55a4df523b3efa2646970667358221220ff4697a9c2e22318c9f151ae3bb89f0316eceabf178375f6cf0fe2f5d6aa21c864736f6c63430008070033","opcodes":"PUSH1 0x80 PUSH1 0x40 MSTORE PUSH1 0x0 PUSH1 0xA SSTORE CALLVALUE DUP1 ISZERO PUSH3 0x16 JUMPI PUSH1 0x0 DUP1 REVERT JUMPDEST POP PUSH1 0x40 MLOAD PUSH3 0x4EE5 CODESIZE SUB DUP1 PUSH3 0x4EE5 DUP4 CODECOPY DUP2 ADD PUSH1 0x40 DUP2 SWAP1 MSTORE PUSH3 0x39 SWAP2 PUSH3 0x22D JUMP JUMPDEST DUP2 DUP2 PUSH3 0x46 CALLER PUSH3 0x80 JUMP JUMPDEST PUSH1 0x1 DUP1 SSTORE DUP2 MLOAD PUSH3 0x5F SWAP1 PUSH1 0x4 SWAP1 PUSH1 0x20 DUP6 ADD SWAP1 PUSH3 0xD0 JUMP JUMPDEST POP DUP1 MLOAD PUSH3 0x75 SWAP1 PUSH1 0x5 SWAP1 PUSH1 0x20 DUP5 ADD SWAP1 PUSH3 0xD0 JUMP JUMPDEST POP POP POP POP POP PUSH3 0x2EA JUMP JUMPDEST PUSH1 0x0 DUP1 SLOAD PUSH1 0x1 PUSH1 0x1 PUSH1 0xA0 SHL SUB DUP4 DUP2 AND PUSH1 0x1 PUSH1 0x1 PUSH1 0xA0 SHL SUB NOT DUP4 AND DUP2 OR DUP5 SSTORE PUSH1 0x40 MLOAD SWAP2 SWAP1 SWAP3 AND SWAP3 DUP4 SWAP2 PUSH32 0x8BE0079C531659141344CD1FD0A4F28419497F9722A3DAAFE3B4186F6B6457E0 SWAP2 SWAP1 LOG3 POP POP JUMP JUMPDEST DUP3 DUP1 SLOAD PUSH3 0xDE SWAP1 PUSH3 0x297 JUMP JUMPDEST SWAP1 PUSH1 0x0 MSTORE PUSH1 0x20 PUSH1 0x0 KECCAK256 SWAP1 PUSH1 0x1F ADD PUSH1 0x20 SWAP1 DIV DUP2 ADD SWAP3 DUP3 PUSH3 0x102 JUMPI PUSH1 0x0 DUP6 SSTORE PUSH3 0x14D JUMP JUMPDEST DUP3 PUSH1 0x1F LT PUSH3 0x11D JUMPI DUP1 MLOAD PUSH1 0xFF NOT AND DUP4 DUP1 ADD OR DUP6 SSTORE PUSH3 0x14D JUMP JUMPDEST DUP3 DUP1 ADD PUSH1 0x1 ADD DUP6 SSTORE DUP3 ISZERO PUSH3 0x14D JUMPI SWAP2 DUP3 ADD JUMPDEST DUP3 DUP2 GT ISZERO PUSH3 0x14D JUMPI DUP3 MLOAD DUP3 SSTORE SWAP2 PUSH1 0x20 ADD SWAP2 SWAP1 PUSH1 0x1 ADD SWAP1 PUSH3 0x130 JUMP JUMPDEST POP PUSH3 0x15B SWAP3 SWAP2 POP PUSH3 0x15F JUMP JUMPDEST POP SWAP1 JUMP JUMPDEST JUMPDEST DUP1 DUP3 GT ISZERO PUSH3 0x15B JUMPI PUSH1 0x0 DUP2 SSTORE PUSH1 0x1 ADD PUSH3 0x160 JUMP JUMPDEST PUSH1 0x0 DUP3 PUSH1 0x1F DUP4 ADD SLT PUSH3 0x188 JUMPI PUSH1 0x0 DUP1 REVERT JUMPDEST DUP2 MLOAD PUSH1 0x1 PUSH1 0x1 PUSH1 0x40 SHL SUB DUP1 DUP3 GT ISZERO PUSH3 0x1A5 JUMPI PUSH3 0x1A5 PUSH3 0x2D4 JUMP JUMPDEST PUSH1 0x40 MLOAD PUSH1 0x1F DUP4 ADD PUSH1 0x1F NOT SWAP1 DUP2 AND PUSH1 0x3F ADD AND DUP2 ADD SWAP1 DUP3 DUP3 GT DUP2 DUP4 LT OR ISZERO PUSH3 0x1D0 JUMPI PUSH3 0x1D0 PUSH3 0x2D4 JUMP JUMPDEST DUP2 PUSH1 0x40 MSTORE DUP4 DUP2 MSTORE PUSH1 0x20 SWAP3 POP DUP7 DUP4 DUP6 DUP9 ADD ADD GT ISZERO PUSH3 0x1ED JUMPI PUSH1 0x0 DUP1 REVERT JUMPDEST PUSH1 0x0 SWAP2 POP JUMPDEST DUP4 DUP3 LT ISZERO PUSH3 0x211 JUMPI DUP6 DUP3 ADD DUP4 ADD MLOAD DUP2 DUP4 ADD DUP5 ADD MSTORE SWAP1 DUP3 ADD SWAP1 PUSH3 0x1F2 JUMP JUMPDEST DUP4 DUP3 GT ISZERO PUSH3 0x223 JUMPI PUSH1 0x0 DUP4 DUP6 DUP4 ADD ADD MSTORE JUMPDEST SWAP7 SWAP6 POP POP POP POP POP POP JUMP JUMPDEST PUSH1 0x0 DUP1 PUSH1 0x40 DUP4 DUP6 SUB SLT ISZERO PUSH3 0x241 JUMPI PUSH1 0x0 DUP1 REVERT JUMPDEST DUP3 MLOAD PUSH1 0x1 PUSH1 0x1 PUSH1 0x40 SHL SUB DUP1 DUP3 GT ISZERO PUSH3 0x259 JUMPI PUSH1 0x0 DUP1 REVERT JUMPDEST PUSH3 0x267 DUP7 DUP4 DUP8 ADD PUSH3 0x176 JUMP JUMPDEST SWAP4 POP PUSH1 0x20 DUP6 ADD MLOAD SWAP2 POP DUP1 DUP3 GT ISZERO PUSH3 0x27E JUMPI PUSH1 0x0 DUP1 REVERT JUMPDEST POP PUSH3 0x28D DUP6 DUP3 DUP7 ADD PUSH3 0x176 JUMP JUMPDEST SWAP2 POP POP SWAP3 POP SWAP3 SWAP1 POP JUMP JUMPDEST PUSH1 0x1 DUP2 DUP2 SHR SWAP1 DUP3 AND DUP1 PUSH3 0x2AC JUMPI PUSH1 0x7F DUP3 AND SWAP2 POP JUMPDEST PUSH1 0x20 DUP3 LT DUP2 EQ ISZERO PUSH3 0x2CE JUMPI PUSH4 0x4E487B71 PUSH1 0xE0 SHL PUSH1 0x0 MSTORE PUSH1 0x22 PUSH1 0x4 MSTORE PUSH1 0x24 PUSH1 0x0 REVERT JUMPDEST POP SWAP2 SWAP1 POP JUMP JUMPDEST PUSH4 0x4E487B71 PUSH1 0xE0 SHL PUSH1 0x0 MSTORE PUSH1 0x41 PUSH1 0x4 MSTORE PUSH1 0x24 PUSH1 0x0 REVERT JUMPDEST PUSH2 0x4BEB DUP1 PUSH3 0x2FA PUSH1 0x0 CODECOPY PUSH1 0x0 RETURN INVALID PUSH1 0x80 PUSH1 0x40 MSTORE CALLVALUE DUP1 ISZERO PUSH2 0x10 JUMPI PUSH1 0x0 DUP1 REVERT JUMPDEST POP PUSH1 0x4 CALLDATASIZE LT PUSH2 0x272 JUMPI PUSH1 0x0 CALLDATALOAD PUSH1 0xE0 SHR DUP1 PUSH4 0x1FFC9A7 EQ PUSH2 0x277 JUMPI DUP1 PUSH4 0x2E7AFB7 EQ PUSH2 0x29F JUMPI DUP1 PUSH4 0x6FDDE03 EQ PUSH2 0x2B4 JUMPI DUP1 PUSH4 0x81812FC EQ PUSH2 0x2C9 JUMPI DUP1 PUSH4 0x95EA7B3 EQ PUSH2 0x2F4 JUMPI DUP1 PUSH4 0xEBD4C7F EQ PUSH2 0x307 JUMPI DUP1 PUSH4 0x162094C4 EQ PUSH2 0x327 JUMPI DUP1 PUSH4 0x20E4AFE2 EQ PUSH2 0x33A JUMPI DUP1 PUSH4 0x239BE317 EQ PUSH2 0x34D JUMPI DUP1 PUSH4 0x23B872DD EQ PUSH2 0x360 JUMPI DUP1 PUSH4 0x24D7806C EQ PUSH2 0x373 JUMPI DUP1 PUSH4 0x2928CA58 EQ PUSH2 0x386 JUMPI DUP1 PUSH4 0x2A55205A EQ PUSH2 0x3A7 JUMPI DUP1 PUSH4 0x2D345670 EQ PUSH2 0x3C8 JUMPI DUP1 PUSH4 0x30176E13 EQ PUSH2 0x3DB JUMPI DUP1 PUSH4 0x3071A0F9 EQ PUSH2 0x3EE JUMPI DUP1 PUSH4 0x31AE450B EQ PUSH2 0x401 JUMPI DUP1 PUSH4 0x332DD1AE EQ PUSH2 0x416 JUMPI DUP1 PUSH4 0x38E52E78 EQ PUSH2 0x429 JUMPI DUP1 PUSH4 0x3E6134B8 EQ PUSH2 0x43C JUMPI DUP1 PUSH4 0x3F0F37F6 EQ PUSH2 0x44F JUMPI DUP1 PUSH4 0x42842E0E EQ PUSH2 0x462 JUMPI DUP1 PUSH4 0x42966C68 EQ PUSH2 0x475 JUMPI DUP1 PUSH4 0x61E5BC6B EQ PUSH2 0x488 JUMPI DUP1 PUSH4 0x6352211E EQ PUSH2 0x49B JUMPI DUP1 PUSH4 0x66D1E9D0 EQ PUSH2 0x4AE JUMPI DUP1 PUSH4 0x6D73E669 EQ PUSH2 0x4C1 JUMPI DUP1 PUSH4 0x70A08231 EQ PUSH2 0x4D4 JUMPI DUP1 PUSH4 0x715018A6 EQ PUSH2 0x4E7 JUMPI DUP1 PUSH4 0x72FF03D3 EQ PUSH2 0x4EF JUMPI DUP1 PUSH4 0x7884AF44 EQ PUSH2 0x502 JUMPI DUP1 PUSH4 0x7AA15F16 EQ PUSH2 0x515 JUMPI DUP1 PUSH4 0x82DCC0C8 EQ PUSH2 0x528 JUMPI DUP1 PUSH4 0x83B7DB63 EQ PUSH2 0x53B JUMPI DUP1 PUSH4 0x8DA5CB5B EQ PUSH2 0x543 JUMPI DUP1 PUSH4 0x95D89B41 EQ PUSH2 0x54B JUMPI DUP1 PUSH4 0x99E0DD7C EQ PUSH2 0x553 JUMPI DUP1 PUSH4 0xA22CB465 EQ PUSH2 0x566 JUMPI DUP1 PUSH4 0xAAFB2D44 EQ PUSH2 0x579 JUMPI DUP1 PUSH4 0xAC0C8CFA EQ PUSH2 0x58C JUMPI DUP1 PUSH4 0xAD2D0DDD EQ PUSH2 0x59F JUMPI DUP1 PUSH4 0xB0FE87C9 EQ PUSH2 0x5B2 JUMPI DUP1 PUSH4 0xB88D4FDE EQ PUSH2 0x5C5 JUMPI DUP1 PUSH4 0xB9C4D9FB EQ PUSH2 0x5D8 JUMPI DUP1 PUSH4 0xBB3BAFD6 EQ PUSH2 0x5F8 JUMPI DUP1 PUSH4 0xC87B56DD EQ PUSH2 0x619 JUMPI DUP1 PUSH4 0xCE8AEE9D EQ PUSH2 0x62C JUMPI DUP1 PUSH4 0xD5A06D4C EQ PUSH2 0x5F8 JUMPI DUP1 PUSH4 0xE00AAB4B EQ PUSH2 0x63F JUMPI DUP1 PUSH4 0xE92A89F6 EQ PUSH2 0x652 JUMPI DUP1 PUSH4 0xE985E9C5 EQ PUSH2 0x665 JUMPI DUP1 PUSH4 0xF0CDC499 EQ PUSH2 0x678 JUMPI DUP1 PUSH4 0xF2FDE38B EQ PUSH2 0x68B JUMPI DUP1 PUSH4 0xFE2E1F58 EQ PUSH2 0x69E JUMPI JUMPDEST PUSH1 0x0 DUP1 REVERT JUMPDEST PUSH2 0x28A PUSH2 0x285 CALLDATASIZE PUSH1 0x4 PUSH2 0x41BA JUMP JUMPDEST PUSH2 0x6B1 JUMP JUMPDEST PUSH1 0x40 MLOAD SWAP1 ISZERO ISZERO DUP2 MSTORE PUSH1 0x20 ADD JUMPDEST PUSH1 0x40 MLOAD DUP1 SWAP2 SUB SWAP1 RETURN JUMPDEST PUSH2 0x2B2 PUSH2 0x2AD CALLDATASIZE PUSH1 0x4 PUSH2 0x3CF7 JUMP JUMPDEST PUSH2 0x6E0 JUMP JUMPDEST STOP JUMPDEST PUSH2 0x2BC PUSH2 0x735 JUMP JUMPDEST PUSH1 0x40 MLOAD PUSH2 0x296 SWAP2 SWAP1 PUSH2 0x46AE JUMP JUMPDEST PUSH2 0x2DC PUSH2 0x2D7 CALLDATASIZE PUSH1 0x4 PUSH2 0x4301 JUMP JUMPDEST PUSH2 0x7C7 JUMP JUMPDEST PUSH1 0x40 MLOAD PUSH1 0x1 PUSH1 0x1 PUSH1 0xA0 SHL SUB SWAP1 SWAP2 AND DUP2 MSTORE PUSH1 0x20 ADD PUSH2 0x296 JUMP JUMPDEST PUSH2 0x2B2 PUSH2 0x302 CALLDATASIZE PUSH1 0x4 PUSH2 0x4023 JUMP JUMPDEST PUSH2 0x7EE JUMP JUMPDEST PUSH2 0x31A PUSH2 0x315 CALLDATASIZE PUSH1 0x4 PUSH2 0x4301 JUMP JUMPDEST PUSH2 0x904 JUMP JUMPDEST PUSH1 0x40 MLOAD PUSH2 0x296 SWAP2 SWAP1 PUSH2 0x469B JUMP JUMPDEST PUSH2 0x2B2 PUSH2 0x335 CALLDATASIZE PUSH1 0x4 PUSH2 0x4350 JUMP JUMPDEST PUSH2 0x98A JUMP JUMPDEST PUSH2 0x2B2 PUSH2 0x348 CALLDATASIZE PUSH1 0x4 PUSH2 0x431A JUMP JUMPDEST PUSH2 0x9D5 JUMP JUMPDEST PUSH2 0x2DC PUSH2 0x35B CALLDATASIZE PUSH1 0x4 PUSH2 0x4301 JUMP JUMPDEST PUSH2 0xA4E JUMP JUMPDEST PUSH2 0x2B2 PUSH2 0x36E CALLDATASIZE PUSH1 0x4 PUSH2 0x3D4D JUMP JUMPDEST PUSH2 0xA7E JUMP JUMPDEST PUSH2 0x28A PUSH2 0x381 CALLDATASIZE PUSH1 0x4 PUSH2 0x3CF7 JUMP JUMPDEST PUSH2 0xAAF JUMP JUMPDEST PUSH2 0x399 PUSH2 0x394 CALLDATASIZE PUSH1 0x4 PUSH2 0x3CF7 JUMP JUMPDEST PUSH2 0xADE JUMP JUMPDEST PUSH1 0x40 MLOAD SWAP1 DUP2 MSTORE PUSH1 0x20 ADD PUSH2 0x296 JUMP JUMPDEST PUSH2 0x3BA PUSH2 0x3B5 CALLDATASIZE PUSH1 0x4 PUSH2 0x4382 JUMP JUMPDEST PUSH2 0xB52 JUMP JUMPDEST PUSH1 0x40 MLOAD PUSH2 0x296 SWAP3 SWAP2 SWAP1 PUSH2 0x4579 JUMP JUMPDEST PUSH2 0x2B2 PUSH2 0x3D6 CALLDATASIZE PUSH1 0x4 PUSH2 0x3CF7 JUMP JUMPDEST PUSH2 0xB90 JUMP JUMPDEST PUSH2 0x2B2 PUSH2 0x3E9 CALLDATASIZE PUSH1 0x4 PUSH2 0x41F4 JUMP JUMPDEST PUSH2 0xBED JUMP JUMPDEST PUSH2 0x2B2 PUSH2 0x3FC CALLDATASIZE PUSH1 0x4 PUSH2 0x3F40 JUMP JUMPDEST PUSH2 0xC6C JUMP JUMPDEST PUSH2 0x409 PUSH2 0xCE8 JUMP JUMPDEST PUSH1 0x40 MLOAD PUSH2 0x296 SWAP2 SWAP1 PUSH2 0x4592 JUMP JUMPDEST PUSH2 0x2B2 PUSH2 0x424 CALLDATASIZE PUSH1 0x4 PUSH2 0x404F JUMP JUMPDEST PUSH2 0xD96 JUMP JUMPDEST PUSH2 0x31A PUSH2 0x437 CALLDATASIZE PUSH1 0x4 PUSH2 0x3EBE JUMP JUMPDEST PUSH2 0xDE3 JUMP JUMPDEST PUSH2 0x2B2 PUSH2 0x44A CALLDATASIZE PUSH1 0x4 PUSH2 0x41F4 JUMP JUMPDEST PUSH2 0xF20 JUMP JUMPDEST PUSH2 0x2B2 PUSH2 0x45D CALLDATASIZE PUSH1 0x4 PUSH2 0x3F87 JUMP JUMPDEST PUSH2 0xF53 JUMP JUMPDEST PUSH2 0x2B2 PUSH2 0x470 CALLDATASIZE PUSH1 0x4 PUSH2 0x3D4D JUMP JUMPDEST PUSH2 0xFC8 JUMP JUMPDEST PUSH2 0x2B2 PUSH2 0x483 CALLDATASIZE PUSH1 0x4 PUSH2 0x4301 JUMP JUMPDEST PUSH2 0xFE3 JUMP JUMPDEST PUSH2 0x2B2 PUSH2 0x496 CALLDATASIZE PUSH1 0x4 PUSH2 0x40BA JUMP JUMPDEST PUSH2 0x1089 JUMP JUMPDEST PUSH2 0x2DC PUSH2 0x4A9 CALLDATASIZE PUSH1 0x4 PUSH2 0x4301 JUMP JUMPDEST PUSH2 0x1134 JUMP JUMPDEST PUSH2 0x2B2 PUSH2 0x4BC CALLDATASIZE PUSH1 0x4 PUSH2 0x41F4 JUMP JUMPDEST PUSH2 0x1169 JUMP JUMPDEST PUSH2 0x2B2 PUSH2 0x4CF CALLDATASIZE PUSH1 0x4 PUSH2 0x3CF7 JUMP JUMPDEST PUSH2 0x119A JUMP JUMPDEST PUSH2 0x399 PUSH2 0x4E2 CALLDATASIZE PUSH1 0x4 PUSH2 0x3CF7 JUMP JUMPDEST PUSH2 0x11F2 JUMP JUMPDEST PUSH2 0x2B2 PUSH2 0x1278 JUMP JUMPDEST PUSH2 0x399 PUSH2 0x4FD CALLDATASIZE PUSH1 0x4 PUSH2 0x3CF7 JUMP JUMPDEST PUSH2 0x128C JUMP JUMPDEST PUSH2 0x399 PUSH2 0x510 CALLDATASIZE PUSH1 0x4 PUSH2 0x3F40 JUMP JUMPDEST PUSH2 0x130F JUMP JUMPDEST PUSH2 0x31A PUSH2 0x523 CALLDATASIZE PUSH1 0x4 PUSH2 0x3EBE JUMP JUMPDEST PUSH2 0x13C5 JUMP JUMPDEST PUSH2 0x2B2 PUSH2 0x536 CALLDATASIZE PUSH1 0x4 PUSH2 0x4235 JUMP JUMPDEST PUSH2 0x150F JUMP JUMPDEST PUSH2 0x409 PUSH2 0x1541 JUMP JUMPDEST PUSH2 0x2DC PUSH2 0x15EB JUMP JUMPDEST PUSH2 0x2BC PUSH2 0x15FA JUMP JUMPDEST PUSH2 0x2B2 PUSH2 0x561 CALLDATASIZE PUSH1 0x4 PUSH2 0x41F4 JUMP JUMPDEST PUSH2 0x1609 JUMP JUMPDEST PUSH2 0x2B2 PUSH2 0x574 CALLDATASIZE PUSH1 0x4 PUSH2 0x3F12 JUMP JUMPDEST PUSH2 0x1653 JUMP JUMPDEST PUSH2 0x2B2 PUSH2 0x587 CALLDATASIZE PUSH1 0x4 PUSH2 0x40BA JUMP JUMPDEST PUSH2 0x165E JUMP JUMPDEST PUSH2 0x2B2 PUSH2 0x59A CALLDATASIZE PUSH1 0x4 PUSH2 0x4180 JUMP JUMPDEST PUSH2 0x1722 JUMP JUMPDEST PUSH2 0x31A PUSH2 0x5AD CALLDATASIZE PUSH1 0x4 PUSH2 0x3FEE JUMP JUMPDEST PUSH2 0x1846 JUMP JUMPDEST PUSH2 0x2B2 PUSH2 0x5C0 CALLDATASIZE PUSH1 0x4 PUSH2 0x3E3C JUMP JUMPDEST PUSH2 0x1962 JUMP JUMPDEST PUSH2 0x2B2 PUSH2 0x5D3 CALLDATASIZE PUSH1 0x4 PUSH2 0x3D8E JUMP JUMPDEST PUSH2 0x19AF JUMP JUMPDEST PUSH2 0x5EB PUSH2 0x5E6 CALLDATASIZE PUSH1 0x4 PUSH2 0x4301 JUMP JUMPDEST PUSH2 0x19E1 JUMP JUMPDEST PUSH1 0x40 MLOAD PUSH2 0x296 SWAP2 SWAP1 PUSH2 0x4663 JUMP JUMPDEST PUSH2 0x60B PUSH2 0x606 CALLDATASIZE PUSH1 0x4 PUSH2 0x4301 JUMP JUMPDEST PUSH2 0x1A70 JUMP JUMPDEST PUSH1 0x40 MLOAD PUSH2 0x296 SWAP3 SWAP2 SWAP1 PUSH2 0x4676 JUMP JUMPDEST PUSH2 0x2BC PUSH2 0x627 CALLDATASIZE PUSH1 0x4 PUSH2 0x4301 JUMP JUMPDEST PUSH2 0x1B54 JUMP JUMPDEST PUSH2 0x2B2 PUSH2 0x63A CALLDATASIZE PUSH1 0x4 PUSH2 0x3CF7 JUMP JUMPDEST PUSH2 0x1B84 JUMP JUMPDEST PUSH2 0x31A PUSH2 0x64D CALLDATASIZE PUSH1 0x4 PUSH2 0x3FEE JUMP JUMPDEST PUSH2 0x1BCD JUMP JUMPDEST PUSH2 0x2B2 PUSH2 0x660 CALLDATASIZE PUSH1 0x4 PUSH2 0x4350 JUMP JUMPDEST PUSH2 0x1CC5 JUMP JUMPDEST PUSH2 0x28A PUSH2 0x673 CALLDATASIZE PUSH1 0x4 PUSH2 0x3D14 JUMP JUMPDEST PUSH2 0x1CF7 JUMP JUMPDEST PUSH2 0x2B2 PUSH2 0x686 CALLDATASIZE PUSH1 0x4 PUSH2 0x3D14 JUMP JUMPDEST PUSH2 0x1D25 JUMP JUMPDEST PUSH2 0x2B2 PUSH2 0x699 CALLDATASIZE PUSH1 0x4 PUSH2 0x3CF7 JUMP JUMPDEST PUSH2 0x1D6F JUMP JUMPDEST PUSH2 0x399 PUSH2 0x6AC CALLDATASIZE PUSH1 0x4 PUSH2 0x3F40 JUMP JUMPDEST PUSH2 0x1DE5 JUMP JUMPDEST PUSH1 0x0 PUSH2 0x6BC DUP3 PUSH2 0x1E76 JUMP JUMPDEST DUP1 PUSH2 0x6CB JUMPI POP PUSH2 0x6CB DUP3 PUSH2 0x1E9B JUMP JUMPDEST DUP1 PUSH2 0x6DA JUMPI POP PUSH2 0x6DA DUP3 PUSH2 0x1ED6 JUMP JUMPDEST SWAP3 SWAP2 POP POP JUMP JUMPDEST CALLER PUSH2 0x6E9 PUSH2 0x15EB JUMP JUMPDEST PUSH1 0x1 PUSH1 0x1 PUSH1 0xA0 SHL SUB AND EQ DUP1 PUSH2 0x704 JUMPI POP PUSH2 0x704 PUSH1 0x2 CALLER PUSH2 0x1F0B JUMP JUMPDEST PUSH2 0x729 JUMPI PUSH1 0x40 MLOAD PUSH3 0x461BCD PUSH1 0xE5 SHL DUP2 MSTORE PUSH1 0x4 ADD PUSH2 0x720 SWAP1 PUSH2 0x4854 JUMP JUMPDEST PUSH1 0x40 MLOAD DUP1 SWAP2 SUB SWAP1 REVERT JUMPDEST PUSH2 0x732 DUP2 PUSH2 0x1F27 JUMP JUMPDEST POP JUMP JUMPDEST PUSH1 0x60 PUSH1 0x4 DUP1 SLOAD PUSH2 0x744 SWAP1 PUSH2 0x4A48 JUMP JUMPDEST DUP1 PUSH1 0x1F ADD PUSH1 0x20 DUP1 SWAP2 DIV MUL PUSH1 0x20 ADD PUSH1 0x40 MLOAD SWAP1 DUP2 ADD PUSH1 0x40 MSTORE DUP1 SWAP3 SWAP2 SWAP1 DUP2 DUP2 MSTORE PUSH1 0x20 ADD DUP3 DUP1 SLOAD PUSH2 0x770 SWAP1 PUSH2 0x4A48 JUMP JUMPDEST DUP1 ISZERO PUSH2 0x7BD JUMPI DUP1 PUSH1 0x1F LT PUSH2 0x792 JUMPI PUSH2 0x100 DUP1 DUP4 SLOAD DIV MUL DUP4 MSTORE SWAP2 PUSH1 0x20 ADD SWAP2 PUSH2 0x7BD JUMP JUMPDEST DUP3 ADD SWAP2 SWAP1 PUSH1 0x0 MSTORE PUSH1 0x20 PUSH1 0x0 KECCAK256 SWAP1 JUMPDEST DUP2 SLOAD DUP2 MSTORE SWAP1 PUSH1 0x1 ADD SWAP1 PUSH1 0x20 ADD DUP1 DUP4 GT PUSH2 0x7A0 JUMPI DUP3 SWAP1 SUB PUSH1 0x1F AND DUP3 ADD SWAP2 JUMPDEST POP POP POP POP POP SWAP1 POP SWAP1 JUMP JUMPDEST PUSH1 0x0 PUSH2 0x7D2 DUP3 PUSH2 0x200D JUMP JUMPDEST POP PUSH1 0x0 SWAP1 DUP2 MSTORE PUSH1 0x8 PUSH1 0x20 MSTORE PUSH1 0x40 SWAP1 KECCAK256 SLOAD PUSH1 0x1 PUSH1 0x1 PUSH1 0xA0 SHL SUB AND SWAP1 JUMP JUMPDEST PUSH1 0x0 PUSH2 0x7F9 DUP3 PUSH2 0x1134 JUMP JUMPDEST SWAP1 POP DUP1 PUSH1 0x1 PUSH1 0x1 PUSH1 0xA0 SHL SUB AND DUP4 PUSH1 0x1 PUSH1 0x1 PUSH1 0xA0 SHL SUB AND EQ ISZERO PUSH2 0x867 JUMPI PUSH1 0x40 MLOAD PUSH3 0x461BCD PUSH1 0xE5 SHL DUP2 MSTORE PUSH1 0x20 PUSH1 0x4 DUP3 ADD MSTORE PUSH1 0x21 PUSH1 0x24 DUP3 ADD MSTORE PUSH32 0x4552433732313A20617070726F76616C20746F2063757272656E74206F776E65 PUSH1 0x44 DUP3 ADD MSTORE PUSH1 0x39 PUSH1 0xF9 SHL PUSH1 0x64 DUP3 ADD MSTORE PUSH1 0x84 ADD PUSH2 0x720 JUMP JUMPDEST CALLER PUSH1 0x1 PUSH1 0x1 PUSH1 0xA0 SHL SUB DUP3 AND EQ DUP1 PUSH2 0x883 JUMPI POP PUSH2 0x883 DUP2 CALLER PUSH2 0x1CF7 JUMP JUMPDEST PUSH2 0x8F5 JUMPI PUSH1 0x40 MLOAD PUSH3 0x461BCD PUSH1 0xE5 SHL DUP2 MSTORE PUSH1 0x20 PUSH1 0x4 DUP3 ADD MSTORE PUSH1 0x3E PUSH1 0x24 DUP3 ADD MSTORE PUSH32 0x4552433732313A20617070726F76652063616C6C6572206973206E6F7420746F PUSH1 0x44 DUP3 ADD MSTORE PUSH32 0x6B656E206F776E6572206E6F7220617070726F76656420666F7220616C6C0000 PUSH1 0x64 DUP3 ADD MSTORE PUSH1 0x84 ADD PUSH2 0x720 JUMP JUMPDEST PUSH2 0x8FF DUP4 DUP4 PUSH2 0x2032 JUMP JUMPDEST POP POP POP JUMP JUMPDEST PUSH1 0x60 PUSH2 0x90F DUP3 PUSH2 0x20A0 JUMP JUMPDEST PUSH2 0x92B JUMPI PUSH1 0x40 MLOAD PUSH3 0x461BCD PUSH1 0xE5 SHL DUP2 MSTORE PUSH1 0x4 ADD PUSH2 0x720 SWAP1 PUSH2 0x479F JUMP JUMPDEST PUSH2 0x934 DUP3 PUSH2 0x20BD JUMP JUMPDEST DUP1 SLOAD DUP1 PUSH1 0x20 MUL PUSH1 0x20 ADD PUSH1 0x40 MLOAD SWAP1 DUP2 ADD PUSH1 0x40 MSTORE DUP1 SWAP3 SWAP2 SWAP1 DUP2 DUP2 MSTORE PUSH1 0x20 ADD DUP3 DUP1 SLOAD DUP1 ISZERO PUSH2 0x97E JUMPI PUSH1 0x20 MUL DUP3 ADD SWAP2 SWAP1 PUSH1 0x0 MSTORE PUSH1 0x20 PUSH1 0x0 KECCAK256 SWAP1 JUMPDEST DUP2 SLOAD DUP2 MSTORE PUSH1 0x20 ADD SWAP1 PUSH1 0x1 ADD SWAP1 DUP1 DUP4 GT PUSH2 0x96A JUMPI JUMPDEST POP POP POP POP POP SWAP1 POP SWAP2 SWAP1 POP JUMP JUMPDEST CALLER PUSH2 0x993 PUSH2 0x15EB JUMP JUMPDEST PUSH1 0x1 PUSH1 0x1 PUSH1 0xA0 SHL SUB AND EQ DUP1 PUSH2 0x9AE JUMPI POP PUSH2 0x9AE PUSH1 0x2 CALLER PUSH2 0x1F0B JUMP JUMPDEST PUSH2 0x9CA JUMPI PUSH1 0x40 MLOAD PUSH3 0x461BCD PUSH1 0xE5 SHL DUP2 MSTORE PUSH1 0x4 ADD PUSH2 0x720 SWAP1 PUSH2 0x4854 JUMP JUMPDEST PUSH2 0x8FF DUP4 DUP4 DUP4 PUSH2 0x2149 JUMP JUMPDEST CALLER PUSH2 0x9DE PUSH2 0x15EB JUMP JUMPDEST PUSH1 0x1 PUSH1 0x1 PUSH1 0xA0 SHL SUB AND EQ DUP1 PUSH2 0x9F9 JUMPI POP PUSH2 0x9F9 PUSH1 0x2 CALLER PUSH2 0x1F0B JUMP JUMPDEST PUSH2 0xA15 JUMPI PUSH1 0x40 MLOAD PUSH3 0x461BCD PUSH1 0xE5 SHL DUP2 MSTORE PUSH1 0x4 ADD PUSH2 0x720 SWAP1 PUSH2 0x4854 JUMP JUMPDEST PUSH2 0xA1E DUP6 PUSH2 0x20A0 JUMP JUMPDEST PUSH2 0xA3A JUMPI PUSH1 0x40 MLOAD PUSH3 0x461BCD PUSH1 0xE5 SHL DUP2 MSTORE PUSH1 0x4 ADD PUSH2 0x720 SWAP1 PUSH2 0x479F JUMP JUMPDEST PUSH2 0xA47 DUP6 DUP6 DUP6 DUP6 DUP6 PUSH2 0x2198 JUMP JUMPDEST POP POP POP POP POP JUMP JUMPDEST PUSH1 0x0 PUSH2 0xA59 DUP3 PUSH2 0x20A0 JUMP JUMPDEST PUSH2 0xA75 JUMPI PUSH1 0x40 MLOAD PUSH3 0x461BCD PUSH1 0xE5 SHL DUP2 MSTORE PUSH1 0x4 ADD PUSH2 0x720 SWAP1 PUSH2 0x479F JUMP JUMPDEST PUSH2 0x6DA DUP3 PUSH2 0x2297 JUMP JUMPDEST PUSH2 0xA88 CALLER DUP3 PUSH2 0x2325 JUMP JUMPDEST PUSH2 0xAA4 JUMPI PUSH1 0x40 MLOAD PUSH3 0x461BCD PUSH1 0xE5 SHL DUP2 MSTORE PUSH1 0x4 ADD PUSH2 0x720 SWAP1 PUSH2 0x4898 JUMP JUMPDEST PUSH2 0x8FF DUP4 DUP4 DUP4 PUSH2 0x2384 JUMP JUMPDEST PUSH1 0x0 DUP2 PUSH1 0x1 PUSH1 0x1 PUSH1 0xA0 SHL SUB AND PUSH2 0xAC3 PUSH2 0x15EB JUMP JUMPDEST PUSH1 0x1 PUSH1 0x1 PUSH1 0xA0 SHL SUB AND EQ DUP1 PUSH2 0x6DA JUMPI POP PUSH2 0x6DA PUSH1 0x2 DUP4 PUSH2 0x1F0B JUMP JUMPDEST PUSH1 0x0 PUSH1 0x2 PUSH1 0x1 SLOAD EQ ISZERO PUSH2 0xB03 JUMPI PUSH1 0x40 MLOAD PUSH3 0x461BCD PUSH1 0xE5 SHL DUP2 MSTORE PUSH1 0x4 ADD PUSH2 0x720 SWAP1 PUSH2 0x48E6 JUMP JUMPDEST PUSH1 0x2 PUSH1 0x1 SSTORE PUSH2 0xB13 PUSH1 0xB CALLER PUSH2 0x1F0B JUMP JUMPDEST PUSH2 0xB2F JUMPI PUSH1 0x40 MLOAD PUSH3 0x461BCD PUSH1 0xE5 SHL DUP2 MSTORE PUSH1 0x4 ADD PUSH2 0x720 SWAP1 PUSH2 0x4769 JUMP JUMPDEST PUSH2 0xB48 DUP3 PUSH1 0x40 MLOAD DUP1 PUSH1 0x20 ADD PUSH1 0x40 MSTORE DUP1 PUSH1 0x0 DUP2 MSTORE POP PUSH2 0x2519 JUMP JUMPDEST PUSH1 0x1 DUP1 SSTORE SWAP3 SWAP2 POP POP JUMP JUMPDEST PUSH1 0x0 DUP1 PUSH2 0xB5E DUP5 PUSH2 0x20A0 JUMP JUMPDEST PUSH2 0xB7A JUMPI PUSH1 0x40 MLOAD PUSH3 0x461BCD PUSH1 0xE5 SHL DUP2 MSTORE PUSH1 0x4 ADD PUSH2 0x720 SWAP1 PUSH2 0x479F JUMP JUMPDEST PUSH2 0xB84 DUP5 DUP5 PUSH2 0x2593 JUMP JUMPDEST SWAP2 POP SWAP2 POP JUMPDEST SWAP3 POP SWAP3 SWAP1 POP JUMP JUMPDEST PUSH2 0xB98 PUSH2 0x267A JUMP JUMPDEST PUSH2 0xBA3 PUSH1 0x2 DUP3 PUSH2 0x1F0B JUMP JUMPDEST ISZERO PUSH2 0x732 JUMPI PUSH1 0x40 MLOAD CALLER SWAP1 PUSH1 0x1 PUSH1 0x1 PUSH1 0xA0 SHL SUB DUP4 AND SWAP1 PUSH32 0x7C0C3C84C67C85FCAC635147348BFE374C24A1A93D0366D1CFE9D8853CBF89D5 SWAP1 PUSH1 0x0 SWAP1 LOG3 PUSH2 0xBE9 PUSH1 0x2 DUP3 PUSH2 0x26D9 JUMP JUMPDEST POP POP JUMP JUMPDEST CALLER PUSH2 0xBF6 PUSH2 0x15EB JUMP JUMPDEST PUSH1 0x1 PUSH1 0x1 PUSH1 0xA0 SHL SUB AND EQ DUP1 PUSH2 0xC11 JUMPI POP PUSH2 0xC11 PUSH1 0x2 CALLER PUSH2 0x1F0B JUMP JUMPDEST PUSH2 0xC2D JUMPI PUSH1 0x40 MLOAD PUSH3 0x461BCD PUSH1 0xE5 SHL DUP2 MSTORE PUSH1 0x4 ADD PUSH2 0x720 SWAP1 PUSH2 0x4854 JUMP JUMPDEST PUSH2 0xBE9 DUP3 DUP3 DUP1 DUP1 PUSH1 0x1F ADD PUSH1 0x20 DUP1 SWAP2 DIV MUL PUSH1 0x20 ADD PUSH1 0x40 MLOAD SWAP1 DUP2 ADD PUSH1 0x40 MSTORE DUP1 SWAP4 SWAP3 SWAP2 SWAP1 DUP2 DUP2 MSTORE PUSH1 0x20 ADD DUP4 DUP4 DUP1 DUP3 DUP5 CALLDATACOPY PUSH1 0x0 SWAP3 ADD SWAP2 SWAP1 SWAP2 MSTORE POP PUSH2 0x26EE SWAP3 POP POP POP JUMP JUMPDEST CALLER PUSH2 0xC75 PUSH2 0x15EB JUMP JUMPDEST PUSH1 0x1 PUSH1 0x1 PUSH1 0xA0 SHL SUB AND EQ DUP1 PUSH2 0xC90 JUMPI POP PUSH2 0xC90 PUSH1 0x2 CALLER PUSH2 0x1F0B JUMP JUMPDEST PUSH2 0xCAC JUMPI PUSH1 0x40 MLOAD PUSH3 0x461BCD PUSH1 0xE5 SHL DUP2 MSTORE PUSH1 0x4 ADD PUSH2 0x720 SWAP1 PUSH2 0x4854 JUMP JUMPDEST DUP3 PUSH2 0xCB8 PUSH1 0xD DUP3 PUSH2 0x1F0B JUMP JUMPDEST ISZERO PUSH2 0xCD5 JUMPI PUSH1 0x40 MLOAD PUSH3 0x461BCD PUSH1 0xE5 SHL DUP2 MSTORE PUSH1 0x4 ADD PUSH2 0x720 SWAP1 PUSH2 0x4713 JUMP JUMPDEST PUSH2 0xCE2 DUP5 DUP5 DUP5 PUSH1 0x0 PUSH2 0x270E JUMP JUMPDEST POP POP POP POP JUMP JUMPDEST PUSH1 0x60 PUSH2 0xCF4 PUSH1 0x2 PUSH2 0x2850 JUMP JUMPDEST PUSH1 0x1 PUSH1 0x1 PUSH1 0x40 SHL SUB DUP2 GT ISZERO PUSH2 0xD0B JUMPI PUSH2 0xD0B PUSH2 0x4B26 JUMP JUMPDEST PUSH1 0x40 MLOAD SWAP1 DUP1 DUP3 MSTORE DUP1 PUSH1 0x20 MUL PUSH1 0x20 ADD DUP3 ADD PUSH1 0x40 MSTORE DUP1 ISZERO PUSH2 0xD34 JUMPI DUP2 PUSH1 0x20 ADD PUSH1 0x20 DUP3 MUL DUP1 CALLDATASIZE DUP4 CALLDATACOPY ADD SWAP1 POP JUMPDEST POP SWAP1 POP PUSH1 0x0 JUMPDEST PUSH2 0xD44 PUSH1 0x2 PUSH2 0x2850 JUMP JUMPDEST DUP2 LT ISZERO PUSH2 0xD92 JUMPI PUSH2 0xD56 PUSH1 0x2 DUP3 PUSH2 0x285A JUMP JUMPDEST DUP3 DUP3 DUP2 MLOAD DUP2 LT PUSH2 0xD68 JUMPI PUSH2 0xD68 PUSH2 0x4B10 JUMP JUMPDEST PUSH1 0x1 PUSH1 0x1 PUSH1 0xA0 SHL SUB SWAP1 SWAP3 AND PUSH1 0x20 SWAP3 DUP4 MUL SWAP2 SWAP1 SWAP2 ADD SWAP1 SWAP2 ADD MSTORE DUP1 PUSH2 0xD8A DUP2 PUSH2 0x4A9F JUMP JUMPDEST SWAP2 POP POP PUSH2 0xD3A JUMP JUMPDEST POP SWAP1 JUMP JUMPDEST CALLER PUSH2 0xD9F PUSH2 0x15EB JUMP JUMPDEST PUSH1 0x1 PUSH1 0x1 PUSH1 0xA0 SHL SUB AND EQ DUP1 PUSH2 0xDBA JUMPI POP PUSH2 0xDBA PUSH1 0x2 CALLER PUSH2 0x1F0B JUMP JUMPDEST PUSH2 0xDD6 JUMPI PUSH1 0x40 MLOAD PUSH3 0x461BCD PUSH1 0xE5 SHL DUP2 MSTORE PUSH1 0x4 ADD PUSH2 0x720 SWAP1 PUSH2 0x4854 JUMP JUMPDEST PUSH2 0xCE2 ADDRESS DUP6 DUP6 DUP6 DUP6 PUSH2 0x2866 JUMP JUMPDEST PUSH1 0x60 PUSH1 0x2 PUSH1 0x1 SLOAD EQ ISZERO PUSH2 0xE08 JUMPI PUSH1 0x40 MLOAD PUSH3 0x461BCD PUSH1 0xE5 SHL DUP2 MSTORE PUSH1 0x4 ADD PUSH2 0x720 SWAP1 PUSH2 0x48E6 JUMP JUMPDEST PUSH1 0x2 PUSH1 0x1 SSTORE PUSH2 0xE18 PUSH1 0xB CALLER PUSH2 0x1F0B JUMP JUMPDEST PUSH2 0xE34 JUMPI PUSH1 0x40 MLOAD PUSH3 0x461BCD PUSH1 0xE5 SHL DUP2 MSTORE PUSH1 0x4 ADD PUSH2 0x720 SWAP1 PUSH2 0x4769 JUMP JUMPDEST DUP2 PUSH1 0x1 PUSH1 0x1 PUSH1 0x40 SHL SUB DUP2 GT ISZERO PUSH2 0xE4C JUMPI PUSH2 0xE4C PUSH2 0x4B26 JUMP JUMPDEST PUSH1 0x40 MLOAD SWAP1 DUP1 DUP3 MSTORE DUP1 PUSH1 0x20 MUL PUSH1 0x20 ADD DUP3 ADD PUSH1 0x40 MSTORE DUP1 ISZERO PUSH2 0xE75 JUMPI DUP2 PUSH1 0x20 ADD PUSH1 0x20 DUP3 MUL DUP1 CALLDATASIZE DUP4 CALLDATACOPY ADD SWAP1 POP JUMPDEST POP SWAP1 POP PUSH1 0x0 JUMPDEST DUP3 DUP2 LT ISZERO PUSH2 0xF14 JUMPI PUSH2 0xEE5 DUP6 DUP6 DUP6 DUP5 DUP2 DUP2 LT PUSH2 0xE99 JUMPI PUSH2 0xE99 PUSH2 0x4B10 JUMP JUMPDEST SWAP1 POP PUSH1 0x20 MUL DUP2 ADD SWAP1 PUSH2 0xEAB SWAP2 SWAP1 PUSH2 0x491D JUMP JUMPDEST DUP1 DUP1 PUSH1 0x1F ADD PUSH1 0x20 DUP1 SWAP2 DIV MUL PUSH1 0x20 ADD PUSH1 0x40 MLOAD SWAP1 DUP2 ADD PUSH1 0x40 MSTORE DUP1 SWAP4 SWAP3 SWAP2 SWAP1 DUP2 DUP2 MSTORE PUSH1 0x20 ADD DUP4 DUP4 DUP1 DUP3 DUP5 CALLDATACOPY PUSH1 0x0 SWAP3 ADD SWAP2 SWAP1 SWAP2 MSTORE POP PUSH2 0x2519 SWAP3 POP POP POP JUMP JUMPDEST DUP3 DUP3 DUP2 MLOAD DUP2 LT PUSH2 0xEF7 JUMPI PUSH2 0xEF7 PUSH2 0x4B10 JUMP JUMPDEST PUSH1 0x20 SWAP1 DUP2 MUL SWAP2 SWAP1 SWAP2 ADD ADD MSTORE DUP1 PUSH2 0xF0C DUP2 PUSH2 0x4A9F JUMP JUMPDEST SWAP2 POP POP PUSH2 0xE7B JUMP JUMPDEST POP PUSH1 0x1 DUP1 SSTORE SWAP4 SWAP3 POP POP POP JUMP JUMPDEST PUSH2 0xF2B PUSH1 0xB CALLER PUSH2 0x1F0B JUMP JUMPDEST PUSH2 0xF47 JUMPI PUSH1 0x40 MLOAD PUSH3 0x461BCD PUSH1 0xE5 SHL DUP2 MSTORE PUSH1 0x4 ADD PUSH2 0x720 SWAP1 PUSH2 0x4769 JUMP JUMPDEST PUSH2 0xBE9 DUP3 DUP3 PUSH1 0x0 PUSH2 0x29CD JUMP JUMPDEST CALLER PUSH2 0xF5C PUSH2 0x15EB JUMP JUMPDEST PUSH1 0x1 PUSH1 0x1 PUSH1 0xA0 SHL SUB AND EQ DUP1 PUSH2 0xF77 JUMPI POP PUSH2 0xF77 PUSH1 0x2 CALLER PUSH2 0x1F0B JUMP JUMPDEST PUSH2 0xF93 JUMPI PUSH1 0x40 MLOAD PUSH3 0x461BCD PUSH1 0xE5 SHL DUP2 MSTORE PUSH1 0x4 ADD PUSH2 0x720 SWAP1 PUSH2 0x4854 JUMP JUMPDEST DUP4 PUSH2 0xF9F PUSH1 0xD DUP3 PUSH2 0x1F0B JUMP JUMPDEST ISZERO PUSH2 0xFBC JUMPI PUSH1 0x40 MLOAD PUSH3 0x461BCD PUSH1 0xE5 SHL DUP2 MSTORE PUSH1 0x4 ADD PUSH2 0x720 SWAP1 PUSH2 0x4713 JUMP JUMPDEST PUSH2 0xA47 DUP6 DUP6 DUP6 DUP6 PUSH2 0x270E JUMP JUMPDEST PUSH2 0x8FF DUP4 DUP4 DUP4 PUSH1 0x40 MLOAD DUP1 PUSH1 0x20 ADD PUSH1 0x40 MSTORE DUP1 PUSH1 0x0 DUP2 MSTORE POP PUSH2 0x19AF JUMP JUMPDEST PUSH1 0x2 PUSH1 0x1 SLOAD EQ ISZERO PUSH2 0x1006 JUMPI PUSH1 0x40 MLOAD PUSH3 0x461BCD PUSH1 0xE5 SHL DUP2 MSTORE PUSH1 0x4 ADD PUSH2 0x720 SWAP1 PUSH2 0x48E6 JUMP JUMPDEST PUSH1 0x2 PUSH1 0x1 SSTORE PUSH2 0x1015 CALLER DUP3 PUSH2 0x2325 JUMP JUMPDEST PUSH2 0x1061 JUMPI PUSH1 0x40 MLOAD PUSH3 0x461BCD PUSH1 0xE5 SHL DUP2 MSTORE PUSH1 0x20 PUSH1 0x4 DUP3 ADD DUP2 SWAP1 MSTORE PUSH1 0x24 DUP3 ADD MSTORE PUSH32 0x43616C6C6572206973206E6F74206F776E6572206E6F7220617070726F766564 PUSH1 0x44 DUP3 ADD MSTORE PUSH1 0x64 ADD PUSH2 0x720 JUMP JUMPDEST PUSH1 0x0 PUSH2 0x106C DUP3 PUSH2 0x1134 JUMP JUMPDEST SWAP1 POP PUSH2 0x1077 DUP3 PUSH2 0x2A0A JUMP JUMPDEST PUSH2 0x1081 DUP2 DUP4 PUSH2 0x2A9F JUMP JUMPDEST POP POP PUSH1 0x1 DUP1 SSTORE JUMP JUMPDEST PUSH2 0x1094 PUSH1 0xB CALLER PUSH2 0x1F0B JUMP JUMPDEST PUSH2 0x10B0 JUMPI PUSH1 0x40 MLOAD PUSH3 0x461BCD PUSH1 0xE5 SHL DUP2 MSTORE PUSH1 0x4 ADD PUSH2 0x720 SWAP1 PUSH2 0x4769 JUMP JUMPDEST DUP3 MLOAD DUP2 EQ PUSH2 0x10D0 JUMPI PUSH1 0x40 MLOAD PUSH3 0x461BCD PUSH1 0xE5 SHL DUP2 MSTORE PUSH1 0x4 ADD PUSH2 0x720 SWAP1 PUSH2 0x47CA JUMP JUMPDEST PUSH1 0x0 JUMPDEST DUP4 MLOAD DUP2 LT ISZERO PUSH2 0xCE2 JUMPI PUSH2 0x1122 DUP5 DUP3 DUP2 MLOAD DUP2 LT PUSH2 0x10F1 JUMPI PUSH2 0x10F1 PUSH2 0x4B10 JUMP JUMPDEST PUSH1 0x20 MUL PUSH1 0x20 ADD ADD MLOAD DUP5 DUP5 DUP5 DUP2 DUP2 LT PUSH2 0x110B JUMPI PUSH2 0x110B PUSH2 0x4B10 JUMP JUMPDEST SWAP1 POP PUSH1 0x20 MUL DUP2 ADD SWAP1 PUSH2 0x111D SWAP2 SWAP1 PUSH2 0x491D JUMP JUMPDEST PUSH2 0x2BB3 JUMP JUMPDEST DUP1 PUSH2 0x112C DUP2 PUSH2 0x4A9F JUMP JUMPDEST SWAP2 POP POP PUSH2 0x10D3 JUMP JUMPDEST PUSH1 0x0 DUP2 DUP2 MSTORE PUSH1 0x6 PUSH1 0x20 MSTORE PUSH1 0x40 DUP2 KECCAK256 SLOAD PUSH1 0x1 PUSH1 0x1 PUSH1 0xA0 SHL SUB AND DUP1 PUSH2 0x6DA JUMPI PUSH1 0x40 MLOAD PUSH3 0x461BCD PUSH1 0xE5 SHL DUP2 MSTORE PUSH1 0x4 ADD PUSH2 0x720 SWAP1 PUSH2 0x47F1 JUMP JUMPDEST PUSH2 0x1174 PUSH1 0xB CALLER PUSH2 0x1F0B JUMP JUMPDEST PUSH2 0x1190 JUMPI PUSH1 0x40 MLOAD PUSH3 0x461BCD PUSH1 0xE5 SHL DUP2 MSTORE PUSH1 0x4 ADD PUSH2 0x720 SWAP1 PUSH2 0x4769 JUMP JUMPDEST PUSH2 0xBE9 DUP3 DUP3 PUSH2 0x2BE9 JUMP JUMPDEST PUSH2 0x11A2 PUSH2 0x267A JUMP JUMPDEST PUSH2 0x11AD PUSH1 0x2 DUP3 PUSH2 0x1F0B JUMP JUMPDEST PUSH2 0x732 JUMPI PUSH1 0x40 MLOAD CALLER SWAP1 PUSH1 0x1 PUSH1 0x1 PUSH1 0xA0 SHL SUB DUP4 AND SWAP1 PUSH32 0x7E1A1A08D52E4BA0E21554733D66165FD5151F99460116223D9E3A608EEC5CB1 SWAP1 PUSH1 0x0 SWAP1 LOG3 PUSH2 0xBE9 PUSH1 0x2 DUP3 PUSH2 0x2C03 JUMP JUMPDEST PUSH1 0x0 PUSH1 0x1 PUSH1 0x1 PUSH1 0xA0 SHL SUB DUP3 AND PUSH2 0x125C JUMPI PUSH1 0x40 MLOAD PUSH3 0x461BCD PUSH1 0xE5 SHL DUP2 MSTORE PUSH1 0x20 PUSH1 0x4 DUP3 ADD MSTORE PUSH1 0x29 PUSH1 0x24 DUP3 ADD MSTORE PUSH32 0x4552433732313A2061646472657373207A65726F206973206E6F742061207661 PUSH1 0x44 DUP3 ADD MSTORE PUSH9 0x3634B21037BBB732B9 PUSH1 0xB9 SHL PUSH1 0x64 DUP3 ADD MSTORE PUSH1 0x84 ADD PUSH2 0x720 JUMP JUMPDEST POP PUSH1 0x1 PUSH1 0x1 PUSH1 0xA0 SHL SUB AND PUSH1 0x0 SWAP1 DUP2 MSTORE PUSH1 0x7 PUSH1 0x20 MSTORE PUSH1 0x40 SWAP1 KECCAK256 SLOAD SWAP1 JUMP JUMPDEST PUSH2 0x1280 PUSH2 0x267A JUMP JUMPDEST PUSH2 0x128A PUSH1 0x0 PUSH2 0x2C18 JUMP JUMPDEST JUMP JUMPDEST PUSH1 0x0 PUSH1 0x2 PUSH1 0x1 SLOAD EQ ISZERO PUSH2 0x12B1 JUMPI PUSH1 0x40 MLOAD PUSH3 0x461BCD PUSH1 0xE5 SHL DUP2 MSTORE PUSH1 0x4 ADD PUSH2 0x720 SWAP1 PUSH2 0x48E6 JUMP JUMPDEST PUSH1 0x2 PUSH1 0x1 SSTORE CALLER PUSH2 0x12BF PUSH2 0x15EB JUMP JUMPDEST PUSH1 0x1 PUSH1 0x1 PUSH1 0xA0 SHL SUB AND EQ DUP1 PUSH2 0x12DA JUMPI POP PUSH2 0x12DA PUSH1 0x2 CALLER PUSH2 0x1F0B JUMP JUMPDEST PUSH2 0x12F6 JUMPI PUSH1 0x40 MLOAD PUSH3 0x461BCD PUSH1 0xE5 SHL DUP2 MSTORE PUSH1 0x4 ADD PUSH2 0x720 SWAP1 PUSH2 0x4854 JUMP JUMPDEST PUSH2 0xB48 DUP3 PUSH1 0x40 MLOAD DUP1 PUSH1 0x20 ADD PUSH1 0x40 MSTORE DUP1 PUSH1 0x0 DUP2 MSTORE POP PUSH2 0x2C68 JUMP JUMPDEST PUSH1 0x0 PUSH1 0x2 PUSH1 0x1 SLOAD EQ ISZERO PUSH2 0x1334 JUMPI PUSH1 0x40 MLOAD PUSH3 0x461BCD PUSH1 0xE5 SHL DUP2 MSTORE PUSH1 0x4 ADD PUSH2 0x720 SWAP1 PUSH2 0x48E6 JUMP JUMPDEST PUSH1 0x2 PUSH1 0x1 SSTORE CALLER PUSH2 0x1342 PUSH2 0x15EB JUMP JUMPDEST PUSH1 0x1 PUSH1 0x1 PUSH1 0xA0 SHL SUB AND EQ DUP1 PUSH2 0x135D JUMPI POP PUSH2 0x135D PUSH1 0x2 CALLER PUSH2 0x1F0B JUMP JUMPDEST PUSH2 0x1379 JUMPI PUSH1 0x40 MLOAD PUSH3 0x461BCD PUSH1 0xE5 SHL DUP2 MSTORE PUSH1 0x4 ADD PUSH2 0x720 SWAP1 PUSH2 0x4854 JUMP JUMPDEST PUSH2 0x13B9 DUP5 DUP5 DUP5 DUP1 DUP1 PUSH1 0x1F ADD PUSH1 0x20 DUP1 SWAP2 DIV MUL PUSH1 0x20 ADD PUSH1 0x40 MLOAD SWAP1 DUP2 ADD PUSH1 0x40 MSTORE DUP1 SWAP4 SWAP3 SWAP2 SWAP1 DUP2 DUP2 MSTORE PUSH1 0x20 ADD DUP4 DUP4 DUP1 DUP3 DUP5 CALLDATACOPY PUSH1 0x0 SWAP3 ADD SWAP2 SWAP1 SWAP2 MSTORE POP PUSH2 0x2C68 SWAP3 POP POP POP JUMP JUMPDEST PUSH1 0x1 DUP1 SSTORE SWAP5 SWAP4 POP POP POP POP JUMP JUMPDEST PUSH1 0x60 PUSH1 0x2 PUSH1 0x1 SLOAD EQ ISZERO PUSH2 0x13EA JUMPI PUSH1 0x40 MLOAD PUSH3 0x461BCD PUSH1 0xE5 SHL DUP2 MSTORE PUSH1 0x4 ADD PUSH2 0x720 SWAP1 PUSH2 0x48E6 JUMP JUMPDEST PUSH1 0x2 PUSH1 0x1 SSTORE CALLER PUSH2 0x13F8 PUSH2 0x15EB JUMP JUMPDEST PUSH1 0x1 PUSH1 0x1 PUSH1 0xA0 SHL SUB AND EQ DUP1 PUSH2 0x1413 JUMPI POP PUSH2 0x1413 PUSH1 0x2 CALLER PUSH2 0x1F0B JUMP JUMPDEST PUSH2 0x142F JUMPI PUSH1 0x40 MLOAD PUSH3 0x461BCD PUSH1 0xE5 SHL DUP2 MSTORE PUSH1 0x4 ADD PUSH2 0x720 SWAP1 PUSH2 0x4854 JUMP JUMPDEST DUP2 PUSH1 0x1 PUSH1 0x1 PUSH1 0x40 SHL SUB DUP2 GT ISZERO PUSH2 0x1447 JUMPI PUSH2 0x1447 PUSH2 0x4B26 JUMP JUMPDEST PUSH1 0x40 MLOAD SWAP1 DUP1 DUP3 MSTORE DUP1 PUSH1 0x20 MUL PUSH1 0x20 ADD DUP3 ADD PUSH1 0x40 MSTORE DUP1 ISZERO PUSH2 0x1470 JUMPI DUP2 PUSH1 0x20 ADD PUSH1 0x20 DUP3 MUL DUP1 CALLDATASIZE DUP4 CALLDATACOPY ADD SWAP1 POP JUMPDEST POP SWAP1 POP PUSH1 0x0 JUMPDEST DUP3 DUP2 LT ISZERO PUSH2 0xF14 JUMPI PUSH2 0x14E0 DUP6 DUP6 DUP6 DUP5 DUP2 DUP2 LT PUSH2 0x1494 JUMPI PUSH2 0x1494 PUSH2 0x4B10 JUMP JUMPDEST SWAP1 POP PUSH1 0x20 MUL DUP2 ADD SWAP1 PUSH2 0x14A6 SWAP2 SWAP1 PUSH2 0x491D JUMP JUMPDEST DUP1 DUP1 PUSH1 0x1F ADD PUSH1 0x20 DUP1 SWAP2 DIV MUL PUSH1 0x20 ADD PUSH1 0x40 MLOAD SWAP1 DUP2 ADD PUSH1 0x40 MSTORE DUP1 SWAP4 SWAP3 SWAP2 SWAP1 DUP2 DUP2 MSTORE PUSH1 0x20 ADD DUP4 DUP4 DUP1 DUP3 DUP5 CALLDATACOPY PUSH1 0x0 SWAP3 ADD SWAP2 SWAP1 SWAP2 MSTORE POP PUSH2 0x2C68 SWAP3 POP POP POP JUMP JUMPDEST DUP3 DUP3 DUP2 MLOAD DUP2 LT PUSH2 0x14F2 JUMPI PUSH2 0x14F2 PUSH2 0x4B10 JUMP JUMPDEST PUSH1 0x20 SWAP1 DUP2 MUL SWAP2 SWAP1 SWAP2 ADD ADD MSTORE DUP1 PUSH2 0x1507 DUP2 PUSH2 0x4A9F JUMP JUMPDEST SWAP2 POP POP PUSH2 0x1476 JUMP JUMPDEST PUSH2 0x151A PUSH1 0xB CALLER PUSH2 0x1F0B JUMP JUMPDEST PUSH2 0x1536 JUMPI PUSH1 0x40 MLOAD PUSH3 0x461BCD PUSH1 0xE5 SHL DUP2 MSTORE PUSH1 0x4 ADD PUSH2 0x720 SWAP1 PUSH2 0x4769 JUMP JUMPDEST PUSH2 0x8FF DUP4 DUP4 DUP4 PUSH2 0x29CD JUMP JUMPDEST PUSH1 0x60 PUSH2 0x154D PUSH1 0xB PUSH2 0x2850 JUMP JUMPDEST PUSH1 0x1 PUSH1 0x1 PUSH1 0x40 SHL SUB DUP2 GT ISZERO PUSH2 0x1564 JUMPI PUSH2 0x1564 PUSH2 0x4B26 JUMP JUMPDEST PUSH1 0x40 MLOAD SWAP1 DUP1 DUP3 MSTORE DUP1 PUSH1 0x20 MUL PUSH1 0x20 ADD DUP3 ADD PUSH1 0x40 MSTORE DUP1 ISZERO PUSH2 0x158D JUMPI DUP2 PUSH1 0x20 ADD PUSH1 0x20 DUP3 MUL DUP1 CALLDATASIZE DUP4 CALLDATACOPY ADD SWAP1 POP JUMPDEST POP SWAP1 POP PUSH1 0x0 JUMPDEST PUSH2 0x159D PUSH1 0xB PUSH2 0x2850 JUMP JUMPDEST DUP2 LT ISZERO PUSH2 0xD92 JUMPI PUSH2 0x15AF PUSH1 0xB DUP3 PUSH2 0x285A JUMP JUMPDEST DUP3 DUP3 DUP2 MLOAD DUP2 LT PUSH2 0x15C1 JUMPI PUSH2 0x15C1 PUSH2 0x4B10 JUMP JUMPDEST PUSH1 0x1 PUSH1 0x1 PUSH1 0xA0 SHL SUB SWAP1 SWAP3 AND PUSH1 0x20 SWAP3 DUP4 MUL SWAP2 SWAP1 SWAP2 ADD SWAP1 SWAP2 ADD MSTORE DUP1 PUSH2 0x15E3 DUP2 PUSH2 0x4A9F JUMP JUMPDEST SWAP2 POP POP PUSH2 0x1593 JUMP JUMPDEST PUSH1 0x0 SLOAD PUSH1 0x1 PUSH1 0x1 PUSH1 0xA0 SHL SUB AND SWAP1 JUMP JUMPDEST PUSH1 0x60 PUSH1 0x5 DUP1 SLOAD PUSH2 0x744 SWAP1 PUSH2 0x4A48 JUMP JUMPDEST CALLER PUSH2 0x1612 PUSH2 0x15EB JUMP JUMPDEST PUSH1 0x1 PUSH1 0x1 PUSH1 0xA0 SHL SUB AND EQ DUP1 PUSH2 0x162D JUMPI POP PUSH2 0x162D PUSH1 0x2 CALLER PUSH2 0x1F0B JUMP JUMPDEST PUSH2 0x1649 JUMPI PUSH1 0x40 MLOAD PUSH3 0x461BCD PUSH1 0xE5 SHL DUP2 MSTORE PUSH1 0x4 ADD PUSH2 0x720 SWAP1 PUSH2 0x4854 JUMP JUMPDEST PUSH2 0xBE9 DUP3 DUP3 PUSH2 0x2CAB JUMP JUMPDEST PUSH2 0xBE9 CALLER DUP4 DUP4 PUSH2 0x2CC5 JUMP JUMPDEST CALLER PUSH2 0x1667 PUSH2 0x15EB JUMP JUMPDEST PUSH1 0x1 PUSH1 0x1 PUSH1 0xA0 SHL SUB AND EQ DUP1 PUSH2 0x1682 JUMPI POP PUSH2 0x1682 PUSH1 0x2 CALLER PUSH2 0x1F0B JUMP JUMPDEST PUSH2 0x169E JUMPI PUSH1 0x40 MLOAD PUSH3 0x461BCD PUSH1 0xE5 SHL DUP2 MSTORE PUSH1 0x4 ADD PUSH2 0x720 SWAP1 PUSH2 0x4854 JUMP JUMPDEST DUP3 MLOAD DUP2 EQ PUSH2 0x16BE JUMPI PUSH1 0x40 MLOAD PUSH3 0x461BCD PUSH1 0xE5 SHL DUP2 MSTORE PUSH1 0x4 ADD PUSH2 0x720 SWAP1 PUSH2 0x47CA JUMP JUMPDEST PUSH1 0x0 JUMPDEST DUP4 MLOAD DUP2 LT ISZERO PUSH2 0xCE2 JUMPI PUSH2 0x1710 DUP5 DUP3 DUP2 MLOAD DUP2 LT PUSH2 0x16DF JUMPI PUSH2 0x16DF PUSH2 0x4B10 JUMP JUMPDEST PUSH1 0x20 MUL PUSH1 0x20 ADD ADD MLOAD DUP5 DUP5 DUP5 DUP2 DUP2 LT PUSH2 0x16F9 JUMPI PUSH2 0x16F9 PUSH2 0x4B10 JUMP JUMPDEST SWAP1 POP PUSH1 0x20 MUL DUP2 ADD SWAP1 PUSH2 0x170B SWAP2 SWAP1 PUSH2 0x491D JUMP JUMPDEST PUSH2 0x2149 JUMP JUMPDEST DUP1 PUSH2 0x171A DUP2 PUSH2 0x4A9F JUMP JUMPDEST SWAP2 POP POP PUSH2 0x16C1 JUMP JUMPDEST PUSH2 0x172D PUSH1 0xB CALLER PUSH2 0x1F0B JUMP JUMPDEST PUSH2 0x1749 JUMPI PUSH1 0x40 MLOAD PUSH3 0x461BCD PUSH1 0xE5 SHL DUP2 MSTORE PUSH1 0x4 ADD PUSH2 0x720 SWAP1 PUSH2 0x4769 JUMP JUMPDEST DUP1 ISZERO DUP1 PUSH2 0x1762 JUMPI POP PUSH2 0x1762 CALLER PUSH4 0x4CE6D511 PUSH1 0xE1 SHL PUSH2 0x2D90 JUMP JUMPDEST PUSH2 0x17D4 JUMPI PUSH1 0x40 MLOAD PUSH3 0x461BCD PUSH1 0xE5 SHL DUP2 MSTORE PUSH1 0x20 PUSH1 0x4 DUP3 ADD MSTORE PUSH1 0x3F PUSH1 0x24 DUP3 ADD MSTORE PUSH32 0x457874656E73696F6E206D75737420696D706C656D656E742049455243373231 PUSH1 0x44 DUP3 ADD MSTORE PUSH32 0x43726561746F72457874656E73696F6E417070726F76655472616E7366657200 PUSH1 0x64 DUP3 ADD MSTORE PUSH1 0x84 ADD PUSH2 0x720 JUMP JUMPDEST CALLER PUSH1 0x0 SWAP1 DUP2 MSTORE PUSH1 0x10 PUSH1 0x20 MSTORE PUSH1 0x40 SWAP1 KECCAK256 SLOAD PUSH1 0xFF AND ISZERO ISZERO DUP2 ISZERO ISZERO EQ PUSH2 0x732 JUMPI CALLER PUSH1 0x0 DUP2 DUP2 MSTORE PUSH1 0x10 PUSH1 0x20 SWAP1 DUP2 MSTORE PUSH1 0x40 SWAP2 DUP3 SWAP1 KECCAK256 DUP1 SLOAD PUSH1 0xFF NOT AND DUP6 ISZERO ISZERO SWAP1 DUP2 OR SWAP1 SWAP2 SSTORE SWAP2 MLOAD SWAP2 DUP3 MSTORE PUSH32 0x72A7592283E2C2D1D56D21517FF6013325E0F55483F4828373FF4D98B0A1A36 SWAP2 ADD PUSH1 0x40 MLOAD DUP1 SWAP2 SUB SWAP1 LOG2 POP JUMP JUMPDEST PUSH1 0x60 PUSH1 0x2 PUSH1 0x1 SLOAD EQ ISZERO PUSH2 0x186B JUMPI PUSH1 0x40 MLOAD PUSH3 0x461BCD PUSH1 0xE5 SHL DUP2 MSTORE PUSH1 0x4 ADD PUSH2 0x720 SWAP1 PUSH2 0x48E6 JUMP JUMPDEST PUSH1 0x2 PUSH1 0x1 SSTORE CALLER PUSH2 0x1879 PUSH2 0x15EB JUMP JUMPDEST PUSH1 0x1 PUSH1 0x1 PUSH1 0xA0 SHL SUB AND EQ DUP1 PUSH2 0x1894 JUMPI POP PUSH2 0x1894 PUSH1 0x2 CALLER PUSH2 0x1F0B JUMP JUMPDEST PUSH2 0x18B0 JUMPI PUSH1 0x40 MLOAD PUSH3 0x461BCD PUSH1 0xE5 SHL DUP2 MSTORE PUSH1 0x4 ADD PUSH2 0x720 SWAP1 PUSH2 0x4854 JUMP JUMPDEST DUP2 PUSH2 0xFFFF AND PUSH1 0x1 PUSH1 0x1 PUSH1 0x40 SHL SUB DUP2 GT ISZERO PUSH2 0x18CC JUMPI PUSH2 0x18CC PUSH2 0x4B26 JUMP JUMPDEST PUSH1 0x40 MLOAD SWAP1 DUP1 DUP3 MSTORE DUP1 PUSH1 0x20 MUL PUSH1 0x20 ADD DUP3 ADD PUSH1 0x40 MSTORE DUP1 ISZERO PUSH2 0x18F5 JUMPI DUP2 PUSH1 0x20 ADD PUSH1 0x20 DUP3 MUL DUP1 CALLDATASIZE DUP4 CALLDATACOPY ADD SWAP1 POP JUMPDEST POP SWAP1 POP PUSH1 0x0 JUMPDEST DUP3 PUSH2 0xFFFF AND DUP2 PUSH2 0xFFFF AND LT ISZERO PUSH2 0x1957 JUMPI PUSH2 0x1924 DUP5 PUSH1 0x40 MLOAD DUP1 PUSH1 0x20 ADD PUSH1 0x40 MSTORE DUP1 PUSH1 0x0 DUP2 MSTORE POP PUSH2 0x2C68 JUMP JUMPDEST DUP3 DUP3 PUSH2 0xFFFF AND DUP2 MLOAD DUP2 LT PUSH2 0x193A JUMPI PUSH2 0x193A PUSH2 0x4B10 JUMP JUMPDEST PUSH1 0x20 SWAP1 DUP2 MUL SWAP2 SWAP1 SWAP2 ADD ADD MSTORE DUP1 PUSH2 0x194F DUP2 PUSH2 0x4A7D JUMP JUMPDEST SWAP2 POP POP PUSH2 0x18FB JUMP JUMPDEST POP PUSH1 0x1 DUP1 SSTORE SWAP3 SWAP2 POP POP JUMP JUMPDEST CALLER PUSH2 0x196B PUSH2 0x15EB JUMP JUMPDEST PUSH1 0x1 PUSH1 0x1 PUSH1 0xA0 SHL SUB AND EQ DUP1 PUSH2 0x1986 JUMPI POP PUSH2 0x1986 PUSH1 0x2 CALLER PUSH2 0x1F0B JUMP JUMPDEST PUSH2 0x19A2 JUMPI PUSH1 0x40 MLOAD PUSH3 0x461BCD PUSH1 0xE5 SHL DUP2 MSTORE PUSH1 0x4 ADD PUSH2 0x720 SWAP1 PUSH2 0x4854 JUMP JUMPDEST PUSH2 0xA47 DUP6 DUP6 DUP6 DUP6 DUP6 PUSH2 0x2866 JUMP JUMPDEST PUSH2 0x19B9 CALLER DUP4 PUSH2 0x2325 JUMP JUMPDEST PUSH2 0x19D5 JUMPI PUSH1 0x40 MLOAD PUSH3 0x461BCD PUSH1 0xE5 SHL DUP2 MSTORE PUSH1 0x4 ADD PUSH2 0x720 SWAP1 PUSH2 0x4898 JUMP JUMPDEST PUSH2 0xCE2 DUP5 DUP5 DUP5 DUP5 PUSH2 0x2DAC JUMP JUMPDEST PUSH1 0x60 PUSH2 0x19EC DUP3 PUSH2 0x20A0 JUMP JUMPDEST PUSH2 0x1A08 JUMPI PUSH1 0x40 MLOAD PUSH3 0x461BCD PUSH1 0xE5 SHL DUP2 MSTORE PUSH1 0x4 ADD PUSH2 0x720 SWAP1 PUSH2 0x479F JUMP JUMPDEST PUSH2 0x1A11 DUP3 PUSH2 0x2DDF JUMP JUMPDEST DUP1 SLOAD DUP1 PUSH1 0x20 MUL PUSH1 0x20 ADD PUSH1 0x40 MLOAD SWAP1 DUP2 ADD PUSH1 0x40 MSTORE DUP1 SWAP3 SWAP2 SWAP1 DUP2 DUP2 MSTORE PUSH1 0x20 ADD DUP3 DUP1 SLOAD DUP1 ISZERO PUSH2 0x97E JUMPI PUSH1 0x20 MUL DUP3 ADD SWAP2 SWAP1 PUSH1 0x0 MSTORE PUSH1 0x20 PUSH1 0x0 KECCAK256 SWAP1 JUMPDEST DUP2 SLOAD PUSH1 0x1 PUSH1 0x1 PUSH1 0xA0 SHL SUB AND DUP2 MSTORE PUSH1 0x1 SWAP1 SWAP2 ADD SWAP1 PUSH1 0x20 ADD DUP1 DUP4 GT PUSH2 0x1A47 JUMPI POP POP POP POP POP SWAP1 POP SWAP2 SWAP1 POP JUMP JUMPDEST PUSH1 0x60 DUP1 PUSH2 0x1A7C DUP4 PUSH2 0x20A0 JUMP JUMPDEST PUSH2 0x1A98 JUMPI PUSH1 0x40 MLOAD PUSH3 0x461BCD PUSH1 0xE5 SHL DUP2 MSTORE PUSH1 0x4 ADD PUSH2 0x720 SWAP1 PUSH2 0x479F JUMP JUMPDEST PUSH2 0x1AA1 DUP4 PUSH2 0x2E6B JUMP JUMPDEST DUP2 SLOAD PUSH1 0x40 DUP1 MLOAD PUSH1 0x20 DUP1 DUP5 MUL DUP3 ADD DUP2 ADD SWAP1 SWAP3 MSTORE DUP3 DUP2 MSTORE SWAP2 DUP5 SWAP2 DUP4 ADD DUP3 DUP3 DUP1 ISZERO PUSH2 0x1AF2 JUMPI PUSH1 0x20 MUL DUP3 ADD SWAP2 SWAP1 PUSH1 0x0 MSTORE PUSH1 0x20 PUSH1 0x0 KECCAK256 SWAP1 JUMPDEST DUP2 SLOAD PUSH1 0x1 PUSH1 0x1 PUSH1 0xA0 SHL SUB AND DUP2 MSTORE PUSH1 0x1 SWAP1 SWAP2 ADD SWAP1 PUSH1 0x20 ADD DUP1 DUP4 GT PUSH2 0x1AD4 JUMPI JUMPDEST POP POP POP POP POP SWAP2 POP DUP1 DUP1 SLOAD DUP1 PUSH1 0x20 MUL PUSH1 0x20 ADD PUSH1 0x40 MLOAD SWAP1 DUP2 ADD PUSH1 0x40 MSTORE DUP1 SWAP3 SWAP2 SWAP1 DUP2 DUP2 MSTORE PUSH1 0x20 ADD DUP3 DUP1 SLOAD DUP1 ISZERO PUSH2 0x1B44 JUMPI PUSH1 0x20 MUL DUP3 ADD SWAP2 SWAP1 PUSH1 0x0 MSTORE PUSH1 0x20 PUSH1 0x0 KECCAK256 SWAP1 JUMPDEST DUP2 SLOAD DUP2 MSTORE PUSH1 0x20 ADD SWAP1 PUSH1 0x1 ADD SWAP1 DUP1 DUP4 GT PUSH2 0x1B30 JUMPI JUMPDEST POP POP POP POP POP SWAP1 POP SWAP2 POP SWAP2 POP SWAP2 POP SWAP2 JUMP JUMPDEST PUSH1 0x60 PUSH2 0x1B5F DUP3 PUSH2 0x20A0 JUMP JUMPDEST PUSH2 0x1B7B JUMPI PUSH1 0x40 MLOAD PUSH3 0x461BCD PUSH1 0xE5 SHL DUP2 MSTORE PUSH1 0x4 ADD PUSH2 0x720 SWAP1 PUSH2 0x479F JUMP JUMPDEST PUSH2 0x6DA DUP3 PUSH2 0x2E89 JUMP JUMPDEST CALLER PUSH2 0x1B8D PUSH2 0x15EB JUMP JUMPDEST PUSH1 0x1 PUSH1 0x1 PUSH1 0xA0 SHL SUB AND EQ DUP1 PUSH2 0x1BA8 JUMPI POP PUSH2 0x1BA8 PUSH1 0x2 CALLER PUSH2 0x1F0B JUMP JUMPDEST PUSH2 0x1BC4 JUMPI PUSH1 0x40 MLOAD PUSH3 0x461BCD PUSH1 0xE5 SHL DUP2 MSTORE PUSH1 0x4 ADD PUSH2 0x720 SWAP1 PUSH2 0x4854 JUMP JUMPDEST PUSH2 0x732 DUP2 PUSH2 0x3112 JUMP JUMPDEST PUSH1 0x60 PUSH1 0x2 PUSH1 0x1 SLOAD EQ ISZERO PUSH2 0x1BF2 JUMPI PUSH1 0x40 MLOAD PUSH3 0x461BCD PUSH1 0xE5 SHL DUP2 MSTORE PUSH1 0x4 ADD PUSH2 0x720 SWAP1 PUSH2 0x48E6 JUMP JUMPDEST PUSH1 0x2 PUSH1 0x1 SSTORE PUSH2 0x1C02 PUSH1 0xB CALLER PUSH2 0x1F0B JUMP JUMPDEST PUSH2 0x1C1E JUMPI PUSH1 0x40 MLOAD PUSH3 0x461BCD PUSH1 0xE5 SHL DUP2 MSTORE PUSH1 0x4 ADD PUSH2 0x720 SWAP1 PUSH2 0x4769 JUMP JUMPDEST DUP2 PUSH2 0xFFFF AND PUSH1 0x1 PUSH1 0x1 PUSH1 0x40 SHL SUB DUP2 GT ISZERO PUSH2 0x1C3A JUMPI PUSH2 0x1C3A PUSH2 0x4B26 JUMP JUMPDEST PUSH1 0x40 MLOAD SWAP1 DUP1 DUP3 MSTORE DUP1 PUSH1 0x20 MUL PUSH1 0x20 ADD DUP3 ADD PUSH1 0x40 MSTORE DUP1 ISZERO PUSH2 0x1C63 JUMPI DUP2 PUSH1 0x20 ADD PUSH1 0x20 DUP3 MUL DUP1 CALLDATASIZE DUP4 CALLDATACOPY ADD SWAP1 POP JUMPDEST POP SWAP1 POP PUSH1 0x0 JUMPDEST DUP3 PUSH2 0xFFFF AND DUP2 PUSH2 0xFFFF AND LT ISZERO PUSH2 0x1957 JUMPI PUSH2 0x1C92 DUP5 PUSH1 0x40 MLOAD DUP1 PUSH1 0x20 ADD PUSH1 0x40 MSTORE DUP1 PUSH1 0x0 DUP2 MSTORE POP PUSH2 0x2519 JUMP JUMPDEST DUP3 DUP3 PUSH2 0xFFFF AND DUP2 MLOAD DUP2 LT PUSH2 0x1CA8 JUMPI PUSH2 0x1CA8 PUSH2 0x4B10 JUMP JUMPDEST PUSH1 0x20 SWAP1 DUP2 MUL SWAP2 SWAP1 SWAP2 ADD ADD MSTORE DUP1 PUSH2 0x1CBD DUP2 PUSH2 0x4A7D JUMP JUMPDEST SWAP2 POP POP PUSH2 0x1C69 JUMP JUMPDEST PUSH2 0x1CD0 PUSH1 0xB CALLER PUSH2 0x1F0B JUMP JUMPDEST PUSH2 0x1CEC JUMPI PUSH1 0x40 MLOAD PUSH3 0x461BCD PUSH1 0xE5 SHL DUP2 MSTORE PUSH1 0x4 ADD PUSH2 0x720 SWAP1 PUSH2 0x4769 JUMP JUMPDEST PUSH2 0x8FF DUP4 DUP4 DUP4 PUSH2 0x2BB3 JUMP JUMPDEST PUSH1 0x1 PUSH1 0x1 PUSH1 0xA0 SHL SUB SWAP2 DUP3 AND PUSH1 0x0 SWAP1 DUP2 MSTORE PUSH1 0x9 PUSH1 0x20 SWAP1 DUP2 MSTORE PUSH1 0x40 DUP1 DUP4 KECCAK256 SWAP4 SWAP1 SWAP5 AND DUP3 MSTORE SWAP2 SWAP1 SWAP2 MSTORE KECCAK256 SLOAD PUSH1 0xFF AND SWAP1 JUMP JUMPDEST CALLER PUSH2 0x1D2E PUSH2 0x15EB JUMP JUMPDEST PUSH1 0x1 PUSH1 0x1 PUSH1 0xA0 SHL SUB AND EQ DUP1 PUSH2 0x1D49 JUMPI POP PUSH2 0x1D49 PUSH1 0x2 CALLER PUSH2 0x1F0B JUMP JUMPDEST PUSH2 0x1D65 JUMPI PUSH1 0x40 MLOAD PUSH3 0x461BCD PUSH1 0xE5 SHL DUP2 MSTORE PUSH1 0x4 ADD PUSH2 0x720 SWAP1 PUSH2 0x4854 JUMP JUMPDEST PUSH2 0xBE9 DUP3 DUP3 PUSH2 0x3151 JUMP JUMPDEST PUSH2 0x1D77 PUSH2 0x267A JUMP JUMPDEST PUSH1 0x1 PUSH1 0x1 PUSH1 0xA0 SHL SUB DUP2 AND PUSH2 0x1DDC JUMPI PUSH1 0x40 MLOAD PUSH3 0x461BCD PUSH1 0xE5 SHL DUP2 MSTORE PUSH1 0x20 PUSH1 0x4 DUP3 ADD MSTORE PUSH1 0x26 PUSH1 0x24 DUP3 ADD MSTORE PUSH32 0x4F776E61626C653A206E6577206F776E657220697320746865207A65726F2061 PUSH1 0x44 DUP3 ADD MSTORE PUSH6 0x646472657373 PUSH1 0xD0 SHL PUSH1 0x64 DUP3 ADD MSTORE PUSH1 0x84 ADD PUSH2 0x720 JUMP JUMPDEST PUSH2 0x732 DUP2 PUSH2 0x2C18 JUMP JUMPDEST PUSH1 0x0 PUSH1 0x2 PUSH1 0x1 SLOAD EQ ISZERO PUSH2 0x1E0A JUMPI PUSH1 0x40 MLOAD PUSH3 0x461BCD PUSH1 0xE5 SHL DUP2 MSTORE PUSH1 0x4 ADD PUSH2 0x720 SWAP1 PUSH2 0x48E6 JUMP JUMPDEST PUSH1 0x2 PUSH1 0x1 SSTORE PUSH2 0x1E1A PUSH1 0xB CALLER PUSH2 0x1F0B JUMP JUMPDEST PUSH2 0x1E36 JUMPI PUSH1 0x40 MLOAD PUSH3 0x461BCD PUSH1 0xE5 SHL DUP2 MSTORE PUSH1 0x4 ADD PUSH2 0x720 SWAP1 PUSH2 0x4769 JUMP JUMPDEST PUSH2 0x13B9 DUP5 DUP5 DUP5 DUP1 DUP1 PUSH1 0x1F ADD PUSH1 0x20 DUP1 SWAP2 DIV MUL PUSH1 0x20 ADD PUSH1 0x40 MLOAD SWAP1 DUP2 ADD PUSH1 0x40 MSTORE DUP1 SWAP4 SWAP3 SWAP2 SWAP1 DUP2 DUP2 MSTORE PUSH1 0x20 ADD DUP4 DUP4 DUP1 DUP3 DUP5 CALLDATACOPY PUSH1 0x0 SWAP3 ADD SWAP2 SWAP1 SWAP2 MSTORE POP PUSH2 0x2519 SWAP3 POP POP POP JUMP JUMPDEST PUSH1 0x0 PUSH1 0x1 PUSH1 0x1 PUSH1 0xE0 SHL SUB NOT DUP3 AND PUSH4 0x9088C207 PUSH1 0xE0 SHL EQ DUP1 PUSH2 0x6DA JUMPI POP PUSH2 0x6DA DUP3 PUSH2 0x3286 JUMP JUMPDEST PUSH1 0x0 PUSH1 0x1 PUSH1 0x1 PUSH1 0xE0 SHL SUB NOT DUP3 AND PUSH4 0x80AC58CD PUSH1 0xE0 SHL EQ DUP1 PUSH2 0x6CB JUMPI POP PUSH1 0x1 PUSH1 0x1 PUSH1 0xE0 SHL SUB NOT DUP3 AND PUSH4 0x5B5E139F PUSH1 0xE0 SHL EQ DUP1 PUSH2 0x6DA JUMPI POP PUSH2 0x6DA DUP3 JUMPDEST PUSH1 0x0 PUSH1 0x1 PUSH1 0x1 PUSH1 0xE0 SHL SUB NOT DUP3 AND PUSH4 0x2A9F3ABF PUSH1 0xE1 SHL EQ DUP1 PUSH2 0x6DA JUMPI POP PUSH4 0x1FFC9A7 PUSH1 0xE0 SHL PUSH1 0x1 PUSH1 0x1 PUSH1 0xE0 SHL SUB NOT DUP4 AND EQ PUSH2 0x6DA JUMP JUMPDEST PUSH1 0x0 PUSH2 0x1F20 DUP4 PUSH1 0x1 PUSH1 0x1 PUSH1 0xA0 SHL SUB DUP5 AND PUSH2 0x331C JUMP JUMPDEST SWAP4 SWAP3 POP POP POP JUMP JUMPDEST PUSH1 0x1 PUSH1 0x1 PUSH1 0xA0 SHL SUB DUP2 AND ADDRESS EQ ISZERO PUSH2 0x1F7C JUMPI PUSH1 0x40 MLOAD PUSH3 0x461BCD PUSH1 0xE5 SHL DUP2 MSTORE PUSH1 0x20 PUSH1 0x4 DUP3 ADD MSTORE PUSH1 0x19 PUSH1 0x24 DUP3 ADD MSTORE PUSH25 0x21B0B73737BA10313630B1B5B634B9BA103CB7BAB939B2B633 PUSH1 0x39 SHL PUSH1 0x44 DUP3 ADD MSTORE PUSH1 0x64 ADD PUSH2 0x720 JUMP JUMPDEST PUSH2 0x1F87 PUSH1 0xB DUP3 PUSH2 0x1F0B JUMP JUMPDEST ISZERO PUSH2 0x1FBD JUMPI PUSH1 0x40 MLOAD CALLER SWAP1 PUSH1 0x1 PUSH1 0x1 PUSH1 0xA0 SHL SUB DUP4 AND SWAP1 PUSH1 0x0 DUP1 MLOAD PUSH1 0x20 PUSH2 0x4B76 DUP4 CODECOPY DUP2 MLOAD SWAP2 MSTORE SWAP1 PUSH1 0x0 SWAP1 LOG3 PUSH2 0x1FBB PUSH1 0xB DUP3 PUSH2 0x26D9 JUMP JUMPDEST POP JUMPDEST PUSH2 0x1FC8 PUSH1 0xD DUP3 PUSH2 0x1F0B JUMP JUMPDEST PUSH2 0x732 JUMPI PUSH1 0x40 MLOAD CALLER SWAP1 PUSH1 0x1 PUSH1 0x1 PUSH1 0xA0 SHL SUB DUP4 AND SWAP1 PUSH32 0x5AC7BC5A606CD92A63365F9FDA244499B9ADD0526B22D99937B6BD88181059C SWAP1 PUSH1 0x0 SWAP1 LOG3 PUSH2 0xBE9 PUSH1 0xD DUP3 PUSH2 0x2C03 JUMP JUMPDEST PUSH2 0x2016 DUP2 PUSH2 0x20A0 JUMP JUMPDEST PUSH2 0x732 JUMPI PUSH1 0x40 MLOAD PUSH3 0x461BCD PUSH1 0xE5 SHL DUP2 MSTORE PUSH1 0x4 ADD PUSH2 0x720 SWAP1 PUSH2 0x47F1 JUMP JUMPDEST PUSH1 0x0 DUP2 DUP2 MSTORE PUSH1 0x8 PUSH1 0x20 MSTORE PUSH1 0x40 SWAP1 KECCAK256 DUP1 SLOAD PUSH1 0x1 PUSH1 0x1 PUSH1 0xA0 SHL SUB NOT AND PUSH1 0x1 PUSH1 0x1 PUSH1 0xA0 SHL SUB DUP5 AND SWAP1 DUP2 OR SWAP1 SWAP2 SSTORE DUP2 SWAP1 PUSH2 0x2067 DUP3 PUSH2 0x1134 JUMP JUMPDEST PUSH1 0x1 PUSH1 0x1 PUSH1 0xA0 SHL SUB AND PUSH32 0x8C5BE1E5EBEC7D5BD14F71427D1E84F3DD0314C0F7B2291E5B200AC8C7C3B925 PUSH1 0x40 MLOAD PUSH1 0x40 MLOAD DUP1 SWAP2 SUB SWAP1 LOG4 POP POP JUMP JUMPDEST PUSH1 0x0 SWAP1 DUP2 MSTORE PUSH1 0x6 PUSH1 0x20 MSTORE PUSH1 0x40 SWAP1 KECCAK256 SLOAD PUSH1 0x1 PUSH1 0x1 PUSH1 0xA0 SHL SUB AND ISZERO ISZERO SWAP1 JUMP JUMPDEST PUSH1 0x0 DUP2 DUP2 MSTORE PUSH1 0x19 PUSH1 0x20 MSTORE PUSH1 0x40 DUP2 KECCAK256 SLOAD ISZERO PUSH2 0x20E3 JUMPI POP PUSH1 0x0 SWAP1 DUP2 MSTORE PUSH1 0x19 PUSH1 0x20 MSTORE PUSH1 0x40 SWAP1 KECCAK256 SWAP1 JUMP JUMPDEST PUSH1 0x0 DUP3 DUP2 MSTORE PUSH1 0x11 PUSH1 0x20 SWAP1 DUP2 MSTORE PUSH1 0x40 DUP1 DUP4 KECCAK256 SLOAD PUSH1 0x1 PUSH1 0x1 PUSH1 0xA0 SHL SUB AND DUP4 MSTORE PUSH1 0x17 SWAP1 SWAP2 MSTORE SWAP1 KECCAK256 SLOAD ISZERO PUSH2 0x2135 JUMPI POP PUSH1 0x0 SWAP1 DUP2 MSTORE PUSH1 0x11 PUSH1 0x20 SWAP1 DUP2 MSTORE PUSH1 0x40 DUP1 DUP4 KECCAK256 SLOAD PUSH1 0x1 PUSH1 0x1 PUSH1 0xA0 SHL SUB AND DUP4 MSTORE PUSH1 0x17 SWAP1 SWAP2 MSTORE SWAP1 KECCAK256 SWAP1 JUMP JUMPDEST POP POP ADDRESS PUSH1 0x0 SWAP1 DUP2 MSTORE PUSH1 0x17 PUSH1 0x20 MSTORE PUSH1 0x40 SWAP1 KECCAK256 SWAP1 JUMP JUMPDEST PUSH1 0x0 DUP4 DUP2 MSTORE PUSH1 0x11 PUSH1 0x20 MSTORE PUSH1 0x40 SWAP1 KECCAK256 SLOAD PUSH1 0x1 PUSH1 0x1 PUSH1 0xA0 SHL SUB AND ADDRESS EQ PUSH2 0x217F JUMPI PUSH1 0x40 MLOAD PUSH3 0x461BCD PUSH1 0xE5 SHL DUP2 MSTORE PUSH1 0x4 ADD PUSH2 0x720 SWAP1 PUSH2 0x4742 JUMP JUMPDEST PUSH1 0x0 DUP4 DUP2 MSTORE PUSH1 0x15 PUSH1 0x20 MSTORE PUSH1 0x40 SWAP1 KECCAK256 PUSH2 0xCE2 SWAP1 DUP4 DUP4 PUSH2 0x3AA6 JUMP JUMPDEST DUP3 DUP2 EQ PUSH2 0x21B7 JUMPI PUSH1 0x40 MLOAD PUSH3 0x461BCD PUSH1 0xE5 SHL DUP2 MSTORE PUSH1 0x4 ADD PUSH2 0x720 SWAP1 PUSH2 0x47CA JUMP JUMPDEST PUSH1 0x0 DUP1 JUMPDEST DUP3 DUP2 LT ISZERO PUSH2 0x21FB JUMPI DUP4 DUP4 DUP3 DUP2 DUP2 LT PUSH2 0x21D5 JUMPI PUSH2 0x21D5 PUSH2 0x4B10 JUMP JUMPDEST SWAP1 POP PUSH1 0x20 MUL ADD CALLDATALOAD DUP3 PUSH2 0x21E7 SWAP2 SWAP1 PUSH2 0x49BA JUMP JUMPDEST SWAP2 POP DUP1 PUSH2 0x21F3 DUP2 PUSH2 0x4A9F JUMP JUMPDEST SWAP2 POP POP PUSH2 0x21BB JUMP JUMPDEST POP PUSH2 0x2710 DUP2 LT PUSH2 0x221D JUMPI PUSH1 0x40 MLOAD PUSH3 0x461BCD PUSH1 0xE5 SHL DUP2 MSTORE PUSH1 0x4 ADD PUSH2 0x720 SWAP1 PUSH2 0x4823 JUMP JUMPDEST PUSH1 0x0 DUP7 DUP2 MSTORE PUSH1 0x18 PUSH1 0x20 MSTORE PUSH1 0x40 SWAP1 KECCAK256 PUSH2 0x2236 SWAP1 DUP7 DUP7 PUSH2 0x3B26 JUMP JUMPDEST POP PUSH1 0x0 DUP7 DUP2 MSTORE PUSH1 0x19 PUSH1 0x20 MSTORE PUSH1 0x40 SWAP1 KECCAK256 PUSH2 0x2250 SWAP1 DUP5 DUP5 PUSH2 0x3B79 JUMP JUMPDEST POP DUP6 PUSH32 0xABB46FE0761D77584BDE75697647804FFD8113ABD4D8D06BC664150395ECCDEE DUP7 DUP7 DUP7 DUP7 PUSH1 0x40 MLOAD PUSH2 0x2287 SWAP5 SWAP4 SWAP3 SWAP2 SWAP1 PUSH2 0x45DF JUMP JUMPDEST PUSH1 0x40 MLOAD DUP1 SWAP2 SUB SWAP1 LOG2 POP POP POP POP POP POP JUMP JUMPDEST PUSH1 0x0 DUP2 DUP2 MSTORE PUSH1 0x11 PUSH1 0x20 MSTORE PUSH1 0x40 SWAP1 KECCAK256 SLOAD PUSH1 0x1 PUSH1 0x1 PUSH1 0xA0 SHL SUB AND ADDRESS DUP2 EQ ISZERO PUSH2 0x22F8 JUMPI PUSH1 0x40 MLOAD PUSH3 0x461BCD PUSH1 0xE5 SHL DUP2 MSTORE PUSH1 0x20 PUSH1 0x4 DUP3 ADD MSTORE PUSH1 0x16 PUSH1 0x24 DUP3 ADD MSTORE PUSH22 0x27379032BC3A32B739B4B7B7103337B9103A37B5B2B7 PUSH1 0x51 SHL PUSH1 0x44 DUP3 ADD MSTORE PUSH1 0x64 ADD PUSH2 0x720 JUMP JUMPDEST PUSH2 0x2303 PUSH1 0xD DUP3 PUSH2 0x1F0B JUMP JUMPDEST ISZERO PUSH2 0x2320 JUMPI PUSH1 0x40 MLOAD PUSH3 0x461BCD PUSH1 0xE5 SHL DUP2 MSTORE PUSH1 0x4 ADD PUSH2 0x720 SWAP1 PUSH2 0x4713 JUMP JUMPDEST SWAP2 SWAP1 POP JUMP JUMPDEST PUSH1 0x0 DUP1 PUSH2 0x2331 DUP4 PUSH2 0x1134 JUMP JUMPDEST SWAP1 POP DUP1 PUSH1 0x1 PUSH1 0x1 PUSH1 0xA0 SHL SUB AND DUP5 PUSH1 0x1 PUSH1 0x1 PUSH1 0xA0 SHL SUB AND EQ DUP1 PUSH2 0x2358 JUMPI POP PUSH2 0x2358 DUP2 DUP6 PUSH2 0x1CF7 JUMP JUMPDEST DUP1 PUSH2 0x237C JUMPI POP DUP4 PUSH1 0x1 PUSH1 0x1 PUSH1 0xA0 SHL SUB AND PUSH2 0x2371 DUP5 PUSH2 0x7C7 JUMP JUMPDEST PUSH1 0x1 PUSH1 0x1 PUSH1 0xA0 SHL SUB AND EQ JUMPDEST SWAP5 SWAP4 POP POP POP POP JUMP JUMPDEST DUP3 PUSH1 0x1 PUSH1 0x1 PUSH1 0xA0 SHL SUB AND PUSH2 0x2397 DUP3 PUSH2 0x1134 JUMP JUMPDEST PUSH1 0x1 PUSH1 0x1 PUSH1 0xA0 SHL SUB AND EQ PUSH2 0x23FB JUMPI PUSH1 0x40 MLOAD PUSH3 0x461BCD PUSH1 0xE5 SHL DUP2 MSTORE PUSH1 0x20 PUSH1 0x4 DUP3 ADD MSTORE PUSH1 0x25 PUSH1 0x24 DUP3 ADD MSTORE PUSH32 0x4552433732313A207472616E736665722066726F6D20696E636F727265637420 PUSH1 0x44 DUP3 ADD MSTORE PUSH5 0x37BBB732B9 PUSH1 0xD9 SHL PUSH1 0x64 DUP3 ADD MSTORE PUSH1 0x84 ADD PUSH2 0x720 JUMP JUMPDEST PUSH1 0x1 PUSH1 0x1 PUSH1 0xA0 SHL SUB DUP3 AND PUSH2 0x245D JUMPI PUSH1 0x40 MLOAD PUSH3 0x461BCD PUSH1 0xE5 SHL DUP2 MSTORE PUSH1 0x20 PUSH1 0x4 DUP3 ADD MSTORE PUSH1 0x24 DUP1 DUP3 ADD MSTORE PUSH32 0x4552433732313A207472616E7366657220746F20746865207A65726F20616464 PUSH1 0x44 DUP3 ADD MSTORE PUSH4 0x72657373 PUSH1 0xE0 SHL PUSH1 0x64 DUP3 ADD MSTORE PUSH1 0x84 ADD PUSH2 0x720 JUMP JUMPDEST PUSH2 0x2468 DUP4 DUP4 DUP4 PUSH2 0x3334 JUMP JUMPDEST PUSH2 0x2473 PUSH1 0x0 DUP3 PUSH2 0x2032 JUMP JUMPDEST PUSH1 0x1 PUSH1 0x1 PUSH1 0xA0 SHL SUB DUP4 AND PUSH1 0x0 SWAP1 DUP2 MSTORE PUSH1 0x7 PUSH1 0x20 MSTORE PUSH1 0x40 DUP2 KECCAK256 DUP1 SLOAD PUSH1 0x1 SWAP3 SWAP1 PUSH2 0x249C SWAP1 DUP5 SWAP1 PUSH2 0x4A05 JUMP JUMPDEST SWAP1 SWAP2 SSTORE POP POP PUSH1 0x1 PUSH1 0x1 PUSH1 0xA0 SHL SUB DUP3 AND PUSH1 0x0 SWAP1 DUP2 MSTORE PUSH1 0x7 PUSH1 0x20 MSTORE PUSH1 0x40 DUP2 KECCAK256 DUP1 SLOAD PUSH1 0x1 SWAP3 SWAP1 PUSH2 0x24CA SWAP1 DUP5 SWAP1 PUSH2 0x49BA JUMP JUMPDEST SWAP1 SWAP2 SSTORE POP POP PUSH1 0x0 DUP2 DUP2 MSTORE PUSH1 0x6 PUSH1 0x20 MSTORE PUSH1 0x40 DUP1 DUP3 KECCAK256 DUP1 SLOAD PUSH1 0x1 PUSH1 0x1 PUSH1 0xA0 SHL SUB NOT AND PUSH1 0x1 PUSH1 0x1 PUSH1 0xA0 SHL SUB DUP7 DUP2 AND SWAP2 DUP3 OR SWAP1 SWAP3 SSTORE SWAP2 MLOAD DUP5 SWAP4 SWAP2 DUP8 AND SWAP2 PUSH1 0x0 DUP1 MLOAD PUSH1 0x20 PUSH2 0x4B96 DUP4 CODECOPY DUP2 MLOAD SWAP2 MSTORE SWAP2 LOG4 POP POP POP JUMP JUMPDEST PUSH1 0xA DUP1 SLOAD PUSH1 0x0 SWAP2 DUP3 PUSH2 0x252A DUP4 PUSH2 0x4A9F JUMP JUMPDEST SWAP2 SWAP1 POP SSTORE POP PUSH1 0xA SLOAD SWAP1 POP PUSH2 0x253E DUP4 DUP3 PUSH2 0x333F JUMP JUMPDEST PUSH1 0x0 DUP2 DUP2 MSTORE PUSH1 0x11 PUSH1 0x20 MSTORE PUSH1 0x40 SWAP1 KECCAK256 DUP1 SLOAD PUSH1 0x1 PUSH1 0x1 PUSH1 0xA0 SHL SUB NOT AND CALLER OR SWAP1 SSTORE PUSH2 0x2566 DUP4 DUP3 PUSH2 0x33CC JUMP JUMPDEST DUP2 MLOAD ISZERO PUSH2 0x258E JUMPI PUSH1 0x0 DUP2 DUP2 MSTORE PUSH1 0x15 PUSH1 0x20 SWAP1 DUP2 MSTORE PUSH1 0x40 SWAP1 SWAP2 KECCAK256 DUP4 MLOAD PUSH2 0x258C SWAP3 DUP6 ADD SWAP1 PUSH2 0x3BB3 JUMP JUMPDEST POP JUMPDEST PUSH2 0x6DA JUMP JUMPDEST PUSH1 0x0 DUP1 PUSH1 0x0 PUSH2 0x25A1 DUP6 PUSH2 0x2DDF JUMP JUMPDEST DUP1 SLOAD SWAP1 SWAP2 POP PUSH1 0x1 LT ISZERO PUSH2 0x25F5 JUMPI PUSH1 0x40 MLOAD PUSH3 0x461BCD PUSH1 0xE5 SHL DUP2 MSTORE PUSH1 0x20 PUSH1 0x4 DUP3 ADD MSTORE PUSH1 0x1C PUSH1 0x24 DUP3 ADD MSTORE PUSH28 0x26B7B932903A3430B71018903937BCB0B63A3C903932B1B2B4BB32B9 PUSH1 0x21 SHL PUSH1 0x44 DUP3 ADD MSTORE PUSH1 0x64 ADD PUSH2 0x720 JUMP JUMPDEST DUP1 SLOAD PUSH2 0x2608 JUMPI ADDRESS PUSH1 0x0 SWAP3 POP SWAP3 POP POP PUSH2 0xB89 JUMP JUMPDEST DUP1 PUSH1 0x0 DUP2 SLOAD DUP2 LT PUSH2 0x261B JUMPI PUSH2 0x261B PUSH2 0x4B10 JUMP JUMPDEST PUSH1 0x0 SWAP2 DUP3 MSTORE PUSH1 0x20 SWAP1 SWAP2 KECCAK256 ADD SLOAD PUSH1 0x1 PUSH1 0x1 PUSH1 0xA0 SHL SUB AND PUSH2 0x2710 DUP6 PUSH2 0x263D DUP9 PUSH2 0x20BD JUMP JUMPDEST PUSH1 0x0 DUP2 SLOAD DUP2 LT PUSH2 0x264F JUMPI PUSH2 0x264F PUSH2 0x4B10 JUMP JUMPDEST SWAP1 PUSH1 0x0 MSTORE PUSH1 0x20 PUSH1 0x0 KECCAK256 ADD SLOAD PUSH2 0x2664 SWAP2 SWAP1 PUSH2 0x49E6 JUMP JUMPDEST PUSH2 0x266E SWAP2 SWAP1 PUSH2 0x49D2 JUMP JUMPDEST SWAP3 POP SWAP3 POP POP SWAP3 POP SWAP3 SWAP1 POP JUMP JUMPDEST CALLER PUSH2 0x2683 PUSH2 0x15EB JUMP JUMPDEST PUSH1 0x1 PUSH1 0x1 PUSH1 0xA0 SHL SUB AND EQ PUSH2 0x128A JUMPI PUSH1 0x40 MLOAD PUSH3 0x461BCD PUSH1 0xE5 SHL DUP2 MSTORE PUSH1 0x20 PUSH1 0x4 DUP3 ADD DUP2 SWAP1 MSTORE PUSH1 0x24 DUP3 ADD MSTORE PUSH32 0x4F776E61626C653A2063616C6C6572206973206E6F7420746865206F776E6572 PUSH1 0x44 DUP3 ADD MSTORE PUSH1 0x64 ADD PUSH2 0x720 JUMP JUMPDEST PUSH1 0x0 PUSH2 0x1F20 DUP4 PUSH1 0x1 PUSH1 0x1 PUSH1 0xA0 SHL SUB DUP5 AND PUSH2 0x33E6 JUMP JUMPDEST ADDRESS PUSH1 0x0 SWAP1 DUP2 MSTORE PUSH1 0x12 PUSH1 0x20 SWAP1 DUP2 MSTORE PUSH1 0x40 SWAP1 SWAP2 KECCAK256 DUP3 MLOAD PUSH2 0xBE9 SWAP3 DUP5 ADD SWAP1 PUSH2 0x3BB3 JUMP JUMPDEST PUSH1 0x1 PUSH1 0x1 PUSH1 0xA0 SHL SUB DUP5 AND ADDRESS EQ ISZERO PUSH2 0x275A JUMPI PUSH1 0x40 MLOAD PUSH3 0x461BCD PUSH1 0xE5 SHL DUP2 MSTORE PUSH1 0x20 PUSH1 0x4 DUP3 ADD MSTORE PUSH1 0x10 PUSH1 0x24 DUP3 ADD MSTORE PUSH16 0x10DC99585D1BDC8E88125B9D985B1A59 PUSH1 0x82 SHL PUSH1 0x44 DUP3 ADD MSTORE PUSH1 0x64 ADD PUSH2 0x720 JUMP JUMPDEST PUSH2 0x276C DUP5 PUSH1 0x1 PUSH1 0x1 PUSH1 0xA0 SHL SUB AND PUSH2 0x34D9 JUMP JUMPDEST PUSH2 0x27C6 JUMPI PUSH1 0x40 MLOAD PUSH3 0x461BCD PUSH1 0xE5 SHL DUP2 MSTORE PUSH1 0x20 PUSH1 0x4 DUP3 ADD MSTORE PUSH1 0x25 PUSH1 0x24 DUP3 ADD MSTORE PUSH32 0x43726561746F723A20457874656E73696F6E206D757374206265206120636F6E PUSH1 0x44 DUP3 ADD MSTORE PUSH5 0x1D1C9858DD PUSH1 0xDA SHL PUSH1 0x64 DUP3 ADD MSTORE PUSH1 0x84 ADD PUSH2 0x720 JUMP JUMPDEST PUSH2 0x27D1 PUSH1 0xB DUP6 PUSH2 0x1F0B JUMP JUMPDEST PUSH2 0xCE2 JUMPI PUSH1 0x1 PUSH1 0x1 PUSH1 0xA0 SHL SUB DUP5 AND PUSH1 0x0 SWAP1 DUP2 MSTORE PUSH1 0x12 PUSH1 0x20 MSTORE PUSH1 0x40 SWAP1 KECCAK256 PUSH2 0x27F8 SWAP1 DUP5 DUP5 PUSH2 0x3AA6 JUMP JUMPDEST POP PUSH1 0x1 PUSH1 0x1 PUSH1 0xA0 SHL SUB DUP5 AND PUSH1 0x0 DUP2 DUP2 MSTORE PUSH1 0x13 PUSH1 0x20 MSTORE PUSH1 0x40 DUP1 DUP3 KECCAK256 DUP1 SLOAD PUSH1 0xFF NOT AND DUP6 ISZERO ISZERO OR SWAP1 SSTORE MLOAD CALLER SWAP3 SWAP2 PUSH32 0xD8CB8BA4086944EABF43C5535B7712015E4D4C714B24BF812C040EA5B7A3E42A SWAP2 LOG3 PUSH2 0xA47 PUSH1 0xB DUP6 PUSH2 0x2C03 JUMP JUMPDEST PUSH1 0x0 PUSH2 0x6DA DUP3 SLOAD SWAP1 JUMP JUMPDEST PUSH1 0x0 PUSH2 0x1F20 DUP4 DUP4 PUSH2 0x34E8 JUMP JUMPDEST DUP3 DUP2 EQ PUSH2 0x2885 JUMPI PUSH1 0x40 MLOAD PUSH3 0x461BCD PUSH1 0xE5 SHL DUP2 MSTORE PUSH1 0x4 ADD PUSH2 0x720 SWAP1 PUSH2 0x47CA JUMP JUMPDEST PUSH1 0x0 DUP1 JUMPDEST DUP3 DUP2 LT ISZERO PUSH2 0x28C9 JUMPI DUP4 DUP4 DUP3 DUP2 DUP2 LT PUSH2 0x28A3 JUMPI PUSH2 0x28A3 PUSH2 0x4B10 JUMP JUMPDEST SWAP1 POP PUSH1 0x20 MUL ADD CALLDATALOAD DUP3 PUSH2 0x28B5 SWAP2 SWAP1 PUSH2 0x49BA JUMP JUMPDEST SWAP2 POP DUP1 PUSH2 0x28C1 DUP2 PUSH2 0x4A9F JUMP JUMPDEST SWAP2 POP POP PUSH2 0x2889 JUMP JUMPDEST POP PUSH2 0x2710 DUP2 LT PUSH2 0x28EB JUMPI PUSH1 0x40 MLOAD PUSH3 0x461BCD PUSH1 0xE5 SHL DUP2 MSTORE PUSH1 0x4 ADD PUSH2 0x720 SWAP1 PUSH2 0x4823 JUMP JUMPDEST PUSH1 0x1 PUSH1 0x1 PUSH1 0xA0 SHL SUB DUP7 AND PUSH1 0x0 SWAP1 DUP2 MSTORE PUSH1 0x16 PUSH1 0x20 MSTORE PUSH1 0x40 SWAP1 KECCAK256 PUSH2 0x290E SWAP1 DUP7 DUP7 PUSH2 0x3B26 JUMP JUMPDEST POP PUSH1 0x1 PUSH1 0x1 PUSH1 0xA0 SHL SUB DUP7 AND PUSH1 0x0 SWAP1 DUP2 MSTORE PUSH1 0x17 PUSH1 0x20 MSTORE PUSH1 0x40 SWAP1 KECCAK256 PUSH2 0x2932 SWAP1 DUP5 DUP5 PUSH2 0x3B79 JUMP JUMPDEST POP PUSH1 0x1 PUSH1 0x1 PUSH1 0xA0 SHL SUB DUP7 AND ADDRESS EQ ISZERO PUSH2 0x2986 JUMPI PUSH32 0x2B6849D5976D799A5B0CA4DFD6B40A3D7AFE9EA72C091FA01A958594F9A2659B DUP6 DUP6 DUP6 DUP6 PUSH1 0x40 MLOAD PUSH2 0x2979 SWAP5 SWAP4 SWAP3 SWAP2 SWAP1 PUSH2 0x45DF JUMP JUMPDEST PUSH1 0x40 MLOAD DUP1 SWAP2 SUB SWAP1 LOG1 PUSH2 0x29C5 JUMP JUMPDEST DUP6 PUSH1 0x1 PUSH1 0x1 PUSH1 0xA0 SHL SUB AND PUSH32 0x535A93D2CB000582C0EBEAA9BE4890EC6A287F98EB2DF00C54C300612FD78D8F DUP7 DUP7 DUP7 DUP7 PUSH1 0x40 MLOAD PUSH2 0x2287 SWAP5 SWAP4 SWAP3 SWAP2 SWAP1 PUSH2 0x45DF JUMP JUMPDEST POP POP POP POP POP POP JUMP JUMPDEST CALLER PUSH1 0x0 SWAP1 DUP2 MSTORE PUSH1 0x12 PUSH1 0x20 MSTORE PUSH1 0x40 SWAP1 KECCAK256 PUSH2 0x29E7 SWAP1 DUP5 DUP5 PUSH2 0x3AA6 JUMP JUMPDEST POP CALLER PUSH1 0x0 SWAP1 DUP2 MSTORE PUSH1 0x13 PUSH1 0x20 MSTORE PUSH1 0x40 SWAP1 KECCAK256 DUP1 SLOAD PUSH1 0xFF NOT AND SWAP2 ISZERO ISZERO SWAP2 SWAP1 SWAP2 OR SWAP1 SSTORE POP POP JUMP JUMPDEST PUSH1 0x0 PUSH2 0x2A15 DUP3 PUSH2 0x1134 JUMP JUMPDEST SWAP1 POP PUSH2 0x2A23 DUP2 PUSH1 0x0 DUP5 PUSH2 0x3334 JUMP JUMPDEST PUSH2 0x2A2E PUSH1 0x0 DUP4 PUSH2 0x2032 JUMP JUMPDEST PUSH1 0x1 PUSH1 0x1 PUSH1 0xA0 SHL SUB DUP2 AND PUSH1 0x0 SWAP1 DUP2 MSTORE PUSH1 0x7 PUSH1 0x20 MSTORE PUSH1 0x40 DUP2 KECCAK256 DUP1 SLOAD PUSH1 0x1 SWAP3 SWAP1 PUSH2 0x2A57 SWAP1 DUP5 SWAP1 PUSH2 0x4A05 JUMP JUMPDEST SWAP1 SWAP2 SSTORE POP POP PUSH1 0x0 DUP3 DUP2 MSTORE PUSH1 0x6 PUSH1 0x20 MSTORE PUSH1 0x40 DUP1 DUP3 KECCAK256 DUP1 SLOAD PUSH1 0x1 PUSH1 0x1 PUSH1 0xA0 SHL SUB NOT AND SWAP1 SSTORE MLOAD DUP4 SWAP2 SWAP1 PUSH1 0x1 PUSH1 0x1 PUSH1 0xA0 SHL SUB DUP5 AND SWAP1 PUSH1 0x0 DUP1 MLOAD PUSH1 0x20 PUSH2 0x4B96 DUP4 CODECOPY DUP2 MLOAD SWAP2 MSTORE SWAP1 DUP4 SWAP1 LOG4 POP POP JUMP JUMPDEST PUSH1 0x0 DUP2 DUP2 MSTORE PUSH1 0x11 PUSH1 0x20 MSTORE PUSH1 0x40 SWAP1 KECCAK256 SLOAD PUSH1 0x1 PUSH1 0x1 PUSH1 0xA0 SHL SUB AND ADDRESS EQ PUSH2 0x2B5D JUMPI PUSH1 0x0 DUP2 DUP2 MSTORE PUSH1 0x11 PUSH1 0x20 MSTORE PUSH1 0x40 SWAP1 KECCAK256 SLOAD PUSH2 0x2AE6 SWAP1 PUSH1 0x1 PUSH1 0x1 PUSH1 0xA0 SHL SUB AND PUSH4 0x11686E4B PUSH1 0xE2 SHL PUSH2 0x2D90 JUMP JUMPDEST ISZERO PUSH2 0x2B5D JUMPI PUSH1 0x0 DUP2 DUP2 MSTORE PUSH1 0x11 PUSH1 0x20 MSTORE PUSH1 0x40 SWAP1 DUP2 SWAP1 KECCAK256 SLOAD SWAP1 MLOAD PUSH4 0x11686E4B PUSH1 0xE2 SHL DUP2 MSTORE PUSH1 0x1 PUSH1 0x1 PUSH1 0xA0 SHL SUB SWAP1 SWAP2 AND SWAP1 PUSH4 0x45A1B92C SWAP1 PUSH2 0x2B2A SWAP1 DUP6 SWAP1 DUP6 SWAP1 PUSH1 0x4 ADD PUSH2 0x4579 JUMP JUMPDEST PUSH1 0x0 PUSH1 0x40 MLOAD DUP1 DUP4 SUB DUP2 PUSH1 0x0 DUP8 DUP1 EXTCODESIZE ISZERO DUP1 ISZERO PUSH2 0x2B44 JUMPI PUSH1 0x0 DUP1 REVERT JUMPDEST POP GAS CALL ISZERO DUP1 ISZERO PUSH2 0x2B58 JUMPI RETURNDATASIZE PUSH1 0x0 DUP1 RETURNDATACOPY RETURNDATASIZE PUSH1 0x0 REVERT JUMPDEST POP POP POP POP JUMPDEST PUSH1 0x0 DUP2 DUP2 MSTORE PUSH1 0x15 PUSH1 0x20 MSTORE PUSH1 0x40 SWAP1 KECCAK256 DUP1 SLOAD PUSH2 0x2B76 SWAP1 PUSH2 0x4A48 JUMP JUMPDEST ISZERO SWAP1 POP PUSH2 0x2B94 JUMPI PUSH1 0x0 DUP2 DUP2 MSTORE PUSH1 0x15 PUSH1 0x20 MSTORE PUSH1 0x40 DUP2 KECCAK256 PUSH2 0x2B94 SWAP2 PUSH2 0x3C27 JUMP JUMPDEST PUSH1 0x0 SWAP1 DUP2 MSTORE PUSH1 0x11 PUSH1 0x20 MSTORE PUSH1 0x40 SWAP1 KECCAK256 DUP1 SLOAD PUSH1 0x1 PUSH1 0x1 PUSH1 0xA0 SHL SUB NOT AND SWAP1 SSTORE POP JUMP JUMPDEST PUSH1 0x0 DUP4 DUP2 MSTORE PUSH1 0x11 PUSH1 0x20 MSTORE PUSH1 0x40 SWAP1 KECCAK256 SLOAD PUSH1 0x1 PUSH1 0x1 PUSH1 0xA0 SHL SUB AND CALLER EQ PUSH2 0x217F JUMPI PUSH1 0x40 MLOAD PUSH3 0x461BCD PUSH1 0xE5 SHL DUP2 MSTORE PUSH1 0x4 ADD PUSH2 0x720 SWAP1 PUSH2 0x4742 JUMP JUMPDEST CALLER PUSH1 0x0 SWAP1 DUP2 MSTORE PUSH1 0x14 PUSH1 0x20 MSTORE PUSH1 0x40 SWAP1 KECCAK256 PUSH2 0x8FF SWAP1 DUP4 DUP4 PUSH2 0x3AA6 JUMP JUMPDEST PUSH1 0x0 PUSH2 0x1F20 DUP4 PUSH1 0x1 PUSH1 0x1 PUSH1 0xA0 SHL SUB DUP5 AND PUSH2 0x3512 JUMP JUMPDEST PUSH1 0x0 DUP1 SLOAD PUSH1 0x1 PUSH1 0x1 PUSH1 0xA0 SHL SUB DUP4 DUP2 AND PUSH1 0x1 PUSH1 0x1 PUSH1 0xA0 SHL SUB NOT DUP4 AND DUP2 OR DUP5 SSTORE PUSH1 0x40 MLOAD SWAP2 SWAP1 SWAP3 AND SWAP3 DUP4 SWAP2 PUSH32 0x8BE0079C531659141344CD1FD0A4F28419497F9722A3DAAFE3B4186F6B6457E0 SWAP2 SWAP1 LOG3 POP POP JUMP JUMPDEST PUSH1 0xA DUP1 SLOAD PUSH1 0x0 SWAP2 DUP3 PUSH2 0x2C79 DUP4 PUSH2 0x4A9F JUMP JUMPDEST SWAP1 SWAP2 SSTORE POP POP PUSH1 0xA SLOAD PUSH1 0x0 DUP2 DUP2 MSTORE PUSH1 0x11 PUSH1 0x20 MSTORE PUSH1 0x40 SWAP1 KECCAK256 DUP1 SLOAD PUSH1 0x1 PUSH1 0x1 PUSH1 0xA0 SHL SUB NOT AND ADDRESS OR SWAP1 SSTORE SWAP1 POP PUSH2 0x2566 DUP4 DUP3 PUSH2 0x33CC JUMP JUMPDEST ADDRESS PUSH1 0x0 SWAP1 DUP2 MSTORE PUSH1 0x14 PUSH1 0x20 MSTORE PUSH1 0x40 SWAP1 KECCAK256 PUSH2 0x8FF SWAP1 DUP4 DUP4 PUSH2 0x3AA6 JUMP JUMPDEST DUP2 PUSH1 0x1 PUSH1 0x1 PUSH1 0xA0 SHL SUB AND DUP4 PUSH1 0x1 PUSH1 0x1 PUSH1 0xA0 SHL SUB AND EQ ISZERO PUSH2 0x2D23 JUMPI PUSH1 0x40 MLOAD PUSH3 0x461BCD PUSH1 0xE5 SHL DUP2 MSTORE PUSH1 0x20 PUSH1 0x4 DUP3 ADD MSTORE PUSH1 0x19 PUSH1 0x24 DUP3 ADD MSTORE PUSH25 0x22A9219B99189D1030B8383937BB32903A379031B0B63632B9 PUSH1 0x39 SHL PUSH1 0x44 DUP3 ADD MSTORE PUSH1 0x64 ADD PUSH2 0x720 JUMP JUMPDEST PUSH1 0x1 PUSH1 0x1 PUSH1 0xA0 SHL SUB DUP4 DUP2 AND PUSH1 0x0 DUP2 DUP2 MSTORE PUSH1 0x9 PUSH1 0x20 SWAP1 DUP2 MSTORE PUSH1 0x40 DUP1 DUP4 KECCAK256 SWAP5 DUP8 AND DUP1 DUP5 MSTORE SWAP5 DUP3 MSTORE SWAP2 DUP3 SWAP1 KECCAK256 DUP1 SLOAD PUSH1 0xFF NOT AND DUP7 ISZERO ISZERO SWAP1 DUP2 OR SWAP1 SWAP2 SSTORE SWAP2 MLOAD SWAP2 DUP3 MSTORE PUSH32 0x17307EAB39AB6107E8899845AD3D59BD9653F200F220920489CA2B5937696C31 SWAP2 ADD PUSH1 0x40 MLOAD DUP1 SWAP2 SUB SWAP1 LOG3 POP POP POP JUMP JUMPDEST PUSH1 0x0 PUSH2 0x2D9B DUP4 PUSH2 0x355C JUMP JUMPDEST DUP1 ISZERO PUSH2 0x1F20 JUMPI POP PUSH2 0x1F20 DUP4 DUP4 PUSH2 0x358F JUMP JUMPDEST PUSH2 0x2DB7 DUP5 DUP5 DUP5 PUSH2 0x2384 JUMP JUMPDEST PUSH2 0x2DC3 DUP5 DUP5 DUP5 DUP5 PUSH2 0x3618 JUMP JUMPDEST PUSH2 0xCE2 JUMPI PUSH1 0x40 MLOAD PUSH3 0x461BCD PUSH1 0xE5 SHL DUP2 MSTORE PUSH1 0x4 ADD PUSH2 0x720 SWAP1 PUSH2 0x46C1 JUMP JUMPDEST PUSH1 0x0 DUP2 DUP2 MSTORE PUSH1 0x18 PUSH1 0x20 MSTORE PUSH1 0x40 DUP2 KECCAK256 SLOAD ISZERO PUSH2 0x2E05 JUMPI POP PUSH1 0x0 SWAP1 DUP2 MSTORE PUSH1 0x18 PUSH1 0x20 MSTORE PUSH1 0x40 SWAP1 KECCAK256 SWAP1 JUMP JUMPDEST PUSH1 0x0 DUP3 DUP2 MSTORE PUSH1 0x11 PUSH1 0x20 SWAP1 DUP2 MSTORE PUSH1 0x40 DUP1 DUP4 KECCAK256 SLOAD PUSH1 0x1 PUSH1 0x1 PUSH1 0xA0 SHL SUB AND DUP4 MSTORE PUSH1 0x16 SWAP1 SWAP2 MSTORE SWAP1 KECCAK256 SLOAD ISZERO PUSH2 0x2E57 JUMPI POP PUSH1 0x0 SWAP1 DUP2 MSTORE PUSH1 0x11 PUSH1 0x20 SWAP1 DUP2 MSTORE PUSH1 0x40 DUP1 DUP4 KECCAK256 SLOAD PUSH1 0x1 PUSH1 0x1 PUSH1 0xA0 SHL SUB AND DUP4 MSTORE PUSH1 0x16 SWAP1 SWAP2 MSTORE SWAP1 KECCAK256 SWAP1 JUMP JUMPDEST POP POP ADDRESS PUSH1 0x0 SWAP1 DUP2 MSTORE PUSH1 0x16 PUSH1 0x20 MSTORE PUSH1 0x40 SWAP1 KECCAK256 SWAP1 JUMP JUMPDEST PUSH1 0x0 DUP1 PUSH2 0x2E77 DUP4 PUSH2 0x2DDF JUMP JUMPDEST PUSH2 0x2E80 DUP5 PUSH2 0x20BD JUMP JUMPDEST SWAP2 POP SWAP2 POP SWAP2 POP SWAP2 JUMP JUMPDEST PUSH1 0x0 DUP2 DUP2 MSTORE PUSH1 0x11 PUSH1 0x20 MSTORE PUSH1 0x40 SWAP1 KECCAK256 SLOAD PUSH1 0x60 SWAP1 PUSH1 0x1 PUSH1 0x1 PUSH1 0xA0 SHL SUB AND PUSH2 0x2EAF PUSH1 0xD DUP3 PUSH2 0x1F0B JUMP JUMPDEST ISZERO PUSH2 0x2ECC JUMPI PUSH1 0x40 MLOAD PUSH3 0x461BCD PUSH1 0xE5 SHL DUP2 MSTORE PUSH1 0x4 ADD PUSH2 0x720 SWAP1 PUSH2 0x4713 JUMP JUMPDEST PUSH1 0x0 DUP4 DUP2 MSTORE PUSH1 0x15 PUSH1 0x20 MSTORE PUSH1 0x40 SWAP1 KECCAK256 DUP1 SLOAD PUSH2 0x2EE5 SWAP1 PUSH2 0x4A48 JUMP JUMPDEST ISZERO SWAP1 POP PUSH2 0x2FFF JUMPI PUSH1 0x1 PUSH1 0x1 PUSH1 0xA0 SHL SUB DUP2 AND PUSH1 0x0 SWAP1 DUP2 MSTORE PUSH1 0x14 PUSH1 0x20 MSTORE PUSH1 0x40 SWAP1 KECCAK256 DUP1 SLOAD PUSH2 0x2F0F SWAP1 PUSH2 0x4A48 JUMP JUMPDEST ISZERO SWAP1 POP PUSH2 0x2F60 JUMPI PUSH1 0x1 PUSH1 0x1 PUSH1 0xA0 SHL SUB DUP2 AND PUSH1 0x0 SWAP1 DUP2 MSTORE PUSH1 0x14 PUSH1 0x20 SWAP1 DUP2 MSTORE PUSH1 0x40 DUP1 DUP4 KECCAK256 DUP7 DUP5 MSTORE PUSH1 0x15 DUP4 MSTORE SWAP3 DUP2 SWAP1 KECCAK256 SWAP1 MLOAD PUSH2 0x2F49 SWAP4 SWAP3 ADD PUSH2 0x4503 JUMP JUMPDEST PUSH1 0x40 MLOAD PUSH1 0x20 DUP2 DUP4 SUB SUB DUP2 MSTORE SWAP1 PUSH1 0x40 MSTORE SWAP2 POP POP SWAP2 SWAP1 POP JUMP JUMPDEST PUSH1 0x0 DUP4 DUP2 MSTORE PUSH1 0x15 PUSH1 0x20 MSTORE PUSH1 0x40 SWAP1 KECCAK256 DUP1 SLOAD PUSH2 0x2F79 SWAP1 PUSH2 0x4A48 JUMP JUMPDEST DUP1 PUSH1 0x1F ADD PUSH1 0x20 DUP1 SWAP2 DIV MUL PUSH1 0x20 ADD PUSH1 0x40 MLOAD SWAP1 DUP2 ADD PUSH1 0x40 MSTORE DUP1 SWAP3 SWAP2 SWAP1 DUP2 DUP2 MSTORE PUSH1 0x20 ADD DUP3 DUP1 SLOAD PUSH2 0x2FA5 SWAP1 PUSH2 0x4A48 JUMP JUMPDEST DUP1 ISZERO PUSH2 0x2FF2 JUMPI DUP1 PUSH1 0x1F LT PUSH2 0x2FC7 JUMPI PUSH2 0x100 DUP1 DUP4 SLOAD DIV MUL DUP4 MSTORE SWAP2 PUSH1 0x20 ADD SWAP2 PUSH2 0x2FF2 JUMP JUMPDEST DUP3 ADD SWAP2 SWAP1 PUSH1 0x0 MSTORE PUSH1 0x20 PUSH1 0x0 KECCAK256 SWAP1 JUMPDEST DUP2 SLOAD DUP2 MSTORE SWAP1 PUSH1 0x1 ADD SWAP1 PUSH1 0x20 ADD DUP1 DUP4 GT PUSH2 0x2FD5 JUMPI DUP3 SWAP1 SUB PUSH1 0x1F AND DUP3 ADD SWAP2 JUMPDEST POP POP POP POP POP SWAP2 POP POP SWAP2 SWAP1 POP JUMP JUMPDEST PUSH2 0x3010 DUP2 PUSH4 0xE9DC6375 PUSH1 0xE0 SHL PUSH2 0x2D90 JUMP JUMPDEST ISZERO PUSH2 0x3097 JUMPI PUSH1 0x40 MLOAD PUSH4 0xE9DC6375 PUSH1 0xE0 SHL DUP2 MSTORE PUSH1 0x1 PUSH1 0x1 PUSH1 0xA0 SHL SUB DUP3 AND SWAP1 PUSH4 0xE9DC6375 SWAP1 PUSH2 0x3043 SWAP1 ADDRESS SWAP1 DUP8 SWAP1 PUSH1 0x4 ADD PUSH2 0x4579 JUMP JUMPDEST PUSH1 0x0 PUSH1 0x40 MLOAD DUP1 DUP4 SUB DUP2 DUP7 DUP1 EXTCODESIZE ISZERO DUP1 ISZERO PUSH2 0x305B JUMPI PUSH1 0x0 DUP1 REVERT JUMPDEST POP GAS STATICCALL ISZERO DUP1 ISZERO PUSH2 0x306F JUMPI RETURNDATASIZE PUSH1 0x0 DUP1 RETURNDATACOPY RETURNDATASIZE PUSH1 0x0 REVERT JUMPDEST POP POP POP POP PUSH1 0x40 MLOAD RETURNDATASIZE PUSH1 0x0 DUP3 RETURNDATACOPY PUSH1 0x1F RETURNDATASIZE SWAP1 DUP2 ADD PUSH1 0x1F NOT AND DUP3 ADD PUSH1 0x40 MSTORE PUSH2 0x1F20 SWAP2 SWAP1 DUP2 ADD SWAP1 PUSH2 0x428B JUMP JUMPDEST PUSH1 0x1 PUSH1 0x1 PUSH1 0xA0 SHL SUB DUP2 AND PUSH1 0x0 SWAP1 DUP2 MSTORE PUSH1 0x13 PUSH1 0x20 MSTORE PUSH1 0x40 SWAP1 KECCAK256 SLOAD PUSH1 0xFF AND PUSH2 0x30E9 JUMPI PUSH1 0x1 PUSH1 0x1 PUSH1 0xA0 SHL SUB DUP2 AND PUSH1 0x0 SWAP1 DUP2 MSTORE PUSH1 0x12 PUSH1 0x20 MSTORE PUSH1 0x40 SWAP1 KECCAK256 PUSH2 0x30D8 DUP5 PUSH2 0x372C JUMP JUMPDEST PUSH1 0x40 MLOAD PUSH1 0x20 ADD PUSH2 0x2F49 SWAP3 SWAP2 SWAP1 PUSH2 0x44DE JUMP JUMPDEST PUSH1 0x1 PUSH1 0x1 PUSH1 0xA0 SHL SUB DUP2 AND PUSH1 0x0 SWAP1 DUP2 MSTORE PUSH1 0x12 PUSH1 0x20 MSTORE PUSH1 0x40 SWAP1 KECCAK256 DUP1 SLOAD PUSH2 0x2F79 SWAP1 PUSH2 0x4A48 JUMP JUMPDEST POP SWAP2 SWAP1 POP JUMP JUMPDEST PUSH2 0x311D PUSH1 0xB DUP3 PUSH2 0x1F0B JUMP JUMPDEST ISZERO PUSH2 0x732 JUMPI PUSH1 0x40 MLOAD CALLER SWAP1 PUSH1 0x1 PUSH1 0x1 PUSH1 0xA0 SHL SUB DUP4 AND SWAP1 PUSH1 0x0 DUP1 MLOAD PUSH1 0x20 PUSH2 0x4B76 DUP4 CODECOPY DUP2 MLOAD SWAP2 MSTORE SWAP1 PUSH1 0x0 SWAP1 LOG3 PUSH2 0xBE9 PUSH1 0xB DUP3 PUSH2 0x26D9 JUMP JUMPDEST PUSH2 0x315C PUSH1 0xB DUP4 PUSH2 0x1F0B JUMP JUMPDEST PUSH2 0x31A8 JUMPI PUSH1 0x40 MLOAD PUSH3 0x461BCD PUSH1 0xE5 SHL DUP2 MSTORE PUSH1 0x20 PUSH1 0x4 DUP3 ADD MSTORE PUSH1 0x1E PUSH1 0x24 DUP3 ADD MSTORE PUSH32 0x43726561746F72436F72653A20496E76616C696420657874656E73696F6E0000 PUSH1 0x44 DUP3 ADD MSTORE PUSH1 0x64 ADD PUSH2 0x720 JUMP JUMPDEST PUSH1 0x1 PUSH1 0x1 PUSH1 0xA0 SHL SUB DUP2 AND ISZERO DUP1 PUSH2 0x31CA JUMPI POP PUSH2 0x31CA DUP2 PUSH4 0x1E05385B PUSH1 0xE3 SHL PUSH2 0x2D90 JUMP JUMPDEST PUSH2 0x3208 JUMPI PUSH1 0x40 MLOAD PUSH3 0x461BCD PUSH1 0xE5 SHL DUP2 MSTORE PUSH1 0x20 PUSH1 0x4 DUP3 ADD MSTORE PUSH1 0xF PUSH1 0x24 DUP3 ADD MSTORE PUSH15 0x496E76616C69642061646472657373 PUSH1 0x88 SHL PUSH1 0x44 DUP3 ADD MSTORE PUSH1 0x64 ADD PUSH2 0x720 JUMP JUMPDEST PUSH1 0x1 PUSH1 0x1 PUSH1 0xA0 SHL SUB DUP3 DUP2 AND PUSH1 0x0 SWAP1 DUP2 MSTORE PUSH1 0xF PUSH1 0x20 MSTORE PUSH1 0x40 SWAP1 KECCAK256 SLOAD DUP2 AND SWAP1 DUP3 AND EQ PUSH2 0xBE9 JUMPI PUSH1 0x1 PUSH1 0x1 PUSH1 0xA0 SHL SUB DUP3 DUP2 AND PUSH1 0x0 DUP2 DUP2 MSTORE PUSH1 0xF PUSH1 0x20 MSTORE PUSH1 0x40 DUP1 DUP3 KECCAK256 DUP1 SLOAD PUSH1 0x1 PUSH1 0x1 PUSH1 0xA0 SHL SUB NOT AND SWAP5 DUP7 AND SWAP5 DUP6 OR SWAP1 SSTORE MLOAD CALLER SWAP4 SWAP3 SWAP2 PUSH32 0x6A835C4FCF7E0D398DB3762332FDAA1471814AD39F1E2D6D0B3FDABF8EFEE3E0 SWAP2 LOG4 POP POP JUMP JUMPDEST PUSH1 0x0 PUSH1 0x1 PUSH1 0x1 PUSH1 0xE0 SHL SUB NOT DUP3 AND PUSH4 0x28F10A21 PUSH1 0xE0 SHL EQ DUP1 PUSH2 0x32AB JUMPI POP PUSH2 0x32AB DUP3 PUSH2 0x1E9B JUMP JUMPDEST DUP1 PUSH2 0x32C6 JUMPI POP PUSH1 0x1 PUSH1 0x1 PUSH1 0xE0 SHL SUB NOT DUP3 AND PUSH4 0x5D9DD7EB PUSH1 0xE1 SHL EQ JUMPDEST DUP1 PUSH2 0x32E1 JUMPI POP PUSH1 0x1 PUSH1 0x1 PUSH1 0xE0 SHL SUB NOT DUP3 AND PUSH4 0x2DDE6561 PUSH1 0xE2 SHL EQ JUMPDEST DUP1 PUSH2 0x32FC JUMPI POP PUSH1 0x1 PUSH1 0x1 PUSH1 0xE0 SHL SUB NOT DUP3 AND PUSH4 0x35681B53 PUSH1 0xE2 SHL EQ JUMPDEST DUP1 PUSH2 0x6DA JUMPI POP PUSH1 0x1 PUSH1 0x1 PUSH1 0xE0 SHL SUB NOT DUP3 AND PUSH4 0x152A902D PUSH1 0xE1 SHL EQ SWAP3 SWAP2 POP POP JUMP JUMPDEST PUSH1 0x0 SWAP1 DUP2 MSTORE PUSH1 0x1 SWAP2 SWAP1 SWAP2 ADD PUSH1 0x20 MSTORE PUSH1 0x40 SWAP1 KECCAK256 SLOAD ISZERO ISZERO SWAP1 JUMP JUMPDEST PUSH2 0x8FF DUP4 DUP4 DUP4 PUSH2 0x3829 JUMP JUMPDEST CALLER PUSH1 0x0 SWAP1 DUP2 MSTORE PUSH1 0xF PUSH1 0x20 MSTORE PUSH1 0x40 SWAP1 KECCAK256 SLOAD PUSH1 0x1 PUSH1 0x1 PUSH1 0xA0 SHL SUB AND ISZERO PUSH2 0xBE9 JUMPI CALLER PUSH1 0x0 DUP2 DUP2 MSTORE PUSH1 0xF PUSH1 0x20 MSTORE PUSH1 0x40 SWAP1 DUP2 SWAP1 KECCAK256 SLOAD SWAP1 MLOAD PUSH4 0x1E05385B PUSH1 0xE3 SHL DUP2 MSTORE PUSH1 0x1 PUSH1 0x1 PUSH1 0xA0 SHL SUB SWAP1 SWAP2 AND SWAP2 PUSH4 0xF029C2D8 SWAP2 PUSH2 0x339E SWAP2 SWAP1 DUP7 SWAP1 DUP7 SWAP1 PUSH1 0x4 ADD PUSH2 0x4518 JUMP JUMPDEST PUSH1 0x0 PUSH1 0x40 MLOAD DUP1 DUP4 SUB DUP2 PUSH1 0x0 DUP8 DUP1 EXTCODESIZE ISZERO DUP1 ISZERO PUSH2 0x33B8 JUMPI PUSH1 0x0 DUP1 REVERT JUMPDEST POP GAS CALL ISZERO DUP1 ISZERO PUSH2 0x29C5 JUMPI RETURNDATASIZE PUSH1 0x0 DUP1 RETURNDATACOPY RETURNDATASIZE PUSH1 0x0 REVERT JUMPDEST PUSH2 0xBE9 DUP3 DUP3 PUSH1 0x40 MLOAD DUP1 PUSH1 0x20 ADD PUSH1 0x40 MSTORE DUP1 PUSH1 0x0 DUP2 MSTORE POP PUSH2 0x3947 JUMP JUMPDEST PUSH1 0x0 DUP2 DUP2 MSTORE PUSH1 0x1 DUP4 ADD PUSH1 0x20 MSTORE PUSH1 0x40 DUP2 KECCAK256 SLOAD DUP1 ISZERO PUSH2 0x34CF JUMPI PUSH1 0x0 PUSH2 0x340A PUSH1 0x1 DUP4 PUSH2 0x4A05 JUMP JUMPDEST DUP6 SLOAD SWAP1 SWAP2 POP PUSH1 0x0 SWAP1 PUSH2 0x341E SWAP1 PUSH1 0x1 SWAP1 PUSH2 0x4A05 JUMP JUMPDEST SWAP1 POP DUP2 DUP2 EQ PUSH2 0x3483 JUMPI PUSH1 0x0 DUP7 PUSH1 0x0 ADD DUP3 DUP2 SLOAD DUP2 LT PUSH2 0x343E JUMPI PUSH2 0x343E PUSH2 0x4B10 JUMP JUMPDEST SWAP1 PUSH1 0x0 MSTORE PUSH1 0x20 PUSH1 0x0 KECCAK256 ADD SLOAD SWAP1 POP DUP1 DUP8 PUSH1 0x0 ADD DUP5 DUP2 SLOAD DUP2 LT PUSH2 0x3461 JUMPI PUSH2 0x3461 PUSH2 0x4B10 JUMP JUMPDEST PUSH1 0x0 SWAP2 DUP3 MSTORE PUSH1 0x20 DUP1 DUP4 KECCAK256 SWAP1 SWAP2 ADD SWAP3 SWAP1 SWAP3 SSTORE SWAP2 DUP3 MSTORE PUSH1 0x1 DUP9 ADD SWAP1 MSTORE PUSH1 0x40 SWAP1 KECCAK256 DUP4 SWAP1 SSTORE JUMPDEST DUP6 SLOAD DUP7 SWAP1 DUP1 PUSH2 0x3494 JUMPI PUSH2 0x3494 PUSH2 0x4AFA JUMP JUMPDEST PUSH1 0x1 SWAP1 SUB DUP2 DUP2 SWAP1 PUSH1 0x0 MSTORE PUSH1 0x20 PUSH1 0x0 KECCAK256 ADD PUSH1 0x0 SWAP1 SSTORE SWAP1 SSTORE DUP6 PUSH1 0x1 ADD PUSH1 0x0 DUP7 DUP2 MSTORE PUSH1 0x20 ADD SWAP1 DUP2 MSTORE PUSH1 0x20 ADD PUSH1 0x0 KECCAK256 PUSH1 0x0 SWAP1 SSTORE PUSH1 0x1 SWAP4 POP POP POP POP PUSH2 0x6DA JUMP JUMPDEST PUSH1 0x0 SWAP2 POP POP PUSH2 0x6DA JUMP JUMPDEST PUSH1 0x1 PUSH1 0x1 PUSH1 0xA0 SHL SUB AND EXTCODESIZE ISZERO ISZERO SWAP1 JUMP JUMPDEST PUSH1 0x0 DUP3 PUSH1 0x0 ADD DUP3 DUP2 SLOAD DUP2 LT PUSH2 0x34FF JUMPI PUSH2 0x34FF PUSH2 0x4B10 JUMP JUMPDEST SWAP1 PUSH1 0x0 MSTORE PUSH1 0x20 PUSH1 0x0 KECCAK256 ADD SLOAD SWAP1 POP SWAP3 SWAP2 POP POP JUMP JUMPDEST PUSH1 0x0 PUSH2 0x351E DUP4 DUP4 PUSH2 0x331C JUMP JUMPDEST PUSH2 0x3554 JUMPI POP DUP2 SLOAD PUSH1 0x1 DUP2 DUP2 ADD DUP5 SSTORE PUSH1 0x0 DUP5 DUP2 MSTORE PUSH1 0x20 DUP1 DUP3 KECCAK256 SWAP1 SWAP4 ADD DUP5 SWAP1 SSTORE DUP5 SLOAD DUP5 DUP3 MSTORE DUP3 DUP7 ADD SWAP1 SWAP4 MSTORE PUSH1 0x40 SWAP1 KECCAK256 SWAP2 SWAP1 SWAP2 SSTORE PUSH2 0x6DA JUMP JUMPDEST POP PUSH1 0x0 PUSH2 0x6DA JUMP JUMPDEST PUSH1 0x0 PUSH2 0x356F DUP3 PUSH4 0x1FFC9A7 PUSH1 0xE0 SHL PUSH2 0x358F JUMP JUMPDEST DUP1 ISZERO PUSH2 0x6DA JUMPI POP PUSH2 0x3588 DUP3 PUSH1 0x1 PUSH1 0x1 PUSH1 0xE0 SHL SUB NOT PUSH2 0x358F JUMP JUMPDEST ISZERO SWAP3 SWAP2 POP POP JUMP JUMPDEST PUSH1 0x40 DUP1 MLOAD PUSH1 0x1 PUSH1 0x1 PUSH1 0xE0 SHL SUB NOT DUP4 AND PUSH1 0x24 DUP1 DUP4 ADD SWAP2 SWAP1 SWAP2 MSTORE DUP3 MLOAD DUP1 DUP4 SUB SWAP1 SWAP2 ADD DUP2 MSTORE PUSH1 0x44 SWAP1 SWAP2 ADD SWAP1 SWAP2 MSTORE PUSH1 0x20 DUP1 DUP3 ADD DUP1 MLOAD PUSH1 0x1 PUSH1 0x1 PUSH1 0xE0 SHL SUB AND PUSH4 0x1FFC9A7 PUSH1 0xE0 SHL OR DUP2 MSTORE DUP3 MLOAD PUSH1 0x0 SWAP4 SWAP3 DUP5 SWAP3 DUP4 SWAP3 DUP4 SWAP3 SWAP2 DUP4 SWAP2 SWAP1 DUP11 PUSH2 0x7530 STATICCALL SWAP3 POP RETURNDATASIZE SWAP2 POP PUSH1 0x0 MLOAD SWAP1 POP DUP3 DUP1 ISZERO PUSH2 0x3601 JUMPI POP PUSH1 0x20 DUP3 LT ISZERO JUMPDEST DUP1 ISZERO PUSH2 0x360D JUMPI POP PUSH1 0x0 DUP2 GT JUMPDEST SWAP8 SWAP7 POP POP POP POP POP POP POP JUMP JUMPDEST PUSH1 0x0 PUSH2 0x362C DUP5 PUSH1 0x1 PUSH1 0x1 PUSH1 0xA0 SHL SUB AND PUSH2 0x34D9 JUMP JUMPDEST ISZERO PUSH2 0x3721 JUMPI PUSH1 0x40 MLOAD PUSH4 0xA85BD01 PUSH1 0xE1 SHL DUP2 MSTORE PUSH1 0x1 PUSH1 0x1 PUSH1 0xA0 SHL SUB DUP6 AND SWAP1 PUSH4 0x150B7A02 SWAP1 PUSH2 0x3663 SWAP1 CALLER SWAP1 DUP10 SWAP1 DUP9 SWAP1 DUP9 SWAP1 PUSH1 0x4 ADD PUSH2 0x453C JUMP JUMPDEST PUSH1 0x20 PUSH1 0x40 MLOAD DUP1 DUP4 SUB DUP2 PUSH1 0x0 DUP8 DUP1 EXTCODESIZE ISZERO DUP1 ISZERO PUSH2 0x367D JUMPI PUSH1 0x0 DUP1 REVERT JUMPDEST POP GAS CALL SWAP3 POP POP POP DUP1 ISZERO PUSH2 0x36AD JUMPI POP PUSH1 0x40 DUP1 MLOAD PUSH1 0x1F RETURNDATASIZE SWAP1 DUP2 ADD PUSH1 0x1F NOT AND DUP3 ADD SWAP1 SWAP3 MSTORE PUSH2 0x36AA SWAP2 DUP2 ADD SWAP1 PUSH2 0x41D7 JUMP JUMPDEST PUSH1 0x1 JUMPDEST PUSH2 0x3707 JUMPI RETURNDATASIZE DUP1 DUP1 ISZERO PUSH2 0x36DB JUMPI PUSH1 0x40 MLOAD SWAP2 POP PUSH1 0x1F NOT PUSH1 0x3F RETURNDATASIZE ADD AND DUP3 ADD PUSH1 0x40 MSTORE RETURNDATASIZE DUP3 MSTORE RETURNDATASIZE PUSH1 0x0 PUSH1 0x20 DUP5 ADD RETURNDATACOPY PUSH2 0x36E0 JUMP JUMPDEST PUSH1 0x60 SWAP2 POP JUMPDEST POP DUP1 MLOAD PUSH2 0x36FF JUMPI PUSH1 0x40 MLOAD PUSH3 0x461BCD PUSH1 0xE5 SHL DUP2 MSTORE PUSH1 0x4 ADD PUSH2 0x720 SWAP1 PUSH2 0x46C1 JUMP JUMPDEST DUP1 MLOAD DUP2 PUSH1 0x20 ADD REVERT JUMPDEST PUSH1 0x1 PUSH1 0x1 PUSH1 0xE0 SHL SUB NOT AND PUSH4 0xA85BD01 PUSH1 0xE1 SHL EQ SWAP1 POP PUSH2 0x237C JUMP JUMPDEST POP PUSH1 0x1 SWAP5 SWAP4 POP POP POP POP JUMP JUMPDEST PUSH1 0x60 DUP2 PUSH2 0x3750 JUMPI POP POP PUSH1 0x40 DUP1 MLOAD DUP1 DUP3 ADD SWAP1 SWAP2 MSTORE PUSH1 0x1 DUP2 MSTORE PUSH1 0x3 PUSH1 0xFC SHL PUSH1 0x20 DUP3 ADD MSTORE SWAP1 JUMP JUMPDEST DUP2 PUSH1 0x0 JUMPDEST DUP2 ISZERO PUSH2 0x377A JUMPI DUP1 PUSH2 0x3764 DUP2 PUSH2 0x4A9F JUMP JUMPDEST SWAP2 POP PUSH2 0x3773 SWAP1 POP PUSH1 0xA DUP4 PUSH2 0x49D2 JUMP JUMPDEST SWAP2 POP PUSH2 0x3754 JUMP JUMPDEST PUSH1 0x0 DUP2 PUSH1 0x1 PUSH1 0x1 PUSH1 0x40 SHL SUB DUP2 GT ISZERO PUSH2 0x3794 JUMPI PUSH2 0x3794 PUSH2 0x4B26 JUMP JUMPDEST PUSH1 0x40 MLOAD SWAP1 DUP1 DUP3 MSTORE DUP1 PUSH1 0x1F ADD PUSH1 0x1F NOT AND PUSH1 0x20 ADD DUP3 ADD PUSH1 0x40 MSTORE DUP1 ISZERO PUSH2 0x37BE JUMPI PUSH1 0x20 DUP3 ADD DUP2 DUP1 CALLDATASIZE DUP4 CALLDATACOPY ADD SWAP1 POP JUMPDEST POP SWAP1 POP JUMPDEST DUP5 ISZERO PUSH2 0x237C JUMPI PUSH2 0x37D3 PUSH1 0x1 DUP4 PUSH2 0x4A05 JUMP JUMPDEST SWAP2 POP PUSH2 0x37E0 PUSH1 0xA DUP7 PUSH2 0x4ABA JUMP JUMPDEST PUSH2 0x37EB SWAP1 PUSH1 0x30 PUSH2 0x49BA JUMP JUMPDEST PUSH1 0xF8 SHL DUP2 DUP4 DUP2 MLOAD DUP2 LT PUSH2 0x3800 JUMPI PUSH2 0x3800 PUSH2 0x4B10 JUMP JUMPDEST PUSH1 0x20 ADD ADD SWAP1 PUSH1 0x1 PUSH1 0x1 PUSH1 0xF8 SHL SUB NOT AND SWAP1 DUP2 PUSH1 0x0 BYTE SWAP1 MSTORE8 POP PUSH2 0x3822 PUSH1 0xA DUP7 PUSH2 0x49D2 JUMP JUMPDEST SWAP5 POP PUSH2 0x37C2 JUMP JUMPDEST PUSH1 0x0 DUP2 DUP2 MSTORE PUSH1 0x11 PUSH1 0x20 SWAP1 DUP2 MSTORE PUSH1 0x40 DUP1 DUP4 KECCAK256 SLOAD PUSH1 0x1 PUSH1 0x1 PUSH1 0xA0 SHL SUB AND DUP4 MSTORE PUSH1 0x10 SWAP1 SWAP2 MSTORE SWAP1 KECCAK256 SLOAD PUSH1 0xFF AND ISZERO PUSH2 0x8FF JUMPI PUSH1 0x0 DUP2 DUP2 MSTORE PUSH1 0x11 PUSH1 0x20 MSTORE PUSH1 0x40 SWAP1 DUP2 SWAP1 KECCAK256 SLOAD SWAP1 MLOAD PUSH4 0x82580805 PUSH1 0xE0 SHL DUP2 MSTORE PUSH1 0x1 PUSH1 0x1 PUSH1 0xA0 SHL SUB SWAP1 SWAP2 AND SWAP1 PUSH4 0x82580805 SWAP1 PUSH2 0x3897 SWAP1 DUP7 SWAP1 DUP7 SWAP1 DUP7 SWAP1 PUSH1 0x4 ADD PUSH2 0x4518 JUMP JUMPDEST PUSH1 0x20 PUSH1 0x40 MLOAD DUP1 DUP4 SUB DUP2 PUSH1 0x0 DUP8 DUP1 EXTCODESIZE ISZERO DUP1 ISZERO PUSH2 0x38B1 JUMPI PUSH1 0x0 DUP1 REVERT JUMPDEST POP GAS CALL ISZERO DUP1 ISZERO PUSH2 0x38C5 JUMPI RETURNDATASIZE PUSH1 0x0 DUP1 RETURNDATACOPY RETURNDATASIZE PUSH1 0x0 REVERT JUMPDEST POP POP POP POP PUSH1 0x40 MLOAD RETURNDATASIZE PUSH1 0x1F NOT PUSH1 0x1F DUP3 ADD AND DUP3 ADD DUP1 PUSH1 0x40 MSTORE POP DUP2 ADD SWAP1 PUSH2 0x38E9 SWAP2 SWAP1 PUSH2 0x419D JUMP JUMPDEST PUSH2 0x8FF JUMPI PUSH1 0x40 MLOAD PUSH3 0x461BCD PUSH1 0xE5 SHL DUP2 MSTORE PUSH1 0x20 PUSH1 0x4 DUP3 ADD MSTORE PUSH1 0x29 PUSH1 0x24 DUP3 ADD MSTORE PUSH32 0x45524337323143726561746F723A20457874656E73696F6E20617070726F7661 PUSH1 0x44 DUP3 ADD MSTORE PUSH9 0x6C206661696C757265 PUSH1 0xB8 SHL PUSH1 0x64 DUP3 ADD MSTORE PUSH1 0x84 ADD PUSH2 0x720 JUMP JUMPDEST PUSH2 0x3951 DUP4 DUP4 PUSH2 0x397A JUMP JUMPDEST PUSH2 0x395E PUSH1 0x0 DUP5 DUP5 DUP5 PUSH2 0x3618 JUMP JUMPDEST PUSH2 0x8FF JUMPI PUSH1 0x40 MLOAD PUSH3 0x461BCD PUSH1 0xE5 SHL DUP2 MSTORE PUSH1 0x4 ADD PUSH2 0x720 SWAP1 PUSH2 0x46C1 JUMP JUMPDEST PUSH1 0x1 PUSH1 0x1 PUSH1 0xA0 SHL SUB DUP3 AND PUSH2 0x39D0 JUMPI PUSH1 0x40 MLOAD PUSH3 0x461BCD PUSH1 0xE5 SHL DUP2 MSTORE PUSH1 0x20 PUSH1 0x4 DUP3 ADD DUP2 SWAP1 MSTORE PUSH1 0x24 DUP3 ADD MSTORE PUSH32 0x4552433732313A206D696E7420746F20746865207A65726F2061646472657373 PUSH1 0x44 DUP3 ADD MSTORE PUSH1 0x64 ADD PUSH2 0x720 JUMP JUMPDEST PUSH2 0x39D9 DUP2 PUSH2 0x20A0 JUMP JUMPDEST ISZERO PUSH2 0x3A25 JUMPI PUSH1 0x40 MLOAD PUSH3 0x461BCD PUSH1 0xE5 SHL DUP2 MSTORE PUSH1 0x20 PUSH1 0x4 DUP3 ADD MSTORE PUSH1 0x1C PUSH1 0x24 DUP3 ADD MSTORE PUSH28 0x115490CDCC8C4E881D1BDAD95B88185B1C9958591E481B5A5B9D1959 PUSH1 0x22 SHL PUSH1 0x44 DUP3 ADD MSTORE PUSH1 0x64 ADD PUSH2 0x720 JUMP JUMPDEST PUSH2 0x3A31 PUSH1 0x0 DUP4 DUP4 PUSH2 0x3334 JUMP JUMPDEST PUSH1 0x1 PUSH1 0x1 PUSH1 0xA0 SHL SUB DUP3 AND PUSH1 0x0 SWAP1 DUP2 MSTORE PUSH1 0x7 PUSH1 0x20 MSTORE PUSH1 0x40 DUP2 KECCAK256 DUP1 SLOAD PUSH1 0x1 SWAP3 SWAP1 PUSH2 0x3A5A SWAP1 DUP5 SWAP1 PUSH2 0x49BA JUMP JUMPDEST SWAP1 SWAP2 SSTORE POP POP PUSH1 0x0 DUP2 DUP2 MSTORE PUSH1 0x6 PUSH1 0x20 MSTORE PUSH1 0x40 DUP1 DUP3 KECCAK256 DUP1 SLOAD PUSH1 0x1 PUSH1 0x1 PUSH1 0xA0 SHL SUB NOT AND PUSH1 0x1 PUSH1 0x1 PUSH1 0xA0 SHL SUB DUP7 AND SWAP1 DUP2 OR SWAP1 SWAP2 SSTORE SWAP1 MLOAD DUP4 SWAP3 SWAP1 PUSH1 0x0 DUP1 MLOAD PUSH1 0x20 PUSH2 0x4B96 DUP4 CODECOPY DUP2 MLOAD SWAP2 MSTORE SWAP1 DUP3 SWAP1 LOG4 POP POP JUMP JUMPDEST DUP3 DUP1 SLOAD PUSH2 0x3AB2 SWAP1 PUSH2 0x4A48 JUMP JUMPDEST SWAP1 PUSH1 0x0 MSTORE PUSH1 0x20 PUSH1 0x0 KECCAK256 SWAP1 PUSH1 0x1F ADD PUSH1 0x20 SWAP1 DIV DUP2 ADD SWAP3 DUP3 PUSH2 0x3AD4 JUMPI PUSH1 0x0 DUP6 SSTORE PUSH2 0x3B1A JUMP JUMPDEST DUP3 PUSH1 0x1F LT PUSH2 0x3AED JUMPI DUP3 DUP1 ADD PUSH1 0xFF NOT DUP3 CALLDATALOAD AND OR DUP6 SSTORE PUSH2 0x3B1A JUMP JUMPDEST DUP3 DUP1 ADD PUSH1 0x1 ADD DUP6 SSTORE DUP3 ISZERO PUSH2 0x3B1A JUMPI SWAP2 DUP3 ADD JUMPDEST DUP3 DUP2 GT ISZERO PUSH2 0x3B1A JUMPI DUP3 CALLDATALOAD DUP3 SSTORE SWAP2 PUSH1 0x20 ADD SWAP2 SWAP1 PUSH1 0x1 ADD SWAP1 PUSH2 0x3AFF JUMP JUMPDEST POP PUSH2 0xD92 SWAP3 SWAP2 POP PUSH2 0x3C5D JUMP JUMPDEST DUP3 DUP1 SLOAD DUP3 DUP3 SSTORE SWAP1 PUSH1 0x0 MSTORE PUSH1 0x20 PUSH1 0x0 KECCAK256 SWAP1 DUP2 ADD SWAP3 DUP3 ISZERO PUSH2 0x3B1A JUMPI SWAP2 PUSH1 0x20 MUL DUP3 ADD JUMPDEST DUP3 DUP2 GT ISZERO PUSH2 0x3B1A JUMPI DUP2 SLOAD PUSH1 0x1 PUSH1 0x1 PUSH1 0xA0 SHL SUB NOT AND PUSH1 0x1 PUSH1 0x1 PUSH1 0xA0 SHL SUB DUP5 CALLDATALOAD AND OR DUP3 SSTORE PUSH1 0x20 SWAP1 SWAP3 ADD SWAP2 PUSH1 0x1 SWAP1 SWAP2 ADD SWAP1 PUSH2 0x3B46 JUMP JUMPDEST DUP3 DUP1 SLOAD DUP3 DUP3 SSTORE SWAP1 PUSH1 0x0 MSTORE PUSH1 0x20 PUSH1 0x0 KECCAK256 SWAP1 DUP2 ADD SWAP3 DUP3 ISZERO PUSH2 0x3B1A JUMPI SWAP2 PUSH1 0x20 MUL DUP3 ADD DUP3 DUP2 GT ISZERO PUSH2 0x3B1A JUMPI DUP3 CALLDATALOAD DUP3 SSTORE SWAP2 PUSH1 0x20 ADD SWAP2 SWAP1 PUSH1 0x1 ADD SWAP1 PUSH2 0x3AFF JUMP JUMPDEST DUP3 DUP1 SLOAD PUSH2 0x3BBF SWAP1 PUSH2 0x4A48 JUMP JUMPDEST SWAP1 PUSH1 0x0 MSTORE PUSH1 0x20 PUSH1 0x0 KECCAK256 SWAP1 PUSH1 0x1F ADD PUSH1 0x20 SWAP1 DIV DUP2 ADD SWAP3 DUP3 PUSH2 0x3BE1 JUMPI PUSH1 0x0 DUP6 SSTORE PUSH2 0x3B1A JUMP JUMPDEST DUP3 PUSH1 0x1F LT PUSH2 0x3BFA JUMPI DUP1 MLOAD PUSH1 0xFF NOT AND DUP4 DUP1 ADD OR DUP6 SSTORE PUSH2 0x3B1A JUMP JUMPDEST DUP3 DUP1 ADD PUSH1 0x1 ADD DUP6 SSTORE DUP3 ISZERO PUSH2 0x3B1A JUMPI SWAP2 DUP3 ADD JUMPDEST DUP3 DUP2 GT ISZERO PUSH2 0x3B1A JUMPI DUP3 MLOAD DUP3 SSTORE SWAP2 PUSH1 0x20 ADD SWAP2 SWAP1 PUSH1 0x1 ADD SWAP1 PUSH2 0x3C0C JUMP JUMPDEST POP DUP1 SLOAD PUSH2 0x3C33 SWAP1 PUSH2 0x4A48 JUMP JUMPDEST PUSH1 0x0 DUP3 SSTORE DUP1 PUSH1 0x1F LT PUSH2 0x3C43 JUMPI POP POP JUMP JUMPDEST PUSH1 0x1F ADD PUSH1 0x20 SWAP1 DIV SWAP1 PUSH1 0x0 MSTORE PUSH1 0x20 PUSH1 0x0 KECCAK256 SWAP1 DUP2 ADD SWAP1 PUSH2 0x732 SWAP2 SWAP1 JUMPDEST JUMPDEST DUP1 DUP3 GT ISZERO PUSH2 0xD92 JUMPI PUSH1 0x0 DUP2 SSTORE PUSH1 0x1 ADD PUSH2 0x3C5E JUMP JUMPDEST PUSH1 0x0 DUP1 DUP4 PUSH1 0x1F DUP5 ADD SLT PUSH2 0x3C84 JUMPI PUSH1 0x0 DUP1 REVERT JUMPDEST POP DUP2 CALLDATALOAD PUSH1 0x1 PUSH1 0x1 PUSH1 0x40 SHL SUB DUP2 GT ISZERO PUSH2 0x3C9B JUMPI PUSH1 0x0 DUP1 REVERT JUMPDEST PUSH1 0x20 DUP4 ADD SWAP2 POP DUP4 PUSH1 0x20 DUP3 PUSH1 0x5 SHL DUP6 ADD ADD GT ISZERO PUSH2 0xB89 JUMPI PUSH1 0x0 DUP1 REVERT JUMPDEST PUSH1 0x0 DUP1 DUP4 PUSH1 0x1F DUP5 ADD SLT PUSH2 0x3CC8 JUMPI PUSH1 0x0 DUP1 REVERT JUMPDEST POP DUP2 CALLDATALOAD PUSH1 0x1 PUSH1 0x1 PUSH1 0x40 SHL SUB DUP2 GT ISZERO PUSH2 0x3CDF JUMPI PUSH1 0x0 DUP1 REVERT JUMPDEST PUSH1 0x20 DUP4 ADD SWAP2 POP DUP4 PUSH1 0x20 DUP3 DUP6 ADD ADD GT ISZERO PUSH2 0xB89 JUMPI PUSH1 0x0 DUP1 REVERT JUMPDEST PUSH1 0x0 PUSH1 0x20 DUP3 DUP5 SUB SLT ISZERO PUSH2 0x3D09 JUMPI PUSH1 0x0 DUP1 REVERT JUMPDEST DUP2 CALLDATALOAD PUSH2 0x1F20 DUP2 PUSH2 0x4B3C JUMP JUMPDEST PUSH1 0x0 DUP1 PUSH1 0x40 DUP4 DUP6 SUB SLT ISZERO PUSH2 0x3D27 JUMPI PUSH1 0x0 DUP1 REVERT JUMPDEST DUP3 CALLDATALOAD PUSH2 0x3D32 DUP2 PUSH2 0x4B3C JUMP JUMPDEST SWAP2 POP PUSH1 0x20 DUP4 ADD CALLDATALOAD PUSH2 0x3D42 DUP2 PUSH2 0x4B3C JUMP JUMPDEST DUP1 SWAP2 POP POP SWAP3 POP SWAP3 SWAP1 POP JUMP JUMPDEST PUSH1 0x0 DUP1 PUSH1 0x0 PUSH1 0x60 DUP5 DUP7 SUB SLT ISZERO PUSH2 0x3D62 JUMPI PUSH1 0x0 DUP1 REVERT JUMPDEST DUP4 CALLDATALOAD PUSH2 0x3D6D DUP2 PUSH2 0x4B3C JUMP JUMPDEST SWAP3 POP PUSH1 0x20 DUP5 ADD CALLDATALOAD PUSH2 0x3D7D DUP2 PUSH2 0x4B3C JUMP JUMPDEST SWAP3 SWAP6 SWAP3 SWAP5 POP POP POP PUSH1 0x40 SWAP2 SWAP1 SWAP2 ADD CALLDATALOAD SWAP1 JUMP JUMPDEST PUSH1 0x0 DUP1 PUSH1 0x0 DUP1 PUSH1 0x80 DUP6 DUP8 SUB SLT ISZERO PUSH2 0x3DA4 JUMPI PUSH1 0x0 DUP1 REVERT JUMPDEST DUP5 CALLDATALOAD PUSH2 0x3DAF DUP2 PUSH2 0x4B3C JUMP JUMPDEST SWAP4 POP PUSH1 0x20 DUP6 ADD CALLDATALOAD PUSH2 0x3DBF DUP2 PUSH2 0x4B3C JUMP JUMPDEST SWAP3 POP PUSH1 0x40 DUP6 ADD CALLDATALOAD SWAP2 POP PUSH1 0x60 DUP6 ADD CALLDATALOAD PUSH1 0x1 PUSH1 0x1 PUSH1 0x40 SHL SUB DUP2 GT ISZERO PUSH2 0x3DE1 JUMPI PUSH1 0x0 DUP1 REVERT JUMPDEST DUP6 ADD PUSH1 0x1F DUP2 ADD DUP8 SGT PUSH2 0x3DF2 JUMPI PUSH1 0x0 DUP1 REVERT JUMPDEST DUP1 CALLDATALOAD PUSH2 0x3E05 PUSH2 0x3E00 DUP3 PUSH2 0x4993 JUMP JUMPDEST PUSH2 0x4963 JUMP JUMPDEST DUP2 DUP2 MSTORE DUP9 PUSH1 0x20 DUP4 DUP6 ADD ADD GT ISZERO PUSH2 0x3E1A JUMPI PUSH1 0x0 DUP1 REVERT JUMPDEST DUP2 PUSH1 0x20 DUP5 ADD PUSH1 0x20 DUP4 ADD CALLDATACOPY PUSH1 0x0 PUSH1 0x20 DUP4 DUP4 ADD ADD MSTORE DUP1 SWAP4 POP POP POP POP SWAP3 SWAP6 SWAP2 SWAP5 POP SWAP3 POP JUMP JUMPDEST PUSH1 0x0 DUP1 PUSH1 0x0 DUP1 PUSH1 0x0 PUSH1 0x60 DUP7 DUP9 SUB SLT ISZERO PUSH2 0x3E54 JUMPI PUSH1 0x0 DUP1 REVERT JUMPDEST DUP6 CALLDATALOAD PUSH2 0x3E5F DUP2 PUSH2 0x4B3C JUMP JUMPDEST SWAP5 POP PUSH1 0x20 DUP7 ADD CALLDATALOAD PUSH1 0x1 PUSH1 0x1 PUSH1 0x40 SHL SUB DUP1 DUP3 GT ISZERO PUSH2 0x3E7B JUMPI PUSH1 0x0 DUP1 REVERT JUMPDEST PUSH2 0x3E87 DUP10 DUP4 DUP11 ADD PUSH2 0x3C72 JUMP JUMPDEST SWAP1 SWAP7 POP SWAP5 POP PUSH1 0x40 DUP9 ADD CALLDATALOAD SWAP2 POP DUP1 DUP3 GT ISZERO PUSH2 0x3EA0 JUMPI PUSH1 0x0 DUP1 REVERT JUMPDEST POP PUSH2 0x3EAD DUP9 DUP3 DUP10 ADD PUSH2 0x3C72 JUMP JUMPDEST SWAP7 SWAP10 SWAP6 SWAP9 POP SWAP4 SWAP7 POP SWAP3 SWAP5 SWAP4 SWAP3 POP POP POP JUMP JUMPDEST PUSH1 0x0 DUP1 PUSH1 0x0 PUSH1 0x40 DUP5 DUP7 SUB SLT ISZERO PUSH2 0x3ED3 JUMPI PUSH1 0x0 DUP1 REVERT JUMPDEST DUP4 CALLDATALOAD PUSH2 0x3EDE DUP2 PUSH2 0x4B3C JUMP JUMPDEST SWAP3 POP PUSH1 0x20 DUP5 ADD CALLDATALOAD PUSH1 0x1 PUSH1 0x1 PUSH1 0x40 SHL SUB DUP2 GT ISZERO PUSH2 0x3EF9 JUMPI PUSH1 0x0 DUP1 REVERT JUMPDEST PUSH2 0x3F05 DUP7 DUP3 DUP8 ADD PUSH2 0x3C72 JUMP JUMPDEST SWAP5 SWAP8 SWAP1 SWAP7 POP SWAP4 SWAP5 POP POP POP POP JUMP JUMPDEST PUSH1 0x0 DUP1 PUSH1 0x40 DUP4 DUP6 SUB SLT ISZERO PUSH2 0x3F25 JUMPI PUSH1 0x0 DUP1 REVERT JUMPDEST DUP3 CALLDATALOAD PUSH2 0x3F30 DUP2 PUSH2 0x4B3C JUMP JUMPDEST SWAP2 POP PUSH1 0x20 DUP4 ADD CALLDATALOAD PUSH2 0x3D42 DUP2 PUSH2 0x4B51 JUMP JUMPDEST PUSH1 0x0 DUP1 PUSH1 0x0 PUSH1 0x40 DUP5 DUP7 SUB SLT ISZERO PUSH2 0x3F55 JUMPI PUSH1 0x0 DUP1 REVERT JUMPDEST DUP4 CALLDATALOAD PUSH2 0x3F60 DUP2 PUSH2 0x4B3C JUMP JUMPDEST SWAP3 POP PUSH1 0x20 DUP5 ADD CALLDATALOAD PUSH1 0x1 PUSH1 0x1 PUSH1 0x40 SHL SUB DUP2 GT ISZERO PUSH2 0x3F7B JUMPI PUSH1 0x0 DUP1 REVERT JUMPDEST PUSH2 0x3F05 DUP7 DUP3 DUP8 ADD PUSH2 0x3CB6 JUMP JUMPDEST PUSH1 0x0 DUP1 PUSH1 0x0 DUP1 PUSH1 0x60 DUP6 DUP8 SUB SLT ISZERO PUSH2 0x3F9D JUMPI PUSH1 0x0 DUP1 REVERT JUMPDEST DUP5 CALLDATALOAD PUSH2 0x3FA8 DUP2 PUSH2 0x4B3C JUMP JUMPDEST SWAP4 POP PUSH1 0x20 DUP6 ADD CALLDATALOAD PUSH1 0x1 PUSH1 0x1 PUSH1 0x40 SHL SUB DUP2 GT ISZERO PUSH2 0x3FC3 JUMPI PUSH1 0x0 DUP1 REVERT JUMPDEST PUSH2 0x3FCF DUP8 DUP3 DUP9 ADD PUSH2 0x3CB6 JUMP JUMPDEST SWAP1 SWAP5 POP SWAP3 POP POP PUSH1 0x40 DUP6 ADD CALLDATALOAD PUSH2 0x3FE3 DUP2 PUSH2 0x4B51 JUMP JUMPDEST SWAP4 SWAP7 SWAP3 SWAP6 POP SWAP1 SWAP4 POP POP JUMP JUMPDEST PUSH1 0x0 DUP1 PUSH1 0x40 DUP4 DUP6 SUB SLT ISZERO PUSH2 0x4001 JUMPI PUSH1 0x0 DUP1 REVERT JUMPDEST DUP3 CALLDATALOAD PUSH2 0x400C DUP2 PUSH2 0x4B3C JUMP JUMPDEST SWAP2 POP PUSH1 0x20 DUP4 ADD CALLDATALOAD PUSH2 0xFFFF DUP2 AND DUP2 EQ PUSH2 0x3D42 JUMPI PUSH1 0x0 DUP1 REVERT JUMPDEST PUSH1 0x0 DUP1 PUSH1 0x40 DUP4 DUP6 SUB SLT ISZERO PUSH2 0x4036 JUMPI PUSH1 0x0 DUP1 REVERT JUMPDEST DUP3 CALLDATALOAD PUSH2 0x4041 DUP2 PUSH2 0x4B3C JUMP JUMPDEST SWAP5 PUSH1 0x20 SWAP4 SWAP1 SWAP4 ADD CALLDATALOAD SWAP4 POP POP POP JUMP JUMPDEST PUSH1 0x0 DUP1 PUSH1 0x0 DUP1 PUSH1 0x40 DUP6 DUP8 SUB SLT ISZERO PUSH2 0x4065 JUMPI PUSH1 0x0 DUP1 REVERT JUMPDEST DUP5 CALLDATALOAD PUSH1 0x1 PUSH1 0x1 PUSH1 0x40 SHL SUB DUP1 DUP3 GT ISZERO PUSH2 0x407C JUMPI PUSH1 0x0 DUP1 REVERT JUMPDEST PUSH2 0x4088 DUP9 DUP4 DUP10 ADD PUSH2 0x3C72 JUMP JUMPDEST SWAP1 SWAP7 POP SWAP5 POP PUSH1 0x20 DUP8 ADD CALLDATALOAD SWAP2 POP DUP1 DUP3 GT ISZERO PUSH2 0x40A1 JUMPI PUSH1 0x0 DUP1 REVERT JUMPDEST POP PUSH2 0x40AE DUP8 DUP3 DUP9 ADD PUSH2 0x3C72 JUMP JUMPDEST SWAP6 SWAP9 SWAP5 SWAP8 POP SWAP6 POP POP POP POP JUMP JUMPDEST PUSH1 0x0 DUP1 PUSH1 0x0 PUSH1 0x40 DUP5 DUP7 SUB SLT ISZERO PUSH2 0x40CF JUMPI PUSH1 0x0 DUP1 REVERT JUMPDEST DUP4 CALLDATALOAD PUSH1 0x1 PUSH1 0x1 PUSH1 0x40 SHL SUB DUP1 DUP3 GT ISZERO PUSH2 0x40E6 JUMPI PUSH1 0x0 DUP1 REVERT JUMPDEST DUP2 DUP7 ADD SWAP2 POP DUP7 PUSH1 0x1F DUP4 ADD SLT PUSH2 0x40FA JUMPI PUSH1 0x0 DUP1 REVERT JUMPDEST DUP2 CALLDATALOAD PUSH1 0x20 DUP3 DUP3 GT ISZERO PUSH2 0x410E JUMPI PUSH2 0x410E PUSH2 0x4B26 JUMP JUMPDEST DUP2 PUSH1 0x5 SHL PUSH2 0x411D DUP3 DUP3 ADD PUSH2 0x4963 JUMP JUMPDEST DUP4 DUP2 MSTORE DUP3 DUP2 ADD SWAP1 DUP7 DUP5 ADD DUP4 DUP9 ADD DUP6 ADD DUP14 LT ISZERO PUSH2 0x4138 JUMPI PUSH1 0x0 DUP1 REVERT JUMPDEST PUSH1 0x0 SWAP8 POP JUMPDEST DUP6 DUP9 LT ISZERO PUSH2 0x415B JUMPI DUP1 CALLDATALOAD DUP4 MSTORE PUSH1 0x1 SWAP8 SWAP1 SWAP8 ADD SWAP7 SWAP2 DUP5 ADD SWAP2 DUP5 ADD PUSH2 0x413D JUMP JUMPDEST POP SWAP9 POP POP POP DUP8 ADD CALLDATALOAD SWAP3 POP POP DUP1 DUP3 GT ISZERO PUSH2 0x4173 JUMPI PUSH1 0x0 DUP1 REVERT JUMPDEST POP PUSH2 0x3F05 DUP7 DUP3 DUP8 ADD PUSH2 0x3C72 JUMP JUMPDEST PUSH1 0x0 PUSH1 0x20 DUP3 DUP5 SUB SLT ISZERO PUSH2 0x4192 JUMPI PUSH1 0x0 DUP1 REVERT JUMPDEST DUP2 CALLDATALOAD PUSH2 0x1F20 DUP2 PUSH2 0x4B51 JUMP JUMPDEST PUSH1 0x0 PUSH1 0x20 DUP3 DUP5 SUB SLT ISZERO PUSH2 0x41AF JUMPI PUSH1 0x0 DUP1 REVERT JUMPDEST DUP2 MLOAD PUSH2 0x1F20 DUP2 PUSH2 0x4B51 JUMP JUMPDEST PUSH1 0x0 PUSH1 0x20 DUP3 DUP5 SUB SLT ISZERO PUSH2 0x41CC JUMPI PUSH1 0x0 DUP1 REVERT JUMPDEST DUP2 CALLDATALOAD PUSH2 0x1F20 DUP2 PUSH2 0x4B5F JUMP JUMPDEST PUSH1 0x0 PUSH1 0x20 DUP3 DUP5 SUB SLT ISZERO PUSH2 0x41E9 JUMPI PUSH1 0x0 DUP1 REVERT JUMPDEST DUP2 MLOAD PUSH2 0x1F20 DUP2 PUSH2 0x4B5F JUMP JUMPDEST PUSH1 0x0 DUP1 PUSH1 0x20 DUP4 DUP6 SUB SLT ISZERO PUSH2 0x4207 JUMPI PUSH1 0x0 DUP1 REVERT JUMPDEST DUP3 CALLDATALOAD PUSH1 0x1 PUSH1 0x1 PUSH1 0x40 SHL SUB DUP2 GT ISZERO PUSH2 0x421D JUMPI PUSH1 0x0 DUP1 REVERT JUMPDEST PUSH2 0x4229 DUP6 DUP3 DUP7 ADD PUSH2 0x3CB6 JUMP JUMPDEST SWAP1 SWAP7 SWAP1 SWAP6 POP SWAP4 POP POP POP POP JUMP JUMPDEST PUSH1 0x0 DUP1 PUSH1 0x0 PUSH1 0x40 DUP5 DUP7 SUB SLT ISZERO PUSH2 0x424A JUMPI PUSH1 0x0 DUP1 REVERT JUMPDEST DUP4 CALLDATALOAD PUSH1 0x1 PUSH1 0x1 PUSH1 0x40 SHL SUB DUP2 GT ISZERO PUSH2 0x4260 JUMPI PUSH1 0x0 DUP1 REVERT JUMPDEST PUSH2 0x426C DUP7 DUP3 DUP8 ADD PUSH2 0x3CB6 JUMP JUMPDEST SWAP1 SWAP5 POP SWAP3 POP POP PUSH1 0x20 DUP5 ADD CALLDATALOAD PUSH2 0x4280 DUP2 PUSH2 0x4B51 JUMP JUMPDEST DUP1 SWAP2 POP POP SWAP3 POP SWAP3 POP SWAP3 JUMP JUMPDEST PUSH1 0x0 PUSH1 0x20 DUP3 DUP5 SUB SLT ISZERO PUSH2 0x429D JUMPI PUSH1 0x0 DUP1 REVERT JUMPDEST DUP2 MLOAD PUSH1 0x1 PUSH1 0x1 PUSH1 0x40 SHL SUB DUP2 GT ISZERO PUSH2 0x42B3 JUMPI PUSH1 0x0 DUP1 REVERT JUMPDEST DUP3 ADD PUSH1 0x1F DUP2 ADD DUP5 SGT PUSH2 0x42C4 JUMPI PUSH1 0x0 DUP1 REVERT JUMPDEST DUP1 MLOAD PUSH2 0x42D2 PUSH2 0x3E00 DUP3 PUSH2 0x4993 JUMP JUMPDEST DUP2 DUP2 MSTORE DUP6 PUSH1 0x20 DUP4 DUP6 ADD ADD GT ISZERO PUSH2 0x42E7 JUMPI PUSH1 0x0 DUP1 REVERT JUMPDEST PUSH2 0x42F8 DUP3 PUSH1 0x20 DUP4 ADD PUSH1 0x20 DUP7 ADD PUSH2 0x4A1C JUMP JUMPDEST SWAP6 SWAP5 POP POP POP POP POP JUMP JUMPDEST PUSH1 0x0 PUSH1 0x20 DUP3 DUP5 SUB SLT ISZERO PUSH2 0x4313 JUMPI PUSH1 0x0 DUP1 REVERT JUMPDEST POP CALLDATALOAD SWAP2 SWAP1 POP JUMP JUMPDEST PUSH1 0x0 DUP1 PUSH1 0x0 DUP1 PUSH1 0x0 PUSH1 0x60 DUP7 DUP9 SUB SLT ISZERO PUSH2 0x4332 JUMPI PUSH1 0x0 DUP1 REVERT JUMPDEST DUP6 CALLDATALOAD SWAP5 POP PUSH1 0x20 DUP7 ADD CALLDATALOAD PUSH1 0x1 PUSH1 0x1 PUSH1 0x40 SHL SUB DUP1 DUP3 GT ISZERO PUSH2 0x3E7B JUMPI PUSH1 0x0 DUP1 REVERT JUMPDEST PUSH1 0x0 DUP1 PUSH1 0x0 PUSH1 0x40 DUP5 DUP7 SUB SLT ISZERO PUSH2 0x4365 JUMPI PUSH1 0x0 DUP1 REVERT JUMPDEST DUP4 CALLDATALOAD SWAP3 POP PUSH1 0x20 DUP5 ADD CALLDATALOAD PUSH1 0x1 PUSH1 0x1 PUSH1 0x40 SHL SUB DUP2 GT ISZERO PUSH2 0x3F7B JUMPI PUSH1 0x0 DUP1 REVERT JUMPDEST PUSH1 0x0 DUP1 PUSH1 0x40 DUP4 DUP6 SUB SLT ISZERO PUSH2 0x4395 JUMPI PUSH1 0x0 DUP1 REVERT JUMPDEST POP POP DUP1 CALLDATALOAD SWAP3 PUSH1 0x20 SWAP1 SWAP2 ADD CALLDATALOAD SWAP2 POP JUMP JUMPDEST PUSH1 0x0 DUP2 MLOAD DUP1 DUP5 MSTORE PUSH1 0x20 DUP1 DUP6 ADD SWAP5 POP DUP1 DUP5 ADD PUSH1 0x0 JUMPDEST DUP4 DUP2 LT ISZERO PUSH2 0x43DD JUMPI DUP2 MLOAD PUSH1 0x1 PUSH1 0x1 PUSH1 0xA0 SHL SUB AND DUP8 MSTORE SWAP6 DUP3 ADD SWAP6 SWAP1 DUP3 ADD SWAP1 PUSH1 0x1 ADD PUSH2 0x43B8 JUMP JUMPDEST POP SWAP5 SWAP6 SWAP5 POP POP POP POP POP JUMP JUMPDEST PUSH1 0x0 DUP2 MLOAD DUP1 DUP5 MSTORE PUSH1 0x20 DUP1 DUP6 ADD SWAP5 POP DUP1 DUP5 ADD PUSH1 0x0 JUMPDEST DUP4 DUP2 LT ISZERO PUSH2 0x43DD JUMPI DUP2 MLOAD DUP8 MSTORE SWAP6 DUP3 ADD SWAP6 SWAP1 DUP3 ADD SWAP1 PUSH1 0x1 ADD PUSH2 0x43FC JUMP JUMPDEST PUSH1 0x0 DUP2 MLOAD DUP1 DUP5 MSTORE PUSH2 0x4430 DUP2 PUSH1 0x20 DUP7 ADD PUSH1 0x20 DUP7 ADD PUSH2 0x4A1C JUMP JUMPDEST PUSH1 0x1F ADD PUSH1 0x1F NOT AND SWAP3 SWAP1 SWAP3 ADD PUSH1 0x20 ADD SWAP3 SWAP2 POP POP JUMP JUMPDEST DUP1 SLOAD PUSH1 0x0 SWAP1 PUSH1 0x1 DUP2 DUP2 SHR SWAP1 DUP1 DUP4 AND DUP1 PUSH2 0x445E JUMPI PUSH1 0x7F DUP4 AND SWAP3 POP JUMPDEST PUSH1 0x20 DUP1 DUP5 LT DUP3 EQ ISZERO PUSH2 0x4480 JUMPI PUSH4 0x4E487B71 PUSH1 0xE0 SHL PUSH1 0x0 MSTORE PUSH1 0x22 PUSH1 0x4 MSTORE PUSH1 0x24 PUSH1 0x0 REVERT JUMPDEST DUP2 DUP1 ISZERO PUSH2 0x4494 JUMPI PUSH1 0x1 DUP2 EQ PUSH2 0x44A5 JUMPI PUSH2 0x44D2 JUMP JUMPDEST PUSH1 0xFF NOT DUP7 AND DUP10 MSTORE DUP5 DUP10 ADD SWAP7 POP PUSH2 0x44D2 JUMP JUMPDEST PUSH1 0x0 DUP9 DUP2 MSTORE PUSH1 0x20 SWAP1 KECCAK256 PUSH1 0x0 JUMPDEST DUP7 DUP2 LT ISZERO PUSH2 0x44CA JUMPI DUP2 SLOAD DUP12 DUP3 ADD MSTORE SWAP1 DUP6 ADD SWAP1 DUP4 ADD PUSH2 0x44B1 JUMP JUMPDEST POP POP DUP5 DUP10 ADD SWAP7 POP JUMPDEST POP POP POP POP POP POP SWAP3 SWAP2 POP POP JUMP JUMPDEST PUSH1 0x0 PUSH2 0x44EA DUP3 DUP6 PUSH2 0x4444 JUMP JUMPDEST DUP4 MLOAD PUSH2 0x44FA DUP2 DUP4 PUSH1 0x20 DUP9 ADD PUSH2 0x4A1C JUMP JUMPDEST ADD SWAP5 SWAP4 POP POP POP POP JUMP JUMPDEST PUSH1 0x0 PUSH2 0x237C PUSH2 0x4512 DUP4 DUP7 PUSH2 0x4444 JUMP JUMPDEST DUP5 PUSH2 0x4444 JUMP JUMPDEST PUSH1 0x1 PUSH1 0x1 PUSH1 0xA0 SHL SUB SWAP4 DUP5 AND DUP2 MSTORE SWAP2 SWAP1 SWAP3 AND PUSH1 0x20 DUP3 ADD MSTORE PUSH1 0x40 DUP2 ADD SWAP2 SWAP1 SWAP2 MSTORE PUSH1 0x60 ADD SWAP1 JUMP JUMPDEST PUSH1 0x1 PUSH1 0x1 PUSH1 0xA0 SHL SUB DUP6 DUP2 AND DUP3 MSTORE DUP5 AND PUSH1 0x20 DUP3 ADD MSTORE PUSH1 0x40 DUP2 ADD DUP4 SWAP1 MSTORE PUSH1 0x80 PUSH1 0x60 DUP3 ADD DUP2 SWAP1 MSTORE PUSH1 0x0 SWAP1 PUSH2 0x456F SWAP1 DUP4 ADD DUP5 PUSH2 0x4418 JUMP JUMPDEST SWAP7 SWAP6 POP POP POP POP POP POP JUMP JUMPDEST PUSH1 0x1 PUSH1 0x1 PUSH1 0xA0 SHL SUB SWAP3 SWAP1 SWAP3 AND DUP3 MSTORE PUSH1 0x20 DUP3 ADD MSTORE PUSH1 0x40 ADD SWAP1 JUMP JUMPDEST PUSH1 0x20 DUP1 DUP3 MSTORE DUP3 MLOAD DUP3 DUP3 ADD DUP2 SWAP1 MSTORE PUSH1 0x0 SWAP2 SWAP1 DUP5 DUP3 ADD SWAP1 PUSH1 0x40 DUP6 ADD SWAP1 DUP5 JUMPDEST DUP2 DUP2 LT ISZERO PUSH2 0x45D3 JUMPI DUP4 MLOAD PUSH1 0x1 PUSH1 0x1 PUSH1 0xA0 SHL SUB AND DUP4 MSTORE SWAP3 DUP5 ADD SWAP3 SWAP2 DUP5 ADD SWAP2 PUSH1 0x1 ADD PUSH2 0x45AE JUMP JUMPDEST POP SWAP1 SWAP7 SWAP6 POP POP POP POP POP POP JUMP JUMPDEST PUSH1 0x40 DUP1 DUP3 MSTORE DUP2 ADD DUP5 SWAP1 MSTORE PUSH1 0x0 DUP6 PUSH1 0x60 DUP4 ADD DUP3 JUMPDEST DUP8 DUP2 LT ISZERO PUSH2 0x4622 JUMPI DUP3 CALLDATALOAD PUSH2 0x4605 DUP2 PUSH2 0x4B3C JUMP JUMPDEST PUSH1 0x1 PUSH1 0x1 PUSH1 0xA0 SHL SUB AND DUP3 MSTORE PUSH1 0x20 SWAP3 DUP4 ADD SWAP3 SWAP1 SWAP2 ADD SWAP1 PUSH1 0x1 ADD PUSH2 0x45F2 JUMP JUMPDEST POP DUP4 DUP2 SUB PUSH1 0x20 DUP6 ADD MSTORE DUP5 DUP2 MSTORE PUSH1 0x1 PUSH1 0x1 PUSH1 0xFB SHL SUB DUP6 GT ISZERO PUSH2 0x4642 JUMPI PUSH1 0x0 DUP1 REVERT JUMPDEST DUP5 PUSH1 0x5 SHL SWAP2 POP DUP2 DUP7 PUSH1 0x20 DUP4 ADD CALLDATACOPY PUSH1 0x0 SWAP2 ADD PUSH1 0x20 ADD SWAP1 DUP2 MSTORE SWAP7 SWAP6 POP POP POP POP POP POP JUMP JUMPDEST PUSH1 0x20 DUP2 MSTORE PUSH1 0x0 PUSH2 0x1F20 PUSH1 0x20 DUP4 ADD DUP5 PUSH2 0x43A4 JUMP JUMPDEST PUSH1 0x40 DUP2 MSTORE PUSH1 0x0 PUSH2 0x4689 PUSH1 0x40 DUP4 ADD DUP6 PUSH2 0x43A4 JUMP JUMPDEST DUP3 DUP2 SUB PUSH1 0x20 DUP5 ADD MSTORE PUSH2 0x42F8 DUP2 DUP6 PUSH2 0x43E8 JUMP JUMPDEST PUSH1 0x20 DUP2 MSTORE PUSH1 0x0 PUSH2 0x1F20 PUSH1 0x20 DUP4 ADD DUP5 PUSH2 0x43E8 JUMP JUMPDEST PUSH1 0x20 DUP2 MSTORE PUSH1 0x0 PUSH2 0x1F20 PUSH1 0x20 DUP4 ADD DUP5 PUSH2 0x4418 JUMP JUMPDEST PUSH1 0x20 DUP1 DUP3 MSTORE PUSH1 0x32 SWAP1 DUP3 ADD MSTORE PUSH32 0x4552433732313A207472616E7366657220746F206E6F6E204552433732315265 PUSH1 0x40 DUP3 ADD MSTORE PUSH18 0x31B2B4BB32B91034B6B83632B6B2B73A32B9 PUSH1 0x71 SHL PUSH1 0x60 DUP3 ADD MSTORE PUSH1 0x80 ADD SWAP1 JUMP JUMPDEST PUSH1 0x20 DUP1 DUP3 MSTORE PUSH1 0x15 SWAP1 DUP3 ADD MSTORE PUSH21 0x115E1D195B9CDA5BDB88189B1858DADB1A5CDD1959 PUSH1 0x5A SHL PUSH1 0x40 DUP3 ADD MSTORE PUSH1 0x60 ADD SWAP1 JUMP JUMPDEST PUSH1 0x20 DUP1 DUP3 MSTORE PUSH1 0xD SWAP1 DUP3 ADD MSTORE PUSH13 0x24B73B30B634B2103A37B5B2B7 PUSH1 0x99 SHL PUSH1 0x40 DUP3 ADD MSTORE PUSH1 0x60 ADD SWAP1 JUMP JUMPDEST PUSH1 0x20 DUP1 DUP3 MSTORE PUSH1 0x1C SWAP1 DUP3 ADD MSTORE PUSH28 0x26BAB9BA103132903932B3B4B9BA32B932B21032BC3A32B739B4B7B7 PUSH1 0x21 SHL PUSH1 0x40 DUP3 ADD MSTORE PUSH1 0x60 ADD SWAP1 JUMP JUMPDEST PUSH1 0x20 DUP1 DUP3 MSTORE PUSH1 0x11 SWAP1 DUP3 ADD MSTORE PUSH17 0x2737B732BC34B9BA32B73A103A37B5B2B7 PUSH1 0x79 SHL PUSH1 0x40 DUP3 ADD MSTORE PUSH1 0x60 ADD SWAP1 JUMP JUMPDEST PUSH1 0x20 DUP1 DUP3 MSTORE PUSH1 0xD SWAP1 DUP3 ADD MSTORE PUSH13 0x125B9D985B1A59081A5B9C1D5D PUSH1 0x9A SHL PUSH1 0x40 DUP3 ADD MSTORE PUSH1 0x60 ADD SWAP1 JUMP JUMPDEST PUSH1 0x20 DUP1 DUP3 MSTORE PUSH1 0x18 SWAP1 DUP3 ADD MSTORE PUSH24 0x115490CDCC8C4E881A5B9D985B1A59081D1BDAD95B881251 PUSH1 0x42 SHL PUSH1 0x40 DUP3 ADD MSTORE PUSH1 0x60 ADD SWAP1 JUMP JUMPDEST PUSH1 0x20 DUP1 DUP3 MSTORE PUSH1 0x17 SWAP1 DUP3 ADD MSTORE PUSH23 0x496E76616C696420746F74616C20726F79616C74696573 PUSH1 0x48 SHL PUSH1 0x40 DUP3 ADD MSTORE PUSH1 0x60 ADD SWAP1 JUMP JUMPDEST PUSH1 0x20 DUP1 DUP3 MSTORE PUSH1 0x24 SWAP1 DUP3 ADD MSTORE PUSH32 0x41646D696E436F6E74726F6C3A204D757374206265206F776E6572206F722061 PUSH1 0x40 DUP3 ADD MSTORE PUSH4 0x3236B4B7 PUSH1 0xE1 SHL PUSH1 0x60 DUP3 ADD MSTORE PUSH1 0x80 ADD SWAP1 JUMP JUMPDEST PUSH1 0x20 DUP1 DUP3 MSTORE PUSH1 0x2E SWAP1 DUP3 ADD MSTORE PUSH32 0x4552433732313A2063616C6C6572206973206E6F7420746F6B656E206F776E65 PUSH1 0x40 DUP3 ADD MSTORE PUSH14 0x1C881B9BDC88185C1C1C9BDD9959 PUSH1 0x92 SHL PUSH1 0x60 DUP3 ADD MSTORE PUSH1 0x80 ADD SWAP1 JUMP JUMPDEST PUSH1 0x20 DUP1 DUP3 MSTORE PUSH1 0x1F SWAP1 DUP3 ADD MSTORE PUSH32 0x5265656E7472616E637947756172643A207265656E7472616E742063616C6C00 PUSH1 0x40 DUP3 ADD MSTORE PUSH1 0x60 ADD SWAP1 JUMP JUMPDEST PUSH1 0x0 DUP1 DUP4 CALLDATALOAD PUSH1 0x1E NOT DUP5 CALLDATASIZE SUB ADD DUP2 SLT PUSH2 0x4934 JUMPI PUSH1 0x0 DUP1 REVERT JUMPDEST DUP4 ADD DUP1 CALLDATALOAD SWAP2 POP PUSH1 0x1 PUSH1 0x1 PUSH1 0x40 SHL SUB DUP3 GT ISZERO PUSH2 0x494E JUMPI PUSH1 0x0 DUP1 REVERT JUMPDEST PUSH1 0x20 ADD SWAP2 POP CALLDATASIZE DUP2 SWAP1 SUB DUP3 SGT ISZERO PUSH2 0xB89 JUMPI PUSH1 0x0 DUP1 REVERT JUMPDEST PUSH1 0x40 MLOAD PUSH1 0x1F DUP3 ADD PUSH1 0x1F NOT AND DUP2 ADD PUSH1 0x1 PUSH1 0x1 PUSH1 0x40 SHL SUB DUP2 GT DUP3 DUP3 LT OR ISZERO PUSH2 0x498B JUMPI PUSH2 0x498B PUSH2 0x4B26 JUMP JUMPDEST PUSH1 0x40 MSTORE SWAP2 SWAP1 POP JUMP JUMPDEST PUSH1 0x0 PUSH1 0x1 PUSH1 0x1 PUSH1 0x40 SHL SUB DUP3 GT ISZERO PUSH2 0x49AC JUMPI PUSH2 0x49AC PUSH2 0x4B26 JUMP JUMPDEST POP PUSH1 0x1F ADD PUSH1 0x1F NOT AND PUSH1 0x20 ADD SWAP1 JUMP JUMPDEST PUSH1 0x0 DUP3 NOT DUP3 GT ISZERO PUSH2 0x49CD JUMPI PUSH2 0x49CD PUSH2 0x4ACE JUMP JUMPDEST POP ADD SWAP1 JUMP JUMPDEST PUSH1 0x0 DUP3 PUSH2 0x49E1 JUMPI PUSH2 0x49E1 PUSH2 0x4AE4 JUMP JUMPDEST POP DIV SWAP1 JUMP JUMPDEST PUSH1 0x0 DUP2 PUSH1 0x0 NOT DIV DUP4 GT DUP3 ISZERO ISZERO AND ISZERO PUSH2 0x4A00 JUMPI PUSH2 0x4A00 PUSH2 0x4ACE JUMP JUMPDEST POP MUL SWAP1 JUMP JUMPDEST PUSH1 0x0 DUP3 DUP3 LT ISZERO PUSH2 0x4A17 JUMPI PUSH2 0x4A17 PUSH2 0x4ACE JUMP JUMPDEST POP SUB SWAP1 JUMP JUMPDEST PUSH1 0x0 JUMPDEST DUP4 DUP2 LT ISZERO PUSH2 0x4A37 JUMPI DUP2 DUP2 ADD MLOAD DUP4 DUP3 ADD MSTORE PUSH1 0x20 ADD PUSH2 0x4A1F JUMP JUMPDEST DUP4 DUP2 GT ISZERO PUSH2 0xCE2 JUMPI POP POP PUSH1 0x0 SWAP2 ADD MSTORE JUMP JUMPDEST PUSH1 0x1 DUP2 DUP2 SHR SWAP1 DUP3 AND DUP1 PUSH2 0x4A5C JUMPI PUSH1 0x7F DUP3 AND SWAP2 POP JUMPDEST PUSH1 0x20 DUP3 LT DUP2 EQ ISZERO PUSH2 0x310C JUMPI PUSH4 0x4E487B71 PUSH1 0xE0 SHL PUSH1 0x0 MSTORE PUSH1 0x22 PUSH1 0x4 MSTORE PUSH1 0x24 PUSH1 0x0 REVERT JUMPDEST PUSH1 0x0 PUSH2 0xFFFF DUP1 DUP4 AND DUP2 DUP2 EQ ISZERO PUSH2 0x4A95 JUMPI PUSH2 0x4A95 PUSH2 0x4ACE JUMP JUMPDEST PUSH1 0x1 ADD SWAP4 SWAP3 POP POP POP JUMP JUMPDEST PUSH1 0x0 PUSH1 0x0 NOT DUP3 EQ ISZERO PUSH2 0x4AB3 JUMPI PUSH2 0x4AB3 PUSH2 0x4ACE JUMP JUMPDEST POP PUSH1 0x1 ADD SWAP1 JUMP JUMPDEST PUSH1 0x0 DUP3 PUSH2 0x4AC9 JUMPI PUSH2 0x4AC9 PUSH2 0x4AE4 JUMP JUMPDEST POP MOD SWAP1 JUMP JUMPDEST PUSH4 0x4E487B71 PUSH1 0xE0 SHL PUSH1 0x0 MSTORE PUSH1 0x11 PUSH1 0x4 MSTORE PUSH1 0x24 PUSH1 0x0 REVERT JUMPDEST PUSH4 0x4E487B71 PUSH1 0xE0 SHL PUSH1 0x0 MSTORE PUSH1 0x12 PUSH1 0x4 MSTORE PUSH1 0x24 PUSH1 0x0 REVERT JUMPDEST PUSH4 0x4E487B71 PUSH1 0xE0 SHL PUSH1 0x0 MSTORE PUSH1 0x31 PUSH1 0x4 MSTORE PUSH1 0x24 PUSH1 0x0 REVERT JUMPDEST PUSH4 0x4E487B71 PUSH1 0xE0 SHL PUSH1 0x0 MSTORE PUSH1 0x32 PUSH1 0x4 MSTORE PUSH1 0x24 PUSH1 0x0 REVERT JUMPDEST PUSH4 0x4E487B71 PUSH1 0xE0 SHL PUSH1 0x0 MSTORE PUSH1 0x41 PUSH1 0x4 MSTORE PUSH1 0x24 PUSH1 0x0 REVERT JUMPDEST PUSH1 0x1 PUSH1 0x1 PUSH1 0xA0 SHL SUB DUP2 AND DUP2 EQ PUSH2 0x732 JUMPI PUSH1 0x0 DUP1 REVERT JUMPDEST DUP1 ISZERO ISZERO DUP2 EQ PUSH2 0x732 JUMPI PUSH1 0x0 DUP1 REVERT JUMPDEST PUSH1 0x1 PUSH1 0x1 PUSH1 0xE0 SHL SUB NOT DUP2 AND DUP2 EQ PUSH2 0x732 JUMPI PUSH1 0x0 DUP1 REVERT INVALID 0xD1 SWAP13 0xF8 0x4C CREATE INVALID 0xC6 0xBE 0xC9 0xDD STATICCALL 0x29 0xC6 GASPRICE 0xDF DUP4 0xA5 JUMPI SMOD 0xC7 SLT RETURN 0x2C DUP3 DUP6 0xD6 XOR EXP PUSH25 0x901479DDF252AD1BE2C89B69C2B068FC378DAA952BA7F163C4 LOG1 AND 0x28 CREATE2 GAS 0x4D CREATE2 0x23 0xB3 0xEF LOG2 PUSH5 0x6970667358 0x22 SLT KECCAK256 SELFDESTRUCT CHAINID SWAP8 0xA9 0xC2 0xE2 0x23 XOR 0xC9 CALL MLOAD 0xAE EXTCODESIZE 0xB8 SWAP16 SUB AND 0xEC 0xEA 0xBF OR DUP4 PUSH22 0xF6CF0FE2F5D6AA21C864736F6C634300080700330000 "},"methodIdentifiers":{"approve(address,uint256)":"095ea7b3","approveAdmin(address)":"6d73e669","balanceOf(address)":"70a08231","blacklistExtension(address)":"02e7afb7","burn(uint256)":"42966c68","getAdmins()":"31ae450b","getApproved(uint256)":"081812fc","getExtensions()":"83b7db63","getFeeBps(uint256)":"0ebd4c7f","getFeeRecipients(uint256)":"b9c4d9fb","getFees(uint256)":"d5a06d4c","getRoyalties(uint256)":"bb3bafd6","isAdmin(address)":"24d7806c","isApprovedForAll(address,address)":"e985e9c5","mintBase(address)":"72ff03d3","mintBase(address,string)":"7884af44","mintBaseBatch(address,string[])":"7aa15f16","mintBaseBatch(address,uint16)":"ad2d0ddd","mintExtension(address)":"2928ca58","mintExtension(address,string)":"fe2e1f58","mintExtensionBatch(address,string[])":"38e52e78","mintExtensionBatch(address,uint16)":"e00aab4b","name()":"06fdde03","owner()":"8da5cb5b","ownerOf(uint256)":"6352211e","registerExtension(address,string)":"3071a0f9","registerExtension(address,string,bool)":"3f0f37f6","renounceOwnership()":"715018a6","revokeAdmin(address)":"2d345670","royaltyInfo(uint256,uint256)":"2a55205a","safeTransferFrom(address,address,uint256)":"42842e0e","safeTransferFrom(address,address,uint256,bytes)":"b88d4fde","setApprovalForAll(address,bool)":"a22cb465","setApproveTransferExtension(bool)":"ac0c8cfa","setBaseTokenURI(string)":"30176e13","setBaseTokenURIExtension(string)":"3e6134b8","setBaseTokenURIExtension(string,bool)":"82dcc0c8","setMintPermissions(address,address)":"f0cdc499","setRoyalties(address[],uint256[])":"332dd1ae","setRoyalties(uint256,address[],uint256[])":"20e4afe2","setRoyaltiesExtension(address,address[],uint256[])":"b0fe87c9","setTokenURI(uint256,string)":"162094c4","setTokenURI(uint256[],string[])":"aafb2d44","setTokenURIExtension(uint256,string)":"e92a89f6","setTokenURIExtension(uint256[],string[])":"61e5bc6b","setTokenURIPrefix(string)":"99e0dd7c","setTokenURIPrefixExtension(string)":"66d1e9d0","supportsInterface(bytes4)":"01ffc9a7","symbol()":"95d89b41","tokenExtension(uint256)":"239be317","tokenURI(uint256)":"c87b56dd","transferFrom(address,address,uint256)":"23b872dd","transferOwnership(address)":"f2fde38b","unregisterExtension(address)":"ce8aee9d"}}}}}