{
  "_format": "hh-sol-artifact-1",
  "contractName": "SOULBOUND",
  "sourceName": "contracts/ISoulbound.sol",
  "abi": [
    {
      "inputs": [
        {
          "internalType": "address",
          "name": "creator",
          "type": "address"
        }
      ],
      "stateMutability": "nonpayable",
      "type": "constructor"
    },
    {
      "anonymous": false,
      "inputs": [
        {
          "indexed": true,
          "internalType": "address",
          "name": "account",
          "type": "address"
        },
        {
          "indexed": true,
          "internalType": "address",
          "name": "sender",
          "type": "address"
        }
      ],
      "name": "AdminApproved",
      "type": "event"
    },
    {
      "anonymous": false,
      "inputs": [
        {
          "indexed": true,
          "internalType": "address",
          "name": "account",
          "type": "address"
        },
        {
          "indexed": true,
          "internalType": "address",
          "name": "sender",
          "type": "address"
        }
      ],
      "name": "AdminRevoked",
      "type": "event"
    },
    {
      "anonymous": false,
      "inputs": [
        {
          "indexed": true,
          "internalType": "address",
          "name": "previousOwner",
          "type": "address"
        },
        {
          "indexed": true,
          "internalType": "address",
          "name": "newOwner",
          "type": "address"
        }
      ],
      "name": "OwnershipTransferred",
      "type": "event"
    },
    {
      "inputs": [
        {
          "internalType": "address",
          "name": "admin",
          "type": "address"
        }
      ],
      "name": "approveAdmin",
      "outputs": [],
      "stateMutability": "nonpayable",
      "type": "function"
    },
    {
      "inputs": [
        {
          "internalType": "address",
          "name": "from",
          "type": "address"
        },
        {
          "internalType": "address",
          "name": "to",
          "type": "address"
        },
        {
          "internalType": "uint256",
          "name": "tokenId",
          "type": "uint256"
        }
      ],
      "name": "approveTransfer",
      "outputs": [
        {
          "internalType": "bool",
          "name": "",
          "type": "bool"
        }
      ],
      "stateMutability": "nonpayable",
      "type": "function"
    },
    {
      "inputs": [
        {
          "internalType": "string",
          "name": "collectionName",
          "type": "string"
        }
      ],
      "name": "editionCountByCollectionName",
      "outputs": [
        {
          "internalType": "uint256",
          "name": "",
          "type": "uint256"
        }
      ],
      "stateMutability": "view",
      "type": "function"
    },
    {
      "inputs": [],
      "name": "getAdmins",
      "outputs": [
        {
          "internalType": "address[]",
          "name": "admins",
          "type": "address[]"
        }
      ],
      "stateMutability": "view",
      "type": "function"
    },
    {
      "inputs": [],
      "name": "getCollections",
      "outputs": [
        {
          "internalType": "string[]",
          "name": "",
          "type": "string[]"
        }
      ],
      "stateMutability": "view",
      "type": "function"
    },
    {
      "inputs": [],
      "name": "getTokenIds",
      "outputs": [
        {
          "internalType": "uint256[]",
          "name": "",
          "type": "uint256[]"
        }
      ],
      "stateMutability": "view",
      "type": "function"
    },
    {
      "inputs": [],
      "name": "getTokenOwners",
      "outputs": [
        {
          "internalType": "address[]",
          "name": "",
          "type": "address[]"
        }
      ],
      "stateMutability": "view",
      "type": "function"
    },
    {
      "inputs": [
        {
          "internalType": "address",
          "name": "admin",
          "type": "address"
        }
      ],
      "name": "isAdmin",
      "outputs": [
        {
          "internalType": "bool",
          "name": "",
          "type": "bool"
        }
      ],
      "stateMutability": "view",
      "type": "function"
    },
    {
      "inputs": [
        {
          "internalType": "string",
          "name": "collectionName",
          "type": "string"
        },
        {
          "internalType": "address",
          "name": "sender",
          "type": "address"
        },
        {
          "internalType": "string",
          "name": "uri",
          "type": "string"
        }
      ],
      "name": "mint",
      "outputs": [],
      "stateMutability": "nonpayable",
      "type": "function"
    },
    {
      "inputs": [],
      "name": "owner",
      "outputs": [
        {
          "internalType": "address",
          "name": "",
          "type": "address"
        }
      ],
      "stateMutability": "view",
      "type": "function"
    },
    {
      "inputs": [],
      "name": "renounceOwnership",
      "outputs": [],
      "stateMutability": "nonpayable",
      "type": "function"
    },
    {
      "inputs": [
        {
          "internalType": "address",
          "name": "admin",
          "type": "address"
        }
      ],
      "name": "revokeAdmin",
      "outputs": [],
      "stateMutability": "nonpayable",
      "type": "function"
    },
    {
      "inputs": [
        {
          "internalType": "address",
          "name": "creator",
          "type": "address"
        },
        {
          "internalType": "bool",
          "name": "enabled",
          "type": "bool"
        }
      ],
      "name": "setApproveTransfer",
      "outputs": [],
      "stateMutability": "nonpayable",
      "type": "function"
    },
    {
      "inputs": [
        {
          "internalType": "string",
          "name": "baseURI",
          "type": "string"
        }
      ],
      "name": "setBaseURI",
      "outputs": [],
      "stateMutability": "nonpayable",
      "type": "function"
    },
    {
      "inputs": [
        {
          "internalType": "bytes4",
          "name": "interfaceId",
          "type": "bytes4"
        }
      ],
      "name": "supportsInterface",
      "outputs": [
        {
          "internalType": "bool",
          "name": "",
          "type": "bool"
        }
      ],
      "stateMutability": "view",
      "type": "function"
    },
    {
      "inputs": [
        {
          "internalType": "address",
          "name": "creator",
          "type": "address"
        },
        {
          "internalType": "uint256",
          "name": "tokenId",
          "type": "uint256"
        }
      ],
      "name": "tokenURI",
      "outputs": [
        {
          "internalType": "string",
          "name": "",
          "type": "string"
        }
      ],
      "stateMutability": "view",
      "type": "function"
    },
    {
      "inputs": [
        {
          "internalType": "address",
          "name": "newOwner",
          "type": "address"
        }
      ],
      "name": "transferOwnership",
      "outputs": [],
      "stateMutability": "nonpayable",
      "type": "function"
    }
  ],
  "bytecode": "0x608060405263736f756c60e01b600b60006101000a81548163ffffffff021916908360e01c02179055503480156200003657600080fd5b5060405162002a7538038062002a7583398181016040528101906200005c9190620001b1565b806200007d62000071620000ce60201b60201c565b620000d660201b60201c565b600160038190555080600960006101000a81548173ffffffffffffffffffffffffffffffffffffffff021916908373ffffffffffffffffffffffffffffffffffffffff160217905550505062000236565b600033905090565b60008060009054906101000a900473ffffffffffffffffffffffffffffffffffffffff169050816000806101000a81548173ffffffffffffffffffffffffffffffffffffffff021916908373ffffffffffffffffffffffffffffffffffffffff1602179055508173ffffffffffffffffffffffffffffffffffffffff168173ffffffffffffffffffffffffffffffffffffffff167f8be0079c531659141344cd1fd0a4f28419497f9722a3daafe3b4186f6b6457e060405160405180910390a35050565b600081519050620001ab816200021c565b92915050565b600060208284031215620001ca57620001c962000217565b5b6000620001da848285016200019a565b91505092915050565b6000620001f082620001f7565b9050919050565b600073ffffffffffffffffffffffffffffffffffffffff82169050919050565b600080fd5b6200022781620001e3565b81146200023357600080fd5b50565b61282f80620002466000396000f3fe608060405234801561001057600080fd5b506004361061010b5760003560e01c80636d73e669116100a2578063a9d4856a11610071578063a9d4856a14610292578063ad6cf0a5146102c2578063d1b02ba7146102de578063e9dc6375146102fc578063f2fde38b1461032c5761010b565b80636d73e6691461021e578063715018a61461023a57806382580805146102445780638da5cb5b146102745761010b565b806331ae450b116100de57806331ae450b146101a857806346e63586146101c657806355f804b3146101e457806367f718a9146102005761010b565b806301ffc9a7146101105780631b95a2271461014057806324d7806c1461015c5780632d3456701461018c575b600080fd5b61012a60048036038101906101259190611a52565b610348565b60405161013791906120af565b60405180910390f35b61015a600480360381019061015591906119d2565b610491565b005b61017660048036038101906101719190611952565b6105b3565b60405161018391906120af565b60405180910390f35b6101a660048036038101906101a19190611952565b61060d565b005b6101b06106a1565b6040516101bd9190612049565b60405180910390f35b6101ce610783565b6040516101db919061206b565b60405180910390f35b6101fe60048036038101906101f99190611a7f565b61085c565b005b610208610993565b604051610215919061208d565b60405180910390f35b61023860048036038101906102339190611952565b610a7b565b005b610242610b0e565b005b61025e6004803603810190610259919061197f565b610b22565b60405161026b91906120af565b60405180910390f35b61027c610c2e565b6040516102899190611ffc565b60405180910390f35b6102ac60048036038101906102a79190611a7f565b610c57565b6040516102b991906121cc565b60405180910390f35b6102dc60048036038101906102d79190611ac8565b610c95565b005b6102e6610fb9565b6040516102f39190612049565b60405180910390f35b61031660048036038101906103119190611a12565b6110d7565b60405161032391906120ca565b60405180910390f35b61034660048036038101906103419190611952565b6111a6565b005b6000600b60009054906101000a900460e01b7bffffffffffffffffffffffffffffffffffffffffffffffffffffffff1916827bffffffffffffffffffffffffffffffffffffffffffffffffffffffff1916148061040257507fe9dc6375000000000000000000000000000000000000000000000000000000007bffffffffffffffffffffffffffffffffffffffffffffffffffffffff1916827bffffffffffffffffffffffffffffffffffffffffffffffffffffffff1916145b8061046a57507f99cdaa22000000000000000000000000000000000000000000000000000000007bffffffffffffffffffffffffffffffffffffffffffffffffffffffff1916827bffffffffffffffffffffffffffffffffffffffffffffffffffffffff1916145b8061047a57506104798261122a565b5b8061048a57506104898261122a565b5b9050919050565b3373ffffffffffffffffffffffffffffffffffffffff166104b0610c2e565b73ffffffffffffffffffffffffffffffffffffffff1614806104e257506104e13360016112a490919063ffffffff16565b5b610521576040517f08c379a00000000000000000000000000000000000000000000000000000000081526004016105189061218c565b60405180910390fd5b600960009054906101000a900473ffffffffffffffffffffffffffffffffffffffff1673ffffffffffffffffffffffffffffffffffffffff1663ac0c8cfa60016040518263ffffffff1660e01b815260040161057d91906120af565b600060405180830381600087803b15801561059757600080fd5b505af11580156105ab573d6000803e3d6000fd5b505050505050565b60008173ffffffffffffffffffffffffffffffffffffffff166105d4610c2e565b73ffffffffffffffffffffffffffffffffffffffff16148061060657506106058260016112a490919063ffffffff16565b5b9050919050565b6106156112d4565b6106298160016112a490919063ffffffff16565b1561069e573373ffffffffffffffffffffffffffffffffffffffff168173ffffffffffffffffffffffffffffffffffffffff167f7c0c3c84c67c85fcac635147348bfe374c24a1a93d0366d1cfe9d8853cbf89d560405160405180910390a361069c81600161135290919063ffffffff16565b505b50565b60606106ad6001611382565b67ffffffffffffffff8111156106c6576106c56125d1565b5b6040519080825280602002602001820160405280156106f45781602001602082028036833780820191505090505b50905060005b6107046001611382565b81101561077f5761071f81600161139790919063ffffffff16565b828281518110610732576107316125a2565b5b602002602001019073ffffffffffffffffffffffffffffffffffffffff16908173ffffffffffffffffffffffffffffffffffffffff16815250508080610777906124cc565b9150506106fa565b5090565b60606006805480602002602001604051908101604052809291908181526020016000905b828210156108535783829060005260206000200180546107c690612469565b80601f01602080910402602001604051908101604052809291908181526020018280546107f290612469565b801561083f5780601f106108145761010080835404028352916020019161083f565b820191906000526020600020905b81548152906001019060200180831161082257829003601f168201915b5050505050815260200190600101906107a7565b50505050905090565b3373ffffffffffffffffffffffffffffffffffffffff1661087b610c2e565b73ffffffffffffffffffffffffffffffffffffffff1614806108ad57506108ac3360016112a490919063ffffffff16565b5b6108ec576040517f08c379a00000000000000000000000000000000000000000000000000000000081526004016108e39061218c565b60405180910390fd5b600960009054906101000a900473ffffffffffffffffffffffffffffffffffffffff1673ffffffffffffffffffffffffffffffffffffffff16633e6134b8826040518263ffffffff1660e01b815260040161094791906120ca565b600060405180830381600087803b15801561096157600080fd5b505af1158015610975573d6000803e3d6000fd5b5050505080600a908051906020019061098f9291906116fa565b5050565b60603373ffffffffffffffffffffffffffffffffffffffff166109b4610c2e565b73ffffffffffffffffffffffffffffffffffffffff1614806109e657506109e53360016112a490919063ffffffff16565b5b610a25576040517f08c379a0000000000000000000000000000000000000000000000000000000008152600401610a1c9061218c565b60405180910390fd5b6005805480602002602001604051908101604052809291908181526020018280548015610a7157602002820191906000526020600020905b815481526020019060010190808311610a5d575b5050505050905090565b610a836112d4565b610a978160016112a490919063ffffffff16565b610b0b573373ffffffffffffffffffffffffffffffffffffffff168173ffffffffffffffffffffffffffffffffffffffff167f7e1a1a08d52e4ba0e21554733d66165fd5151f99460116223d9e3a608eec5cb160405160405180910390a3610b098160016113b190919063ffffffff16565b505b50565b610b166112d4565b610b2060006113e1565b565b6000600960009054906101000a900473ffffffffffffffffffffffffffffffffffffffff1673ffffffffffffffffffffffffffffffffffffffff163373ffffffffffffffffffffffffffffffffffffffff1614610bb4576040517f08c379a0000000000000000000000000000000000000000000000000000000008152600401610bab906120ec565b60405180910390fd5b600073ffffffffffffffffffffffffffffffffffffffff168473ffffffffffffffffffffffffffffffffffffffff1614610c23576040517f08c379a0000000000000000000000000000000000000000000000000000000008152600401610c1a906120ec565b60405180910390fd5b600190509392505050565b60008060009054906101000a900473ffffffffffffffffffffffffffffffffffffffff16905090565b6000600882604051610c699190611fac565b908152602001604051809103902060009054906101000a900463ffffffff1663ffffffff169050919050565b60026003541415610cdb576040517f08c379a0000000000000000000000000000000000000000000000000000000008152600401610cd2906121ac565b60405180910390fd5b6002600381905550604051602001610cf290611fe7565b6040516020818303038152906040528051906020012084604051602001610d199190611fac565b604051602081830303815290604052805190602001201415610d70576040517f08c379a0000000000000000000000000000000000000000000000000000000008152600401610d679061214c565b60405180910390fd5b6000600960009054906101000a900473ffffffffffffffffffffffffffffffffffffffff1673ffffffffffffffffffffffffffffffffffffffff1663fe2e1f588585856040518463ffffffff1660e01b8152600401610dd193929190612017565b602060405180830381600087803b158015610deb57600080fd5b505af1158015610dff573d6000803e3d6000fd5b505050506040513d601f19601f82011682018060405250810190610e239190611b58565b905060058190806001815401808255809150506001900390600052602060002001600090919091909150556004849080600181540180825580915050600190039060005260206000200160009091909190916101000a81548173ffffffffffffffffffffffffffffffffffffffff021916908373ffffffffffffffffffffffffffffffffffffffff1602179055508282600760008481526020019081526020016000209190610ed3929190611780565b506000600886604051610ee69190611fac565b908152602001604051809103902060009054906101000a900463ffffffff1663ffffffff161415610f4e57600685908060018154018082558091505060019003906000526020600020016000909190919091509080519060200190610f4c9291906116fa565b505b6001600886604051610f609190611fac565b908152602001604051809103902060008282829054906101000a900463ffffffff16610f8c9190612335565b92506101000a81548163ffffffff021916908363ffffffff16021790555050600160038190555050505050565b60603373ffffffffffffffffffffffffffffffffffffffff16610fda610c2e565b73ffffffffffffffffffffffffffffffffffffffff16148061100c575061100b3360016112a490919063ffffffff16565b5b61104b576040517f08c379a00000000000000000000000000000000000000000000000000000000081526004016110429061218c565b60405180910390fd5b60048054806020026020016040519081016040528092919081815260200182805480156110cd57602002820191906000526020600020905b8160009054906101000a900473ffffffffffffffffffffffffffffffffffffffff1673ffffffffffffffffffffffffffffffffffffffff1681526020019060010190808311611083575b5050505050905090565b6060600960009054906101000a900473ffffffffffffffffffffffffffffffffffffffff1673ffffffffffffffffffffffffffffffffffffffff168373ffffffffffffffffffffffffffffffffffffffff1614611169576040517f08c379a00000000000000000000000000000000000000000000000000000000081526004016111609061212c565b60405180910390fd5b600a6007600084815260200190815260200160002060405160200161118f929190611fc3565b604051602081830303815290604052905092915050565b6111ae6112d4565b600073ffffffffffffffffffffffffffffffffffffffff168173ffffffffffffffffffffffffffffffffffffffff16141561121e576040517f08c379a00000000000000000000000000000000000000000000000000000000081526004016112159061210c565b60405180910390fd5b611227816113e1565b50565b60007f553e757e000000000000000000000000000000000000000000000000000000007bffffffffffffffffffffffffffffffffffffffffffffffffffffffff1916827bffffffffffffffffffffffffffffffffffffffffffffffffffffffff1916148061129d575061129c826114a5565b5b9050919050565b60006112cc836000018373ffffffffffffffffffffffffffffffffffffffff1660001b61150f565b905092915050565b6112dc611532565b73ffffffffffffffffffffffffffffffffffffffff166112fa610c2e565b73ffffffffffffffffffffffffffffffffffffffff1614611350576040517f08c379a00000000000000000000000000000000000000000000000000000000081526004016113479061216c565b60405180910390fd5b565b600061137a836000018373ffffffffffffffffffffffffffffffffffffffff1660001b61153a565b905092915050565b60006113908260000161164e565b9050919050565b60006113a6836000018361165f565b60001c905092915050565b60006113d9836000018373ffffffffffffffffffffffffffffffffffffffff1660001b61168a565b905092915050565b60008060009054906101000a900473ffffffffffffffffffffffffffffffffffffffff169050816000806101000a81548173ffffffffffffffffffffffffffffffffffffffff021916908373ffffffffffffffffffffffffffffffffffffffff1602179055508173ffffffffffffffffffffffffffffffffffffffff168173ffffffffffffffffffffffffffffffffffffffff167f8be0079c531659141344cd1fd0a4f28419497f9722a3daafe3b4186f6b6457e060405160405180910390a35050565b60007f01ffc9a7000000000000000000000000000000000000000000000000000000007bffffffffffffffffffffffffffffffffffffffffffffffffffffffff1916827bffffffffffffffffffffffffffffffffffffffffffffffffffffffff1916149050919050565b600080836001016000848152602001908152602001600020541415905092915050565b600033905090565b6000808360010160008481526020019081526020016000205490506000811461164257600060018261156c919061236f565b9050600060018660000180549050611584919061236f565b90508181146115f35760008660000182815481106115a5576115a46125a2565b5b90600052602060002001549050808760000184815481106115c9576115c86125a2565b5b90600052602060002001819055508387600101600083815260200190815260200160002081905550505b8560000180548061160757611606612573565b5b600190038181906000526020600020016000905590558560010160008681526020019081526020016000206000905560019350505050611648565b60009150505b92915050565b600081600001805490509050919050565b6000826000018281548110611677576116766125a2565b5b9060005260206000200154905092915050565b6000611696838361150f565b6116ef5782600001829080600181540180825580915050600190039060005260206000200160009091909190915055826000018054905083600101600084815260200190815260200160002081905550600190506116f4565b600090505b92915050565b82805461170690612469565b90600052602060002090601f016020900481019282611728576000855561176f565b82601f1061174157805160ff191683800117855561176f565b8280016001018555821561176f579182015b8281111561176e578251825591602001919060010190611753565b5b50905061177c9190611806565b5090565b82805461178c90612469565b90600052602060002090601f0160209004810192826117ae57600085556117f5565b82601f106117c757803560ff19168380011785556117f5565b828001600101855582156117f5579182015b828111156117f45782358255916020019190600101906117d9565b5b5090506118029190611806565b5090565b5b8082111561181f576000816000905550600101611807565b5090565b60006118366118318461220c565b6121e7565b9050828152602081018484840111156118525761185161260f565b5b61185d848285612427565b509392505050565b6000813590506118748161279d565b92915050565b600081359050611889816127b4565b92915050565b60008135905061189e816127cb565b92915050565b60008083601f8401126118ba576118b9612605565b5b8235905067ffffffffffffffff8111156118d7576118d6612600565b5b6020830191508360018202830111156118f3576118f261260a565b5b9250929050565b600082601f83011261190f5761190e612605565b5b813561191f848260208601611823565b91505092915050565b600081359050611937816127e2565b92915050565b60008151905061194c816127e2565b92915050565b60006020828403121561196857611967612619565b5b600061197684828501611865565b91505092915050565b60008060006060848603121561199857611997612619565b5b60006119a686828701611865565b93505060206119b786828701611865565b92505060406119c886828701611928565b9150509250925092565b600080604083850312156119e9576119e8612619565b5b60006119f785828601611865565b9250506020611a088582860161187a565b9150509250929050565b60008060408385031215611a2957611a28612619565b5b6000611a3785828601611865565b9250506020611a4885828601611928565b9150509250929050565b600060208284031215611a6857611a67612619565b5b6000611a768482850161188f565b91505092915050565b600060208284031215611a9557611a94612619565b5b600082013567ffffffffffffffff811115611ab357611ab2612614565b5b611abf848285016118fa565b91505092915050565b60008060008060608587031215611ae257611ae1612619565b5b600085013567ffffffffffffffff811115611b0057611aff612614565b5b611b0c878288016118fa565b9450506020611b1d87828801611865565b935050604085013567ffffffffffffffff811115611b3e57611b3d612614565b5b611b4a878288016118a4565b925092505092959194509250565b600060208284031215611b6e57611b6d612619565b5b6000611b7c8482850161193d565b91505092915050565b6000611b918383611bc9565b60208301905092915050565b6000611ba98383611d54565b905092915050565b6000611bbd8383611f8e565b60208301905092915050565b611bd2816123a3565b82525050565b611be1816123a3565b82525050565b6000611bf282612282565b611bfc81856122d5565b9350611c078361223d565b8060005b83811015611c38578151611c1f8882611b85565b9750611c2a836122ae565b925050600181019050611c0b565b5085935050505092915050565b6000611c508261228d565b611c5a81856122e6565b935083602082028501611c6c8561224d565b8060005b85811015611ca85784840389528151611c898582611b9d565b9450611c94836122bb565b925060208a01995050600181019050611c70565b50829750879550505050505092915050565b6000611cc582612298565b611ccf81856122f7565b9350611cda8361225d565b8060005b83811015611d0b578151611cf28882611bb1565b9750611cfd836122c8565b925050600181019050611cde565b5085935050505092915050565b611d21816123b5565b82525050565b6000611d338385612319565b9350611d40838584612427565b611d498361261e565b840190509392505050565b6000611d5f826122a3565b611d698185612308565b9350611d79818560208601612436565b611d828161261e565b840191505092915050565b6000611d98826122a3565b611da28185612319565b9350611db2818560208601612436565b611dbb8161261e565b840191505092915050565b6000611dd1826122a3565b611ddb818561232a565b9350611deb818560208601612436565b80840191505092915050565b60008154611e0481612469565b611e0e818661232a565b94506001821660008114611e295760018114611e3a57611e6d565b60ff19831686528186019350611e6d565b611e438561226d565b60005b83811015611e6557815481890152600182019150602081019050611e46565b838801955050505b50505092915050565b6000611e83601783612319565b9150611e8e8261262f565b602082019050919050565b6000611ea6602683612319565b9150611eb182612658565b604082019050919050565b6000611ec9600d83612319565b9150611ed4826126a7565b602082019050919050565b6000611eec601783612319565b9150611ef7826126d0565b602082019050919050565b6000611f0f602083612319565b9150611f1a826126f9565b602082019050919050565b6000611f3260008361232a565b9150611f3d82612722565b600082019050919050565b6000611f55602483612319565b9150611f6082612725565b604082019050919050565b6000611f78601f83612319565b9150611f8382612774565b602082019050919050565b611f978161240d565b82525050565b611fa68161240d565b82525050565b6000611fb88284611dc6565b915081905092915050565b6000611fcf8285611df7565b9150611fdb8284611df7565b91508190509392505050565b6000611ff282611f25565b9150819050919050565b60006020820190506120116000830184611bd8565b92915050565b600060408201905061202c6000830186611bd8565b818103602083015261203f818486611d27565b9050949350505050565b600060208201905081810360008301526120638184611be7565b905092915050565b600060208201905081810360008301526120858184611c45565b905092915050565b600060208201905081810360008301526120a78184611cba565b905092915050565b60006020820190506120c46000830184611d18565b92915050565b600060208201905081810360008301526120e48184611d8d565b905092915050565b6000602082019050818103600083015261210581611e76565b9050919050565b6000602082019050818103600083015261212581611e99565b9050919050565b6000602082019050818103600083015261214581611ebc565b9050919050565b6000602082019050818103600083015261216581611edf565b9050919050565b6000602082019050818103600083015261218581611f02565b9050919050565b600060208201905081810360008301526121a581611f48565b9050919050565b600060208201905081810360008301526121c581611f6b565b9050919050565b60006020820190506121e16000830184611f9d565b92915050565b60006121f1612202565b90506121fd828261249b565b919050565b6000604051905090565b600067ffffffffffffffff821115612227576122266125d1565b5b6122308261261e565b9050602081019050919050565b6000819050602082019050919050565b6000819050602082019050919050565b6000819050602082019050919050565b60008190508160005260206000209050919050565b600081519050919050565b600081519050919050565b600081519050919050565b600081519050919050565b6000602082019050919050565b6000602082019050919050565b6000602082019050919050565b600082825260208201905092915050565b600082825260208201905092915050565b600082825260208201905092915050565b600082825260208201905092915050565b600082825260208201905092915050565b600081905092915050565b600061234082612417565b915061234b83612417565b92508263ffffffff0382111561236457612363612515565b5b828201905092915050565b600061237a8261240d565b91506123858361240d565b92508282101561239857612397612515565b5b828203905092915050565b60006123ae826123ed565b9050919050565b60008115159050919050565b60007fffffffff0000000000000000000000000000000000000000000000000000000082169050919050565b600073ffffffffffffffffffffffffffffffffffffffff82169050919050565b6000819050919050565b600063ffffffff82169050919050565b82818337600083830152505050565b60005b83811015612454578082015181840152602081019050612439565b83811115612463576000848401525b50505050565b6000600282049050600182168061248157607f821691505b6020821081141561249557612494612544565b5b50919050565b6124a48261261e565b810181811067ffffffffffffffff821117156124c3576124c26125d1565b5b80604052505050565b60006124d78261240d565b91507fffffffffffffffffffffffffffffffffffffffffffffffffffffffffffffffff82141561250a57612509612515565b5b600182019050919050565b7f4e487b7100000000000000000000000000000000000000000000000000000000600052601160045260246000fd5b7f4e487b7100000000000000000000000000000000000000000000000000000000600052602260045260246000fd5b7f4e487b7100000000000000000000000000000000000000000000000000000000600052603160045260246000fd5b7f4e487b7100000000000000000000000000000000000000000000000000000000600052603260045260246000fd5b7f4e487b7100000000000000000000000000000000000000000000000000000000600052604160045260246000fd5b600080fd5b600080fd5b600080fd5b600080fd5b600080fd5b600080fd5b6000601f19601f8301169050919050565b7f5468697320746f6b656e20697320736f756c626f756e64000000000000000000600082015250565b7f4f776e61626c653a206e6577206f776e657220697320746865207a65726f206160008201527f6464726573730000000000000000000000000000000000000000000000000000602082015250565b7f496e76616c696420746f6b656e00000000000000000000000000000000000000600082015250565b7f496e76616c696420436f6c6c656374696f6e204e616d65000000000000000000600082015250565b7f4f776e61626c653a2063616c6c6572206973206e6f7420746865206f776e6572600082015250565b50565b7f41646d696e436f6e74726f6c3a204d757374206265206f776e6572206f72206160008201527f646d696e00000000000000000000000000000000000000000000000000000000602082015250565b7f5265656e7472616e637947756172643a207265656e7472616e742063616c6c00600082015250565b6127a6816123a3565b81146127b157600080fd5b50565b6127bd816123b5565b81146127c857600080fd5b50565b6127d4816123c1565b81146127df57600080fd5b50565b6127eb8161240d565b81146127f657600080fd5b5056fea2646970667358221220bd4ca382cab15d58ce206819570671c01f3cd3e20cc2203ea04ef510998cdaa064736f6c63430008070033",
  "linkReferences": {},
  "deployedLinkReferences": {}
}