{
  "_format": "hh-sol-artifact-1",
  "contractName": "SoulBound",
  "sourceName": "contracts/Soulbound.sol",
  "abi": [
    {
      "inputs": [
        {
          "internalType": "address",
          "name": "creator",
          "type": "address"
        },
        {
          "internalType": "string",
          "name": "collectionTitle",
          "type": "string"
        }
      ],
      "stateMutability": "nonpayable",
      "type": "constructor"
    },
    {
      "anonymous": false,
      "inputs": [
        {
          "indexed": true,
          "internalType": "address",
          "name": "account",
          "type": "address"
        },
        {
          "indexed": true,
          "internalType": "address",
          "name": "sender",
          "type": "address"
        }
      ],
      "name": "AdminApproved",
      "type": "event"
    },
    {
      "anonymous": false,
      "inputs": [
        {
          "indexed": true,
          "internalType": "address",
          "name": "account",
          "type": "address"
        },
        {
          "indexed": true,
          "internalType": "address",
          "name": "sender",
          "type": "address"
        }
      ],
      "name": "AdminRevoked",
      "type": "event"
    },
    {
      "anonymous": false,
      "inputs": [
        {
          "indexed": true,
          "internalType": "address",
          "name": "previousOwner",
          "type": "address"
        },
        {
          "indexed": true,
          "internalType": "address",
          "name": "newOwner",
          "type": "address"
        }
      ],
      "name": "OwnershipTransferred",
      "type": "event"
    },
    {
      "inputs": [
        {
          "internalType": "address",
          "name": "admin",
          "type": "address"
        }
      ],
      "name": "approveAdmin",
      "outputs": [],
      "stateMutability": "nonpayable",
      "type": "function"
    },
    {
      "inputs": [
        {
          "internalType": "address",
          "name": "from",
          "type": "address"
        },
        {
          "internalType": "address",
          "name": "to",
          "type": "address"
        },
        {
          "internalType": "uint256",
          "name": "tokenId",
          "type": "uint256"
        }
      ],
      "name": "approveTransfer",
      "outputs": [
        {
          "internalType": "bool",
          "name": "",
          "type": "bool"
        }
      ],
      "stateMutability": "nonpayable",
      "type": "function"
    },
    {
      "inputs": [],
      "name": "collectionName",
      "outputs": [
        {
          "internalType": "string",
          "name": "",
          "type": "string"
        }
      ],
      "stateMutability": "view",
      "type": "function"
    },
    {
      "inputs": [],
      "name": "editionCount",
      "outputs": [
        {
          "internalType": "uint256",
          "name": "",
          "type": "uint256"
        }
      ],
      "stateMutability": "view",
      "type": "function"
    },
    {
      "inputs": [],
      "name": "extensionName",
      "outputs": [
        {
          "internalType": "string",
          "name": "",
          "type": "string"
        }
      ],
      "stateMutability": "view",
      "type": "function"
    },
    {
      "inputs": [],
      "name": "getAdmins",
      "outputs": [
        {
          "internalType": "address[]",
          "name": "admins",
          "type": "address[]"
        }
      ],
      "stateMutability": "view",
      "type": "function"
    },
    {
      "inputs": [],
      "name": "getTokenIds",
      "outputs": [
        {
          "internalType": "uint256[]",
          "name": "",
          "type": "uint256[]"
        }
      ],
      "stateMutability": "view",
      "type": "function"
    },
    {
      "inputs": [],
      "name": "getTokenOwners",
      "outputs": [
        {
          "internalType": "address[]",
          "name": "",
          "type": "address[]"
        }
      ],
      "stateMutability": "view",
      "type": "function"
    },
    {
      "inputs": [
        {
          "internalType": "address",
          "name": "admin",
          "type": "address"
        }
      ],
      "name": "isAdmin",
      "outputs": [
        {
          "internalType": "bool",
          "name": "",
          "type": "bool"
        }
      ],
      "stateMutability": "view",
      "type": "function"
    },
    {
      "inputs": [
        {
          "internalType": "address",
          "name": "sender",
          "type": "address"
        },
        {
          "internalType": "string",
          "name": "uri",
          "type": "string"
        }
      ],
      "name": "mint",
      "outputs": [],
      "stateMutability": "nonpayable",
      "type": "function"
    },
    {
      "inputs": [],
      "name": "owner",
      "outputs": [
        {
          "internalType": "address",
          "name": "",
          "type": "address"
        }
      ],
      "stateMutability": "view",
      "type": "function"
    },
    {
      "inputs": [],
      "name": "renounceOwnership",
      "outputs": [],
      "stateMutability": "nonpayable",
      "type": "function"
    },
    {
      "inputs": [
        {
          "internalType": "address",
          "name": "admin",
          "type": "address"
        }
      ],
      "name": "revokeAdmin",
      "outputs": [],
      "stateMutability": "nonpayable",
      "type": "function"
    },
    {
      "inputs": [
        {
          "internalType": "address",
          "name": "creator",
          "type": "address"
        },
        {
          "internalType": "bool",
          "name": "enabled",
          "type": "bool"
        }
      ],
      "name": "setApproveTransfer",
      "outputs": [],
      "stateMutability": "nonpayable",
      "type": "function"
    },
    {
      "inputs": [
        {
          "internalType": "string",
          "name": "baseURI",
          "type": "string"
        }
      ],
      "name": "setBaseURI",
      "outputs": [],
      "stateMutability": "nonpayable",
      "type": "function"
    },
    {
      "inputs": [
        {
          "internalType": "bytes4",
          "name": "interfaceId",
          "type": "bytes4"
        }
      ],
      "name": "supportsInterface",
      "outputs": [
        {
          "internalType": "bool",
          "name": "",
          "type": "bool"
        }
      ],
      "stateMutability": "view",
      "type": "function"
    },
    {
      "inputs": [
        {
          "internalType": "address",
          "name": "creator",
          "type": "address"
        },
        {
          "internalType": "uint256",
          "name": "tokenId",
          "type": "uint256"
        }
      ],
      "name": "tokenURI",
      "outputs": [
        {
          "internalType": "string",
          "name": "",
          "type": "string"
        }
      ],
      "stateMutability": "view",
      "type": "function"
    },
    {
      "inputs": [
        {
          "internalType": "address",
          "name": "newOwner",
          "type": "address"
        }
      ],
      "name": "transferOwnership",
      "outputs": [],
      "stateMutability": "nonpayable",
      "type": "function"
    }
  ],
  "bytecode": "0x60806040523480156200001157600080fd5b50604051620016af380380620016af83398101604081905262000034916200022f565b6200003f3362000139565b604080516000815260208101808352815190209162000061918491016200030a565b604051602081830303815290604052805190602001201415620000ca5760405162461bcd60e51b815260206004820152601760248201527f496e76616c696420436f6c6c656374696f6e204e616d65000000000000000000604482015260640160405180910390fd5b600680546001600160a01b0319166001600160a01b03841617905560006007556040805180820190915260098082526814dbdd5b109bdd5b9960ba1b60209092019182526200011a918162000189565b5080516200013090600a90602084019062000189565b505050620003ae565b600080546001600160a01b038381166001600160a01b0319831681178455604051919092169283917f8be0079c531659141344cd1fd0a4f28419497f9722a3daafe3b4186f6b6457e09190a35050565b82805462000197906200035b565b90600052602060002090601f016020900481019282620001bb576000855562000206565b82601f10620001d657805160ff191683800117855562000206565b8280016001018555821562000206579182015b8281111562000206578251825591602001919060010190620001e9565b506200021492915062000218565b5090565b5b8082111562000214576000815560010162000219565b600080604083850312156200024357600080fd5b82516001600160a01b03811681146200025b57600080fd5b60208401519092506001600160401b03808211156200027957600080fd5b818501915085601f8301126200028e57600080fd5b815181811115620002a357620002a362000398565b604051601f8201601f19908116603f01168101908382118183101715620002ce57620002ce62000398565b81604052828152886020848701011115620002e857600080fd5b620002fb83602083016020880162000328565b80955050505050509250929050565b600082516200031e81846020870162000328565b9190910192915050565b60005b83811015620003455781810151838201526020016200032b565b8381111562000355576000848401525b50505050565b600181811c908216806200037057607f821691505b602082108114156200039257634e487b7160e01b600052602260045260246000fd5b50919050565b634e487b7160e01b600052604160045260246000fd5b6112f180620003be6000396000f3fe608060405234801561001057600080fd5b50600436106100e65760003560e01c806301ffc9a7146100eb5780631b95a227146101135780631c86100f1461012857806324d7806c1461013d5780632d3456701461015057806331ae450b146101635780634bf440261461017857806355f804b31461018957806367f718a91461019c5780636d73e669146101b1578063715018a6146101c457806382580805146101cc5780638da5cb5b146101df578063d0def521146101ff578063d1b02ba714610212578063e5326ab11461021a578063e9dc637514610222578063f2fde38b14610235575b600080fd5b6100fe6100f9366004610ea5565b610248565b60405190151581526020015b60405180910390f35b610126610121366004610dbd565b61029d565b005b610130610348565b60405161010a9190611114565b6100fe61014b366004610d66565b6103da565b61012661015e366004610d66565b610409565b61016b610467565b60405161010a919061108f565b60075460405190815260200161010a565b610126610197366004610ecf565b610515565b6101a4610568565b60405161010a91906110dc565b6101266101bf366004610d66565b6105ff565b610126610657565b6100fe6101da366004610d81565b61066b565b6101e76106c9565b6040516001600160a01b03909116815260200161010a565b61012661020d366004610df9565b6106d8565b61016b61080f565b610130610870565b610130610230366004610e7b565b61087f565b610126610243366004610d66565b61090c565b60006001600160e01b0319821663e9dc637560e01b148061027957506001600160e01b03198216634ce6d51160e11b145b80610288575061028882610982565b80610297575061029782610982565b92915050565b336102a66106c9565b6001600160a01b031614806102c157506102c16001336109b7565b6102e65760405162461bcd60e51b81526004016102dd9061119a565b60405180910390fd5b600654604051635606467d60e11b8152600160048201526001600160a01b039091169063ac0c8cfa90602401600060405180830381600087803b15801561032c57600080fd5b505af1158015610340573d6000803e3d6000fd5b505050505050565b6060600980546103579061120d565b80601f01602080910402602001604051908101604052809291908181526020018280546103839061120d565b80156103d05780601f106103a5576101008083540402835291602001916103d0565b820191906000526020600020905b8154815290600101906020018083116103b357829003601f168201915b5050505050905090565b6000816001600160a01b03166103ee6106c9565b6001600160a01b0316148061029757506102976001836109b7565b6104116109d3565b61041c6001826109b7565b156104645760405133906001600160a01b038316907f7c0c3c84c67c85fcac635147348bfe374c24a1a93d0366d1cfe9d8853cbf89d590600090a3610462600182610a32565b505b50565b60606104736001610a47565b6001600160401b0381111561048a5761048a6112a5565b6040519080825280602002602001820160405280156104b3578160200160208202803683370190505b50905060005b6104c36001610a47565b811015610511576104d5600182610a51565b8282815181106104e7576104e761128f565b6001600160a01b03909216602092830291909101909101528061050981611248565b9150506104b9565b5090565b3361051e6106c9565b6001600160a01b0316148061053957506105396001336109b7565b6105555760405162461bcd60e51b81526004016102dd9061119a565b8051610462906008906020840190610c41565b6060336105736106c9565b6001600160a01b0316148061058e575061058e6001336109b7565b6105aa5760405162461bcd60e51b81526004016102dd9061119a565b60048054806020026020016040519081016040528092919081815260200182805480156103d057602002820191906000526020600020905b8154815260200190600101908083116105e2575050505050905090565b6106076109d3565b6106126001826109b7565b6104645760405133906001600160a01b038316907f7e1a1a08d52e4ba0e21554733d66165fd5151f99460116223d9e3a608eec5cb190600090a3610462600182610a5d565b61065f6109d3565b6106696000610a72565b565b6006546000906001600160a01b031633146106985760405162461bcd60e51b81526004016102dd90611169565b6001600160a01b038416156106bf5760405162461bcd60e51b81526004016102dd90611169565b5060019392505050565b6000546001600160a01b031690565b600654604051631fc5c3eb60e31b81526000916001600160a01b03169063fe2e1f589061070d9087908790879060040161104f565b602060405180830381600087803b15801561072757600080fd5b505af115801561073b573d6000803e3d6000fd5b505050506040513d601f19601f8201168201806040525081019061075f9190610f7f565b6004805460018082019092557f8a35acfbc15ff81a39ae7d344fd709f28e8600b4aa8c65c6b64bfe7fe36bd19b018290556003805491820190557fc2575a0e9e593c00f959f8c92f12db2869c3395a3b0502d05e2516446f71f85b0180546001600160a01b0319166001600160a01b03871617905560008181526005602052604090209091506107f0908484610cc1565b5060016007600082825461080491906111de565b909155505050505050565b606060038054806020026020016040519081016040528092919081815260200182805480156103d057602002820191906000526020600020905b81546001600160a01b03168152600190910190602001808311610849575050505050905090565b6060600a80546103579061120d565b6006546060906001600160a01b038481169116146108cf5760405162461bcd60e51b815260206004820152600d60248201526c24b73b30b634b2103a37b5b2b760991b60448201526064016102dd565b6008600560008481526020019081526020016000206040516020016108f5929190611032565b604051602081830303815290604052905092915050565b6109146109d3565b6001600160a01b0381166109795760405162461bcd60e51b815260206004820152602660248201527f4f776e61626c653a206e6577206f776e657220697320746865207a65726f206160448201526564647265737360d01b60648201526084016102dd565b61046481610a72565b60006001600160e01b03198216632a9f3abf60e11b148061029757506301ffc9a760e01b6001600160e01b0319831614610297565b60006109cc836001600160a01b038416610ac2565b9392505050565b336109dc6106c9565b6001600160a01b0316146106695760405162461bcd60e51b815260206004820181905260248201527f4f776e61626c653a2063616c6c6572206973206e6f7420746865206f776e657260448201526064016102dd565b60006109cc836001600160a01b038416610ada565b6000610297825490565b60006109cc8383610bcd565b60006109cc836001600160a01b038416610bf7565b600080546001600160a01b038381166001600160a01b0319831681178455604051919092169283917f8be0079c531659141344cd1fd0a4f28419497f9722a3daafe3b4186f6b6457e09190a35050565b60009081526001919091016020526040902054151590565b60008181526001830160205260408120548015610bc3576000610afe6001836111f6565b8554909150600090610b12906001906111f6565b9050818114610b77576000866000018281548110610b3257610b3261128f565b9060005260206000200154905080876000018481548110610b5557610b5561128f565b6000918252602080832090910192909255918252600188019052604090208390555b8554869080610b8857610b88611279565b600190038181906000526020600020016000905590558560010160008681526020019081526020016000206000905560019350505050610297565b6000915050610297565b6000826000018281548110610be457610be461128f565b9060005260206000200154905092915050565b6000610c038383610ac2565b610c3957508154600181810184556000848152602080822090930184905584548482528286019093526040902091909155610297565b506000610297565b828054610c4d9061120d565b90600052602060002090601f016020900481019282610c6f5760008555610cb5565b82601f10610c8857805160ff1916838001178555610cb5565b82800160010185558215610cb5579182015b82811115610cb5578251825591602001919060010190610c9a565b50610511929150610d35565b828054610ccd9061120d565b90600052602060002090601f016020900481019282610cef5760008555610cb5565b82601f10610d085782800160ff19823516178555610cb5565b82800160010185558215610cb5579182015b82811115610cb5578235825591602001919060010190610d1a565b5b808211156105115760008155600101610d36565b80356001600160a01b0381168114610d6157600080fd5b919050565b600060208284031215610d7857600080fd5b6109cc82610d4a565b600080600060608486031215610d9657600080fd5b610d9f84610d4a565b9250610dad60208501610d4a565b9150604084013590509250925092565b60008060408385031215610dd057600080fd5b610dd983610d4a565b915060208301358015158114610dee57600080fd5b809150509250929050565b600080600060408486031215610e0e57600080fd5b610e1784610d4a565b925060208401356001600160401b0380821115610e3357600080fd5b818601915086601f830112610e4757600080fd5b813581811115610e5657600080fd5b876020828501011115610e6857600080fd5b6020830194508093505050509250925092565b60008060408385031215610e8e57600080fd5b610e9783610d4a565b946020939093013593505050565b600060208284031215610eb757600080fd5b81356001600160e01b0319811681146109cc57600080fd5b600060208284031215610ee157600080fd5b81356001600160401b0380821115610ef857600080fd5b818401915084601f830112610f0c57600080fd5b813581811115610f1e57610f1e6112a5565b604051601f8201601f19908116603f01168101908382118183101715610f4657610f466112a5565b81604052828152876020848701011115610f5f57600080fd5b826020860160208301376000928101602001929092525095945050505050565b600060208284031215610f9157600080fd5b5051919050565b8054600090600181811c9080831680610fb257607f831692505b6020808410821415610fd457634e487b7160e01b600052602260045260246000fd5b818015610fe85760018114610ff957611026565b60ff19861689528489019650611026565b60008881526020902060005b8681101561101e5781548b820152908501908301611005565b505084890196505b50505050505092915050565b60006110476110418386610f98565b84610f98565b949350505050565b6001600160a01b03841681526040602082018190528101829052818360608301376000818301606090810191909152601f909201601f1916010192915050565b6020808252825182820181905260009190848201906040850190845b818110156110d05783516001600160a01b0316835292840192918401916001016110ab565b50909695505050505050565b6020808252825182820181905260009190848201906040850190845b818110156110d0578351835292840192918401916001016110f8565b600060208083528351808285015260005b8181101561114157858101830151858201604001528201611125565b81811115611153576000604083870101525b50601f01601f1916929092016040019392505050565b602080825260179082015276151a1a5cc81d1bdad95b881a5cc81cdbdd5b189bdd5b99604a1b604082015260600190565b60208082526024908201527f41646d696e436f6e74726f6c3a204d757374206265206f776e6572206f7220616040820152633236b4b760e11b606082015260800190565b600082198211156111f1576111f1611263565b500190565b60008282101561120857611208611263565b500390565b600181811c9082168061122157607f821691505b6020821081141561124257634e487b7160e01b600052602260045260246000fd5b50919050565b600060001982141561125c5761125c611263565b5060010190565b634e487b7160e01b600052601160045260246000fd5b634e487b7160e01b600052603160045260246000fd5b634e487b7160e01b600052603260045260246000fd5b634e487b7160e01b600052604160045260246000fdfea2646970667358221220de7ddd3793bba3207b69e2405b4fc1733084d1d1bb0ca284761222ab3311c8ac64736f6c63430008070033",
  "linkReferences": {},
  "deployedLinkReferences": {}
}