{
  "_format": "hh-sol-artifact-1",
  "contractName": "SoulBound",
  "sourceName": "contracts/Soulbound.sol",
  "abi": [
    {
      "inputs": [
        {
          "internalType": "address",
          "name": "creator",
          "type": "address"
        }
      ],
      "stateMutability": "nonpayable",
      "type": "constructor"
    },
    {
      "anonymous": false,
      "inputs": [
        {
          "indexed": true,
          "internalType": "address",
          "name": "account",
          "type": "address"
        },
        {
          "indexed": true,
          "internalType": "address",
          "name": "sender",
          "type": "address"
        }
      ],
      "name": "AdminApproved",
      "type": "event"
    },
    {
      "anonymous": false,
      "inputs": [
        {
          "indexed": true,
          "internalType": "address",
          "name": "account",
          "type": "address"
        },
        {
          "indexed": true,
          "internalType": "address",
          "name": "sender",
          "type": "address"
        }
      ],
      "name": "AdminRevoked",
      "type": "event"
    },
    {
      "anonymous": false,
      "inputs": [
        {
          "indexed": true,
          "internalType": "address",
          "name": "previousOwner",
          "type": "address"
        },
        {
          "indexed": true,
          "internalType": "address",
          "name": "newOwner",
          "type": "address"
        }
      ],
      "name": "OwnershipTransferred",
      "type": "event"
    },
    {
      "inputs": [
        {
          "internalType": "address",
          "name": "admin",
          "type": "address"
        }
      ],
      "name": "approveAdmin",
      "outputs": [],
      "stateMutability": "nonpayable",
      "type": "function"
    },
    {
      "inputs": [
        {
          "internalType": "address",
          "name": "from",
          "type": "address"
        },
        {
          "internalType": "address",
          "name": "to",
          "type": "address"
        },
        {
          "internalType": "uint256",
          "name": "tokenId",
          "type": "uint256"
        }
      ],
      "name": "approveTransfer",
      "outputs": [
        {
          "internalType": "bool",
          "name": "",
          "type": "bool"
        }
      ],
      "stateMutability": "nonpayable",
      "type": "function"
    },
    {
      "inputs": [],
      "name": "getAdmins",
      "outputs": [
        {
          "internalType": "address[]",
          "name": "admins",
          "type": "address[]"
        }
      ],
      "stateMutability": "view",
      "type": "function"
    },
    {
      "inputs": [],
      "name": "getTokenIds",
      "outputs": [
        {
          "internalType": "uint256[]",
          "name": "",
          "type": "uint256[]"
        }
      ],
      "stateMutability": "view",
      "type": "function"
    },
    {
      "inputs": [],
      "name": "getTokenOwners",
      "outputs": [
        {
          "internalType": "address[]",
          "name": "",
          "type": "address[]"
        }
      ],
      "stateMutability": "view",
      "type": "function"
    },
    {
      "inputs": [
        {
          "internalType": "address",
          "name": "admin",
          "type": "address"
        }
      ],
      "name": "isAdmin",
      "outputs": [
        {
          "internalType": "bool",
          "name": "",
          "type": "bool"
        }
      ],
      "stateMutability": "view",
      "type": "function"
    },
    {
      "inputs": [
        {
          "internalType": "address",
          "name": "sender",
          "type": "address"
        }
      ],
      "name": "mint",
      "outputs": [],
      "stateMutability": "nonpayable",
      "type": "function"
    },
    {
      "inputs": [],
      "name": "owner",
      "outputs": [
        {
          "internalType": "address",
          "name": "",
          "type": "address"
        }
      ],
      "stateMutability": "view",
      "type": "function"
    },
    {
      "inputs": [],
      "name": "renounceOwnership",
      "outputs": [],
      "stateMutability": "nonpayable",
      "type": "function"
    },
    {
      "inputs": [
        {
          "internalType": "address",
          "name": "admin",
          "type": "address"
        }
      ],
      "name": "revokeAdmin",
      "outputs": [],
      "stateMutability": "nonpayable",
      "type": "function"
    },
    {
      "inputs": [
        {
          "internalType": "address",
          "name": "creator",
          "type": "address"
        },
        {
          "internalType": "bool",
          "name": "enabled",
          "type": "bool"
        }
      ],
      "name": "setApproveTransfer",
      "outputs": [],
      "stateMutability": "nonpayable",
      "type": "function"
    },
    {
      "inputs": [
        {
          "internalType": "string",
          "name": "baseURI",
          "type": "string"
        }
      ],
      "name": "setBaseURI",
      "outputs": [],
      "stateMutability": "nonpayable",
      "type": "function"
    },
    {
      "inputs": [
        {
          "internalType": "bytes4",
          "name": "interfaceId",
          "type": "bytes4"
        }
      ],
      "name": "supportsInterface",
      "outputs": [
        {
          "internalType": "bool",
          "name": "",
          "type": "bool"
        }
      ],
      "stateMutability": "view",
      "type": "function"
    },
    {
      "inputs": [
        {
          "internalType": "address",
          "name": "creator",
          "type": "address"
        },
        {
          "internalType": "uint256",
          "name": "tokenId",
          "type": "uint256"
        }
      ],
      "name": "tokenURI",
      "outputs": [
        {
          "internalType": "string",
          "name": "",
          "type": "string"
        }
      ],
      "stateMutability": "view",
      "type": "function"
    },
    {
      "inputs": [
        {
          "internalType": "address",
          "name": "newOwner",
          "type": "address"
        }
      ],
      "name": "transferOwnership",
      "outputs": [],
      "stateMutability": "nonpayable",
      "type": "function"
    }
  ],
  "bytecode": "0x608060405234801561001057600080fd5b506040516113a73803806113a783398101604081905261002f916100ac565b6100383361005c565b600580546001600160b01b0319166001600160a01b039092169190911790556100dc565b600080546001600160a01b038381166001600160a01b0319831681178455604051919092169283917f8be0079c531659141344cd1fd0a4f28419497f9722a3daafe3b4186f6b6457e09190a35050565b6000602082840312156100be57600080fd5b81516001600160a01b03811681146100d557600080fd5b9392505050565b6112bc806100eb6000396000f3fe608060405234801561001057600080fd5b50600436106100c55760003560e01c806301ffc9a7146100ca5780631b95a227146100f257806324d7806c146101075780632d3456701461011a57806331ae450b1461012d57806355f804b31461014257806367f718a9146101555780636a6278421461016a5780636d73e6691461017d578063715018a61461019057806382580805146101985780638da5cb5b146101ab578063d1b02ba7146101c0578063e9dc6375146101c8578063f2fde38b146101e8575b600080fd5b6100dd6100d8366004610e1e565b6101fb565b60405190151581526020015b60405180910390f35b610105610100366004610db8565b610250565b005b6100dd610115366004610d61565b6102fb565b610105610128366004610d61565b61032a565b610135610388565b6040516100e99190610fe8565b610105610150366004610e48565b610436565b61015d610489565b6040516100e99190611035565b610105610178366004610d61565b610521565b61010561018b366004610d61565b61067e565b6101056106d6565b6100dd6101a6366004610d7c565b6106ea565b6101b3610748565b6040516100e99190610fd4565b610135610757565b6101db6101d6366004610df4565b6107f8565b6040516100e9919061106d565b6101056101f6366004610d61565b61087b565b60006001600160e01b0319821663e9dc637560e01b148061022c57506001600160e01b03198216634ce6d51160e11b145b8061023b575061023b826108f1565b8061024a575061024a826108f1565b92915050565b33610259610748565b6001600160a01b031614806102745750610274600133610926565b6102995760405162461bcd60e51b8152600401610290906110d1565b60405180910390fd5b600554604051635606467d60e11b8152600160048201526001600160a01b039091169063ac0c8cfa90602401600060405180830381600087803b1580156102df57600080fd5b505af11580156102f3573d6000803e3d6000fd5b505050505050565b6000816001600160a01b031661030f610748565b6001600160a01b0316148061024a575061024a600183610926565b610332610942565b61033d600182610926565b156103855760405133906001600160a01b038316907f7c0c3c84c67c85fcac635147348bfe374c24a1a93d0366d1cfe9d8853cbf89d590600090a36103836001826109a1565b505b50565b606061039460016109b6565b6001600160401b038111156103ab576103ab611270565b6040519080825280602002602001820160405280156103d4578160200160208202803683370190505b50905060005b6103e460016109b6565b811015610432576103f66001826109c0565b8282815181106104085761040861125a565b6001600160a01b03909216602092830291909101909101528061042a816111e9565b9150506103da565b5090565b3361043f610748565b6001600160a01b0316148061045a575061045a600133610926565b6104765760405162461bcd60e51b8152600401610290906110d1565b8051610383906006906020840190610cb5565b606033610494610748565b6001600160a01b031614806104af57506104af600133610926565b6104cb5760405162461bcd60e51b8152600401610290906110d1565b600480548060200260200160405190810160405280929190818152602001828054801561051757602002820191906000526020600020905b815481526020019060010190808311610503575b5050505050905090565b3361052a610748565b6001600160a01b031614806105455750610545600133610926565b6105615760405162461bcd60e51b8152600401610290906110d1565b600554604051630525194b60e31b81526004916001600160a01b031690632928ca58906105919085908501610fd4565b602060405180830381600087803b1580156105ab57600080fd5b505af11580156105bf573d6000803e3d6000fd5b505050506040513d601f19601f820116820180604052508101906105e39190610ef8565b8154600180820184556000938452602084209091019190915560038054808301825592527fc2575a0e9e593c00f959f8c92f12db2869c3395a3b0502d05e2516446f71f85b90910180546001600160a01b0319166001600160a01b03841617905560058054601490610661908490600160a01b900461ffff16611115565b92506101000a81548161ffff021916908361ffff16021790555050565b610686610942565b610691600182610926565b6103855760405133906001600160a01b038316907f7e1a1a08d52e4ba0e21554733d66165fd5151f99460116223d9e3a608eec5cb190600090a36103836001826109cc565b6106de610942565b6106e860006109e1565b565b6005546000906001600160a01b031633146107175760405162461bcd60e51b8152600401610290906110a0565b6001600160a01b0384161561073e5760405162461bcd60e51b8152600401610290906110a0565b5060019392505050565b6000546001600160a01b031690565b606033610762610748565b6001600160a01b0316148061077d575061077d600133610926565b6107995760405162461bcd60e51b8152600401610290906110d1565b600380548060200260200160405190810160405280929190818152602001828054801561051757602002820191906000526020600020905b81546001600160a01b031681526001909101906020018083116107d1575050505050905090565b6005546060906001600160a01b038481169116146108485760405162461bcd60e51b815260206004820152600d60248201526c24b73b30b634b2103a37b5b2b760991b6044820152606401610290565b600661085383610a31565b604051602001610864929190610f2d565b604051602081830303815290604052905092915050565b610883610942565b6001600160a01b0381166108e85760405162461bcd60e51b815260206004820152602660248201527f4f776e61626c653a206e6577206f776e657220697320746865207a65726f206160448201526564647265737360d01b6064820152608401610290565b610385816109e1565b60006001600160e01b03198216632a9f3abf60e11b148061024a57506301ffc9a760e01b6001600160e01b031983161461024a565b600061093b836001600160a01b038416610b36565b9392505050565b3361094b610748565b6001600160a01b0316146106e85760405162461bcd60e51b815260206004820181905260248201527f4f776e61626c653a2063616c6c6572206973206e6f7420746865206f776e65726044820152606401610290565b600061093b836001600160a01b038416610b4e565b600061024a825490565b600061093b8383610c41565b600061093b836001600160a01b038416610c6b565b600080546001600160a01b038381166001600160a01b0319831681178455604051919092169283917f8be0079c531659141344cd1fd0a4f28419497f9722a3daafe3b4186f6b6457e09190a35050565b606081610a555750506040805180820190915260018152600360fc1b602082015290565b8160005b8115610a7f5780610a69816111e9565b9150610a789050600a83611153565b9150610a59565b6000816001600160401b03811115610a9957610a99611270565b6040519080825280601f01601f191660200182016040528015610ac3576020820181803683370190505b5090505b8415610b2e57610ad8600183611167565b9150610ae5600a86611204565b610af090603061113b565b60f81b818381518110610b0557610b0561125a565b60200101906001600160f81b031916908160001a905350610b27600a86611153565b9450610ac7565b949350505050565b60009081526001919091016020526040902054151590565b60008181526001830160205260408120548015610c37576000610b72600183611167565b8554909150600090610b8690600190611167565b9050818114610beb576000866000018281548110610ba657610ba661125a565b9060005260206000200154905080876000018481548110610bc957610bc961125a565b6000918252602080832090910192909255918252600188019052604090208390555b8554869080610bfc57610bfc611244565b60019003818190600052602060002001600090559055856001016000868152602001908152602001600020600090556001935050505061024a565b600091505061024a565b6000826000018281548110610c5857610c5861125a565b9060005260206000200154905092915050565b6000610c778383610b36565b610cad5750815460018181018455600084815260208082209093018490558454848252828601909352604090209190915561024a565b50600061024a565b828054610cc1906111ae565b90600052602060002090601f016020900481019282610ce35760008555610d29565b82601f10610cfc57805160ff1916838001178555610d29565b82800160010185558215610d29579182015b82811115610d29578251825591602001919060010190610d0e565b506104329291505b808211156104325760008155600101610d31565b80356001600160a01b0381168114610d5c57600080fd5b919050565b600060208284031215610d7357600080fd5b61093b82610d45565b600080600060608486031215610d9157600080fd5b610d9a84610d45565b9250610da860208501610d45565b9150604084013590509250925092565b60008060408385031215610dcb57600080fd5b610dd483610d45565b915060208301358015158114610de957600080fd5b809150509250929050565b60008060408385031215610e0757600080fd5b610e1083610d45565b946020939093013593505050565b600060208284031215610e3057600080fd5b81356001600160e01b03198116811461093b57600080fd5b600060208284031215610e5a57600080fd5b81356001600160401b0380821115610e7157600080fd5b818401915084601f830112610e8557600080fd5b813581811115610e9757610e97611270565b604051601f8201601f19908116603f01168101908382118183101715610ebf57610ebf611270565b81604052828152876020848701011115610ed857600080fd5b826020860160208301376000928101602001929092525095945050505050565b600060208284031215610f0a57600080fd5b5051919050565b60008151610f2381856020860161117e565b9290920192915050565b600080845481600182811c915080831680610f4957607f831692505b6020808410821415610f6957634e487b7160e01b86526022600452602486fd5b818015610f7d5760018114610f8e57610fbb565b60ff19861689528489019650610fbb565b60008b81526020902060005b86811015610fb35781548b820152908501908301610f9a565b505084890196505b505050505050610fcb8185610f11565b95945050505050565b6001600160a01b0391909116815260200190565b6020808252825182820181905260009190848201906040850190845b818110156110295783516001600160a01b031683529284019291840191600101611004565b50909695505050505050565b6020808252825182820181905260009190848201906040850190845b8181101561102957835183529284019291840191600101611051565b602081526000825180602084015261108c81604085016020870161117e565b601f01601f19169190910160400192915050565b602080825260179082015276151a1a5cc81d1bdad95b881a5cc81cdbdd5b189bdd5b99604a1b604082015260600190565b60208082526024908201527f41646d696e436f6e74726f6c3a204d757374206265206f776e6572206f7220616040820152633236b4b760e11b606082015260800190565b600061ffff80831681851680830382111561113257611132611218565b01949350505050565b6000821982111561114e5761114e611218565b500190565b6000826111625761116261122e565b500490565b60008282101561117957611179611218565b500390565b60005b83811015611199578181015183820152602001611181565b838111156111a8576000848401525b50505050565b600181811c908216806111c257607f821691505b602082108114156111e357634e487b7160e01b600052602260045260246000fd5b50919050565b60006000198214156111fd576111fd611218565b5060010190565b6000826112135761121361122e565b500690565b634e487b7160e01b600052601160045260246000fd5b634e487b7160e01b600052601260045260246000fd5b634e487b7160e01b600052603160045260246000fd5b634e487b7160e01b600052603260045260246000fd5b634e487b7160e01b600052604160045260246000fdfea264697066735822122041a9bf2a849b36c3eb1a5391a5b0318f3843d2772101d3fa79b496dda88447e864736f6c63430008070033",
  "linkReferences": {},
  "deployedLinkReferences": {}
}