{
  "_format": "hh-sol-artifact-1",
  "contractName": "SoulBound",
  "sourceName": "contracts/Soulbound.sol",
  "abi": [
    {
      "inputs": [
        {
          "internalType": "address",
          "name": "creator",
          "type": "address"
        }
      ],
      "stateMutability": "nonpayable",
      "type": "constructor"
    },
    {
      "anonymous": false,
      "inputs": [
        {
          "indexed": true,
          "internalType": "address",
          "name": "account",
          "type": "address"
        },
        {
          "indexed": true,
          "internalType": "address",
          "name": "sender",
          "type": "address"
        }
      ],
      "name": "AdminApproved",
      "type": "event"
    },
    {
      "anonymous": false,
      "inputs": [
        {
          "indexed": true,
          "internalType": "address",
          "name": "account",
          "type": "address"
        },
        {
          "indexed": true,
          "internalType": "address",
          "name": "sender",
          "type": "address"
        }
      ],
      "name": "AdminRevoked",
      "type": "event"
    },
    {
      "anonymous": false,
      "inputs": [
        {
          "indexed": true,
          "internalType": "address",
          "name": "previousOwner",
          "type": "address"
        },
        {
          "indexed": true,
          "internalType": "address",
          "name": "newOwner",
          "type": "address"
        }
      ],
      "name": "OwnershipTransferred",
      "type": "event"
    },
    {
      "inputs": [
        {
          "internalType": "address",
          "name": "admin",
          "type": "address"
        }
      ],
      "name": "approveAdmin",
      "outputs": [],
      "stateMutability": "nonpayable",
      "type": "function"
    },
    {
      "inputs": [
        {
          "internalType": "address",
          "name": "from",
          "type": "address"
        },
        {
          "internalType": "address",
          "name": "to",
          "type": "address"
        },
        {
          "internalType": "uint256",
          "name": "tokenId",
          "type": "uint256"
        }
      ],
      "name": "approveTransfer",
      "outputs": [
        {
          "internalType": "bool",
          "name": "",
          "type": "bool"
        }
      ],
      "stateMutability": "nonpayable",
      "type": "function"
    },
    {
      "inputs": [
        {
          "internalType": "string",
          "name": "collectionName",
          "type": "string"
        }
      ],
      "name": "editionCountByCollectionName",
      "outputs": [
        {
          "internalType": "uint256",
          "name": "",
          "type": "uint256"
        }
      ],
      "stateMutability": "view",
      "type": "function"
    },
    {
      "inputs": [],
      "name": "getAdmins",
      "outputs": [
        {
          "internalType": "address[]",
          "name": "admins",
          "type": "address[]"
        }
      ],
      "stateMutability": "view",
      "type": "function"
    },
    {
      "inputs": [],
      "name": "getCollections",
      "outputs": [
        {
          "internalType": "string[]",
          "name": "collectionNames",
          "type": "string[]"
        },
        {
          "internalType": "uint32[]",
          "name": "editionNumbers",
          "type": "uint32[]"
        }
      ],
      "stateMutability": "view",
      "type": "function"
    },
    {
      "inputs": [],
      "name": "getTokenIds",
      "outputs": [
        {
          "internalType": "uint256[]",
          "name": "tokenIds",
          "type": "uint256[]"
        }
      ],
      "stateMutability": "view",
      "type": "function"
    },
    {
      "inputs": [
        {
          "internalType": "string",
          "name": "collectionName",
          "type": "string"
        }
      ],
      "name": "getTokenOwnersForCollection",
      "outputs": [
        {
          "internalType": "address[]",
          "name": "tokenOwners",
          "type": "address[]"
        }
      ],
      "stateMutability": "view",
      "type": "function"
    },
    {
      "inputs": [
        {
          "internalType": "address",
          "name": "admin",
          "type": "address"
        }
      ],
      "name": "isAdmin",
      "outputs": [
        {
          "internalType": "bool",
          "name": "",
          "type": "bool"
        }
      ],
      "stateMutability": "view",
      "type": "function"
    },
    {
      "inputs": [
        {
          "internalType": "string",
          "name": "collectionName",
          "type": "string"
        },
        {
          "internalType": "address",
          "name": "sender",
          "type": "address"
        },
        {
          "internalType": "string",
          "name": "uri",
          "type": "string"
        }
      ],
      "name": "mint",
      "outputs": [],
      "stateMutability": "nonpayable",
      "type": "function"
    },
    {
      "inputs": [],
      "name": "owner",
      "outputs": [
        {
          "internalType": "address",
          "name": "",
          "type": "address"
        }
      ],
      "stateMutability": "view",
      "type": "function"
    },
    {
      "inputs": [],
      "name": "renounceOwnership",
      "outputs": [],
      "stateMutability": "nonpayable",
      "type": "function"
    },
    {
      "inputs": [
        {
          "internalType": "address",
          "name": "admin",
          "type": "address"
        }
      ],
      "name": "revokeAdmin",
      "outputs": [],
      "stateMutability": "nonpayable",
      "type": "function"
    },
    {
      "inputs": [
        {
          "internalType": "address",
          "name": "creator",
          "type": "address"
        },
        {
          "internalType": "bool",
          "name": "enabled",
          "type": "bool"
        }
      ],
      "name": "setApproveTransfer",
      "outputs": [],
      "stateMutability": "nonpayable",
      "type": "function"
    },
    {
      "inputs": [
        {
          "internalType": "string",
          "name": "baseURI",
          "type": "string"
        }
      ],
      "name": "setBaseURI",
      "outputs": [],
      "stateMutability": "nonpayable",
      "type": "function"
    },
    {
      "inputs": [
        {
          "internalType": "bytes4",
          "name": "interfaceId",
          "type": "bytes4"
        }
      ],
      "name": "supportsInterface",
      "outputs": [
        {
          "internalType": "bool",
          "name": "",
          "type": "bool"
        }
      ],
      "stateMutability": "view",
      "type": "function"
    },
    {
      "inputs": [
        {
          "internalType": "address",
          "name": "creator",
          "type": "address"
        },
        {
          "internalType": "uint256",
          "name": "tokenId",
          "type": "uint256"
        }
      ],
      "name": "tokenURI",
      "outputs": [
        {
          "internalType": "string",
          "name": "",
          "type": "string"
        }
      ],
      "stateMutability": "view",
      "type": "function"
    },
    {
      "inputs": [
        {
          "internalType": "address",
          "name": "newOwner",
          "type": "address"
        }
      ],
      "name": "transferOwnership",
      "outputs": [],
      "stateMutability": "nonpayable",
      "type": "function"
    }
  ],
  "bytecode": "0x60806040523480156200001157600080fd5b5060405162002dbb38038062002dbb83398181016040528101906200003791906200018a565b620000576200004b620000a760201b60201c565b620000af60201b60201c565b600160038190555080600960006101000a81548173ffffffffffffffffffffffffffffffffffffffff021916908373ffffffffffffffffffffffffffffffffffffffff160217905550506200020f565b600033905090565b60008060009054906101000a900473ffffffffffffffffffffffffffffffffffffffff169050816000806101000a81548173ffffffffffffffffffffffffffffffffffffffff021916908373ffffffffffffffffffffffffffffffffffffffff1602179055508173ffffffffffffffffffffffffffffffffffffffff168173ffffffffffffffffffffffffffffffffffffffff167f8be0079c531659141344cd1fd0a4f28419497f9722a3daafe3b4186f6b6457e060405160405180910390a35050565b6000815190506200018481620001f5565b92915050565b600060208284031215620001a357620001a2620001f0565b5b6000620001b38482850162000173565b91505092915050565b6000620001c982620001d0565b9050919050565b600073ffffffffffffffffffffffffffffffffffffffff82169050919050565b600080fd5b6200020081620001bc565b81146200020c57600080fd5b50565b612b9c806200021f6000396000f3fe608060405234801561001057600080fd5b506004361061010b5760003560e01c80636d73e669116100a2578063a9d4856a11610071578063a9d4856a14610293578063ad6cf0a5146102c3578063cd3020a9146102df578063e9dc63751461030f578063f2fde38b1461033f5761010b565b80636d73e6691461021f578063715018a61461023b57806382580805146102455780638da5cb5b146102755761010b565b806331ae450b116100de57806331ae450b146101a857806346e63586146101c657806355f804b3146101e557806367f718a9146102015761010b565b806301ffc9a7146101105780631b95a2271461014057806324d7806c1461015c5780632d3456701461018c575b600080fd5b61012a60048036038101906101259190611cd5565b61035b565b60405161013791906123e3565b60405180910390f35b61015a60048036038101906101559190611c55565b6104b5565b005b61017660048036038101906101719190611bd5565b6105d7565b60405161018391906123e3565b60405180910390f35b6101a660048036038101906101a19190611bd5565b610631565b005b6101b06106c5565b6040516101bd9190612368565b60405180910390f35b6101ce6107a7565b6040516101dc92919061238a565b60405180910390f35b6101ff60048036038101906101fa9190611d02565b6109b5565b005b610209610aec565b60405161021691906123c1565b60405180910390f35b61023960048036038101906102349190611bd5565b610c86565b005b610243610d19565b005b61025f600480360381019061025a9190611c02565b610d2d565b60405161026c91906123e3565b60405180910390f35b61027d610e39565b60405161028a919061231b565b60405180910390f35b6102ad60048036038101906102a89190611d02565b610e62565b6040516102ba9190612500565b60405180910390f35b6102dd60048036038101906102d89190611d4b565b610ea0565b005b6102f960048036038101906102f49190611d02565b611192565b6040516103069190612368565b60405180910390f35b61032960048036038101906103249190611c95565b61135a565b60405161033691906123fe565b60405180910390f35b61035960048036038101906103549190611bd5565b611429565b005b60007f54bd1f8f000000000000000000000000000000000000000000000000000000007bffffffffffffffffffffffffffffffffffffffffffffffffffffffff1916827bffffffffffffffffffffffffffffffffffffffffffffffffffffffff1916148061042657507fe9dc6375000000000000000000000000000000000000000000000000000000007bffffffffffffffffffffffffffffffffffffffffffffffffffffffff1916827bffffffffffffffffffffffffffffffffffffffffffffffffffffffff1916145b8061048e57507f99cdaa22000000000000000000000000000000000000000000000000000000007bffffffffffffffffffffffffffffffffffffffffffffffffffffffff1916827bffffffffffffffffffffffffffffffffffffffffffffffffffffffff1916145b8061049e575061049d826114ad565b5b806104ae57506104ad826114ad565b5b9050919050565b3373ffffffffffffffffffffffffffffffffffffffff166104d4610e39565b73ffffffffffffffffffffffffffffffffffffffff161480610506575061050533600161152790919063ffffffff16565b5b610545576040517f08c379a000000000000000000000000000000000000000000000000000000000815260040161053c906124c0565b60405180910390fd5b600960009054906101000a900473ffffffffffffffffffffffffffffffffffffffff1673ffffffffffffffffffffffffffffffffffffffff1663ac0c8cfa60016040518263ffffffff1660e01b81526004016105a191906123e3565b600060405180830381600087803b1580156105bb57600080fd5b505af11580156105cf573d6000803e3d6000fd5b505050505050565b60008173ffffffffffffffffffffffffffffffffffffffff166105f8610e39565b73ffffffffffffffffffffffffffffffffffffffff16148061062a575061062982600161152790919063ffffffff16565b5b9050919050565b610639611557565b61064d81600161152790919063ffffffff16565b156106c2573373ffffffffffffffffffffffffffffffffffffffff168173ffffffffffffffffffffffffffffffffffffffff167f7c0c3c84c67c85fcac635147348bfe374c24a1a93d0366d1cfe9d8853cbf89d560405160405180910390a36106c08160016115d590919063ffffffff16565b505b50565b60606106d16001611605565b67ffffffffffffffff8111156106ea576106e961293e565b5b6040519080825280602002602001820160405280156107185781602001602082028036833780820191505090505b50905060005b6107286001611605565b8110156107a35761074381600161161a90919063ffffffff16565b8282815181106107565761075561290f565b5b602002602001019073ffffffffffffffffffffffffffffffffffffffff16908173ffffffffffffffffffffffffffffffffffffffff1681525050808061079b90612839565b91505061071e565b5090565b60608060058054905067ffffffffffffffff8111156107c9576107c861293e565b5b6040519080825280602002602001820160405280156107fc57816020015b60608152602001906001900390816107e75790505b50915060058054905067ffffffffffffffff81111561081e5761081d61293e565b5b60405190808252806020026020018201604052801561084c5781602001602082028036833780820191505090505b50905060005b6005805490508110156109b057600581815481106108735761087261290f565b5b906000526020600020018054610888906127d6565b80601f01602080910402602001604051908101604052809291908181526020018280546108b4906127d6565b80156109015780601f106108d657610100808354040283529160200191610901565b820191906000526020600020905b8154815290600101906020018083116108e457829003601f168201915b50505050508382815181106109195761091861290f565b5b602002602001018190525060076005828154811061093a5761093961290f565b5b9060005260206000200160405161095191906122cb565b908152602001604051809103902060009054906101000a900463ffffffff168282815181106109835761098261290f565b5b602002602001019063ffffffff16908163ffffffff168152505080806109a890612839565b915050610852565b509091565b3373ffffffffffffffffffffffffffffffffffffffff166109d4610e39565b73ffffffffffffffffffffffffffffffffffffffff161480610a065750610a0533600161152790919063ffffffff16565b5b610a45576040517f08c379a0000000000000000000000000000000000000000000000000000000008152600401610a3c906124c0565b60405180910390fd5b600960009054906101000a900473ffffffffffffffffffffffffffffffffffffffff1673ffffffffffffffffffffffffffffffffffffffff16633e6134b8826040518263ffffffff1660e01b8152600401610aa091906123fe565b600060405180830381600087803b158015610aba57600080fd5b505af1158015610ace573d6000803e3d6000fd5b5050505080600a9080519060200190610ae892919061197d565b5050565b60603373ffffffffffffffffffffffffffffffffffffffff16610b0d610e39565b73ffffffffffffffffffffffffffffffffffffffff161480610b3f5750610b3e33600161152790919063ffffffff16565b5b610b7e576040517f08c379a0000000000000000000000000000000000000000000000000000000008152600401610b75906124c0565b60405180910390fd5b60048054905067ffffffffffffffff811115610b9d57610b9c61293e565b5b604051908082528060200260200182016040528015610bcb5781602001602082028036833780820191505090505b50905060005b600480549050811015610c2f5760048181548110610bf257610bf161290f565b5b9060005260206000200154828281518110610c1057610c0f61290f565b5b6020026020010181815250508080610c2790612839565b915050610bd1565b506004805480602002602001604051908101604052809291908181526020018280548015610c7c57602002820191906000526020600020905b815481526020019060010190808311610c68575b5050505050905090565b610c8e611557565b610ca281600161152790919063ffffffff16565b610d16573373ffffffffffffffffffffffffffffffffffffffff168173ffffffffffffffffffffffffffffffffffffffff167f7e1a1a08d52e4ba0e21554733d66165fd5151f99460116223d9e3a608eec5cb160405160405180910390a3610d1481600161163490919063ffffffff16565b505b50565b610d21611557565b610d2b6000611664565b565b6000600960009054906101000a900473ffffffffffffffffffffffffffffffffffffffff1673ffffffffffffffffffffffffffffffffffffffff163373ffffffffffffffffffffffffffffffffffffffff1614610dbf576040517f08c379a0000000000000000000000000000000000000000000000000000000008152600401610db690612420565b60405180910390fd5b600073ffffffffffffffffffffffffffffffffffffffff168473ffffffffffffffffffffffffffffffffffffffff1614610e2e576040517f08c379a0000000000000000000000000000000000000000000000000000000008152600401610e2590612420565b60405180910390fd5b600190509392505050565b60008060009054906101000a900473ffffffffffffffffffffffffffffffffffffffff16905090565b6000600782604051610e7491906122b4565b908152602001604051809103902060009054906101000a900463ffffffff1663ffffffff169050919050565b60026003541415610ee6576040517f08c379a0000000000000000000000000000000000000000000000000000000008152600401610edd906124e0565b60405180910390fd5b6002600381905550604051602001610efd90612306565b6040516020818303038152906040528051906020012084604051602001610f2491906122b4565b604051602081830303815290604052805190602001201415610f7b576040517f08c379a0000000000000000000000000000000000000000000000000000000008152600401610f7290612480565b60405180910390fd5b6000600960009054906101000a900473ffffffffffffffffffffffffffffffffffffffff1673ffffffffffffffffffffffffffffffffffffffff1663fe2e1f588585856040518463ffffffff1660e01b8152600401610fdc93929190612336565b602060405180830381600087803b158015610ff657600080fd5b505af115801561100a573d6000803e3d6000fd5b505050506040513d601f19601f8201168201806040525081019061102e9190611ddb565b905060048190806001815401808255809150506001900390600052602060002001600090919091909150556110898460088760405161106d91906122b4565b908152602001604051809103902061163490919063ffffffff16565b5082826006600084815260200190815260200160002091906110ac929190611a03565b5060006007866040516110bf91906122b4565b908152602001604051809103902060009054906101000a900463ffffffff1663ffffffff1614156111275760058590806001815401808255809150506001900390600052602060002001600090919091909150908051906020019061112592919061197d565b505b600160078660405161113991906122b4565b908152602001604051809103902060008282829054906101000a900463ffffffff1661116591906126a2565b92506101000a81548163ffffffff021916908363ffffffff16021790555050600160038190555050505050565b60603373ffffffffffffffffffffffffffffffffffffffff166111b3610e39565b73ffffffffffffffffffffffffffffffffffffffff1614806111e557506111e433600161152790919063ffffffff16565b5b611224576040517f08c379a000000000000000000000000000000000000000000000000000000000815260040161121b906124c0565b60405180910390fd5b61124a60088360405161123791906122b4565b9081526020016040518091039020611605565b67ffffffffffffffff8111156112635761126261293e565b5b6040519080825280602002602001820160405280156112915781602001602082028036833780820191505090505b50905060005b6112bd6008846040516112aa91906122b4565b9081526020016040518091039020611605565b811015611354576112f4816008856040516112d891906122b4565b908152602001604051809103902061161a90919063ffffffff16565b8282815181106113075761130661290f565b5b602002602001019073ffffffffffffffffffffffffffffffffffffffff16908173ffffffffffffffffffffffffffffffffffffffff1681525050808061134c90612839565b915050611297565b50919050565b6060600960009054906101000a900473ffffffffffffffffffffffffffffffffffffffff1673ffffffffffffffffffffffffffffffffffffffff168373ffffffffffffffffffffffffffffffffffffffff16146113ec576040517f08c379a00000000000000000000000000000000000000000000000000000000081526004016113e390612460565b60405180910390fd5b600a600660008481526020019081526020016000206040516020016114129291906122e2565b604051602081830303815290604052905092915050565b611431611557565b600073ffffffffffffffffffffffffffffffffffffffff168173ffffffffffffffffffffffffffffffffffffffff1614156114a1576040517f08c379a000000000000000000000000000000000000000000000000000000000815260040161149890612440565b60405180910390fd5b6114aa81611664565b50565b60007f553e757e000000000000000000000000000000000000000000000000000000007bffffffffffffffffffffffffffffffffffffffffffffffffffffffff1916827bffffffffffffffffffffffffffffffffffffffffffffffffffffffff19161480611520575061151f82611728565b5b9050919050565b600061154f836000018373ffffffffffffffffffffffffffffffffffffffff1660001b611792565b905092915050565b61155f6117b5565b73ffffffffffffffffffffffffffffffffffffffff1661157d610e39565b73ffffffffffffffffffffffffffffffffffffffff16146115d3576040517f08c379a00000000000000000000000000000000000000000000000000000000081526004016115ca906124a0565b60405180910390fd5b565b60006115fd836000018373ffffffffffffffffffffffffffffffffffffffff1660001b6117bd565b905092915050565b6000611613826000016118d1565b9050919050565b600061162983600001836118e2565b60001c905092915050565b600061165c836000018373ffffffffffffffffffffffffffffffffffffffff1660001b61190d565b905092915050565b60008060009054906101000a900473ffffffffffffffffffffffffffffffffffffffff169050816000806101000a81548173ffffffffffffffffffffffffffffffffffffffff021916908373ffffffffffffffffffffffffffffffffffffffff1602179055508173ffffffffffffffffffffffffffffffffffffffff168173ffffffffffffffffffffffffffffffffffffffff167f8be0079c531659141344cd1fd0a4f28419497f9722a3daafe3b4186f6b6457e060405160405180910390a35050565b60007f01ffc9a7000000000000000000000000000000000000000000000000000000007bffffffffffffffffffffffffffffffffffffffffffffffffffffffff1916827bffffffffffffffffffffffffffffffffffffffffffffffffffffffff1916149050919050565b600080836001016000848152602001908152602001600020541415905092915050565b600033905090565b600080836001016000848152602001908152602001600020549050600081146118c55760006001826117ef91906126dc565b905060006001866000018054905061180791906126dc565b90508181146118765760008660000182815481106118285761182761290f565b5b906000526020600020015490508087600001848154811061184c5761184b61290f565b5b90600052602060002001819055508387600101600083815260200190815260200160002081905550505b8560000180548061188a576118896128e0565b5b6001900381819060005260206000200160009055905585600101600086815260200190815260200160002060009055600193505050506118cb565b60009150505b92915050565b600081600001805490509050919050565b60008260000182815481106118fa576118f961290f565b5b9060005260206000200154905092915050565b60006119198383611792565b611972578260000182908060018154018082558091505060019003906000526020600020016000909190919091505582600001805490508360010160008481526020019081526020016000208190555060019050611977565b600090505b92915050565b828054611989906127d6565b90600052602060002090601f0160209004810192826119ab57600085556119f2565b82601f106119c457805160ff19168380011785556119f2565b828001600101855582156119f2579182015b828111156119f15782518255916020019190600101906119d6565b5b5090506119ff9190611a89565b5090565b828054611a0f906127d6565b90600052602060002090601f016020900481019282611a315760008555611a78565b82601f10611a4a57803560ff1916838001178555611a78565b82800160010185558215611a78579182015b82811115611a77578235825591602001919060010190611a5c565b5b509050611a859190611a89565b5090565b5b80821115611aa2576000816000905550600101611a8a565b5090565b6000611ab9611ab484612540565b61251b565b905082815260208101848484011115611ad557611ad461297c565b5b611ae0848285612794565b509392505050565b600081359050611af781612b0a565b92915050565b600081359050611b0c81612b21565b92915050565b600081359050611b2181612b38565b92915050565b60008083601f840112611b3d57611b3c612972565b5b8235905067ffffffffffffffff811115611b5a57611b5961296d565b5b602083019150836001820283011115611b7657611b75612977565b5b9250929050565b600082601f830112611b9257611b91612972565b5b8135611ba2848260208601611aa6565b91505092915050565b600081359050611bba81612b4f565b92915050565b600081519050611bcf81612b4f565b92915050565b600060208284031215611beb57611bea612986565b5b6000611bf984828501611ae8565b91505092915050565b600080600060608486031215611c1b57611c1a612986565b5b6000611c2986828701611ae8565b9350506020611c3a86828701611ae8565b9250506040611c4b86828701611bab565b9150509250925092565b60008060408385031215611c6c57611c6b612986565b5b6000611c7a85828601611ae8565b9250506020611c8b85828601611afd565b9150509250929050565b60008060408385031215611cac57611cab612986565b5b6000611cba85828601611ae8565b9250506020611ccb85828601611bab565b9150509250929050565b600060208284031215611ceb57611cea612986565b5b6000611cf984828501611b12565b91505092915050565b600060208284031215611d1857611d17612986565b5b600082013567ffffffffffffffff811115611d3657611d35612981565b5b611d4284828501611b7d565b91505092915050565b60008060008060608587031215611d6557611d64612986565b5b600085013567ffffffffffffffff811115611d8357611d82612981565b5b611d8f87828801611b7d565b9450506020611da087828801611ae8565b935050604085013567ffffffffffffffff811115611dc157611dc0612981565b5b611dcd87828801611b27565b925092505092959194509250565b600060208284031215611df157611df0612986565b5b6000611dff84828501611bc0565b91505092915050565b6000611e148383611e64565b60208301905092915050565b6000611e2c838361204d565b905092915050565b6000611e408383612287565b60208301905092915050565b6000611e5883836122a5565b60208301905092915050565b611e6d81612710565b82525050565b611e7c81612710565b82525050565b6000611e8d826125c6565b611e978185612631565b9350611ea283612571565b8060005b83811015611ed3578151611eba8882611e08565b9750611ec5836125fd565b925050600181019050611ea6565b5085935050505092915050565b6000611eeb826125d1565b611ef58185612642565b935083602082028501611f0785612581565b8060005b85811015611f435784840389528151611f248582611e20565b9450611f2f8361260a565b925060208a01995050600181019050611f0b565b50829750879550505050505092915050565b6000611f60826125dc565b611f6a8185612653565b9350611f7583612591565b8060005b83811015611fa6578151611f8d8882611e34565b9750611f9883612617565b925050600181019050611f79565b5085935050505092915050565b6000611fbe826125e7565b611fc88185612664565b9350611fd3836125a1565b8060005b83811015612004578151611feb8882611e4c565b9750611ff683612624565b925050600181019050611fd7565b5085935050505092915050565b61201a81612722565b82525050565b600061202c8385612686565b9350612039838584612794565b6120428361298b565b840190509392505050565b6000612058826125f2565b6120628185612675565b93506120728185602086016127a3565b61207b8161298b565b840191505092915050565b6000612091826125f2565b61209b8185612686565b93506120ab8185602086016127a3565b6120b48161298b565b840191505092915050565b60006120ca826125f2565b6120d48185612697565b93506120e48185602086016127a3565b80840191505092915050565b600081546120fd816127d6565b6121078186612697565b94506001821660008114612122576001811461213357612166565b60ff19831686528186019350612166565b61213c856125b1565b60005b8381101561215e5781548189015260018201915060208101905061213f565b838801955050505b50505092915050565b600061217c601783612686565b91506121878261299c565b602082019050919050565b600061219f602683612686565b91506121aa826129c5565b604082019050919050565b60006121c2600d83612686565b91506121cd82612a14565b602082019050919050565b60006121e5601783612686565b91506121f082612a3d565b602082019050919050565b6000612208602083612686565b915061221382612a66565b602082019050919050565b600061222b600083612697565b915061223682612a8f565b600082019050919050565b600061224e602483612686565b915061225982612a92565b604082019050919050565b6000612271601f83612686565b915061227c82612ae1565b602082019050919050565b6122908161277a565b82525050565b61229f8161277a565b82525050565b6122ae81612784565b82525050565b60006122c082846120bf565b915081905092915050565b60006122d782846120f0565b915081905092915050565b60006122ee82856120f0565b91506122fa82846120f0565b91508190509392505050565b60006123118261221e565b9150819050919050565b60006020820190506123306000830184611e73565b92915050565b600060408201905061234b6000830186611e73565b818103602083015261235e818486612020565b9050949350505050565b600060208201905081810360008301526123828184611e82565b905092915050565b600060408201905081810360008301526123a48185611ee0565b905081810360208301526123b88184611fb3565b90509392505050565b600060208201905081810360008301526123db8184611f55565b905092915050565b60006020820190506123f86000830184612011565b92915050565b600060208201905081810360008301526124188184612086565b905092915050565b600060208201905081810360008301526124398161216f565b9050919050565b6000602082019050818103600083015261245981612192565b9050919050565b60006020820190508181036000830152612479816121b5565b9050919050565b60006020820190508181036000830152612499816121d8565b9050919050565b600060208201905081810360008301526124b9816121fb565b9050919050565b600060208201905081810360008301526124d981612241565b9050919050565b600060208201905081810360008301526124f981612264565b9050919050565b60006020820190506125156000830184612296565b92915050565b6000612525612536565b90506125318282612808565b919050565b6000604051905090565b600067ffffffffffffffff82111561255b5761255a61293e565b5b6125648261298b565b9050602081019050919050565b6000819050602082019050919050565b6000819050602082019050919050565b6000819050602082019050919050565b6000819050602082019050919050565b60008190508160005260206000209050919050565b600081519050919050565b600081519050919050565b600081519050919050565b600081519050919050565b600081519050919050565b6000602082019050919050565b6000602082019050919050565b6000602082019050919050565b6000602082019050919050565b600082825260208201905092915050565b600082825260208201905092915050565b600082825260208201905092915050565b600082825260208201905092915050565b600082825260208201905092915050565b600082825260208201905092915050565b600081905092915050565b60006126ad82612784565b91506126b883612784565b92508263ffffffff038211156126d1576126d0612882565b5b828201905092915050565b60006126e78261277a565b91506126f28361277a565b92508282101561270557612704612882565b5b828203905092915050565b600061271b8261275a565b9050919050565b60008115159050919050565b60007fffffffff0000000000000000000000000000000000000000000000000000000082169050919050565b600073ffffffffffffffffffffffffffffffffffffffff82169050919050565b6000819050919050565b600063ffffffff82169050919050565b82818337600083830152505050565b60005b838110156127c15780820151818401526020810190506127a6565b838111156127d0576000848401525b50505050565b600060028204905060018216806127ee57607f821691505b60208210811415612802576128016128b1565b5b50919050565b6128118261298b565b810181811067ffffffffffffffff821117156128305761282f61293e565b5b80604052505050565b60006128448261277a565b91507fffffffffffffffffffffffffffffffffffffffffffffffffffffffffffffffff82141561287757612876612882565b5b600182019050919050565b7f4e487b7100000000000000000000000000000000000000000000000000000000600052601160045260246000fd5b7f4e487b7100000000000000000000000000000000000000000000000000000000600052602260045260246000fd5b7f4e487b7100000000000000000000000000000000000000000000000000000000600052603160045260246000fd5b7f4e487b7100000000000000000000000000000000000000000000000000000000600052603260045260246000fd5b7f4e487b7100000000000000000000000000000000000000000000000000000000600052604160045260246000fd5b600080fd5b600080fd5b600080fd5b600080fd5b600080fd5b600080fd5b6000601f19601f8301169050919050565b7f5468697320746f6b656e20697320736f756c626f756e64000000000000000000600082015250565b7f4f776e61626c653a206e6577206f776e657220697320746865207a65726f206160008201527f6464726573730000000000000000000000000000000000000000000000000000602082015250565b7f496e76616c696420746f6b656e00000000000000000000000000000000000000600082015250565b7f496e76616c696420436f6c6c656374696f6e204e616d65000000000000000000600082015250565b7f4f776e61626c653a2063616c6c6572206973206e6f7420746865206f776e6572600082015250565b50565b7f41646d696e436f6e74726f6c3a204d757374206265206f776e6572206f72206160008201527f646d696e00000000000000000000000000000000000000000000000000000000602082015250565b7f5265656e7472616e637947756172643a207265656e7472616e742063616c6c00600082015250565b612b1381612710565b8114612b1e57600080fd5b50565b612b2a81612722565b8114612b3557600080fd5b50565b612b418161272e565b8114612b4c57600080fd5b50565b612b588161277a565b8114612b6357600080fd5b5056fea2646970667358221220832ae0520f568fecc4d8ba50d6860583ddeac54d8b8e74f1e80667402e6e908264736f6c63430008070033",
  "linkReferences": {},
  "deployedLinkReferences": {}
}