{
	"data": {
		"bytecode": {
			"linkReferences": {},
			"object": "60806040523480156200001157600080fd5b506040516200264c3803806200264c8339818101604052810190620000379190620001f3565b620000576200004b620000bd60201b60201c565b620000c560201b60201c565b80600560006101000a81548173ffffffffffffffffffffffffffffffffffffffff021916908373ffffffffffffffffffffffffffffffffffffffff1602179055506000600560146101000a81548161ffff021916908361ffff1602179055505062000225565b600033905090565b60008060009054906101000a900473ffffffffffffffffffffffffffffffffffffffff169050816000806101000a81548173ffffffffffffffffffffffffffffffffffffffff021916908373ffffffffffffffffffffffffffffffffffffffff1602179055508173ffffffffffffffffffffffffffffffffffffffff168173ffffffffffffffffffffffffffffffffffffffff167f8be0079c531659141344cd1fd0a4f28419497f9722a3daafe3b4186f6b6457e060405160405180910390a35050565b600080fd5b600073ffffffffffffffffffffffffffffffffffffffff82169050919050565b6000620001bb826200018e565b9050919050565b620001cd81620001ae565b8114620001d957600080fd5b50565b600081519050620001ed81620001c2565b92915050565b6000602082840312156200020c576200020b62000189565b5b60006200021c84828501620001dc565b91505092915050565b61241780620002356000396000f3fe608060405234801561001057600080fd5b50600436106100f55760003560e01c80636a627842116100975780638da5cb5b116100665780638da5cb5b1461025c578063d1b02ba71461027a578063e9dc637514610298578063f2fde38b146102c8576100f5565b80636a627842146101ea5780636d73e66914610206578063715018a614610222578063825808051461022c576100f5565b80632d345670116100d35780632d3456701461017657806331ae450b1461019257806355f804b3146101b057806367f718a9146101cc576100f5565b806301ffc9a7146100fa5780631b95a2271461012a57806324d7806c14610146575b600080fd5b610114600480360381019061010f9190611527565b6102e4565b604051610121919061156f565b60405180910390f35b610144600480360381019061013f9190611614565b6103d6565b005b610160600480360381019061015b9190611654565b6104f8565b60405161016d919061156f565b60405180910390f35b610190600480360381019061018b9190611654565b610552565b005b61019a6105e6565b6040516101a7919061173f565b60405180910390f35b6101ca60048036038101906101c591906118a7565b6106c8565b005b6101d461076b565b6040516101e191906119b8565b60405180910390f35b61020460048036038101906101ff9190611654565b610853565b005b610220600480360381019061021b9190611654565b610a49565b005b61022a610adc565b005b61024660048036038101906102419190611a06565b610af0565b604051610253919061156f565b60405180910390f35b610264610bfc565b6040516102719190611a68565b60405180910390f35b610282610c25565b60405161028f919061173f565b60405180910390f35b6102b260048036038101906102ad9190611a83565b610d43565b6040516102bf9190611b42565b60405180910390f35b6102e260048036038101906102dd9190611654565b610e08565b005b60007fe9dc6375000000000000000000000000000000000000000000000000000000007bffffffffffffffffffffffffffffffffffffffffffffffffffffffff1916827bffffffffffffffffffffffffffffffffffffffffffffffffffffffff191614806103af57507f99cdaa22000000000000000000000000000000000000000000000000000000007bffffffffffffffffffffffffffffffffffffffffffffffffffffffff1916827bffffffffffffffffffffffffffffffffffffffffffffffffffffffff1916145b806103bf57506103be82610e8b565b5b806103cf57506103ce82610e8b565b5b9050919050565b3373ffffffffffffffffffffffffffffffffffffffff166103f5610bfc565b73ffffffffffffffffffffffffffffffffffffffff1614806104275750610426336001610f0590919063ffffffff16565b5b610466576040517f08c379a000000000000000000000000000000000000000000000000000000000815260040161045d90611bd6565b60405180910390fd5b600560009054906101000a900473ffffffffffffffffffffffffffffffffffffffff1673ffffffffffffffffffffffffffffffffffffffff1663ac0c8cfa60016040518263ffffffff1660e01b81526004016104c2919061156f565b600060405180830381600087803b1580156104dc57600080fd5b505af11580156104f0573d6000803e3d6000fd5b505050505050565b60008173ffffffffffffffffffffffffffffffffffffffff16610519610bfc565b73ffffffffffffffffffffffffffffffffffffffff16148061054b575061054a826001610f0590919063ffffffff16565b5b9050919050565b61055a610f35565b61056e816001610f0590919063ffffffff16565b156105e3573373ffffffffffffffffffffffffffffffffffffffff168173ffffffffffffffffffffffffffffffffffffffff167f7c0c3c84c67c85fcac635147348bfe374c24a1a93d0366d1cfe9d8853cbf89d560405160405180910390a36105e1816001610fb390919063ffffffff16565b505b50565b60606105f26001610fe3565b67ffffffffffffffff81111561060b5761060a61177c565b5b6040519080825280602002602001820160405280156106395781602001602082028036833780820191505090505b50905060005b6106496001610fe3565b8110156106c457610664816001610ff890919063ffffffff16565b82828151811061067757610676611bf6565b5b602002602001019073ffffffffffffffffffffffffffffffffffffffff16908173ffffffffffffffffffffffffffffffffffffffff168152505080806106bc90611c54565b91505061063f565b5090565b3373ffffffffffffffffffffffffffffffffffffffff166106e7610bfc565b73ffffffffffffffffffffffffffffffffffffffff1614806107195750610718336001610f0590919063ffffffff16565b5b610758576040517f08c379a000000000000000000000000000000000000000000000000000000000815260040161074f90611bd6565b60405180910390fd5b80600690816107679190611ea8565b5050565b60603373ffffffffffffffffffffffffffffffffffffffff1661078c610bfc565b73ffffffffffffffffffffffffffffffffffffffff1614806107be57506107bd336001610f0590919063ffffffff16565b5b6107fd576040517f08c379a00000000000000000000000000000000000000000000000000000000081526004016107f490611bd6565b60405180910390fd5b600480548060200260200160405190810160405280929190818152602001828054801561084957602002820191906000526020600020905b815481526020019060010190808311610835575b5050505050905090565b3373ffffffffffffffffffffffffffffffffffffffff16610872610bfc565b73ffffffffffffffffffffffffffffffffffffffff1614806108a457506108a3336001610f0590919063ffffffff16565b5b6108e3576040517f08c379a00000000000000000000000000000000000000000000000000000000081526004016108da90611bd6565b60405180910390fd5b6004600560009054906101000a900473ffffffffffffffffffffffffffffffffffffffff1673ffffffffffffffffffffffffffffffffffffffff16632928ca58836040518263ffffffff1660e01b81526004016109409190611a68565b6020604051808303816000875af115801561095f573d6000803e3d6000fd5b505050506040513d601f19601f820116820180604052508101906109839190611f8f565b90806001815401808255809150506001900390600052602060002001600090919091909150556003819080600181540180825580915050600190039060005260206000200160009091909190916101000a81548173ffffffffffffffffffffffffffffffffffffffff021916908373ffffffffffffffffffffffffffffffffffffffff1602179055506001600560148282829054906101000a900461ffff16610a2c9190611fca565b92506101000a81548161ffff021916908361ffff16021790555050565b610a51610f35565b610a65816001610f0590919063ffffffff16565b610ad9573373ffffffffffffffffffffffffffffffffffffffff168173ffffffffffffffffffffffffffffffffffffffff167f7e1a1a08d52e4ba0e21554733d66165fd5151f99460116223d9e3a608eec5cb160405160405180910390a3610ad781600161101290919063ffffffff16565b505b50565b610ae4610f35565b610aee6000611042565b565b6000600560009054906101000a900473ffffffffffffffffffffffffffffffffffffffff1673ffffffffffffffffffffffffffffffffffffffff163373ffffffffffffffffffffffffffffffffffffffff1614610b82576040517f08c379a0000000000000000000000000000000000000000000000000000000008152600401610b799061204c565b60405180910390fd5b600073ffffffffffffffffffffffffffffffffffffffff168473ffffffffffffffffffffffffffffffffffffffff1614610bf1576040517f08c379a0000000000000000000000000000000000000000000000000000000008152600401610be89061204c565b60405180910390fd5b600190509392505050565b60008060009054906101000a900473ffffffffffffffffffffffffffffffffffffffff16905090565b60603373ffffffffffffffffffffffffffffffffffffffff16610c46610bfc565b73ffffffffffffffffffffffffffffffffffffffff161480610c785750610c77336001610f0590919063ffffffff16565b5b610cb7576040517f08c379a0000000000000000000000000000000000000000000000000000000008152600401610cae90611bd6565b60405180910390fd5b6003805480602002602001604051908101604052809291908181526020018280548015610d3957602002820191906000526020600020905b8160009054906101000a900473ffffffffffffffffffffffffffffffffffffffff1673ffffffffffffffffffffffffffffffffffffffff1681526020019060010190808311610cef575b5050505050905090565b6060600560009054906101000a900473ffffffffffffffffffffffffffffffffffffffff1673ffffffffffffffffffffffffffffffffffffffff168373ffffffffffffffffffffffffffffffffffffffff1614610dd5576040517f08c379a0000000000000000000000000000000000000000000000000000000008152600401610dcc906120b8565b60405180910390fd5b6006610de083611106565b604051602001610df1929190612197565b604051602081830303815290604052905092915050565b610e10610f35565b600073ffffffffffffffffffffffffffffffffffffffff168173ffffffffffffffffffffffffffffffffffffffff1603610e7f576040517f08c379a0000000000000000000000000000000000000000000000000000000008152600401610e769061222d565b60405180910390fd5b610e8881611042565b50565b60007f553e757e000000000000000000000000000000000000000000000000000000007bffffffffffffffffffffffffffffffffffffffffffffffffffffffff1916827bffffffffffffffffffffffffffffffffffffffffffffffffffffffff19161480610efe5750610efd82611266565b5b9050919050565b6000610f2d836000018373ffffffffffffffffffffffffffffffffffffffff1660001b6112d0565b905092915050565b610f3d6112f3565b73ffffffffffffffffffffffffffffffffffffffff16610f5b610bfc565b73ffffffffffffffffffffffffffffffffffffffff1614610fb1576040517f08c379a0000000000000000000000000000000000000000000000000000000008152600401610fa890612299565b60405180910390fd5b565b6000610fdb836000018373ffffffffffffffffffffffffffffffffffffffff1660001b6112fb565b905092915050565b6000610ff18260000161140f565b9050919050565b60006110078360000183611420565b60001c905092915050565b600061103a836000018373ffffffffffffffffffffffffffffffffffffffff1660001b61144b565b905092915050565b60008060009054906101000a900473ffffffffffffffffffffffffffffffffffffffff169050816000806101000a81548173ffffffffffffffffffffffffffffffffffffffff021916908373ffffffffffffffffffffffffffffffffffffffff1602179055508173ffffffffffffffffffffffffffffffffffffffff168173ffffffffffffffffffffffffffffffffffffffff167f8be0079c531659141344cd1fd0a4f28419497f9722a3daafe3b4186f6b6457e060405160405180910390a35050565b60606000820361114d576040518060400160405280600181526020017f30000000000000000000000000000000000000000000000000000000000000008152509050611261565b600082905060005b6000821461117f57808061116890611c54565b915050600a8261117891906122e8565b9150611155565b60008167ffffffffffffffff81111561119b5761119a61177c565b5b6040519080825280601f01601f1916602001820160405280156111cd5781602001600182028036833780820191505090505b5090505b6000851461125a576001826111e69190612319565b9150600a856111f5919061234d565b6030611201919061237e565b60f81b81838151811061121757611216611bf6565b5b60200101907effffffffffffffffffffffffffffffffffffffffffffffffffffffffffffff1916908160001a905350600a8561125391906122e8565b94506111d1565b8093505050505b919050565b60007f01ffc9a7000000000000000000000000000000000000000000000000000000007bffffffffffffffffffffffffffffffffffffffffffffffffffffffff1916827bffffffffffffffffffffffffffffffffffffffffffffffffffffffff1916149050919050565b600080836001016000848152602001908152602001600020541415905092915050565b600033905090565b6000808360010160008481526020019081526020016000205490506000811461140357600060018261132d9190612319565b90506000600186600001805490506113459190612319565b90508181146113b457600086600001828154811061136657611365611bf6565b5b906000526020600020015490508087600001848154811061138a57611389611bf6565b5b90600052602060002001819055508387600101600083815260200190815260200160002081905550505b856000018054806113c8576113c76123b2565b5b600190038181906000526020600020016000905590558560010160008681526020019081526020016000206000905560019350505050611409565b60009150505b92915050565b600081600001805490509050919050565b600082600001828154811061143857611437611bf6565b5b9060005260206000200154905092915050565b600061145783836112d0565b6114b05782600001829080600181540180825580915050600190039060005260206000200160009091909190915055826000018054905083600101600084815260200190815260200160002081905550600190506114b5565b600090505b92915050565b6000604051905090565b600080fd5b600080fd5b60007fffffffff0000000000000000000000000000000000000000000000000000000082169050919050565b611504816114cf565b811461150f57600080fd5b50565b600081359050611521816114fb565b92915050565b60006020828403121561153d5761153c6114c5565b5b600061154b84828501611512565b91505092915050565b60008115159050919050565b61156981611554565b82525050565b60006020820190506115846000830184611560565b92915050565b600073ffffffffffffffffffffffffffffffffffffffff82169050919050565b60006115b58261158a565b9050919050565b6115c5816115aa565b81146115d057600080fd5b50565b6000813590506115e2816115bc565b92915050565b6115f181611554565b81146115fc57600080fd5b50565b60008135905061160e816115e8565b92915050565b6000806040838503121561162b5761162a6114c5565b5b6000611639858286016115d3565b925050602061164a858286016115ff565b9150509250929050565b60006020828403121561166a576116696114c5565b5b6000611678848285016115d3565b91505092915050565b600081519050919050565b600082825260208201905092915050565b6000819050602082019050919050565b6116b6816115aa565b82525050565b60006116c883836116ad565b60208301905092915050565b6000602082019050919050565b60006116ec82611681565b6116f6818561168c565b93506117018361169d565b8060005b8381101561173257815161171988826116bc565b9750611724836116d4565b925050600181019050611705565b5085935050505092915050565b6000602082019050818103600083015261175981846116e1565b905092915050565b600080fd5b600080fd5b6000601f19601f8301169050919050565b7f4e487b7100000000000000000000000000000000000000000000000000000000600052604160045260246000fd5b6117b48261176b565b810181811067ffffffffffffffff821117156117d3576117d261177c565b5b80604052505050565b60006117e66114bb565b90506117f282826117ab565b919050565b600067ffffffffffffffff8211156118125761181161177c565b5b61181b8261176b565b9050602081019050919050565b82818337600083830152505050565b600061184a611845846117f7565b6117dc565b90508281526020810184848401111561186657611865611766565b5b611871848285611828565b509392505050565b600082601f83011261188e5761188d611761565b5b813561189e848260208601611837565b91505092915050565b6000602082840312156118bd576118bc6114c5565b5b600082013567ffffffffffffffff8111156118db576118da6114ca565b5b6118e784828501611879565b91505092915050565b600081519050919050565b600082825260208201905092915050565b6000819050602082019050919050565b6000819050919050565b61192f8161191c565b82525050565b60006119418383611926565b60208301905092915050565b6000602082019050919050565b6000611965826118f0565b61196f81856118fb565b935061197a8361190c565b8060005b838110156119ab5781516119928882611935565b975061199d8361194d565b92505060018101905061197e565b5085935050505092915050565b600060208201905081810360008301526119d2818461195a565b905092915050565b6119e38161191c565b81146119ee57600080fd5b50565b600081359050611a00816119da565b92915050565b600080600060608486031215611a1f57611a1e6114c5565b5b6000611a2d868287016115d3565b9350506020611a3e868287016115d3565b9250506040611a4f868287016119f1565b9150509250925092565b611a62816115aa565b82525050565b6000602082019050611a7d6000830184611a59565b92915050565b60008060408385031215611a9a57611a996114c5565b5b6000611aa8858286016115d3565b9250506020611ab9858286016119f1565b9150509250929050565b600081519050919050565b600082825260208201905092915050565b60005b83811015611afd578082015181840152602081019050611ae2565b60008484015250505050565b6000611b1482611ac3565b611b1e8185611ace565b9350611b2e818560208601611adf565b611b378161176b565b840191505092915050565b60006020820190508181036000830152611b5c8184611b09565b905092915050565b7f41646d696e436f6e74726f6c3a204d757374206265206f776e6572206f72206160008201527f646d696e00000000000000000000000000000000000000000000000000000000602082015250565b6000611bc0602483611ace565b9150611bcb82611b64565b604082019050919050565b60006020820190508181036000830152611bef81611bb3565b9050919050565b7f4e487b7100000000000000000000000000000000000000000000000000000000600052603260045260246000fd5b7f4e487b7100000000000000000000000000000000000000000000000000000000600052601160045260246000fd5b6000611c5f8261191c565b91507fffffffffffffffffffffffffffffffffffffffffffffffffffffffffffffffff8203611c9157611c90611c25565b5b600182019050919050565b7f4e487b7100000000000000000000000000000000000000000000000000000000600052602260045260246000fd5b60006002820490506001821680611ce357607f821691505b602082108103611cf657611cf5611c9c565b5b50919050565b60008190508160005260206000209050919050565b60006020601f8301049050919050565b600082821b905092915050565b600060088302611d5e7fffffffffffffffffffffffffffffffffffffffffffffffffffffffffffffffff82611d21565b611d688683611d21565b95508019841693508086168417925050509392505050565b6000819050919050565b6000611da5611da0611d9b8461191c565b611d80565b61191c565b9050919050565b6000819050919050565b611dbf83611d8a565b611dd3611dcb82611dac565b848454611d2e565b825550505050565b600090565b611de8611ddb565b611df3818484611db6565b505050565b5b81811015611e1757611e0c600082611de0565b600181019050611df9565b5050565b601f821115611e5c57611e2d81611cfc565b611e3684611d11565b81016020851015611e45578190505b611e59611e5185611d11565b830182611df8565b50505b505050565b600082821c905092915050565b6000611e7f60001984600802611e61565b1980831691505092915050565b6000611e988383611e6e565b9150826002028217905092915050565b611eb182611ac3565b67ffffffffffffffff811115611eca57611ec961177c565b5b611ed48254611ccb565b611edf828285611e1b565b600060209050601f831160018114611f125760008415611f00578287015190505b611f0a8582611e8c565b865550611f72565b601f198416611f2086611cfc565b60005b82811015611f4857848901518255600182019150602085019450602081019050611f23565b86831015611f655784890151611f61601f891682611e6e565b8355505b6001600288020188555050505b505050505050565b600081519050611f89816119da565b92915050565b600060208284031215611fa557611fa46114c5565b5b6000611fb384828501611f7a565b91505092915050565b600061ffff82169050919050565b6000611fd582611fbc565b9150611fe083611fbc565b9250828201905061ffff811115611ffa57611ff9611c25565b5b92915050565b7f5468697320746f6b656e20697320736f756c626f756e64000000000000000000600082015250565b6000612036601783611ace565b915061204182612000565b602082019050919050565b6000602082019050818103600083015261206581612029565b9050919050565b7f496e76616c696420746f6b656e00000000000000000000000000000000000000600082015250565b60006120a2600d83611ace565b91506120ad8261206c565b602082019050919050565b600060208201905081810360008301526120d181612095565b9050919050565b600081905092915050565b600081546120f081611ccb565b6120fa81866120d8565b94506001821660008114612115576001811461212a5761215d565b60ff198316865281151582028601935061215d565b61213385611cfc565b60005b8381101561215557815481890152600182019150602081019050612136565b838801955050505b50505092915050565b600061217182611ac3565b61217b81856120d8565b935061218b818560208601611adf565b80840191505092915050565b60006121a382856120e3565b91506121af8284612166565b91508190509392505050565b7f4f776e61626c653a206e6577206f776e657220697320746865207a65726f206160008201527f6464726573730000000000000000000000000000000000000000000000000000602082015250565b6000612217602683611ace565b9150612222826121bb565b604082019050919050565b600060208201905081810360008301526122468161220a565b9050919050565b7f4f776e61626c653a2063616c6c6572206973206e6f7420746865206f776e6572600082015250565b6000612283602083611ace565b915061228e8261224d565b602082019050919050565b600060208201905081810360008301526122b281612276565b9050919050565b7f4e487b7100000000000000000000000000000000000000000000000000000000600052601260045260246000fd5b60006122f38261191c565b91506122fe8361191c565b92508261230e5761230d6122b9565b5b828204905092915050565b60006123248261191c565b915061232f8361191c565b925082820390508181111561234757612346611c25565b5b92915050565b60006123588261191c565b91506123638361191c565b925082612373576123726122b9565b5b828206905092915050565b60006123898261191c565b91506123948361191c565b92508282019050808211156123ac576123ab611c25565b5b92915050565b7f4e487b7100000000000000000000000000000000000000000000000000000000600052603160045260246000fdfea2646970667358221220a912a1556f470635140d345a6fe64aef0282d109da7955eda84f24466725540e64736f6c63430008110033",
			"opcodes": "PUSH1 0x80 PUSH1 0x40 MSTORE CALLVALUE DUP1 ISZERO PUSH3 0x11 JUMPI PUSH1 0x0 DUP1 REVERT JUMPDEST POP PUSH1 0x40 MLOAD PUSH3 0x264C CODESIZE SUB DUP1 PUSH3 0x264C DUP4 CODECOPY DUP2 DUP2 ADD PUSH1 0x40 MSTORE DUP2 ADD SWAP1 PUSH3 0x37 SWAP2 SWAP1 PUSH3 0x1F3 JUMP JUMPDEST PUSH3 0x57 PUSH3 0x4B PUSH3 0xBD PUSH1 0x20 SHL PUSH1 0x20 SHR JUMP JUMPDEST PUSH3 0xC5 PUSH1 0x20 SHL PUSH1 0x20 SHR JUMP JUMPDEST DUP1 PUSH1 0x5 PUSH1 0x0 PUSH2 0x100 EXP DUP2 SLOAD DUP2 PUSH20 0xFFFFFFFFFFFFFFFFFFFFFFFFFFFFFFFFFFFFFFFF MUL NOT AND SWAP1 DUP4 PUSH20 0xFFFFFFFFFFFFFFFFFFFFFFFFFFFFFFFFFFFFFFFF AND MUL OR SWAP1 SSTORE POP PUSH1 0x0 PUSH1 0x5 PUSH1 0x14 PUSH2 0x100 EXP DUP2 SLOAD DUP2 PUSH2 0xFFFF MUL NOT AND SWAP1 DUP4 PUSH2 0xFFFF AND MUL OR SWAP1 SSTORE POP POP PUSH3 0x225 JUMP JUMPDEST PUSH1 0x0 CALLER SWAP1 POP SWAP1 JUMP JUMPDEST PUSH1 0x0 DUP1 PUSH1 0x0 SWAP1 SLOAD SWAP1 PUSH2 0x100 EXP SWAP1 DIV PUSH20 0xFFFFFFFFFFFFFFFFFFFFFFFFFFFFFFFFFFFFFFFF AND SWAP1 POP DUP2 PUSH1 0x0 DUP1 PUSH2 0x100 EXP DUP2 SLOAD DUP2 PUSH20 0xFFFFFFFFFFFFFFFFFFFFFFFFFFFFFFFFFFFFFFFF MUL NOT AND SWAP1 DUP4 PUSH20 0xFFFFFFFFFFFFFFFFFFFFFFFFFFFFFFFFFFFFFFFF AND MUL OR SWAP1 SSTORE POP DUP2 PUSH20 0xFFFFFFFFFFFFFFFFFFFFFFFFFFFFFFFFFFFFFFFF AND DUP2 PUSH20 0xFFFFFFFFFFFFFFFFFFFFFFFFFFFFFFFFFFFFFFFF AND PUSH32 0x8BE0079C531659141344CD1FD0A4F28419497F9722A3DAAFE3B4186F6B6457E0 PUSH1 0x40 MLOAD PUSH1 0x40 MLOAD DUP1 SWAP2 SUB SWAP1 LOG3 POP POP JUMP JUMPDEST PUSH1 0x0 DUP1 REVERT JUMPDEST PUSH1 0x0 PUSH20 0xFFFFFFFFFFFFFFFFFFFFFFFFFFFFFFFFFFFFFFFF DUP3 AND SWAP1 POP SWAP2 SWAP1 POP JUMP JUMPDEST PUSH1 0x0 PUSH3 0x1BB DUP3 PUSH3 0x18E JUMP JUMPDEST SWAP1 POP SWAP2 SWAP1 POP JUMP JUMPDEST PUSH3 0x1CD DUP2 PUSH3 0x1AE JUMP JUMPDEST DUP2 EQ PUSH3 0x1D9 JUMPI PUSH1 0x0 DUP1 REVERT JUMPDEST POP JUMP JUMPDEST PUSH1 0x0 DUP2 MLOAD SWAP1 POP PUSH3 0x1ED DUP2 PUSH3 0x1C2 JUMP JUMPDEST SWAP3 SWAP2 POP POP JUMP JUMPDEST PUSH1 0x0 PUSH1 0x20 DUP3 DUP5 SUB SLT ISZERO PUSH3 0x20C JUMPI PUSH3 0x20B PUSH3 0x189 JUMP JUMPDEST JUMPDEST PUSH1 0x0 PUSH3 0x21C DUP5 DUP3 DUP6 ADD PUSH3 0x1DC JUMP JUMPDEST SWAP2 POP POP SWAP3 SWAP2 POP POP JUMP JUMPDEST PUSH2 0x2417 DUP1 PUSH3 0x235 PUSH1 0x0 CODECOPY PUSH1 0x0 RETURN INVALID PUSH1 0x80 PUSH1 0x40 MSTORE CALLVALUE DUP1 ISZERO PUSH2 0x10 JUMPI PUSH1 0x0 DUP1 REVERT JUMPDEST POP PUSH1 0x4 CALLDATASIZE LT PUSH2 0xF5 JUMPI PUSH1 0x0 CALLDATALOAD PUSH1 0xE0 SHR DUP1 PUSH4 0x6A627842 GT PUSH2 0x97 JUMPI DUP1 PUSH4 0x8DA5CB5B GT PUSH2 0x66 JUMPI DUP1 PUSH4 0x8DA5CB5B EQ PUSH2 0x25C JUMPI DUP1 PUSH4 0xD1B02BA7 EQ PUSH2 0x27A JUMPI DUP1 PUSH4 0xE9DC6375 EQ PUSH2 0x298 JUMPI DUP1 PUSH4 0xF2FDE38B EQ PUSH2 0x2C8 JUMPI PUSH2 0xF5 JUMP JUMPDEST DUP1 PUSH4 0x6A627842 EQ PUSH2 0x1EA JUMPI DUP1 PUSH4 0x6D73E669 EQ PUSH2 0x206 JUMPI DUP1 PUSH4 0x715018A6 EQ PUSH2 0x222 JUMPI DUP1 PUSH4 0x82580805 EQ PUSH2 0x22C JUMPI PUSH2 0xF5 JUMP JUMPDEST DUP1 PUSH4 0x2D345670 GT PUSH2 0xD3 JUMPI DUP1 PUSH4 0x2D345670 EQ PUSH2 0x176 JUMPI DUP1 PUSH4 0x31AE450B EQ PUSH2 0x192 JUMPI DUP1 PUSH4 0x55F804B3 EQ PUSH2 0x1B0 JUMPI DUP1 PUSH4 0x67F718A9 EQ PUSH2 0x1CC JUMPI PUSH2 0xF5 JUMP JUMPDEST DUP1 PUSH4 0x1FFC9A7 EQ PUSH2 0xFA JUMPI DUP1 PUSH4 0x1B95A227 EQ PUSH2 0x12A JUMPI DUP1 PUSH4 0x24D7806C EQ PUSH2 0x146 JUMPI JUMPDEST PUSH1 0x0 DUP1 REVERT JUMPDEST PUSH2 0x114 PUSH1 0x4 DUP1 CALLDATASIZE SUB DUP2 ADD SWAP1 PUSH2 0x10F SWAP2 SWAP1 PUSH2 0x1527 JUMP JUMPDEST PUSH2 0x2E4 JUMP JUMPDEST PUSH1 0x40 MLOAD PUSH2 0x121 SWAP2 SWAP1 PUSH2 0x156F JUMP JUMPDEST PUSH1 0x40 MLOAD DUP1 SWAP2 SUB SWAP1 RETURN JUMPDEST PUSH2 0x144 PUSH1 0x4 DUP1 CALLDATASIZE SUB DUP2 ADD SWAP1 PUSH2 0x13F SWAP2 SWAP1 PUSH2 0x1614 JUMP JUMPDEST PUSH2 0x3D6 JUMP JUMPDEST STOP JUMPDEST PUSH2 0x160 PUSH1 0x4 DUP1 CALLDATASIZE SUB DUP2 ADD SWAP1 PUSH2 0x15B SWAP2 SWAP1 PUSH2 0x1654 JUMP JUMPDEST PUSH2 0x4F8 JUMP JUMPDEST PUSH1 0x40 MLOAD PUSH2 0x16D SWAP2 SWAP1 PUSH2 0x156F JUMP JUMPDEST PUSH1 0x40 MLOAD DUP1 SWAP2 SUB SWAP1 RETURN JUMPDEST PUSH2 0x190 PUSH1 0x4 DUP1 CALLDATASIZE SUB DUP2 ADD SWAP1 PUSH2 0x18B SWAP2 SWAP1 PUSH2 0x1654 JUMP JUMPDEST PUSH2 0x552 JUMP JUMPDEST STOP JUMPDEST PUSH2 0x19A PUSH2 0x5E6 JUMP JUMPDEST PUSH1 0x40 MLOAD PUSH2 0x1A7 SWAP2 SWAP1 PUSH2 0x173F JUMP JUMPDEST PUSH1 0x40 MLOAD DUP1 SWAP2 SUB SWAP1 RETURN JUMPDEST PUSH2 0x1CA PUSH1 0x4 DUP1 CALLDATASIZE SUB DUP2 ADD SWAP1 PUSH2 0x1C5 SWAP2 SWAP1 PUSH2 0x18A7 JUMP JUMPDEST PUSH2 0x6C8 JUMP JUMPDEST STOP JUMPDEST PUSH2 0x1D4 PUSH2 0x76B JUMP JUMPDEST PUSH1 0x40 MLOAD PUSH2 0x1E1 SWAP2 SWAP1 PUSH2 0x19B8 JUMP JUMPDEST PUSH1 0x40 MLOAD DUP1 SWAP2 SUB SWAP1 RETURN JUMPDEST PUSH2 0x204 PUSH1 0x4 DUP1 CALLDATASIZE SUB DUP2 ADD SWAP1 PUSH2 0x1FF SWAP2 SWAP1 PUSH2 0x1654 JUMP JUMPDEST PUSH2 0x853 JUMP JUMPDEST STOP JUMPDEST PUSH2 0x220 PUSH1 0x4 DUP1 CALLDATASIZE SUB DUP2 ADD SWAP1 PUSH2 0x21B SWAP2 SWAP1 PUSH2 0x1654 JUMP JUMPDEST PUSH2 0xA49 JUMP JUMPDEST STOP JUMPDEST PUSH2 0x22A PUSH2 0xADC JUMP JUMPDEST STOP JUMPDEST PUSH2 0x246 PUSH1 0x4 DUP1 CALLDATASIZE SUB DUP2 ADD SWAP1 PUSH2 0x241 SWAP2 SWAP1 PUSH2 0x1A06 JUMP JUMPDEST PUSH2 0xAF0 JUMP JUMPDEST PUSH1 0x40 MLOAD PUSH2 0x253 SWAP2 SWAP1 PUSH2 0x156F JUMP JUMPDEST PUSH1 0x40 MLOAD DUP1 SWAP2 SUB SWAP1 RETURN JUMPDEST PUSH2 0x264 PUSH2 0xBFC JUMP JUMPDEST PUSH1 0x40 MLOAD PUSH2 0x271 SWAP2 SWAP1 PUSH2 0x1A68 JUMP JUMPDEST PUSH1 0x40 MLOAD DUP1 SWAP2 SUB SWAP1 RETURN JUMPDEST PUSH2 0x282 PUSH2 0xC25 JUMP JUMPDEST PUSH1 0x40 MLOAD PUSH2 0x28F SWAP2 SWAP1 PUSH2 0x173F JUMP JUMPDEST PUSH1 0x40 MLOAD DUP1 SWAP2 SUB SWAP1 RETURN JUMPDEST PUSH2 0x2B2 PUSH1 0x4 DUP1 CALLDATASIZE SUB DUP2 ADD SWAP1 PUSH2 0x2AD SWAP2 SWAP1 PUSH2 0x1A83 JUMP JUMPDEST PUSH2 0xD43 JUMP JUMPDEST PUSH1 0x40 MLOAD PUSH2 0x2BF SWAP2 SWAP1 PUSH2 0x1B42 JUMP JUMPDEST PUSH1 0x40 MLOAD DUP1 SWAP2 SUB SWAP1 RETURN JUMPDEST PUSH2 0x2E2 PUSH1 0x4 DUP1 CALLDATASIZE SUB DUP2 ADD SWAP1 PUSH2 0x2DD SWAP2 SWAP1 PUSH2 0x1654 JUMP JUMPDEST PUSH2 0xE08 JUMP JUMPDEST STOP JUMPDEST PUSH1 0x0 PUSH32 0xE9DC637500000000000000000000000000000000000000000000000000000000 PUSH28 0xFFFFFFFFFFFFFFFFFFFFFFFFFFFFFFFFFFFFFFFFFFFFFFFFFFFFFFFF NOT AND DUP3 PUSH28 0xFFFFFFFFFFFFFFFFFFFFFFFFFFFFFFFFFFFFFFFFFFFFFFFFFFFFFFFF NOT AND EQ DUP1 PUSH2 0x3AF JUMPI POP PUSH32 0x99CDAA2200000000000000000000000000000000000000000000000000000000 PUSH28 0xFFFFFFFFFFFFFFFFFFFFFFFFFFFFFFFFFFFFFFFFFFFFFFFFFFFFFFFF NOT AND DUP3 PUSH28 0xFFFFFFFFFFFFFFFFFFFFFFFFFFFFFFFFFFFFFFFFFFFFFFFFFFFFFFFF NOT AND EQ JUMPDEST DUP1 PUSH2 0x3BF JUMPI POP PUSH2 0x3BE DUP3 PUSH2 0xE8B JUMP JUMPDEST JUMPDEST DUP1 PUSH2 0x3CF JUMPI POP PUSH2 0x3CE DUP3 PUSH2 0xE8B JUMP JUMPDEST JUMPDEST SWAP1 POP SWAP2 SWAP1 POP JUMP JUMPDEST CALLER PUSH20 0xFFFFFFFFFFFFFFFFFFFFFFFFFFFFFFFFFFFFFFFF AND PUSH2 0x3F5 PUSH2 0xBFC JUMP JUMPDEST PUSH20 0xFFFFFFFFFFFFFFFFFFFFFFFFFFFFFFFFFFFFFFFF AND EQ DUP1 PUSH2 0x427 JUMPI POP PUSH2 0x426 CALLER PUSH1 0x1 PUSH2 0xF05 SWAP1 SWAP2 SWAP1 PUSH4 0xFFFFFFFF AND JUMP JUMPDEST JUMPDEST PUSH2 0x466 JUMPI PUSH1 0x40 MLOAD PUSH32 0x8C379A000000000000000000000000000000000000000000000000000000000 DUP2 MSTORE PUSH1 0x4 ADD PUSH2 0x45D SWAP1 PUSH2 0x1BD6 JUMP JUMPDEST PUSH1 0x40 MLOAD DUP1 SWAP2 SUB SWAP1 REVERT JUMPDEST PUSH1 0x5 PUSH1 0x0 SWAP1 SLOAD SWAP1 PUSH2 0x100 EXP SWAP1 DIV PUSH20 0xFFFFFFFFFFFFFFFFFFFFFFFFFFFFFFFFFFFFFFFF AND PUSH20 0xFFFFFFFFFFFFFFFFFFFFFFFFFFFFFFFFFFFFFFFF AND PUSH4 0xAC0C8CFA PUSH1 0x1 PUSH1 0x40 MLOAD DUP3 PUSH4 0xFFFFFFFF AND PUSH1 0xE0 SHL DUP2 MSTORE PUSH1 0x4 ADD PUSH2 0x4C2 SWAP2 SWAP1 PUSH2 0x156F JUMP JUMPDEST PUSH1 0x0 PUSH1 0x40 MLOAD DUP1 DUP4 SUB DUP2 PUSH1 0x0 DUP8 DUP1 EXTCODESIZE ISZERO DUP1 ISZERO PUSH2 0x4DC JUMPI PUSH1 0x0 DUP1 REVERT JUMPDEST POP GAS CALL ISZERO DUP1 ISZERO PUSH2 0x4F0 JUMPI RETURNDATASIZE PUSH1 0x0 DUP1 RETURNDATACOPY RETURNDATASIZE PUSH1 0x0 REVERT JUMPDEST POP POP POP POP POP POP JUMP JUMPDEST PUSH1 0x0 DUP2 PUSH20 0xFFFFFFFFFFFFFFFFFFFFFFFFFFFFFFFFFFFFFFFF AND PUSH2 0x519 PUSH2 0xBFC JUMP JUMPDEST PUSH20 0xFFFFFFFFFFFFFFFFFFFFFFFFFFFFFFFFFFFFFFFF AND EQ DUP1 PUSH2 0x54B JUMPI POP PUSH2 0x54A DUP3 PUSH1 0x1 PUSH2 0xF05 SWAP1 SWAP2 SWAP1 PUSH4 0xFFFFFFFF AND JUMP JUMPDEST JUMPDEST SWAP1 POP SWAP2 SWAP1 POP JUMP JUMPDEST PUSH2 0x55A PUSH2 0xF35 JUMP JUMPDEST PUSH2 0x56E DUP2 PUSH1 0x1 PUSH2 0xF05 SWAP1 SWAP2 SWAP1 PUSH4 0xFFFFFFFF AND JUMP JUMPDEST ISZERO PUSH2 0x5E3 JUMPI CALLER PUSH20 0xFFFFFFFFFFFFFFFFFFFFFFFFFFFFFFFFFFFFFFFF AND DUP2 PUSH20 0xFFFFFFFFFFFFFFFFFFFFFFFFFFFFFFFFFFFFFFFF AND PUSH32 0x7C0C3C84C67C85FCAC635147348BFE374C24A1A93D0366D1CFE9D8853CBF89D5 PUSH1 0x40 MLOAD PUSH1 0x40 MLOAD DUP1 SWAP2 SUB SWAP1 LOG3 PUSH2 0x5E1 DUP2 PUSH1 0x1 PUSH2 0xFB3 SWAP1 SWAP2 SWAP1 PUSH4 0xFFFFFFFF AND JUMP JUMPDEST POP JUMPDEST POP JUMP JUMPDEST PUSH1 0x60 PUSH2 0x5F2 PUSH1 0x1 PUSH2 0xFE3 JUMP JUMPDEST PUSH8 0xFFFFFFFFFFFFFFFF DUP2 GT ISZERO PUSH2 0x60B JUMPI PUSH2 0x60A PUSH2 0x177C JUMP JUMPDEST JUMPDEST PUSH1 0x40 MLOAD SWAP1 DUP1 DUP3 MSTORE DUP1 PUSH1 0x20 MUL PUSH1 0x20 ADD DUP3 ADD PUSH1 0x40 MSTORE DUP1 ISZERO PUSH2 0x639 JUMPI DUP2 PUSH1 0x20 ADD PUSH1 0x20 DUP3 MUL DUP1 CALLDATASIZE DUP4 CALLDATACOPY DUP1 DUP3 ADD SWAP2 POP POP SWAP1 POP JUMPDEST POP SWAP1 POP PUSH1 0x0 JUMPDEST PUSH2 0x649 PUSH1 0x1 PUSH2 0xFE3 JUMP JUMPDEST DUP2 LT ISZERO PUSH2 0x6C4 JUMPI PUSH2 0x664 DUP2 PUSH1 0x1 PUSH2 0xFF8 SWAP1 SWAP2 SWAP1 PUSH4 0xFFFFFFFF AND JUMP JUMPDEST DUP3 DUP3 DUP2 MLOAD DUP2 LT PUSH2 0x677 JUMPI PUSH2 0x676 PUSH2 0x1BF6 JUMP JUMPDEST JUMPDEST PUSH1 0x20 MUL PUSH1 0x20 ADD ADD SWAP1 PUSH20 0xFFFFFFFFFFFFFFFFFFFFFFFFFFFFFFFFFFFFFFFF AND SWAP1 DUP2 PUSH20 0xFFFFFFFFFFFFFFFFFFFFFFFFFFFFFFFFFFFFFFFF AND DUP2 MSTORE POP POP DUP1 DUP1 PUSH2 0x6BC SWAP1 PUSH2 0x1C54 JUMP JUMPDEST SWAP2 POP POP PUSH2 0x63F JUMP JUMPDEST POP SWAP1 JUMP JUMPDEST CALLER PUSH20 0xFFFFFFFFFFFFFFFFFFFFFFFFFFFFFFFFFFFFFFFF AND PUSH2 0x6E7 PUSH2 0xBFC JUMP JUMPDEST PUSH20 0xFFFFFFFFFFFFFFFFFFFFFFFFFFFFFFFFFFFFFFFF AND EQ DUP1 PUSH2 0x719 JUMPI POP PUSH2 0x718 CALLER PUSH1 0x1 PUSH2 0xF05 SWAP1 SWAP2 SWAP1 PUSH4 0xFFFFFFFF AND JUMP JUMPDEST JUMPDEST PUSH2 0x758 JUMPI PUSH1 0x40 MLOAD PUSH32 0x8C379A000000000000000000000000000000000000000000000000000000000 DUP2 MSTORE PUSH1 0x4 ADD PUSH2 0x74F SWAP1 PUSH2 0x1BD6 JUMP JUMPDEST PUSH1 0x40 MLOAD DUP1 SWAP2 SUB SWAP1 REVERT JUMPDEST DUP1 PUSH1 0x6 SWAP1 DUP2 PUSH2 0x767 SWAP2 SWAP1 PUSH2 0x1EA8 JUMP JUMPDEST POP POP JUMP JUMPDEST PUSH1 0x60 CALLER PUSH20 0xFFFFFFFFFFFFFFFFFFFFFFFFFFFFFFFFFFFFFFFF AND PUSH2 0x78C PUSH2 0xBFC JUMP JUMPDEST PUSH20 0xFFFFFFFFFFFFFFFFFFFFFFFFFFFFFFFFFFFFFFFF AND EQ DUP1 PUSH2 0x7BE JUMPI POP PUSH2 0x7BD CALLER PUSH1 0x1 PUSH2 0xF05 SWAP1 SWAP2 SWAP1 PUSH4 0xFFFFFFFF AND JUMP JUMPDEST JUMPDEST PUSH2 0x7FD JUMPI PUSH1 0x40 MLOAD PUSH32 0x8C379A000000000000000000000000000000000000000000000000000000000 DUP2 MSTORE PUSH1 0x4 ADD PUSH2 0x7F4 SWAP1 PUSH2 0x1BD6 JUMP JUMPDEST PUSH1 0x40 MLOAD DUP1 SWAP2 SUB SWAP1 REVERT JUMPDEST PUSH1 0x4 DUP1 SLOAD DUP1 PUSH1 0x20 MUL PUSH1 0x20 ADD PUSH1 0x40 MLOAD SWAP1 DUP2 ADD PUSH1 0x40 MSTORE DUP1 SWAP3 SWAP2 SWAP1 DUP2 DUP2 MSTORE PUSH1 0x20 ADD DUP3 DUP1 SLOAD DUP1 ISZERO PUSH2 0x849 JUMPI PUSH1 0x20 MUL DUP3 ADD SWAP2 SWAP1 PUSH1 0x0 MSTORE PUSH1 0x20 PUSH1 0x0 KECCAK256 SWAP1 JUMPDEST DUP2 SLOAD DUP2 MSTORE PUSH1 0x20 ADD SWAP1 PUSH1 0x1 ADD SWAP1 DUP1 DUP4 GT PUSH2 0x835 JUMPI JUMPDEST POP POP POP POP POP SWAP1 POP SWAP1 JUMP JUMPDEST CALLER PUSH20 0xFFFFFFFFFFFFFFFFFFFFFFFFFFFFFFFFFFFFFFFF AND PUSH2 0x872 PUSH2 0xBFC JUMP JUMPDEST PUSH20 0xFFFFFFFFFFFFFFFFFFFFFFFFFFFFFFFFFFFFFFFF AND EQ DUP1 PUSH2 0x8A4 JUMPI POP PUSH2 0x8A3 CALLER PUSH1 0x1 PUSH2 0xF05 SWAP1 SWAP2 SWAP1 PUSH4 0xFFFFFFFF AND JUMP JUMPDEST JUMPDEST PUSH2 0x8E3 JUMPI PUSH1 0x40 MLOAD PUSH32 0x8C379A000000000000000000000000000000000000000000000000000000000 DUP2 MSTORE PUSH1 0x4 ADD PUSH2 0x8DA SWAP1 PUSH2 0x1BD6 JUMP JUMPDEST PUSH1 0x40 MLOAD DUP1 SWAP2 SUB SWAP1 REVERT JUMPDEST PUSH1 0x4 PUSH1 0x5 PUSH1 0x0 SWAP1 SLOAD SWAP1 PUSH2 0x100 EXP SWAP1 DIV PUSH20 0xFFFFFFFFFFFFFFFFFFFFFFFFFFFFFFFFFFFFFFFF AND PUSH20 0xFFFFFFFFFFFFFFFFFFFFFFFFFFFFFFFFFFFFFFFF AND PUSH4 0x2928CA58 DUP4 PUSH1 0x40 MLOAD DUP3 PUSH4 0xFFFFFFFF AND PUSH1 0xE0 SHL DUP2 MSTORE PUSH1 0x4 ADD PUSH2 0x940 SWAP2 SWAP1 PUSH2 0x1A68 JUMP JUMPDEST PUSH1 0x20 PUSH1 0x40 MLOAD DUP1 DUP4 SUB DUP2 PUSH1 0x0 DUP8 GAS CALL ISZERO DUP1 ISZERO PUSH2 0x95F JUMPI RETURNDATASIZE PUSH1 0x0 DUP1 RETURNDATACOPY RETURNDATASIZE PUSH1 0x0 REVERT JUMPDEST POP POP POP POP PUSH1 0x40 MLOAD RETURNDATASIZE PUSH1 0x1F NOT PUSH1 0x1F DUP3 ADD AND DUP3 ADD DUP1 PUSH1 0x40 MSTORE POP DUP2 ADD SWAP1 PUSH2 0x983 SWAP2 SWAP1 PUSH2 0x1F8F JUMP JUMPDEST SWAP1 DUP1 PUSH1 0x1 DUP2 SLOAD ADD DUP1 DUP3 SSTORE DUP1 SWAP2 POP POP PUSH1 0x1 SWAP1 SUB SWAP1 PUSH1 0x0 MSTORE PUSH1 0x20 PUSH1 0x0 KECCAK256 ADD PUSH1 0x0 SWAP1 SWAP2 SWAP1 SWAP2 SWAP1 SWAP2 POP SSTORE PUSH1 0x3 DUP2 SWAP1 DUP1 PUSH1 0x1 DUP2 SLOAD ADD DUP1 DUP3 SSTORE DUP1 SWAP2 POP POP PUSH1 0x1 SWAP1 SUB SWAP1 PUSH1 0x0 MSTORE PUSH1 0x20 PUSH1 0x0 KECCAK256 ADD PUSH1 0x0 SWAP1 SWAP2 SWAP1 SWAP2 SWAP1 SWAP2 PUSH2 0x100 EXP DUP2 SLOAD DUP2 PUSH20 0xFFFFFFFFFFFFFFFFFFFFFFFFFFFFFFFFFFFFFFFF MUL NOT AND SWAP1 DUP4 PUSH20 0xFFFFFFFFFFFFFFFFFFFFFFFFFFFFFFFFFFFFFFFF AND MUL OR SWAP1 SSTORE POP PUSH1 0x1 PUSH1 0x5 PUSH1 0x14 DUP3 DUP3 DUP3 SWAP1 SLOAD SWAP1 PUSH2 0x100 EXP SWAP1 DIV PUSH2 0xFFFF AND PUSH2 0xA2C SWAP2 SWAP1 PUSH2 0x1FCA JUMP JUMPDEST SWAP3 POP PUSH2 0x100 EXP DUP2 SLOAD DUP2 PUSH2 0xFFFF MUL NOT AND SWAP1 DUP4 PUSH2 0xFFFF AND MUL OR SWAP1 SSTORE POP POP JUMP JUMPDEST PUSH2 0xA51 PUSH2 0xF35 JUMP JUMPDEST PUSH2 0xA65 DUP2 PUSH1 0x1 PUSH2 0xF05 SWAP1 SWAP2 SWAP1 PUSH4 0xFFFFFFFF AND JUMP JUMPDEST PUSH2 0xAD9 JUMPI CALLER PUSH20 0xFFFFFFFFFFFFFFFFFFFFFFFFFFFFFFFFFFFFFFFF AND DUP2 PUSH20 0xFFFFFFFFFFFFFFFFFFFFFFFFFFFFFFFFFFFFFFFF AND PUSH32 0x7E1A1A08D52E4BA0E21554733D66165FD5151F99460116223D9E3A608EEC5CB1 PUSH1 0x40 MLOAD PUSH1 0x40 MLOAD DUP1 SWAP2 SUB SWAP1 LOG3 PUSH2 0xAD7 DUP2 PUSH1 0x1 PUSH2 0x1012 SWAP1 SWAP2 SWAP1 PUSH4 0xFFFFFFFF AND JUMP JUMPDEST POP JUMPDEST POP JUMP JUMPDEST PUSH2 0xAE4 PUSH2 0xF35 JUMP JUMPDEST PUSH2 0xAEE PUSH1 0x0 PUSH2 0x1042 JUMP JUMPDEST JUMP JUMPDEST PUSH1 0x0 PUSH1 0x5 PUSH1 0x0 SWAP1 SLOAD SWAP1 PUSH2 0x100 EXP SWAP1 DIV PUSH20 0xFFFFFFFFFFFFFFFFFFFFFFFFFFFFFFFFFFFFFFFF AND PUSH20 0xFFFFFFFFFFFFFFFFFFFFFFFFFFFFFFFFFFFFFFFF AND CALLER PUSH20 0xFFFFFFFFFFFFFFFFFFFFFFFFFFFFFFFFFFFFFFFF AND EQ PUSH2 0xB82 JUMPI PUSH1 0x40 MLOAD PUSH32 0x8C379A000000000000000000000000000000000000000000000000000000000 DUP2 MSTORE PUSH1 0x4 ADD PUSH2 0xB79 SWAP1 PUSH2 0x204C JUMP JUMPDEST PUSH1 0x40 MLOAD DUP1 SWAP2 SUB SWAP1 REVERT JUMPDEST PUSH1 0x0 PUSH20 0xFFFFFFFFFFFFFFFFFFFFFFFFFFFFFFFFFFFFFFFF AND DUP5 PUSH20 0xFFFFFFFFFFFFFFFFFFFFFFFFFFFFFFFFFFFFFFFF AND EQ PUSH2 0xBF1 JUMPI PUSH1 0x40 MLOAD PUSH32 0x8C379A000000000000000000000000000000000000000000000000000000000 DUP2 MSTORE PUSH1 0x4 ADD PUSH2 0xBE8 SWAP1 PUSH2 0x204C JUMP JUMPDEST PUSH1 0x40 MLOAD DUP1 SWAP2 SUB SWAP1 REVERT JUMPDEST PUSH1 0x1 SWAP1 POP SWAP4 SWAP3 POP POP POP JUMP JUMPDEST PUSH1 0x0 DUP1 PUSH1 0x0 SWAP1 SLOAD SWAP1 PUSH2 0x100 EXP SWAP1 DIV PUSH20 0xFFFFFFFFFFFFFFFFFFFFFFFFFFFFFFFFFFFFFFFF AND SWAP1 POP SWAP1 JUMP JUMPDEST PUSH1 0x60 CALLER PUSH20 0xFFFFFFFFFFFFFFFFFFFFFFFFFFFFFFFFFFFFFFFF AND PUSH2 0xC46 PUSH2 0xBFC JUMP JUMPDEST PUSH20 0xFFFFFFFFFFFFFFFFFFFFFFFFFFFFFFFFFFFFFFFF AND EQ DUP1 PUSH2 0xC78 JUMPI POP PUSH2 0xC77 CALLER PUSH1 0x1 PUSH2 0xF05 SWAP1 SWAP2 SWAP1 PUSH4 0xFFFFFFFF AND JUMP JUMPDEST JUMPDEST PUSH2 0xCB7 JUMPI PUSH1 0x40 MLOAD PUSH32 0x8C379A000000000000000000000000000000000000000000000000000000000 DUP2 MSTORE PUSH1 0x4 ADD PUSH2 0xCAE SWAP1 PUSH2 0x1BD6 JUMP JUMPDEST PUSH1 0x40 MLOAD DUP1 SWAP2 SUB SWAP1 REVERT JUMPDEST PUSH1 0x3 DUP1 SLOAD DUP1 PUSH1 0x20 MUL PUSH1 0x20 ADD PUSH1 0x40 MLOAD SWAP1 DUP2 ADD PUSH1 0x40 MSTORE DUP1 SWAP3 SWAP2 SWAP1 DUP2 DUP2 MSTORE PUSH1 0x20 ADD DUP3 DUP1 SLOAD DUP1 ISZERO PUSH2 0xD39 JUMPI PUSH1 0x20 MUL DUP3 ADD SWAP2 SWAP1 PUSH1 0x0 MSTORE PUSH1 0x20 PUSH1 0x0 KECCAK256 SWAP1 JUMPDEST DUP2 PUSH1 0x0 SWAP1 SLOAD SWAP1 PUSH2 0x100 EXP SWAP1 DIV PUSH20 0xFFFFFFFFFFFFFFFFFFFFFFFFFFFFFFFFFFFFFFFF AND PUSH20 0xFFFFFFFFFFFFFFFFFFFFFFFFFFFFFFFFFFFFFFFF AND DUP2 MSTORE PUSH1 0x20 ADD SWAP1 PUSH1 0x1 ADD SWAP1 DUP1 DUP4 GT PUSH2 0xCEF JUMPI JUMPDEST POP POP POP POP POP SWAP1 POP SWAP1 JUMP JUMPDEST PUSH1 0x60 PUSH1 0x5 PUSH1 0x0 SWAP1 SLOAD SWAP1 PUSH2 0x100 EXP SWAP1 DIV PUSH20 0xFFFFFFFFFFFFFFFFFFFFFFFFFFFFFFFFFFFFFFFF AND PUSH20 0xFFFFFFFFFFFFFFFFFFFFFFFFFFFFFFFFFFFFFFFF AND DUP4 PUSH20 0xFFFFFFFFFFFFFFFFFFFFFFFFFFFFFFFFFFFFFFFF AND EQ PUSH2 0xDD5 JUMPI PUSH1 0x40 MLOAD PUSH32 0x8C379A000000000000000000000000000000000000000000000000000000000 DUP2 MSTORE PUSH1 0x4 ADD PUSH2 0xDCC SWAP1 PUSH2 0x20B8 JUMP JUMPDEST PUSH1 0x40 MLOAD DUP1 SWAP2 SUB SWAP1 REVERT JUMPDEST PUSH1 0x6 PUSH2 0xDE0 DUP4 PUSH2 0x1106 JUMP JUMPDEST PUSH1 0x40 MLOAD PUSH1 0x20 ADD PUSH2 0xDF1 SWAP3 SWAP2 SWAP1 PUSH2 0x2197 JUMP JUMPDEST PUSH1 0x40 MLOAD PUSH1 0x20 DUP2 DUP4 SUB SUB DUP2 MSTORE SWAP1 PUSH1 0x40 MSTORE SWAP1 POP SWAP3 SWAP2 POP POP JUMP JUMPDEST PUSH2 0xE10 PUSH2 0xF35 JUMP JUMPDEST PUSH1 0x0 PUSH20 0xFFFFFFFFFFFFFFFFFFFFFFFFFFFFFFFFFFFFFFFF AND DUP2 PUSH20 0xFFFFFFFFFFFFFFFFFFFFFFFFFFFFFFFFFFFFFFFF AND SUB PUSH2 0xE7F JUMPI PUSH1 0x40 MLOAD PUSH32 0x8C379A000000000000000000000000000000000000000000000000000000000 DUP2 MSTORE PUSH1 0x4 ADD PUSH2 0xE76 SWAP1 PUSH2 0x222D JUMP JUMPDEST PUSH1 0x40 MLOAD DUP1 SWAP2 SUB SWAP1 REVERT JUMPDEST PUSH2 0xE88 DUP2 PUSH2 0x1042 JUMP JUMPDEST POP JUMP JUMPDEST PUSH1 0x0 PUSH32 0x553E757E00000000000000000000000000000000000000000000000000000000 PUSH28 0xFFFFFFFFFFFFFFFFFFFFFFFFFFFFFFFFFFFFFFFFFFFFFFFFFFFFFFFF NOT AND DUP3 PUSH28 0xFFFFFFFFFFFFFFFFFFFFFFFFFFFFFFFFFFFFFFFFFFFFFFFFFFFFFFFF NOT AND EQ DUP1 PUSH2 0xEFE JUMPI POP PUSH2 0xEFD DUP3 PUSH2 0x1266 JUMP JUMPDEST JUMPDEST SWAP1 POP SWAP2 SWAP1 POP JUMP JUMPDEST PUSH1 0x0 PUSH2 0xF2D DUP4 PUSH1 0x0 ADD DUP4 PUSH20 0xFFFFFFFFFFFFFFFFFFFFFFFFFFFFFFFFFFFFFFFF AND PUSH1 0x0 SHL PUSH2 0x12D0 JUMP JUMPDEST SWAP1 POP SWAP3 SWAP2 POP POP JUMP JUMPDEST PUSH2 0xF3D PUSH2 0x12F3 JUMP JUMPDEST PUSH20 0xFFFFFFFFFFFFFFFFFFFFFFFFFFFFFFFFFFFFFFFF AND PUSH2 0xF5B PUSH2 0xBFC JUMP JUMPDEST PUSH20 0xFFFFFFFFFFFFFFFFFFFFFFFFFFFFFFFFFFFFFFFF AND EQ PUSH2 0xFB1 JUMPI PUSH1 0x40 MLOAD PUSH32 0x8C379A000000000000000000000000000000000000000000000000000000000 DUP2 MSTORE PUSH1 0x4 ADD PUSH2 0xFA8 SWAP1 PUSH2 0x2299 JUMP JUMPDEST PUSH1 0x40 MLOAD DUP1 SWAP2 SUB SWAP1 REVERT JUMPDEST JUMP JUMPDEST PUSH1 0x0 PUSH2 0xFDB DUP4 PUSH1 0x0 ADD DUP4 PUSH20 0xFFFFFFFFFFFFFFFFFFFFFFFFFFFFFFFFFFFFFFFF AND PUSH1 0x0 SHL PUSH2 0x12FB JUMP JUMPDEST SWAP1 POP SWAP3 SWAP2 POP POP JUMP JUMPDEST PUSH1 0x0 PUSH2 0xFF1 DUP3 PUSH1 0x0 ADD PUSH2 0x140F JUMP JUMPDEST SWAP1 POP SWAP2 SWAP1 POP JUMP JUMPDEST PUSH1 0x0 PUSH2 0x1007 DUP4 PUSH1 0x0 ADD DUP4 PUSH2 0x1420 JUMP JUMPDEST PUSH1 0x0 SHR SWAP1 POP SWAP3 SWAP2 POP POP JUMP JUMPDEST PUSH1 0x0 PUSH2 0x103A DUP4 PUSH1 0x0 ADD DUP4 PUSH20 0xFFFFFFFFFFFFFFFFFFFFFFFFFFFFFFFFFFFFFFFF AND PUSH1 0x0 SHL PUSH2 0x144B JUMP JUMPDEST SWAP1 POP SWAP3 SWAP2 POP POP JUMP JUMPDEST PUSH1 0x0 DUP1 PUSH1 0x0 SWAP1 SLOAD SWAP1 PUSH2 0x100 EXP SWAP1 DIV PUSH20 0xFFFFFFFFFFFFFFFFFFFFFFFFFFFFFFFFFFFFFFFF AND SWAP1 POP DUP2 PUSH1 0x0 DUP1 PUSH2 0x100 EXP DUP2 SLOAD DUP2 PUSH20 0xFFFFFFFFFFFFFFFFFFFFFFFFFFFFFFFFFFFFFFFF MUL NOT AND SWAP1 DUP4 PUSH20 0xFFFFFFFFFFFFFFFFFFFFFFFFFFFFFFFFFFFFFFFF AND MUL OR SWAP1 SSTORE POP DUP2 PUSH20 0xFFFFFFFFFFFFFFFFFFFFFFFFFFFFFFFFFFFFFFFF AND DUP2 PUSH20 0xFFFFFFFFFFFFFFFFFFFFFFFFFFFFFFFFFFFFFFFF AND PUSH32 0x8BE0079C531659141344CD1FD0A4F28419497F9722A3DAAFE3B4186F6B6457E0 PUSH1 0x40 MLOAD PUSH1 0x40 MLOAD DUP1 SWAP2 SUB SWAP1 LOG3 POP POP JUMP JUMPDEST PUSH1 0x60 PUSH1 0x0 DUP3 SUB PUSH2 0x114D JUMPI PUSH1 0x40 MLOAD DUP1 PUSH1 0x40 ADD PUSH1 0x40 MSTORE DUP1 PUSH1 0x1 DUP2 MSTORE PUSH1 0x20 ADD PUSH32 0x3000000000000000000000000000000000000000000000000000000000000000 DUP2 MSTORE POP SWAP1 POP PUSH2 0x1261 JUMP JUMPDEST PUSH1 0x0 DUP3 SWAP1 POP PUSH1 0x0 JUMPDEST PUSH1 0x0 DUP3 EQ PUSH2 0x117F JUMPI DUP1 DUP1 PUSH2 0x1168 SWAP1 PUSH2 0x1C54 JUMP JUMPDEST SWAP2 POP POP PUSH1 0xA DUP3 PUSH2 0x1178 SWAP2 SWAP1 PUSH2 0x22E8 JUMP JUMPDEST SWAP2 POP PUSH2 0x1155 JUMP JUMPDEST PUSH1 0x0 DUP2 PUSH8 0xFFFFFFFFFFFFFFFF DUP2 GT ISZERO PUSH2 0x119B JUMPI PUSH2 0x119A PUSH2 0x177C JUMP JUMPDEST JUMPDEST PUSH1 0x40 MLOAD SWAP1 DUP1 DUP3 MSTORE DUP1 PUSH1 0x1F ADD PUSH1 0x1F NOT AND PUSH1 0x20 ADD DUP3 ADD PUSH1 0x40 MSTORE DUP1 ISZERO PUSH2 0x11CD JUMPI DUP2 PUSH1 0x20 ADD PUSH1 0x1 DUP3 MUL DUP1 CALLDATASIZE DUP4 CALLDATACOPY DUP1 DUP3 ADD SWAP2 POP POP SWAP1 POP JUMPDEST POP SWAP1 POP JUMPDEST PUSH1 0x0 DUP6 EQ PUSH2 0x125A JUMPI PUSH1 0x1 DUP3 PUSH2 0x11E6 SWAP2 SWAP1 PUSH2 0x2319 JUMP JUMPDEST SWAP2 POP PUSH1 0xA DUP6 PUSH2 0x11F5 SWAP2 SWAP1 PUSH2 0x234D JUMP JUMPDEST PUSH1 0x30 PUSH2 0x1201 SWAP2 SWAP1 PUSH2 0x237E JUMP JUMPDEST PUSH1 0xF8 SHL DUP2 DUP4 DUP2 MLOAD DUP2 LT PUSH2 0x1217 JUMPI PUSH2 0x1216 PUSH2 0x1BF6 JUMP JUMPDEST JUMPDEST PUSH1 0x20 ADD ADD SWAP1 PUSH31 0xFFFFFFFFFFFFFFFFFFFFFFFFFFFFFFFFFFFFFFFFFFFFFFFFFFFFFFFFFFFFFF NOT AND SWAP1 DUP2 PUSH1 0x0 BYTE SWAP1 MSTORE8 POP PUSH1 0xA DUP6 PUSH2 0x1253 SWAP2 SWAP1 PUSH2 0x22E8 JUMP JUMPDEST SWAP5 POP PUSH2 0x11D1 JUMP JUMPDEST DUP1 SWAP4 POP POP POP POP JUMPDEST SWAP2 SWAP1 POP JUMP JUMPDEST PUSH1 0x0 PUSH32 0x1FFC9A700000000000000000000000000000000000000000000000000000000 PUSH28 0xFFFFFFFFFFFFFFFFFFFFFFFFFFFFFFFFFFFFFFFFFFFFFFFFFFFFFFFF NOT AND DUP3 PUSH28 0xFFFFFFFFFFFFFFFFFFFFFFFFFFFFFFFFFFFFFFFFFFFFFFFFFFFFFFFF NOT AND EQ SWAP1 POP SWAP2 SWAP1 POP JUMP JUMPDEST PUSH1 0x0 DUP1 DUP4 PUSH1 0x1 ADD PUSH1 0x0 DUP5 DUP2 MSTORE PUSH1 0x20 ADD SWAP1 DUP2 MSTORE PUSH1 0x20 ADD PUSH1 0x0 KECCAK256 SLOAD EQ ISZERO SWAP1 POP SWAP3 SWAP2 POP POP JUMP JUMPDEST PUSH1 0x0 CALLER SWAP1 POP SWAP1 JUMP JUMPDEST PUSH1 0x0 DUP1 DUP4 PUSH1 0x1 ADD PUSH1 0x0 DUP5 DUP2 MSTORE PUSH1 0x20 ADD SWAP1 DUP2 MSTORE PUSH1 0x20 ADD PUSH1 0x0 KECCAK256 SLOAD SWAP1 POP PUSH1 0x0 DUP2 EQ PUSH2 0x1403 JUMPI PUSH1 0x0 PUSH1 0x1 DUP3 PUSH2 0x132D SWAP2 SWAP1 PUSH2 0x2319 JUMP JUMPDEST SWAP1 POP PUSH1 0x0 PUSH1 0x1 DUP7 PUSH1 0x0 ADD DUP1 SLOAD SWAP1 POP PUSH2 0x1345 SWAP2 SWAP1 PUSH2 0x2319 JUMP JUMPDEST SWAP1 POP DUP2 DUP2 EQ PUSH2 0x13B4 JUMPI PUSH1 0x0 DUP7 PUSH1 0x0 ADD DUP3 DUP2 SLOAD DUP2 LT PUSH2 0x1366 JUMPI PUSH2 0x1365 PUSH2 0x1BF6 JUMP JUMPDEST JUMPDEST SWAP1 PUSH1 0x0 MSTORE PUSH1 0x20 PUSH1 0x0 KECCAK256 ADD SLOAD SWAP1 POP DUP1 DUP8 PUSH1 0x0 ADD DUP5 DUP2 SLOAD DUP2 LT PUSH2 0x138A JUMPI PUSH2 0x1389 PUSH2 0x1BF6 JUMP JUMPDEST JUMPDEST SWAP1 PUSH1 0x0 MSTORE PUSH1 0x20 PUSH1 0x0 KECCAK256 ADD DUP2 SWAP1 SSTORE POP DUP4 DUP8 PUSH1 0x1 ADD PUSH1 0x0 DUP4 DUP2 MSTORE PUSH1 0x20 ADD SWAP1 DUP2 MSTORE PUSH1 0x20 ADD PUSH1 0x0 KECCAK256 DUP2 SWAP1 SSTORE POP POP JUMPDEST DUP6 PUSH1 0x0 ADD DUP1 SLOAD DUP1 PUSH2 0x13C8 JUMPI PUSH2 0x13C7 PUSH2 0x23B2 JUMP JUMPDEST JUMPDEST PUSH1 0x1 SWAP1 SUB DUP2 DUP2 SWAP1 PUSH1 0x0 MSTORE PUSH1 0x20 PUSH1 0x0 KECCAK256 ADD PUSH1 0x0 SWAP1 SSTORE SWAP1 SSTORE DUP6 PUSH1 0x1 ADD PUSH1 0x0 DUP7 DUP2 MSTORE PUSH1 0x20 ADD SWAP1 DUP2 MSTORE PUSH1 0x20 ADD PUSH1 0x0 KECCAK256 PUSH1 0x0 SWAP1 SSTORE PUSH1 0x1 SWAP4 POP POP POP POP PUSH2 0x1409 JUMP JUMPDEST PUSH1 0x0 SWAP2 POP POP JUMPDEST SWAP3 SWAP2 POP POP JUMP JUMPDEST PUSH1 0x0 DUP2 PUSH1 0x0 ADD DUP1 SLOAD SWAP1 POP SWAP1 POP SWAP2 SWAP1 POP JUMP JUMPDEST PUSH1 0x0 DUP3 PUSH1 0x0 ADD DUP3 DUP2 SLOAD DUP2 LT PUSH2 0x1438 JUMPI PUSH2 0x1437 PUSH2 0x1BF6 JUMP JUMPDEST JUMPDEST SWAP1 PUSH1 0x0 MSTORE PUSH1 0x20 PUSH1 0x0 KECCAK256 ADD SLOAD SWAP1 POP SWAP3 SWAP2 POP POP JUMP JUMPDEST PUSH1 0x0 PUSH2 0x1457 DUP4 DUP4 PUSH2 0x12D0 JUMP JUMPDEST PUSH2 0x14B0 JUMPI DUP3 PUSH1 0x0 ADD DUP3 SWAP1 DUP1 PUSH1 0x1 DUP2 SLOAD ADD DUP1 DUP3 SSTORE DUP1 SWAP2 POP POP PUSH1 0x1 SWAP1 SUB SWAP1 PUSH1 0x0 MSTORE PUSH1 0x20 PUSH1 0x0 KECCAK256 ADD PUSH1 0x0 SWAP1 SWAP2 SWAP1 SWAP2 SWAP1 SWAP2 POP SSTORE DUP3 PUSH1 0x0 ADD DUP1 SLOAD SWAP1 POP DUP4 PUSH1 0x1 ADD PUSH1 0x0 DUP5 DUP2 MSTORE PUSH1 0x20 ADD SWAP1 DUP2 MSTORE PUSH1 0x20 ADD PUSH1 0x0 KECCAK256 DUP2 SWAP1 SSTORE POP PUSH1 0x1 SWAP1 POP PUSH2 0x14B5 JUMP JUMPDEST PUSH1 0x0 SWAP1 POP JUMPDEST SWAP3 SWAP2 POP POP JUMP JUMPDEST PUSH1 0x0 PUSH1 0x40 MLOAD SWAP1 POP SWAP1 JUMP JUMPDEST PUSH1 0x0 DUP1 REVERT JUMPDEST PUSH1 0x0 DUP1 REVERT JUMPDEST PUSH1 0x0 PUSH32 0xFFFFFFFF00000000000000000000000000000000000000000000000000000000 DUP3 AND SWAP1 POP SWAP2 SWAP1 POP JUMP JUMPDEST PUSH2 0x1504 DUP2 PUSH2 0x14CF JUMP JUMPDEST DUP2 EQ PUSH2 0x150F JUMPI PUSH1 0x0 DUP1 REVERT JUMPDEST POP JUMP JUMPDEST PUSH1 0x0 DUP2 CALLDATALOAD SWAP1 POP PUSH2 0x1521 DUP2 PUSH2 0x14FB JUMP JUMPDEST SWAP3 SWAP2 POP POP JUMP JUMPDEST PUSH1 0x0 PUSH1 0x20 DUP3 DUP5 SUB SLT ISZERO PUSH2 0x153D JUMPI PUSH2 0x153C PUSH2 0x14C5 JUMP JUMPDEST JUMPDEST PUSH1 0x0 PUSH2 0x154B DUP5 DUP3 DUP6 ADD PUSH2 0x1512 JUMP JUMPDEST SWAP2 POP POP SWAP3 SWAP2 POP POP JUMP JUMPDEST PUSH1 0x0 DUP2 ISZERO ISZERO SWAP1 POP SWAP2 SWAP1 POP JUMP JUMPDEST PUSH2 0x1569 DUP2 PUSH2 0x1554 JUMP JUMPDEST DUP3 MSTORE POP POP JUMP JUMPDEST PUSH1 0x0 PUSH1 0x20 DUP3 ADD SWAP1 POP PUSH2 0x1584 PUSH1 0x0 DUP4 ADD DUP5 PUSH2 0x1560 JUMP JUMPDEST SWAP3 SWAP2 POP POP JUMP JUMPDEST PUSH1 0x0 PUSH20 0xFFFFFFFFFFFFFFFFFFFFFFFFFFFFFFFFFFFFFFFF DUP3 AND SWAP1 POP SWAP2 SWAP1 POP JUMP JUMPDEST PUSH1 0x0 PUSH2 0x15B5 DUP3 PUSH2 0x158A JUMP JUMPDEST SWAP1 POP SWAP2 SWAP1 POP JUMP JUMPDEST PUSH2 0x15C5 DUP2 PUSH2 0x15AA JUMP JUMPDEST DUP2 EQ PUSH2 0x15D0 JUMPI PUSH1 0x0 DUP1 REVERT JUMPDEST POP JUMP JUMPDEST PUSH1 0x0 DUP2 CALLDATALOAD SWAP1 POP PUSH2 0x15E2 DUP2 PUSH2 0x15BC JUMP JUMPDEST SWAP3 SWAP2 POP POP JUMP JUMPDEST PUSH2 0x15F1 DUP2 PUSH2 0x1554 JUMP JUMPDEST DUP2 EQ PUSH2 0x15FC JUMPI PUSH1 0x0 DUP1 REVERT JUMPDEST POP JUMP JUMPDEST PUSH1 0x0 DUP2 CALLDATALOAD SWAP1 POP PUSH2 0x160E DUP2 PUSH2 0x15E8 JUMP JUMPDEST SWAP3 SWAP2 POP POP JUMP JUMPDEST PUSH1 0x0 DUP1 PUSH1 0x40 DUP4 DUP6 SUB SLT ISZERO PUSH2 0x162B JUMPI PUSH2 0x162A PUSH2 0x14C5 JUMP JUMPDEST JUMPDEST PUSH1 0x0 PUSH2 0x1639 DUP6 DUP3 DUP7 ADD PUSH2 0x15D3 JUMP JUMPDEST SWAP3 POP POP PUSH1 0x20 PUSH2 0x164A DUP6 DUP3 DUP7 ADD PUSH2 0x15FF JUMP JUMPDEST SWAP2 POP POP SWAP3 POP SWAP3 SWAP1 POP JUMP JUMPDEST PUSH1 0x0 PUSH1 0x20 DUP3 DUP5 SUB SLT ISZERO PUSH2 0x166A JUMPI PUSH2 0x1669 PUSH2 0x14C5 JUMP JUMPDEST JUMPDEST PUSH1 0x0 PUSH2 0x1678 DUP5 DUP3 DUP6 ADD PUSH2 0x15D3 JUMP JUMPDEST SWAP2 POP POP SWAP3 SWAP2 POP POP JUMP JUMPDEST PUSH1 0x0 DUP2 MLOAD SWAP1 POP SWAP2 SWAP1 POP JUMP JUMPDEST PUSH1 0x0 DUP3 DUP3 MSTORE PUSH1 0x20 DUP3 ADD SWAP1 POP SWAP3 SWAP2 POP POP JUMP JUMPDEST PUSH1 0x0 DUP2 SWAP1 POP PUSH1 0x20 DUP3 ADD SWAP1 POP SWAP2 SWAP1 POP JUMP JUMPDEST PUSH2 0x16B6 DUP2 PUSH2 0x15AA JUMP JUMPDEST DUP3 MSTORE POP POP JUMP JUMPDEST PUSH1 0x0 PUSH2 0x16C8 DUP4 DUP4 PUSH2 0x16AD JUMP JUMPDEST PUSH1 0x20 DUP4 ADD SWAP1 POP SWAP3 SWAP2 POP POP JUMP JUMPDEST PUSH1 0x0 PUSH1 0x20 DUP3 ADD SWAP1 POP SWAP2 SWAP1 POP JUMP JUMPDEST PUSH1 0x0 PUSH2 0x16EC DUP3 PUSH2 0x1681 JUMP JUMPDEST PUSH2 0x16F6 DUP2 DUP6 PUSH2 0x168C JUMP JUMPDEST SWAP4 POP PUSH2 0x1701 DUP4 PUSH2 0x169D JUMP JUMPDEST DUP1 PUSH1 0x0 JUMPDEST DUP4 DUP2 LT ISZERO PUSH2 0x1732 JUMPI DUP2 MLOAD PUSH2 0x1719 DUP9 DUP3 PUSH2 0x16BC JUMP JUMPDEST SWAP8 POP PUSH2 0x1724 DUP4 PUSH2 0x16D4 JUMP JUMPDEST SWAP3 POP POP PUSH1 0x1 DUP2 ADD SWAP1 POP PUSH2 0x1705 JUMP JUMPDEST POP DUP6 SWAP4 POP POP POP POP SWAP3 SWAP2 POP POP JUMP JUMPDEST PUSH1 0x0 PUSH1 0x20 DUP3 ADD SWAP1 POP DUP2 DUP2 SUB PUSH1 0x0 DUP4 ADD MSTORE PUSH2 0x1759 DUP2 DUP5 PUSH2 0x16E1 JUMP JUMPDEST SWAP1 POP SWAP3 SWAP2 POP POP JUMP JUMPDEST PUSH1 0x0 DUP1 REVERT JUMPDEST PUSH1 0x0 DUP1 REVERT JUMPDEST PUSH1 0x0 PUSH1 0x1F NOT PUSH1 0x1F DUP4 ADD AND SWAP1 POP SWAP2 SWAP1 POP JUMP JUMPDEST PUSH32 0x4E487B7100000000000000000000000000000000000000000000000000000000 PUSH1 0x0 MSTORE PUSH1 0x41 PUSH1 0x4 MSTORE PUSH1 0x24 PUSH1 0x0 REVERT JUMPDEST PUSH2 0x17B4 DUP3 PUSH2 0x176B JUMP JUMPDEST DUP2 ADD DUP2 DUP2 LT PUSH8 0xFFFFFFFFFFFFFFFF DUP3 GT OR ISZERO PUSH2 0x17D3 JUMPI PUSH2 0x17D2 PUSH2 0x177C JUMP JUMPDEST JUMPDEST DUP1 PUSH1 0x40 MSTORE POP POP POP JUMP JUMPDEST PUSH1 0x0 PUSH2 0x17E6 PUSH2 0x14BB JUMP JUMPDEST SWAP1 POP PUSH2 0x17F2 DUP3 DUP3 PUSH2 0x17AB JUMP JUMPDEST SWAP2 SWAP1 POP JUMP JUMPDEST PUSH1 0x0 PUSH8 0xFFFFFFFFFFFFFFFF DUP3 GT ISZERO PUSH2 0x1812 JUMPI PUSH2 0x1811 PUSH2 0x177C JUMP JUMPDEST JUMPDEST PUSH2 0x181B DUP3 PUSH2 0x176B JUMP JUMPDEST SWAP1 POP PUSH1 0x20 DUP2 ADD SWAP1 POP SWAP2 SWAP1 POP JUMP JUMPDEST DUP3 DUP2 DUP4 CALLDATACOPY PUSH1 0x0 DUP4 DUP4 ADD MSTORE POP POP POP JUMP JUMPDEST PUSH1 0x0 PUSH2 0x184A PUSH2 0x1845 DUP5 PUSH2 0x17F7 JUMP JUMPDEST PUSH2 0x17DC JUMP JUMPDEST SWAP1 POP DUP3 DUP2 MSTORE PUSH1 0x20 DUP2 ADD DUP5 DUP5 DUP5 ADD GT ISZERO PUSH2 0x1866 JUMPI PUSH2 0x1865 PUSH2 0x1766 JUMP JUMPDEST JUMPDEST PUSH2 0x1871 DUP5 DUP3 DUP6 PUSH2 0x1828 JUMP JUMPDEST POP SWAP4 SWAP3 POP POP POP JUMP JUMPDEST PUSH1 0x0 DUP3 PUSH1 0x1F DUP4 ADD SLT PUSH2 0x188E JUMPI PUSH2 0x188D PUSH2 0x1761 JUMP JUMPDEST JUMPDEST DUP2 CALLDATALOAD PUSH2 0x189E DUP5 DUP3 PUSH1 0x20 DUP7 ADD PUSH2 0x1837 JUMP JUMPDEST SWAP2 POP POP SWAP3 SWAP2 POP POP JUMP JUMPDEST PUSH1 0x0 PUSH1 0x20 DUP3 DUP5 SUB SLT ISZERO PUSH2 0x18BD JUMPI PUSH2 0x18BC PUSH2 0x14C5 JUMP JUMPDEST JUMPDEST PUSH1 0x0 DUP3 ADD CALLDATALOAD PUSH8 0xFFFFFFFFFFFFFFFF DUP2 GT ISZERO PUSH2 0x18DB JUMPI PUSH2 0x18DA PUSH2 0x14CA JUMP JUMPDEST JUMPDEST PUSH2 0x18E7 DUP5 DUP3 DUP6 ADD PUSH2 0x1879 JUMP JUMPDEST SWAP2 POP POP SWAP3 SWAP2 POP POP JUMP JUMPDEST PUSH1 0x0 DUP2 MLOAD SWAP1 POP SWAP2 SWAP1 POP JUMP JUMPDEST PUSH1 0x0 DUP3 DUP3 MSTORE PUSH1 0x20 DUP3 ADD SWAP1 POP SWAP3 SWAP2 POP POP JUMP JUMPDEST PUSH1 0x0 DUP2 SWAP1 POP PUSH1 0x20 DUP3 ADD SWAP1 POP SWAP2 SWAP1 POP JUMP JUMPDEST PUSH1 0x0 DUP2 SWAP1 POP SWAP2 SWAP1 POP JUMP JUMPDEST PUSH2 0x192F DUP2 PUSH2 0x191C JUMP JUMPDEST DUP3 MSTORE POP POP JUMP JUMPDEST PUSH1 0x0 PUSH2 0x1941 DUP4 DUP4 PUSH2 0x1926 JUMP JUMPDEST PUSH1 0x20 DUP4 ADD SWAP1 POP SWAP3 SWAP2 POP POP JUMP JUMPDEST PUSH1 0x0 PUSH1 0x20 DUP3 ADD SWAP1 POP SWAP2 SWAP1 POP JUMP JUMPDEST PUSH1 0x0 PUSH2 0x1965 DUP3 PUSH2 0x18F0 JUMP JUMPDEST PUSH2 0x196F DUP2 DUP6 PUSH2 0x18FB JUMP JUMPDEST SWAP4 POP PUSH2 0x197A DUP4 PUSH2 0x190C JUMP JUMPDEST DUP1 PUSH1 0x0 JUMPDEST DUP4 DUP2 LT ISZERO PUSH2 0x19AB JUMPI DUP2 MLOAD PUSH2 0x1992 DUP9 DUP3 PUSH2 0x1935 JUMP JUMPDEST SWAP8 POP PUSH2 0x199D DUP4 PUSH2 0x194D JUMP JUMPDEST SWAP3 POP POP PUSH1 0x1 DUP2 ADD SWAP1 POP PUSH2 0x197E JUMP JUMPDEST POP DUP6 SWAP4 POP POP POP POP SWAP3 SWAP2 POP POP JUMP JUMPDEST PUSH1 0x0 PUSH1 0x20 DUP3 ADD SWAP1 POP DUP2 DUP2 SUB PUSH1 0x0 DUP4 ADD MSTORE PUSH2 0x19D2 DUP2 DUP5 PUSH2 0x195A JUMP JUMPDEST SWAP1 POP SWAP3 SWAP2 POP POP JUMP JUMPDEST PUSH2 0x19E3 DUP2 PUSH2 0x191C JUMP JUMPDEST DUP2 EQ PUSH2 0x19EE JUMPI PUSH1 0x0 DUP1 REVERT JUMPDEST POP JUMP JUMPDEST PUSH1 0x0 DUP2 CALLDATALOAD SWAP1 POP PUSH2 0x1A00 DUP2 PUSH2 0x19DA JUMP JUMPDEST SWAP3 SWAP2 POP POP JUMP JUMPDEST PUSH1 0x0 DUP1 PUSH1 0x0 PUSH1 0x60 DUP5 DUP7 SUB SLT ISZERO PUSH2 0x1A1F JUMPI PUSH2 0x1A1E PUSH2 0x14C5 JUMP JUMPDEST JUMPDEST PUSH1 0x0 PUSH2 0x1A2D DUP7 DUP3 DUP8 ADD PUSH2 0x15D3 JUMP JUMPDEST SWAP4 POP POP PUSH1 0x20 PUSH2 0x1A3E DUP7 DUP3 DUP8 ADD PUSH2 0x15D3 JUMP JUMPDEST SWAP3 POP POP PUSH1 0x40 PUSH2 0x1A4F DUP7 DUP3 DUP8 ADD PUSH2 0x19F1 JUMP JUMPDEST SWAP2 POP POP SWAP3 POP SWAP3 POP SWAP3 JUMP JUMPDEST PUSH2 0x1A62 DUP2 PUSH2 0x15AA JUMP JUMPDEST DUP3 MSTORE POP POP JUMP JUMPDEST PUSH1 0x0 PUSH1 0x20 DUP3 ADD SWAP1 POP PUSH2 0x1A7D PUSH1 0x0 DUP4 ADD DUP5 PUSH2 0x1A59 JUMP JUMPDEST SWAP3 SWAP2 POP POP JUMP JUMPDEST PUSH1 0x0 DUP1 PUSH1 0x40 DUP4 DUP6 SUB SLT ISZERO PUSH2 0x1A9A JUMPI PUSH2 0x1A99 PUSH2 0x14C5 JUMP JUMPDEST JUMPDEST PUSH1 0x0 PUSH2 0x1AA8 DUP6 DUP3 DUP7 ADD PUSH2 0x15D3 JUMP JUMPDEST SWAP3 POP POP PUSH1 0x20 PUSH2 0x1AB9 DUP6 DUP3 DUP7 ADD PUSH2 0x19F1 JUMP JUMPDEST SWAP2 POP POP SWAP3 POP SWAP3 SWAP1 POP JUMP JUMPDEST PUSH1 0x0 DUP2 MLOAD SWAP1 POP SWAP2 SWAP1 POP JUMP JUMPDEST PUSH1 0x0 DUP3 DUP3 MSTORE PUSH1 0x20 DUP3 ADD SWAP1 POP SWAP3 SWAP2 POP POP JUMP JUMPDEST PUSH1 0x0 JUMPDEST DUP4 DUP2 LT ISZERO PUSH2 0x1AFD JUMPI DUP1 DUP3 ADD MLOAD DUP2 DUP5 ADD MSTORE PUSH1 0x20 DUP2 ADD SWAP1 POP PUSH2 0x1AE2 JUMP JUMPDEST PUSH1 0x0 DUP5 DUP5 ADD MSTORE POP POP POP POP JUMP JUMPDEST PUSH1 0x0 PUSH2 0x1B14 DUP3 PUSH2 0x1AC3 JUMP JUMPDEST PUSH2 0x1B1E DUP2 DUP6 PUSH2 0x1ACE JUMP JUMPDEST SWAP4 POP PUSH2 0x1B2E DUP2 DUP6 PUSH1 0x20 DUP7 ADD PUSH2 0x1ADF JUMP JUMPDEST PUSH2 0x1B37 DUP2 PUSH2 0x176B JUMP JUMPDEST DUP5 ADD SWAP2 POP POP SWAP3 SWAP2 POP POP JUMP JUMPDEST PUSH1 0x0 PUSH1 0x20 DUP3 ADD SWAP1 POP DUP2 DUP2 SUB PUSH1 0x0 DUP4 ADD MSTORE PUSH2 0x1B5C DUP2 DUP5 PUSH2 0x1B09 JUMP JUMPDEST SWAP1 POP SWAP3 SWAP2 POP POP JUMP JUMPDEST PUSH32 0x41646D696E436F6E74726F6C3A204D757374206265206F776E6572206F722061 PUSH1 0x0 DUP3 ADD MSTORE PUSH32 0x646D696E00000000000000000000000000000000000000000000000000000000 PUSH1 0x20 DUP3 ADD MSTORE POP JUMP JUMPDEST PUSH1 0x0 PUSH2 0x1BC0 PUSH1 0x24 DUP4 PUSH2 0x1ACE JUMP JUMPDEST SWAP2 POP PUSH2 0x1BCB DUP3 PUSH2 0x1B64 JUMP JUMPDEST PUSH1 0x40 DUP3 ADD SWAP1 POP SWAP2 SWAP1 POP JUMP JUMPDEST PUSH1 0x0 PUSH1 0x20 DUP3 ADD SWAP1 POP DUP2 DUP2 SUB PUSH1 0x0 DUP4 ADD MSTORE PUSH2 0x1BEF DUP2 PUSH2 0x1BB3 JUMP JUMPDEST SWAP1 POP SWAP2 SWAP1 POP JUMP JUMPDEST PUSH32 0x4E487B7100000000000000000000000000000000000000000000000000000000 PUSH1 0x0 MSTORE PUSH1 0x32 PUSH1 0x4 MSTORE PUSH1 0x24 PUSH1 0x0 REVERT JUMPDEST PUSH32 0x4E487B7100000000000000000000000000000000000000000000000000000000 PUSH1 0x0 MSTORE PUSH1 0x11 PUSH1 0x4 MSTORE PUSH1 0x24 PUSH1 0x0 REVERT JUMPDEST PUSH1 0x0 PUSH2 0x1C5F DUP3 PUSH2 0x191C JUMP JUMPDEST SWAP2 POP PUSH32 0xFFFFFFFFFFFFFFFFFFFFFFFFFFFFFFFFFFFFFFFFFFFFFFFFFFFFFFFFFFFFFFFF DUP3 SUB PUSH2 0x1C91 JUMPI PUSH2 0x1C90 PUSH2 0x1C25 JUMP JUMPDEST JUMPDEST PUSH1 0x1 DUP3 ADD SWAP1 POP SWAP2 SWAP1 POP JUMP JUMPDEST PUSH32 0x4E487B7100000000000000000000000000000000000000000000000000000000 PUSH1 0x0 MSTORE PUSH1 0x22 PUSH1 0x4 MSTORE PUSH1 0x24 PUSH1 0x0 REVERT JUMPDEST PUSH1 0x0 PUSH1 0x2 DUP3 DIV SWAP1 POP PUSH1 0x1 DUP3 AND DUP1 PUSH2 0x1CE3 JUMPI PUSH1 0x7F DUP3 AND SWAP2 POP JUMPDEST PUSH1 0x20 DUP3 LT DUP2 SUB PUSH2 0x1CF6 JUMPI PUSH2 0x1CF5 PUSH2 0x1C9C JUMP JUMPDEST JUMPDEST POP SWAP2 SWAP1 POP JUMP JUMPDEST PUSH1 0x0 DUP2 SWAP1 POP DUP2 PUSH1 0x0 MSTORE PUSH1 0x20 PUSH1 0x0 KECCAK256 SWAP1 POP SWAP2 SWAP1 POP JUMP JUMPDEST PUSH1 0x0 PUSH1 0x20 PUSH1 0x1F DUP4 ADD DIV SWAP1 POP SWAP2 SWAP1 POP JUMP JUMPDEST PUSH1 0x0 DUP3 DUP3 SHL SWAP1 POP SWAP3 SWAP2 POP POP JUMP JUMPDEST PUSH1 0x0 PUSH1 0x8 DUP4 MUL PUSH2 0x1D5E PUSH32 0xFFFFFFFFFFFFFFFFFFFFFFFFFFFFFFFFFFFFFFFFFFFFFFFFFFFFFFFFFFFFFFFF DUP3 PUSH2 0x1D21 JUMP JUMPDEST PUSH2 0x1D68 DUP7 DUP4 PUSH2 0x1D21 JUMP JUMPDEST SWAP6 POP DUP1 NOT DUP5 AND SWAP4 POP DUP1 DUP7 AND DUP5 OR SWAP3 POP POP POP SWAP4 SWAP3 POP POP POP JUMP JUMPDEST PUSH1 0x0 DUP2 SWAP1 POP SWAP2 SWAP1 POP JUMP JUMPDEST PUSH1 0x0 PUSH2 0x1DA5 PUSH2 0x1DA0 PUSH2 0x1D9B DUP5 PUSH2 0x191C JUMP JUMPDEST PUSH2 0x1D80 JUMP JUMPDEST PUSH2 0x191C JUMP JUMPDEST SWAP1 POP SWAP2 SWAP1 POP JUMP JUMPDEST PUSH1 0x0 DUP2 SWAP1 POP SWAP2 SWAP1 POP JUMP JUMPDEST PUSH2 0x1DBF DUP4 PUSH2 0x1D8A JUMP JUMPDEST PUSH2 0x1DD3 PUSH2 0x1DCB DUP3 PUSH2 0x1DAC JUMP JUMPDEST DUP5 DUP5 SLOAD PUSH2 0x1D2E JUMP JUMPDEST DUP3 SSTORE POP POP POP POP JUMP JUMPDEST PUSH1 0x0 SWAP1 JUMP JUMPDEST PUSH2 0x1DE8 PUSH2 0x1DDB JUMP JUMPDEST PUSH2 0x1DF3 DUP2 DUP5 DUP5 PUSH2 0x1DB6 JUMP JUMPDEST POP POP POP JUMP JUMPDEST JUMPDEST DUP2 DUP2 LT ISZERO PUSH2 0x1E17 JUMPI PUSH2 0x1E0C PUSH1 0x0 DUP3 PUSH2 0x1DE0 JUMP JUMPDEST PUSH1 0x1 DUP2 ADD SWAP1 POP PUSH2 0x1DF9 JUMP JUMPDEST POP POP JUMP JUMPDEST PUSH1 0x1F DUP3 GT ISZERO PUSH2 0x1E5C JUMPI PUSH2 0x1E2D DUP2 PUSH2 0x1CFC JUMP JUMPDEST PUSH2 0x1E36 DUP5 PUSH2 0x1D11 JUMP JUMPDEST DUP2 ADD PUSH1 0x20 DUP6 LT ISZERO PUSH2 0x1E45 JUMPI DUP2 SWAP1 POP JUMPDEST PUSH2 0x1E59 PUSH2 0x1E51 DUP6 PUSH2 0x1D11 JUMP JUMPDEST DUP4 ADD DUP3 PUSH2 0x1DF8 JUMP JUMPDEST POP POP JUMPDEST POP POP POP JUMP JUMPDEST PUSH1 0x0 DUP3 DUP3 SHR SWAP1 POP SWAP3 SWAP2 POP POP JUMP JUMPDEST PUSH1 0x0 PUSH2 0x1E7F PUSH1 0x0 NOT DUP5 PUSH1 0x8 MUL PUSH2 0x1E61 JUMP JUMPDEST NOT DUP1 DUP4 AND SWAP2 POP POP SWAP3 SWAP2 POP POP JUMP JUMPDEST PUSH1 0x0 PUSH2 0x1E98 DUP4 DUP4 PUSH2 0x1E6E JUMP JUMPDEST SWAP2 POP DUP3 PUSH1 0x2 MUL DUP3 OR SWAP1 POP SWAP3 SWAP2 POP POP JUMP JUMPDEST PUSH2 0x1EB1 DUP3 PUSH2 0x1AC3 JUMP JUMPDEST PUSH8 0xFFFFFFFFFFFFFFFF DUP2 GT ISZERO PUSH2 0x1ECA JUMPI PUSH2 0x1EC9 PUSH2 0x177C JUMP JUMPDEST JUMPDEST PUSH2 0x1ED4 DUP3 SLOAD PUSH2 0x1CCB JUMP JUMPDEST PUSH2 0x1EDF DUP3 DUP3 DUP6 PUSH2 0x1E1B JUMP JUMPDEST PUSH1 0x0 PUSH1 0x20 SWAP1 POP PUSH1 0x1F DUP4 GT PUSH1 0x1 DUP2 EQ PUSH2 0x1F12 JUMPI PUSH1 0x0 DUP5 ISZERO PUSH2 0x1F00 JUMPI DUP3 DUP8 ADD MLOAD SWAP1 POP JUMPDEST PUSH2 0x1F0A DUP6 DUP3 PUSH2 0x1E8C JUMP JUMPDEST DUP7 SSTORE POP PUSH2 0x1F72 JUMP JUMPDEST PUSH1 0x1F NOT DUP5 AND PUSH2 0x1F20 DUP7 PUSH2 0x1CFC JUMP JUMPDEST PUSH1 0x0 JUMPDEST DUP3 DUP2 LT ISZERO PUSH2 0x1F48 JUMPI DUP5 DUP10 ADD MLOAD DUP3 SSTORE PUSH1 0x1 DUP3 ADD SWAP2 POP PUSH1 0x20 DUP6 ADD SWAP5 POP PUSH1 0x20 DUP2 ADD SWAP1 POP PUSH2 0x1F23 JUMP JUMPDEST DUP7 DUP4 LT ISZERO PUSH2 0x1F65 JUMPI DUP5 DUP10 ADD MLOAD PUSH2 0x1F61 PUSH1 0x1F DUP10 AND DUP3 PUSH2 0x1E6E JUMP JUMPDEST DUP4 SSTORE POP JUMPDEST PUSH1 0x1 PUSH1 0x2 DUP9 MUL ADD DUP9 SSTORE POP POP POP JUMPDEST POP POP POP POP POP POP JUMP JUMPDEST PUSH1 0x0 DUP2 MLOAD SWAP1 POP PUSH2 0x1F89 DUP2 PUSH2 0x19DA JUMP JUMPDEST SWAP3 SWAP2 POP POP JUMP JUMPDEST PUSH1 0x0 PUSH1 0x20 DUP3 DUP5 SUB SLT ISZERO PUSH2 0x1FA5 JUMPI PUSH2 0x1FA4 PUSH2 0x14C5 JUMP JUMPDEST JUMPDEST PUSH1 0x0 PUSH2 0x1FB3 DUP5 DUP3 DUP6 ADD PUSH2 0x1F7A JUMP JUMPDEST SWAP2 POP POP SWAP3 SWAP2 POP POP JUMP JUMPDEST PUSH1 0x0 PUSH2 0xFFFF DUP3 AND SWAP1 POP SWAP2 SWAP1 POP JUMP JUMPDEST PUSH1 0x0 PUSH2 0x1FD5 DUP3 PUSH2 0x1FBC JUMP JUMPDEST SWAP2 POP PUSH2 0x1FE0 DUP4 PUSH2 0x1FBC JUMP JUMPDEST SWAP3 POP DUP3 DUP3 ADD SWAP1 POP PUSH2 0xFFFF DUP2 GT ISZERO PUSH2 0x1FFA JUMPI PUSH2 0x1FF9 PUSH2 0x1C25 JUMP JUMPDEST JUMPDEST SWAP3 SWAP2 POP POP JUMP JUMPDEST PUSH32 0x5468697320746F6B656E20697320736F756C626F756E64000000000000000000 PUSH1 0x0 DUP3 ADD MSTORE POP JUMP JUMPDEST PUSH1 0x0 PUSH2 0x2036 PUSH1 0x17 DUP4 PUSH2 0x1ACE JUMP JUMPDEST SWAP2 POP PUSH2 0x2041 DUP3 PUSH2 0x2000 JUMP JUMPDEST PUSH1 0x20 DUP3 ADD SWAP1 POP SWAP2 SWAP1 POP JUMP JUMPDEST PUSH1 0x0 PUSH1 0x20 DUP3 ADD SWAP1 POP DUP2 DUP2 SUB PUSH1 0x0 DUP4 ADD MSTORE PUSH2 0x2065 DUP2 PUSH2 0x2029 JUMP JUMPDEST SWAP1 POP SWAP2 SWAP1 POP JUMP JUMPDEST PUSH32 0x496E76616C696420746F6B656E00000000000000000000000000000000000000 PUSH1 0x0 DUP3 ADD MSTORE POP JUMP JUMPDEST PUSH1 0x0 PUSH2 0x20A2 PUSH1 0xD DUP4 PUSH2 0x1ACE JUMP JUMPDEST SWAP2 POP PUSH2 0x20AD DUP3 PUSH2 0x206C JUMP JUMPDEST PUSH1 0x20 DUP3 ADD SWAP1 POP SWAP2 SWAP1 POP JUMP JUMPDEST PUSH1 0x0 PUSH1 0x20 DUP3 ADD SWAP1 POP DUP2 DUP2 SUB PUSH1 0x0 DUP4 ADD MSTORE PUSH2 0x20D1 DUP2 PUSH2 0x2095 JUMP JUMPDEST SWAP1 POP SWAP2 SWAP1 POP JUMP JUMPDEST PUSH1 0x0 DUP2 SWAP1 POP SWAP3 SWAP2 POP POP JUMP JUMPDEST PUSH1 0x0 DUP2 SLOAD PUSH2 0x20F0 DUP2 PUSH2 0x1CCB JUMP JUMPDEST PUSH2 0x20FA DUP2 DUP7 PUSH2 0x20D8 JUMP JUMPDEST SWAP5 POP PUSH1 0x1 DUP3 AND PUSH1 0x0 DUP2 EQ PUSH2 0x2115 JUMPI PUSH1 0x1 DUP2 EQ PUSH2 0x212A JUMPI PUSH2 0x215D JUMP JUMPDEST PUSH1 0xFF NOT DUP4 AND DUP7 MSTORE DUP2 ISZERO ISZERO DUP3 MUL DUP7 ADD SWAP4 POP PUSH2 0x215D JUMP JUMPDEST PUSH2 0x2133 DUP6 PUSH2 0x1CFC JUMP JUMPDEST PUSH1 0x0 JUMPDEST DUP4 DUP2 LT ISZERO PUSH2 0x2155 JUMPI DUP2 SLOAD DUP2 DUP10 ADD MSTORE PUSH1 0x1 DUP3 ADD SWAP2 POP PUSH1 0x20 DUP2 ADD SWAP1 POP PUSH2 0x2136 JUMP JUMPDEST DUP4 DUP9 ADD SWAP6 POP POP POP JUMPDEST POP POP POP SWAP3 SWAP2 POP POP JUMP JUMPDEST PUSH1 0x0 PUSH2 0x2171 DUP3 PUSH2 0x1AC3 JUMP JUMPDEST PUSH2 0x217B DUP2 DUP6 PUSH2 0x20D8 JUMP JUMPDEST SWAP4 POP PUSH2 0x218B DUP2 DUP6 PUSH1 0x20 DUP7 ADD PUSH2 0x1ADF JUMP JUMPDEST DUP1 DUP5 ADD SWAP2 POP POP SWAP3 SWAP2 POP POP JUMP JUMPDEST PUSH1 0x0 PUSH2 0x21A3 DUP3 DUP6 PUSH2 0x20E3 JUMP JUMPDEST SWAP2 POP PUSH2 0x21AF DUP3 DUP5 PUSH2 0x2166 JUMP JUMPDEST SWAP2 POP DUP2 SWAP1 POP SWAP4 SWAP3 POP POP POP JUMP JUMPDEST PUSH32 0x4F776E61626C653A206E6577206F776E657220697320746865207A65726F2061 PUSH1 0x0 DUP3 ADD MSTORE PUSH32 0x6464726573730000000000000000000000000000000000000000000000000000 PUSH1 0x20 DUP3 ADD MSTORE POP JUMP JUMPDEST PUSH1 0x0 PUSH2 0x2217 PUSH1 0x26 DUP4 PUSH2 0x1ACE JUMP JUMPDEST SWAP2 POP PUSH2 0x2222 DUP3 PUSH2 0x21BB JUMP JUMPDEST PUSH1 0x40 DUP3 ADD SWAP1 POP SWAP2 SWAP1 POP JUMP JUMPDEST PUSH1 0x0 PUSH1 0x20 DUP3 ADD SWAP1 POP DUP2 DUP2 SUB PUSH1 0x0 DUP4 ADD MSTORE PUSH2 0x2246 DUP2 PUSH2 0x220A JUMP JUMPDEST SWAP1 POP SWAP2 SWAP1 POP JUMP JUMPDEST PUSH32 0x4F776E61626C653A2063616C6C6572206973206E6F7420746865206F776E6572 PUSH1 0x0 DUP3 ADD MSTORE POP JUMP JUMPDEST PUSH1 0x0 PUSH2 0x2283 PUSH1 0x20 DUP4 PUSH2 0x1ACE JUMP JUMPDEST SWAP2 POP PUSH2 0x228E DUP3 PUSH2 0x224D JUMP JUMPDEST PUSH1 0x20 DUP3 ADD SWAP1 POP SWAP2 SWAP1 POP JUMP JUMPDEST PUSH1 0x0 PUSH1 0x20 DUP3 ADD SWAP1 POP DUP2 DUP2 SUB PUSH1 0x0 DUP4 ADD MSTORE PUSH2 0x22B2 DUP2 PUSH2 0x2276 JUMP JUMPDEST SWAP1 POP SWAP2 SWAP1 POP JUMP JUMPDEST PUSH32 0x4E487B7100000000000000000000000000000000000000000000000000000000 PUSH1 0x0 MSTORE PUSH1 0x12 PUSH1 0x4 MSTORE PUSH1 0x24 PUSH1 0x0 REVERT JUMPDEST PUSH1 0x0 PUSH2 0x22F3 DUP3 PUSH2 0x191C JUMP JUMPDEST SWAP2 POP PUSH2 0x22FE DUP4 PUSH2 0x191C JUMP JUMPDEST SWAP3 POP DUP3 PUSH2 0x230E JUMPI PUSH2 0x230D PUSH2 0x22B9 JUMP JUMPDEST JUMPDEST DUP3 DUP3 DIV SWAP1 POP SWAP3 SWAP2 POP POP JUMP JUMPDEST PUSH1 0x0 PUSH2 0x2324 DUP3 PUSH2 0x191C JUMP JUMPDEST SWAP2 POP PUSH2 0x232F DUP4 PUSH2 0x191C JUMP JUMPDEST SWAP3 POP DUP3 DUP3 SUB SWAP1 POP DUP2 DUP2 GT ISZERO PUSH2 0x2347 JUMPI PUSH2 0x2346 PUSH2 0x1C25 JUMP JUMPDEST JUMPDEST SWAP3 SWAP2 POP POP JUMP JUMPDEST PUSH1 0x0 PUSH2 0x2358 DUP3 PUSH2 0x191C JUMP JUMPDEST SWAP2 POP PUSH2 0x2363 DUP4 PUSH2 0x191C JUMP JUMPDEST SWAP3 POP DUP3 PUSH2 0x2373 JUMPI PUSH2 0x2372 PUSH2 0x22B9 JUMP JUMPDEST JUMPDEST DUP3 DUP3 MOD SWAP1 POP SWAP3 SWAP2 POP POP JUMP JUMPDEST PUSH1 0x0 PUSH2 0x2389 DUP3 PUSH2 0x191C JUMP JUMPDEST SWAP2 POP PUSH2 0x2394 DUP4 PUSH2 0x191C JUMP JUMPDEST SWAP3 POP DUP3 DUP3 ADD SWAP1 POP DUP1 DUP3 GT ISZERO PUSH2 0x23AC JUMPI PUSH2 0x23AB PUSH2 0x1C25 JUMP JUMPDEST JUMPDEST SWAP3 SWAP2 POP POP JUMP JUMPDEST PUSH32 0x4E487B7100000000000000000000000000000000000000000000000000000000 PUSH1 0x0 MSTORE PUSH1 0x31 PUSH1 0x4 MSTORE PUSH1 0x24 PUSH1 0x0 REVERT INVALID LOG2 PUSH5 0x6970667358 0x22 SLT KECCAK256 0xA9 SLT LOG1 SSTORE PUSH16 0x470635140D345A6FE64AEF0282D109DA PUSH26 0x55EDA84F24466725540E64736F6C634300081100330000000000 "
		},
		"gasEstimates": {
			"creation": {
				"codeDepositCost": "1847800",
				"executionCost": "infinite",
				"totalCost": "infinite"
			},
			"external": {
				"approveAdmin(address)": "infinite",
				"approveTransfer(address,address,uint256)": "infinite",
				"getAdmins()": "infinite",
				"getTokenIds()": "infinite",
				"getTokenOwners()": "infinite",
				"isAdmin(address)": "infinite",
				"mint(address)": "infinite",
				"owner()": "2544",
				"renounceOwnership()": "30465",
				"revokeAdmin(address)": "infinite",
				"setApproveTransfer(address,bool)": "infinite",
				"setBaseURI(string)": "infinite",
				"supportsInterface(bytes4)": "infinite",
				"tokenURI(address,uint256)": "infinite",
				"transferOwnership(address)": "30832"
			}
		},
		"methodIdentifiers": {
			"approveAdmin(address)": "6d73e669",
			"approveTransfer(address,address,uint256)": "82580805",
			"getAdmins()": "31ae450b",
			"getTokenIds()": "67f718a9",
			"getTokenOwners()": "d1b02ba7",
			"isAdmin(address)": "24d7806c",
			"mint(address)": "6a627842",
			"owner()": "8da5cb5b",
			"renounceOwnership()": "715018a6",
			"revokeAdmin(address)": "2d345670",
			"setApproveTransfer(address,bool)": "1b95a227",
			"setBaseURI(string)": "55f804b3",
			"supportsInterface(bytes4)": "01ffc9a7",
			"tokenURI(address,uint256)": "e9dc6375",
			"transferOwnership(address)": "f2fde38b"
		}
	},
	"abi": [
		{
			"inputs": [
				{
					"internalType": "address",
					"name": "creator",
					"type": "address"
				}
			],
			"stateMutability": "nonpayable",
			"type": "constructor"
		},
		{
			"anonymous": false,
			"inputs": [
				{
					"indexed": true,
					"internalType": "address",
					"name": "account",
					"type": "address"
				},
				{
					"indexed": true,
					"internalType": "address",
					"name": "sender",
					"type": "address"
				}
			],
			"name": "AdminApproved",
			"type": "event"
		},
		{
			"anonymous": false,
			"inputs": [
				{
					"indexed": true,
					"internalType": "address",
					"name": "account",
					"type": "address"
				},
				{
					"indexed": true,
					"internalType": "address",
					"name": "sender",
					"type": "address"
				}
			],
			"name": "AdminRevoked",
			"type": "event"
		},
		{
			"anonymous": false,
			"inputs": [
				{
					"indexed": true,
					"internalType": "address",
					"name": "previousOwner",
					"type": "address"
				},
				{
					"indexed": true,
					"internalType": "address",
					"name": "newOwner",
					"type": "address"
				}
			],
			"name": "OwnershipTransferred",
			"type": "event"
		},
		{
			"inputs": [
				{
					"internalType": "address",
					"name": "admin",
					"type": "address"
				}
			],
			"name": "approveAdmin",
			"outputs": [],
			"stateMutability": "nonpayable",
			"type": "function"
		},
		{
			"inputs": [
				{
					"internalType": "address",
					"name": "from",
					"type": "address"
				},
				{
					"internalType": "address",
					"name": "to",
					"type": "address"
				},
				{
					"internalType": "uint256",
					"name": "tokenId",
					"type": "uint256"
				}
			],
			"name": "approveTransfer",
			"outputs": [
				{
					"internalType": "bool",
					"name": "",
					"type": "bool"
				}
			],
			"stateMutability": "nonpayable",
			"type": "function"
		},
		{
			"inputs": [],
			"name": "getAdmins",
			"outputs": [
				{
					"internalType": "address[]",
					"name": "admins",
					"type": "address[]"
				}
			],
			"stateMutability": "view",
			"type": "function"
		},
		{
			"inputs": [],
			"name": "getTokenIds",
			"outputs": [
				{
					"internalType": "uint256[]",
					"name": "",
					"type": "uint256[]"
				}
			],
			"stateMutability": "view",
			"type": "function"
		},
		{
			"inputs": [],
			"name": "getTokenOwners",
			"outputs": [
				{
					"internalType": "address[]",
					"name": "",
					"type": "address[]"
				}
			],
			"stateMutability": "view",
			"type": "function"
		},
		{
			"inputs": [
				{
					"internalType": "address",
					"name": "admin",
					"type": "address"
				}
			],
			"name": "isAdmin",
			"outputs": [
				{
					"internalType": "bool",
					"name": "",
					"type": "bool"
				}
			],
			"stateMutability": "view",
			"type": "function"
		},
		{
			"inputs": [
				{
					"internalType": "address",
					"name": "sender",
					"type": "address"
				}
			],
			"name": "mint",
			"outputs": [],
			"stateMutability": "nonpayable",
			"type": "function"
		},
		{
			"inputs": [],
			"name": "owner",
			"outputs": [
				{
					"internalType": "address",
					"name": "",
					"type": "address"
				}
			],
			"stateMutability": "view",
			"type": "function"
		},
		{
			"inputs": [],
			"name": "renounceOwnership",
			"outputs": [],
			"stateMutability": "nonpayable",
			"type": "function"
		},
		{
			"inputs": [
				{
					"internalType": "address",
					"name": "admin",
					"type": "address"
				}
			],
			"name": "revokeAdmin",
			"outputs": [],
			"stateMutability": "nonpayable",
			"type": "function"
		},
		{
			"inputs": [
				{
					"internalType": "address",
					"name": "creator",
					"type": "address"
				},
				{
					"internalType": "bool",
					"name": "enabled",
					"type": "bool"
				}
			],
			"name": "setApproveTransfer",
			"outputs": [],
			"stateMutability": "nonpayable",
			"type": "function"
		},
		{
			"inputs": [
				{
					"internalType": "string",
					"name": "baseURI",
					"type": "string"
				}
			],
			"name": "setBaseURI",
			"outputs": [],
			"stateMutability": "nonpayable",
			"type": "function"
		},
		{
			"inputs": [
				{
					"internalType": "bytes4",
					"name": "interfaceId",
					"type": "bytes4"
				}
			],
			"name": "supportsInterface",
			"outputs": [
				{
					"internalType": "bool",
					"name": "",
					"type": "bool"
				}
			],
			"stateMutability": "view",
			"type": "function"
		},
		{
			"inputs": [
				{
					"internalType": "address",
					"name": "creator",
					"type": "address"
				},
				{
					"internalType": "uint256",
					"name": "tokenId",
					"type": "uint256"
				}
			],
			"name": "tokenURI",
			"outputs": [
				{
					"internalType": "string",
					"name": "",
					"type": "string"
				}
			],
			"stateMutability": "view",
			"type": "function"
		},
		{
			"inputs": [
				{
					"internalType": "address",
					"name": "newOwner",
					"type": "address"
				}
			],
			"name": "transferOwnership",
			"outputs": [],
			"stateMutability": "nonpayable",
			"type": "function"
		}
	]
}