{
  "_format": "hh-sol-artifact-1",
  "contractName": "TUTORIAL3",
  "sourceName": "contracts/tutorial3.sol",
  "abi": [
    {
      "inputs": [],
      "stateMutability": "nonpayable",
      "type": "constructor"
    },
    {
      "anonymous": false,
      "inputs": [
        {
          "indexed": true,
          "internalType": "address",
          "name": "account",
          "type": "address"
        },
        {
          "indexed": true,
          "internalType": "address",
          "name": "sender",
          "type": "address"
        }
      ],
      "name": "AdminApproved",
      "type": "event"
    },
    {
      "anonymous": false,
      "inputs": [
        {
          "indexed": true,
          "internalType": "address",
          "name": "account",
          "type": "address"
        },
        {
          "indexed": true,
          "internalType": "address",
          "name": "sender",
          "type": "address"
        }
      ],
      "name": "AdminRevoked",
      "type": "event"
    },
    {
      "anonymous": false,
      "inputs": [
        {
          "indexed": true,
          "internalType": "address",
          "name": "owner",
          "type": "address"
        },
        {
          "indexed": true,
          "internalType": "address",
          "name": "approved",
          "type": "address"
        },
        {
          "indexed": true,
          "internalType": "uint256",
          "name": "tokenId",
          "type": "uint256"
        }
      ],
      "name": "Approval",
      "type": "event"
    },
    {
      "anonymous": false,
      "inputs": [
        {
          "indexed": true,
          "internalType": "address",
          "name": "owner",
          "type": "address"
        },
        {
          "indexed": true,
          "internalType": "address",
          "name": "operator",
          "type": "address"
        },
        {
          "indexed": false,
          "internalType": "bool",
          "name": "approved",
          "type": "bool"
        }
      ],
      "name": "ApprovalForAll",
      "type": "event"
    },
    {
      "anonymous": false,
      "inputs": [
        {
          "indexed": false,
          "internalType": "address payable[]",
          "name": "receivers",
          "type": "address[]"
        },
        {
          "indexed": false,
          "internalType": "uint256[]",
          "name": "basisPoints",
          "type": "uint256[]"
        }
      ],
      "name": "DefaultRoyaltiesUpdated",
      "type": "event"
    },
    {
      "anonymous": false,
      "inputs": [
        {
          "indexed": true,
          "internalType": "address",
          "name": "extension",
          "type": "address"
        },
        {
          "indexed": false,
          "internalType": "bool",
          "name": "enabled",
          "type": "bool"
        }
      ],
      "name": "ExtensionApproveTransferUpdated",
      "type": "event"
    },
    {
      "anonymous": false,
      "inputs": [
        {
          "indexed": true,
          "internalType": "address",
          "name": "extension",
          "type": "address"
        },
        {
          "indexed": true,
          "internalType": "address",
          "name": "sender",
          "type": "address"
        }
      ],
      "name": "ExtensionBlacklisted",
      "type": "event"
    },
    {
      "anonymous": false,
      "inputs": [
        {
          "indexed": true,
          "internalType": "address",
          "name": "extension",
          "type": "address"
        },
        {
          "indexed": true,
          "internalType": "address",
          "name": "sender",
          "type": "address"
        }
      ],
      "name": "ExtensionRegistered",
      "type": "event"
    },
    {
      "anonymous": false,
      "inputs": [
        {
          "indexed": true,
          "internalType": "address",
          "name": "extension",
          "type": "address"
        },
        {
          "indexed": false,
          "internalType": "address payable[]",
          "name": "receivers",
          "type": "address[]"
        },
        {
          "indexed": false,
          "internalType": "uint256[]",
          "name": "basisPoints",
          "type": "uint256[]"
        }
      ],
      "name": "ExtensionRoyaltiesUpdated",
      "type": "event"
    },
    {
      "anonymous": false,
      "inputs": [
        {
          "indexed": true,
          "internalType": "address",
          "name": "extension",
          "type": "address"
        },
        {
          "indexed": true,
          "internalType": "address",
          "name": "sender",
          "type": "address"
        }
      ],
      "name": "ExtensionUnregistered",
      "type": "event"
    },
    {
      "anonymous": false,
      "inputs": [
        {
          "indexed": true,
          "internalType": "address",
          "name": "extension",
          "type": "address"
        },
        {
          "indexed": true,
          "internalType": "address",
          "name": "permissions",
          "type": "address"
        },
        {
          "indexed": true,
          "internalType": "address",
          "name": "sender",
          "type": "address"
        }
      ],
      "name": "MintPermissionsUpdated",
      "type": "event"
    },
    {
      "anonymous": false,
      "inputs": [
        {
          "indexed": true,
          "internalType": "address",
          "name": "previousOwner",
          "type": "address"
        },
        {
          "indexed": true,
          "internalType": "address",
          "name": "newOwner",
          "type": "address"
        }
      ],
      "name": "OwnershipTransferred",
      "type": "event"
    },
    {
      "anonymous": false,
      "inputs": [
        {
          "indexed": true,
          "internalType": "uint256",
          "name": "tokenId",
          "type": "uint256"
        },
        {
          "indexed": false,
          "internalType": "address payable[]",
          "name": "receivers",
          "type": "address[]"
        },
        {
          "indexed": false,
          "internalType": "uint256[]",
          "name": "basisPoints",
          "type": "uint256[]"
        }
      ],
      "name": "RoyaltiesUpdated",
      "type": "event"
    },
    {
      "anonymous": false,
      "inputs": [
        {
          "indexed": true,
          "internalType": "address",
          "name": "from",
          "type": "address"
        },
        {
          "indexed": true,
          "internalType": "address",
          "name": "to",
          "type": "address"
        },
        {
          "indexed": true,
          "internalType": "uint256",
          "name": "tokenId",
          "type": "uint256"
        }
      ],
      "name": "Transfer",
      "type": "event"
    },
    {
      "inputs": [
        {
          "internalType": "address",
          "name": "to",
          "type": "address"
        },
        {
          "internalType": "uint256",
          "name": "tokenId",
          "type": "uint256"
        }
      ],
      "name": "approve",
      "outputs": [],
      "stateMutability": "nonpayable",
      "type": "function"
    },
    {
      "inputs": [
        {
          "internalType": "address",
          "name": "admin",
          "type": "address"
        }
      ],
      "name": "approveAdmin",
      "outputs": [],
      "stateMutability": "nonpayable",
      "type": "function"
    },
    {
      "inputs": [
        {
          "internalType": "address",
          "name": "owner",
          "type": "address"
        }
      ],
      "name": "balanceOf",
      "outputs": [
        {
          "internalType": "uint256",
          "name": "",
          "type": "uint256"
        }
      ],
      "stateMutability": "view",
      "type": "function"
    },
    {
      "inputs": [
        {
          "internalType": "address",
          "name": "extension",
          "type": "address"
        }
      ],
      "name": "blacklistExtension",
      "outputs": [],
      "stateMutability": "nonpayable",
      "type": "function"
    },
    {
      "inputs": [
        {
          "internalType": "uint256",
          "name": "tokenId",
          "type": "uint256"
        }
      ],
      "name": "burn",
      "outputs": [],
      "stateMutability": "nonpayable",
      "type": "function"
    },
    {
      "inputs": [],
      "name": "getAdmins",
      "outputs": [
        {
          "internalType": "address[]",
          "name": "admins",
          "type": "address[]"
        }
      ],
      "stateMutability": "view",
      "type": "function"
    },
    {
      "inputs": [
        {
          "internalType": "uint256",
          "name": "tokenId",
          "type": "uint256"
        }
      ],
      "name": "getApproved",
      "outputs": [
        {
          "internalType": "address",
          "name": "",
          "type": "address"
        }
      ],
      "stateMutability": "view",
      "type": "function"
    },
    {
      "inputs": [],
      "name": "getExtensions",
      "outputs": [
        {
          "internalType": "address[]",
          "name": "extensions",
          "type": "address[]"
        }
      ],
      "stateMutability": "view",
      "type": "function"
    },
    {
      "inputs": [
        {
          "internalType": "uint256",
          "name": "tokenId",
          "type": "uint256"
        }
      ],
      "name": "getFeeBps",
      "outputs": [
        {
          "internalType": "uint256[]",
          "name": "",
          "type": "uint256[]"
        }
      ],
      "stateMutability": "view",
      "type": "function"
    },
    {
      "inputs": [
        {
          "internalType": "uint256",
          "name": "tokenId",
          "type": "uint256"
        }
      ],
      "name": "getFeeRecipients",
      "outputs": [
        {
          "internalType": "address payable[]",
          "name": "",
          "type": "address[]"
        }
      ],
      "stateMutability": "view",
      "type": "function"
    },
    {
      "inputs": [
        {
          "internalType": "uint256",
          "name": "tokenId",
          "type": "uint256"
        }
      ],
      "name": "getFees",
      "outputs": [
        {
          "internalType": "address payable[]",
          "name": "",
          "type": "address[]"
        },
        {
          "internalType": "uint256[]",
          "name": "",
          "type": "uint256[]"
        }
      ],
      "stateMutability": "view",
      "type": "function"
    },
    {
      "inputs": [
        {
          "internalType": "uint256",
          "name": "tokenId",
          "type": "uint256"
        }
      ],
      "name": "getRoyalties",
      "outputs": [
        {
          "internalType": "address payable[]",
          "name": "",
          "type": "address[]"
        },
        {
          "internalType": "uint256[]",
          "name": "",
          "type": "uint256[]"
        }
      ],
      "stateMutability": "view",
      "type": "function"
    },
    {
      "inputs": [
        {
          "internalType": "address",
          "name": "admin",
          "type": "address"
        }
      ],
      "name": "isAdmin",
      "outputs": [
        {
          "internalType": "bool",
          "name": "",
          "type": "bool"
        }
      ],
      "stateMutability": "view",
      "type": "function"
    },
    {
      "inputs": [
        {
          "internalType": "address",
          "name": "owner",
          "type": "address"
        },
        {
          "internalType": "address",
          "name": "operator",
          "type": "address"
        }
      ],
      "name": "isApprovedForAll",
      "outputs": [
        {
          "internalType": "bool",
          "name": "",
          "type": "bool"
        }
      ],
      "stateMutability": "view",
      "type": "function"
    },
    {
      "inputs": [
        {
          "internalType": "address",
          "name": "to",
          "type": "address"
        }
      ],
      "name": "mintBase",
      "outputs": [
        {
          "internalType": "uint256",
          "name": "",
          "type": "uint256"
        }
      ],
      "stateMutability": "nonpayable",
      "type": "function"
    },
    {
      "inputs": [
        {
          "internalType": "address",
          "name": "to",
          "type": "address"
        },
        {
          "internalType": "string",
          "name": "uri",
          "type": "string"
        }
      ],
      "name": "mintBase",
      "outputs": [
        {
          "internalType": "uint256",
          "name": "",
          "type": "uint256"
        }
      ],
      "stateMutability": "nonpayable",
      "type": "function"
    },
    {
      "inputs": [
        {
          "internalType": "address",
          "name": "to",
          "type": "address"
        },
        {
          "internalType": "string[]",
          "name": "uris",
          "type": "string[]"
        }
      ],
      "name": "mintBaseBatch",
      "outputs": [
        {
          "internalType": "uint256[]",
          "name": "tokenIds",
          "type": "uint256[]"
        }
      ],
      "stateMutability": "nonpayable",
      "type": "function"
    },
    {
      "inputs": [
        {
          "internalType": "address",
          "name": "to",
          "type": "address"
        },
        {
          "internalType": "uint16",
          "name": "count",
          "type": "uint16"
        }
      ],
      "name": "mintBaseBatch",
      "outputs": [
        {
          "internalType": "uint256[]",
          "name": "tokenIds",
          "type": "uint256[]"
        }
      ],
      "stateMutability": "nonpayable",
      "type": "function"
    },
    {
      "inputs": [
        {
          "internalType": "address",
          "name": "to",
          "type": "address"
        }
      ],
      "name": "mintExtension",
      "outputs": [
        {
          "internalType": "uint256",
          "name": "",
          "type": "uint256"
        }
      ],
      "stateMutability": "nonpayable",
      "type": "function"
    },
    {
      "inputs": [
        {
          "internalType": "address",
          "name": "to",
          "type": "address"
        },
        {
          "internalType": "string",
          "name": "uri",
          "type": "string"
        }
      ],
      "name": "mintExtension",
      "outputs": [
        {
          "internalType": "uint256",
          "name": "",
          "type": "uint256"
        }
      ],
      "stateMutability": "nonpayable",
      "type": "function"
    },
    {
      "inputs": [
        {
          "internalType": "address",
          "name": "to",
          "type": "address"
        },
        {
          "internalType": "string[]",
          "name": "uris",
          "type": "string[]"
        }
      ],
      "name": "mintExtensionBatch",
      "outputs": [
        {
          "internalType": "uint256[]",
          "name": "tokenIds",
          "type": "uint256[]"
        }
      ],
      "stateMutability": "nonpayable",
      "type": "function"
    },
    {
      "inputs": [
        {
          "internalType": "address",
          "name": "to",
          "type": "address"
        },
        {
          "internalType": "uint16",
          "name": "count",
          "type": "uint16"
        }
      ],
      "name": "mintExtensionBatch",
      "outputs": [
        {
          "internalType": "uint256[]",
          "name": "tokenIds",
          "type": "uint256[]"
        }
      ],
      "stateMutability": "nonpayable",
      "type": "function"
    },
    {
      "inputs": [],
      "name": "name",
      "outputs": [
        {
          "internalType": "string",
          "name": "",
          "type": "string"
        }
      ],
      "stateMutability": "view",
      "type": "function"
    },
    {
      "inputs": [],
      "name": "owner",
      "outputs": [
        {
          "internalType": "address",
          "name": "",
          "type": "address"
        }
      ],
      "stateMutability": "view",
      "type": "function"
    },
    {
      "inputs": [
        {
          "internalType": "uint256",
          "name": "tokenId",
          "type": "uint256"
        }
      ],
      "name": "ownerOf",
      "outputs": [
        {
          "internalType": "address",
          "name": "",
          "type": "address"
        }
      ],
      "stateMutability": "view",
      "type": "function"
    },
    {
      "inputs": [
        {
          "internalType": "address",
          "name": "extension",
          "type": "address"
        },
        {
          "internalType": "string",
          "name": "baseURI",
          "type": "string"
        }
      ],
      "name": "registerExtension",
      "outputs": [],
      "stateMutability": "nonpayable",
      "type": "function"
    },
    {
      "inputs": [
        {
          "internalType": "address",
          "name": "extension",
          "type": "address"
        },
        {
          "internalType": "string",
          "name": "baseURI",
          "type": "string"
        },
        {
          "internalType": "bool",
          "name": "baseURIIdentical",
          "type": "bool"
        }
      ],
      "name": "registerExtension",
      "outputs": [],
      "stateMutability": "nonpayable",
      "type": "function"
    },
    {
      "inputs": [],
      "name": "renounceOwnership",
      "outputs": [],
      "stateMutability": "nonpayable",
      "type": "function"
    },
    {
      "inputs": [
        {
          "internalType": "address",
          "name": "admin",
          "type": "address"
        }
      ],
      "name": "revokeAdmin",
      "outputs": [],
      "stateMutability": "nonpayable",
      "type": "function"
    },
    {
      "inputs": [
        {
          "internalType": "uint256",
          "name": "tokenId",
          "type": "uint256"
        },
        {
          "internalType": "uint256",
          "name": "value",
          "type": "uint256"
        }
      ],
      "name": "royaltyInfo",
      "outputs": [
        {
          "internalType": "address",
          "name": "",
          "type": "address"
        },
        {
          "internalType": "uint256",
          "name": "",
          "type": "uint256"
        }
      ],
      "stateMutability": "view",
      "type": "function"
    },
    {
      "inputs": [
        {
          "internalType": "address",
          "name": "from",
          "type": "address"
        },
        {
          "internalType": "address",
          "name": "to",
          "type": "address"
        },
        {
          "internalType": "uint256",
          "name": "tokenId",
          "type": "uint256"
        }
      ],
      "name": "safeTransferFrom",
      "outputs": [],
      "stateMutability": "nonpayable",
      "type": "function"
    },
    {
      "inputs": [
        {
          "internalType": "address",
          "name": "from",
          "type": "address"
        },
        {
          "internalType": "address",
          "name": "to",
          "type": "address"
        },
        {
          "internalType": "uint256",
          "name": "tokenId",
          "type": "uint256"
        },
        {
          "internalType": "bytes",
          "name": "data",
          "type": "bytes"
        }
      ],
      "name": "safeTransferFrom",
      "outputs": [],
      "stateMutability": "nonpayable",
      "type": "function"
    },
    {
      "inputs": [
        {
          "internalType": "address",
          "name": "operator",
          "type": "address"
        },
        {
          "internalType": "bool",
          "name": "approved",
          "type": "bool"
        }
      ],
      "name": "setApprovalForAll",
      "outputs": [],
      "stateMutability": "nonpayable",
      "type": "function"
    },
    {
      "inputs": [
        {
          "internalType": "bool",
          "name": "enabled",
          "type": "bool"
        }
      ],
      "name": "setApproveTransferExtension",
      "outputs": [],
      "stateMutability": "nonpayable",
      "type": "function"
    },
    {
      "inputs": [
        {
          "internalType": "string",
          "name": "uri",
          "type": "string"
        }
      ],
      "name": "setBaseTokenURI",
      "outputs": [],
      "stateMutability": "nonpayable",
      "type": "function"
    },
    {
      "inputs": [
        {
          "internalType": "string",
          "name": "uri",
          "type": "string"
        }
      ],
      "name": "setBaseTokenURIExtension",
      "outputs": [],
      "stateMutability": "nonpayable",
      "type": "function"
    },
    {
      "inputs": [
        {
          "internalType": "string",
          "name": "uri",
          "type": "string"
        },
        {
          "internalType": "bool",
          "name": "identical",
          "type": "bool"
        }
      ],
      "name": "setBaseTokenURIExtension",
      "outputs": [],
      "stateMutability": "nonpayable",
      "type": "function"
    },
    {
      "inputs": [
        {
          "internalType": "address",
          "name": "extension",
          "type": "address"
        },
        {
          "internalType": "address",
          "name": "permissions",
          "type": "address"
        }
      ],
      "name": "setMintPermissions",
      "outputs": [],
      "stateMutability": "nonpayable",
      "type": "function"
    },
    {
      "inputs": [
        {
          "internalType": "uint256",
          "name": "tokenId",
          "type": "uint256"
        },
        {
          "internalType": "address payable[]",
          "name": "receivers",
          "type": "address[]"
        },
        {
          "internalType": "uint256[]",
          "name": "basisPoints",
          "type": "uint256[]"
        }
      ],
      "name": "setRoyalties",
      "outputs": [],
      "stateMutability": "nonpayable",
      "type": "function"
    },
    {
      "inputs": [
        {
          "internalType": "address payable[]",
          "name": "receivers",
          "type": "address[]"
        },
        {
          "internalType": "uint256[]",
          "name": "basisPoints",
          "type": "uint256[]"
        }
      ],
      "name": "setRoyalties",
      "outputs": [],
      "stateMutability": "nonpayable",
      "type": "function"
    },
    {
      "inputs": [
        {
          "internalType": "address",
          "name": "extension",
          "type": "address"
        },
        {
          "internalType": "address payable[]",
          "name": "receivers",
          "type": "address[]"
        },
        {
          "internalType": "uint256[]",
          "name": "basisPoints",
          "type": "uint256[]"
        }
      ],
      "name": "setRoyaltiesExtension",
      "outputs": [],
      "stateMutability": "nonpayable",
      "type": "function"
    },
    {
      "inputs": [
        {
          "internalType": "uint256",
          "name": "tokenId",
          "type": "uint256"
        },
        {
          "internalType": "string",
          "name": "uri",
          "type": "string"
        }
      ],
      "name": "setTokenURI",
      "outputs": [],
      "stateMutability": "nonpayable",
      "type": "function"
    },
    {
      "inputs": [
        {
          "internalType": "uint256[]",
          "name": "tokenIds",
          "type": "uint256[]"
        },
        {
          "internalType": "string[]",
          "name": "uris",
          "type": "string[]"
        }
      ],
      "name": "setTokenURI",
      "outputs": [],
      "stateMutability": "nonpayable",
      "type": "function"
    },
    {
      "inputs": [
        {
          "internalType": "uint256[]",
          "name": "tokenIds",
          "type": "uint256[]"
        },
        {
          "internalType": "string[]",
          "name": "uris",
          "type": "string[]"
        }
      ],
      "name": "setTokenURIExtension",
      "outputs": [],
      "stateMutability": "nonpayable",
      "type": "function"
    },
    {
      "inputs": [
        {
          "internalType": "uint256",
          "name": "tokenId",
          "type": "uint256"
        },
        {
          "internalType": "string",
          "name": "uri",
          "type": "string"
        }
      ],
      "name": "setTokenURIExtension",
      "outputs": [],
      "stateMutability": "nonpayable",
      "type": "function"
    },
    {
      "inputs": [
        {
          "internalType": "string",
          "name": "prefix",
          "type": "string"
        }
      ],
      "name": "setTokenURIPrefix",
      "outputs": [],
      "stateMutability": "nonpayable",
      "type": "function"
    },
    {
      "inputs": [
        {
          "internalType": "string",
          "name": "prefix",
          "type": "string"
        }
      ],
      "name": "setTokenURIPrefixExtension",
      "outputs": [],
      "stateMutability": "nonpayable",
      "type": "function"
    },
    {
      "inputs": [
        {
          "internalType": "bytes4",
          "name": "interfaceId",
          "type": "bytes4"
        }
      ],
      "name": "supportsInterface",
      "outputs": [
        {
          "internalType": "bool",
          "name": "",
          "type": "bool"
        }
      ],
      "stateMutability": "view",
      "type": "function"
    },
    {
      "inputs": [],
      "name": "symbol",
      "outputs": [
        {
          "internalType": "string",
          "name": "",
          "type": "string"
        }
      ],
      "stateMutability": "view",
      "type": "function"
    },
    {
      "inputs": [
        {
          "internalType": "uint256",
          "name": "tokenId",
          "type": "uint256"
        }
      ],
      "name": "tokenExtension",
      "outputs": [
        {
          "internalType": "address",
          "name": "",
          "type": "address"
        }
      ],
      "stateMutability": "view",
      "type": "function"
    },
    {
      "inputs": [
        {
          "internalType": "uint256",
          "name": "tokenId",
          "type": "uint256"
        }
      ],
      "name": "tokenURI",
      "outputs": [
        {
          "internalType": "string",
          "name": "",
          "type": "string"
        }
      ],
      "stateMutability": "view",
      "type": "function"
    },
    {
      "inputs": [
        {
          "internalType": "address",
          "name": "from",
          "type": "address"
        },
        {
          "internalType": "address",
          "name": "to",
          "type": "address"
        },
        {
          "internalType": "uint256",
          "name": "tokenId",
          "type": "uint256"
        }
      ],
      "name": "transferFrom",
      "outputs": [],
      "stateMutability": "nonpayable",
      "type": "function"
    },
    {
      "inputs": [
        {
          "internalType": "address",
          "name": "newOwner",
          "type": "address"
        }
      ],
      "name": "transferOwnership",
      "outputs": [],
      "stateMutability": "nonpayable",
      "type": "function"
    },
    {
      "inputs": [
        {
          "internalType": "address",
          "name": "extension",
          "type": "address"
        }
      ],
      "name": "unregisterExtension",
      "outputs": [],
      "stateMutability": "nonpayable",
      "type": "function"
    }
  ],
  "bytecode": "0x60806040526000600a553480156200001657600080fd5b506040518060400160405280600981526020017f5475746f7269616c3300000000000000000000000000000000000000000000008152506040518060400160405280600981526020017f5455544f5249414c3300000000000000000000000000000000000000000000008152508181620000a562000099620000e860201b60201c565b620000f060201b60201c565b600180819055508160049080519060200190620000c4929190620001b4565b508060059080519060200190620000dd929190620001b4565b5050505050620002c9565b600033905090565b60008060009054906101000a900473ffffffffffffffffffffffffffffffffffffffff169050816000806101000a81548173ffffffffffffffffffffffffffffffffffffffff021916908373ffffffffffffffffffffffffffffffffffffffff1602179055508173ffffffffffffffffffffffffffffffffffffffff168173ffffffffffffffffffffffffffffffffffffffff167f8be0079c531659141344cd1fd0a4f28419497f9722a3daafe3b4186f6b6457e060405160405180910390a35050565b828054620001c29062000264565b90600052602060002090601f016020900481019282620001e6576000855562000232565b82601f106200020157805160ff191683800117855562000232565b8280016001018555821562000232579182015b828111156200023157825182559160200191906001019062000214565b5b50905062000241919062000245565b5090565b5b808211156200026057600081600090555060010162000246565b5090565b600060028204905060018216806200027d57607f821691505b602082108114156200029457620002936200029a565b5b50919050565b7f4e487b7100000000000000000000000000000000000000000000000000000000600052602260045260246000fd5b618ffa80620002d96000396000f3fe608060405234801561001057600080fd5b50600436106103425760003560e01c806370a08231116101b8578063ad2d0ddd11610104578063d5a06d4c116100a2578063e985e9c51161007c578063e985e9c514610a36578063f0cdc49914610a66578063f2fde38b14610a82578063fe2e1f5814610a9e57610342565b8063d5a06d4c146109b9578063e00aab4b146109ea578063e92a89f614610a1a57610342565b8063b9c4d9fb116100de578063b9c4d9fb1461090c578063bb3bafd61461093c578063c87b56dd1461096d578063ce8aee9d1461099d57610342565b8063ad2d0ddd146108a4578063b0fe87c9146108d4578063b88d4fde146108f057610342565b806383b7db631161017157806399e0dd7c1161014b57806399e0dd7c14610834578063a22cb46514610850578063aafb2d441461086c578063ac0c8cfa1461088857610342565b806383b7db63146107da5780638da5cb5b146107f857806395d89b411461081657610342565b806370a08231146106f4578063715018a61461072457806372ff03d31461072e5780637884af441461075e5780637aa15f161461078e57806382dcc0c8146107be57610342565b80632d345670116102925780633f0f37f61161023057806361e5bc6b1161020a57806361e5bc6b146106705780636352211e1461068c57806366d1e9d0146106bc5780636d73e669146106d857610342565b80633f0f37f61461061c57806342842e0e1461063857806342966c681461065457610342565b806331ae450b1161026c57806331ae450b14610596578063332dd1ae146105b457806338e52e78146105d05780633e6134b81461060057610342565b80632d3456701461054257806330176e131461055e5780633071a0f91461057a57610342565b8063162094c4116102ff57806323b872dd116102d957806323b872dd1461049557806324d7806c146104b15780632928ca58146104e15780632a55205a1461051157610342565b8063162094c41461042d57806320e4afe214610449578063239be3171461046557610342565b806301ffc9a71461034757806302e7afb71461037757806306fdde0314610393578063081812fc146103b1578063095ea7b3146103e15780630ebd4c7f146103fd575b600080fd5b610361600480360381019061035c9190617115565b610ace565b60405161036e9190617d91565b60405180910390f35b610391600480360381019061038c9190616bf2565b610b00565b005b61039b610b9c565b6040516103a89190617dc7565b60405180910390f35b6103cb60048036038101906103c69190617265565b610c2e565b6040516103d89190617bf2565b60405180910390f35b6103fb60048036038101906103f69190616f7e565b610c74565b005b61041760048036038101906104129190617265565b610d8c565b6040516104249190617d6f565b60405180910390f35b61044760048036038101906104429190617327565b610e35565b005b610463600480360381019061045e9190617292565b610ed5565b005b61047f600480360381019061047a9190617265565b610fc1565b60405161048c9190617bf2565b60405180910390f35b6104af60048036038101906104aa9190616c5f565b61101b565b005b6104cb60048036038101906104c69190616bf2565b61107b565b6040516104d89190617d91565b60405180910390f35b6104fb60048036038101906104f69190616bf2565b6110d5565b60405161050891906181c9565b60405180910390f35b61052b60048036038101906105269190617387565b61119f565b604051610539929190617c90565b60405180910390f35b61055c60048036038101906105579190616bf2565b6111ff565b005b6105786004803603810190610573919061716f565b611293565b005b610594600480360381019061058f9190616e6a565b611374565b005b61059e61146c565b6040516105ab9190617cb9565b60405180910390f35b6105ce60048036038101906105c99190616fbe565b61154e565b005b6105ea60048036038101906105e59190616dca565b6115f1565b6040516105f79190617d6f565b60405180910390f35b61061a6004803603810190610615919061716f565b6117a2565b005b61063660048036038101906106319190616eca565b611805565b005b610652600480360381019061064d9190616c5f565b6118fd565b005b61066e60048036038101906106699190617265565b61191d565b005b61068a6004803603810190610685919061703f565b6119df565b005b6106a660048036038101906106a19190617265565b611ae5565b6040516106b39190617bf2565b60405180910390f35b6106d660048036038101906106d1919061716f565b611b97565b005b6106f260048036038101906106ed9190616bf2565b611bf8565b005b61070e60048036038101906107099190616bf2565b611c8b565b60405161071b91906181c9565b60405180910390f35b61072c611d43565b005b61074860048036038101906107439190616bf2565b611d57565b60405161075591906181c9565b60405180910390f35b61077860048036038101906107739190616e6a565b611e5e565b60405161078591906181c9565b60405180910390f35b6107a860048036038101906107a39190616dca565b611f9c565b6040516107b59190617d6f565b60405180910390f35b6107d860048036038101906107d391906171bc565b61218a565b005b6107e26121ed565b6040516107ef9190617cb9565b60405180910390f35b6108006122cf565b60405161080d9190617bf2565b60405180910390f35b61081e6122f8565b60405161082b9190617dc7565b60405180910390f35b61084e6004803603810190610849919061716f565b61238a565b005b61086a60048036038101906108659190616e2a565b612428565b005b6108866004803603810190610881919061703f565b61243e565b005b6108a2600480360381019061089d91906170bb565b612581565b005b6108be60048036038101906108b99190616f3e565b612746565b6040516108cb9190617d6f565b60405180910390f35b6108ee60048036038101906108e99190616d35565b6128e5565b005b61090a60048036038101906109059190616cb2565b612989565b005b61092660048036038101906109219190617265565b6129eb565b6040516109339190617d16565b60405180910390f35b61095660048036038101906109519190617265565b612aca565b604051610964929190617d38565b60405180910390f35b61098760048036038101906109829190617265565b612c01565b6040516109949190617dc7565b60405180910390f35b6109b760048036038101906109b29190616bf2565b612c5b565b005b6109d360048036038101906109ce9190617265565b612cf7565b6040516109e1929190617d38565b60405180910390f35b610a0460048036038101906109ff9190616f3e565b612e2e565b604051610a119190617d6f565b60405180910390f35b610a346004803603810190610a2f9190617327565b612f90565b005b610a506004803603810190610a4b9190616c1f565b612ff3565b604051610a5d9190617d91565b60405180910390f35b610a806004803603810190610a7b9190616c1f565b613087565b005b610a9c6004803603810190610a979190616bf2565b613125565b005b610ab86004803603810190610ab39190616e6a565b6131a9565b604051610ac591906181c9565b60405180910390f35b6000610ad9826132aa565b80610ae95750610ae882613324565b5b80610af95750610af882613406565b5b9050919050565b3373ffffffffffffffffffffffffffffffffffffffff16610b1f6122cf565b73ffffffffffffffffffffffffffffffffffffffff161480610b515750610b5033600261348090919063ffffffff16565b5b610b90576040517f08c379a0000000000000000000000000000000000000000000000000000000008152600401610b8790618129565b60405180910390fd5b610b99816134b0565b50565b606060048054610bab90618616565b80601f0160208091040260200160405190810160405280929190818152602001828054610bd790618616565b8015610c245780601f10610bf957610100808354040283529160200191610c24565b820191906000526020600020905b815481529060010190602001808311610c0757829003601f168201915b5050505050905090565b6000610c3982613633565b6008600083815260200190815260200160002060009054906101000a900473ffffffffffffffffffffffffffffffffffffffff169050919050565b6000610c7f82611ae5565b90508073ffffffffffffffffffffffffffffffffffffffff168373ffffffffffffffffffffffffffffffffffffffff161415610cf0576040517f08c379a0000000000000000000000000000000000000000000000000000000008152600401610ce7906180c9565b60405180910390fd5b8073ffffffffffffffffffffffffffffffffffffffff16610d0f61367e565b73ffffffffffffffffffffffffffffffffffffffff161480610d3e5750610d3d81610d3861367e565b612ff3565b5b610d7d576040517f08c379a0000000000000000000000000000000000000000000000000000000008152600401610d7490617fe9565b60405180910390fd5b610d878383613686565b505050565b6060610d978261373f565b610dd6576040517f08c379a0000000000000000000000000000000000000000000000000000000008152600401610dcd90617fa9565b60405180910390fd5b610ddf826137ab565b805480602002602001604051908101604052809291908181526020018280548015610e2957602002820191906000526020600020905b815481526020019060010190808311610e15575b50505050509050919050565b3373ffffffffffffffffffffffffffffffffffffffff16610e546122cf565b73ffffffffffffffffffffffffffffffffffffffff161480610e865750610e8533600261348090919063ffffffff16565b5b610ec5576040517f08c379a0000000000000000000000000000000000000000000000000000000008152600401610ebc90618129565b60405180910390fd5b610ed0838383613923565b505050565b3373ffffffffffffffffffffffffffffffffffffffff16610ef46122cf565b73ffffffffffffffffffffffffffffffffffffffff161480610f265750610f2533600261348090919063ffffffff16565b5b610f65576040517f08c379a0000000000000000000000000000000000000000000000000000000008152600401610f5c90618129565b60405180910390fd5b610f6e8561373f565b610fad576040517f08c379a0000000000000000000000000000000000000000000000000000000008152600401610fa490617fa9565b60405180910390fd5b610fba85858585856139ec565b5050505050565b6000610fcc8261373f565b61100b576040517f08c379a000000000000000000000000000000000000000000000000000000000815260040161100290617fa9565b60405180910390fd5b61101482613b52565b9050919050565b61102c61102661367e565b82613c52565b61106b576040517f08c379a000000000000000000000000000000000000000000000000000000000815260040161106290618189565b60405180910390fd5b611076838383613ce7565b505050565b60008173ffffffffffffffffffffffffffffffffffffffff1661109c6122cf565b73ffffffffffffffffffffffffffffffffffffffff1614806110ce57506110cd82600261348090919063ffffffff16565b5b9050919050565b60006002600154141561111d576040517f08c379a0000000000000000000000000000000000000000000000000000000008152600401611114906181a9565b60405180910390fd5b600260018190555061113933600b61348090919063ffffffff16565b611178576040517f08c379a000000000000000000000000000000000000000000000000000000000815260040161116f90617f69565b60405180910390fd5b6111918260405180602001604052806000815250613f4e565b905060018081905550919050565b6000806111ab8461373f565b6111ea576040517f08c379a00000000000000000000000000000000000000000000000000000000081526004016111e190617fa9565b60405180910390fd5b6111f48484614016565b915091509250929050565b611207614113565b61121b81600261348090919063ffffffff16565b15611290573373ffffffffffffffffffffffffffffffffffffffff168173ffffffffffffffffffffffffffffffffffffffff167f7c0c3c84c67c85fcac635147348bfe374c24a1a93d0366d1cfe9d8853cbf89d560405160405180910390a361128e81600261419190919063ffffffff16565b505b50565b3373ffffffffffffffffffffffffffffffffffffffff166112b26122cf565b73ffffffffffffffffffffffffffffffffffffffff1614806112e457506112e333600261348090919063ffffffff16565b5b611323576040517f08c379a000000000000000000000000000000000000000000000000000000000815260040161131a90618129565b60405180910390fd5b61137082828080601f016020809104026020016040519081016040528093929190818152602001838380828437600081840152601f19601f820116905080830192505050505050506141c1565b5050565b3373ffffffffffffffffffffffffffffffffffffffff166113936122cf565b73ffffffffffffffffffffffffffffffffffffffff1614806113c557506113c433600261348090919063ffffffff16565b5b611404576040517f08c379a00000000000000000000000000000000000000000000000000000000081526004016113fb90618129565b60405180910390fd5b8261141981600d61348090919063ffffffff16565b15611459576040517f08c379a000000000000000000000000000000000000000000000000000000000815260040161145090617f29565b60405180910390fd5b6114668484846000614218565b50505050565b60606114786002614419565b67ffffffffffffffff81111561149157611490618809565b5b6040519080825280602002602001820160405280156114bf5781602001602082028036833780820191505090505b50905060005b6114cf6002614419565b81101561154a576114ea81600261442e90919063ffffffff16565b8282815181106114fd576114fc6187da565b5b602002602001019073ffffffffffffffffffffffffffffffffffffffff16908173ffffffffffffffffffffffffffffffffffffffff16815250508080611542906186a4565b9150506114c5565b5090565b3373ffffffffffffffffffffffffffffffffffffffff1661156d6122cf565b73ffffffffffffffffffffffffffffffffffffffff16148061159f575061159e33600261348090919063ffffffff16565b5b6115de576040517f08c379a00000000000000000000000000000000000000000000000000000000081526004016115d590618129565b60405180910390fd5b6115eb3085858585614448565b50505050565b606060026001541415611639576040517f08c379a0000000000000000000000000000000000000000000000000000000008152600401611630906181a9565b60405180910390fd5b600260018190555061165533600b61348090919063ffffffff16565b611694576040517f08c379a000000000000000000000000000000000000000000000000000000000815260040161168b90617f69565b60405180910390fd5b8282905067ffffffffffffffff8111156116b1576116b0618809565b5b6040519080825280602002602001820160405280156116df5781602001602082028036833780820191505090505b50905060005b838390508110156117935761176185858584818110611707576117066187da565b5b905060200281019061171991906181e4565b8080601f016020809104026020016040519081016040528093929190818152602001838380828437600081840152601f19601f82011690508083019250505050505050613f4e565b828281518110611774576117736187da565b5b602002602001018181525050808061178b906186a4565b9150506116e5565b50600180819055509392505050565b6117b633600b61348090919063ffffffff16565b6117f5576040517f08c379a00000000000000000000000000000000000000000000000000000000081526004016117ec90617f69565b60405180910390fd5b61180182826000614693565b5050565b3373ffffffffffffffffffffffffffffffffffffffff166118246122cf565b73ffffffffffffffffffffffffffffffffffffffff161480611856575061185533600261348090919063ffffffff16565b5b611895576040517f08c379a000000000000000000000000000000000000000000000000000000000815260040161188c90618129565b60405180910390fd5b836118aa81600d61348090919063ffffffff16565b156118ea576040517f08c379a00000000000000000000000000000000000000000000000000000000081526004016118e190617f29565b60405180910390fd5b6118f685858585614218565b5050505050565b61191883838360405180602001604052806000815250612989565b505050565b60026001541415611963576040517f08c379a000000000000000000000000000000000000000000000000000000000815260040161195a906181a9565b60405180910390fd5b60026001819055506119753382613c52565b6119b4576040517f08c379a00000000000000000000000000000000000000000000000000000000081526004016119ab90618109565b60405180910390fd5b60006119bf82611ae5565b90506119ca8261473e565b6119d4818361485b565b506001808190555050565b6119f333600b61348090919063ffffffff16565b611a32576040517f08c379a0000000000000000000000000000000000000000000000000000000008152600401611a2990617f69565b60405180910390fd5b81819050835114611a78576040517f08c379a0000000000000000000000000000000000000000000000000000000008152600401611a6f90618089565b60405180910390fd5b60005b8351811015611adf57611acc848281518110611a9a57611a996187da565b5b6020026020010151848484818110611ab557611ab46187da565b5b9050602002810190611ac791906181e4565b614a46565b8080611ad7906186a4565b915050611a7b565b50505050565b6000806006600084815260200190815260200160002060009054906101000a900473ffffffffffffffffffffffffffffffffffffffff169050600073ffffffffffffffffffffffffffffffffffffffff168173ffffffffffffffffffffffffffffffffffffffff161415611b8e576040517f08c379a0000000000000000000000000000000000000000000000000000000008152600401611b85906180a9565b60405180910390fd5b80915050919050565b611bab33600b61348090919063ffffffff16565b611bea576040517f08c379a0000000000000000000000000000000000000000000000000000000008152600401611be190617f69565b60405180910390fd5b611bf48282614b0f565b5050565b611c00614113565b611c1481600261348090919063ffffffff16565b611c88573373ffffffffffffffffffffffffffffffffffffffff168173ffffffffffffffffffffffffffffffffffffffff167f7e1a1a08d52e4ba0e21554733d66165fd5151f99460116223d9e3a608eec5cb160405160405180910390a3611c86816002614b6290919063ffffffff16565b505b50565b60008073ffffffffffffffffffffffffffffffffffffffff168273ffffffffffffffffffffffffffffffffffffffff161415611cfc576040517f08c379a0000000000000000000000000000000000000000000000000000000008152600401611cf390617f89565b60405180910390fd5b600760008373ffffffffffffffffffffffffffffffffffffffff1673ffffffffffffffffffffffffffffffffffffffff168152602001908152602001600020549050919050565b611d4b614113565b611d556000614b92565b565b600060026001541415611d9f576040517f08c379a0000000000000000000000000000000000000000000000000000000008152600401611d96906181a9565b60405180910390fd5b60026001819055503373ffffffffffffffffffffffffffffffffffffffff16611dc66122cf565b73ffffffffffffffffffffffffffffffffffffffff161480611df85750611df733600261348090919063ffffffff16565b5b611e37576040517f08c379a0000000000000000000000000000000000000000000000000000000008152600401611e2e90618129565b60405180910390fd5b611e508260405180602001604052806000815250614c56565b905060018081905550919050565b600060026001541415611ea6576040517f08c379a0000000000000000000000000000000000000000000000000000000008152600401611e9d906181a9565b60405180910390fd5b60026001819055503373ffffffffffffffffffffffffffffffffffffffff16611ecd6122cf565b73ffffffffffffffffffffffffffffffffffffffff161480611eff5750611efe33600261348090919063ffffffff16565b5b611f3e576040517f08c379a0000000000000000000000000000000000000000000000000000000008152600401611f3590618129565b60405180910390fd5b611f8c8484848080601f016020809104026020016040519081016040528093929190818152602001838380828437600081840152601f19601f82011690508083019250505050505050614c56565b9050600180819055509392505050565b606060026001541415611fe4576040517f08c379a0000000000000000000000000000000000000000000000000000000008152600401611fdb906181a9565b60405180910390fd5b60026001819055503373ffffffffffffffffffffffffffffffffffffffff1661200b6122cf565b73ffffffffffffffffffffffffffffffffffffffff16148061203d575061203c33600261348090919063ffffffff16565b5b61207c576040517f08c379a000000000000000000000000000000000000000000000000000000000815260040161207390618129565b60405180910390fd5b8282905067ffffffffffffffff81111561209957612098618809565b5b6040519080825280602002602001820160405280156120c75781602001602082028036833780820191505090505b50905060005b8383905081101561217b57612149858585848181106120ef576120ee6187da565b5b905060200281019061210191906181e4565b8080601f016020809104026020016040519081016040528093929190818152602001838380828437600081840152601f19601f82011690508083019250505050505050614c56565b82828151811061215c5761215b6187da565b5b6020026020010181815250508080612173906186a4565b9150506120cd565b50600180819055509392505050565b61219e33600b61348090919063ffffffff16565b6121dd576040517f08c379a00000000000000000000000000000000000000000000000000000000081526004016121d490617f69565b60405180910390fd5b6121e8838383614693565b505050565b60606121f9600b614419565b67ffffffffffffffff81111561221257612211618809565b5b6040519080825280602002602001820160405280156122405781602001602082028036833780820191505090505b50905060005b612250600b614419565b8110156122cb5761226b81600b61442e90919063ffffffff16565b82828151811061227e5761227d6187da565b5b602002602001019073ffffffffffffffffffffffffffffffffffffffff16908173ffffffffffffffffffffffffffffffffffffffff168152505080806122c3906186a4565b915050612246565b5090565b60008060009054906101000a900473ffffffffffffffffffffffffffffffffffffffff16905090565b60606005805461230790618616565b80601f016020809104026020016040519081016040528092919081815260200182805461233390618616565b80156123805780601f1061235557610100808354040283529160200191612380565b820191906000526020600020905b81548152906001019060200180831161236357829003601f168201915b5050505050905090565b3373ffffffffffffffffffffffffffffffffffffffff166123a96122cf565b73ffffffffffffffffffffffffffffffffffffffff1614806123db57506123da33600261348090919063ffffffff16565b5b61241a576040517f08c379a000000000000000000000000000000000000000000000000000000000815260040161241190618129565b60405180910390fd5b6124248282614d14565b5050565b61243a61243361367e565b8383614d67565b5050565b3373ffffffffffffffffffffffffffffffffffffffff1661245d6122cf565b73ffffffffffffffffffffffffffffffffffffffff16148061248f575061248e33600261348090919063ffffffff16565b5b6124ce576040517f08c379a00000000000000000000000000000000000000000000000000000000081526004016124c590618129565b60405180910390fd5b81819050835114612514576040517f08c379a000000000000000000000000000000000000000000000000000000000815260040161250b90618089565b60405180910390fd5b60005b835181101561257b57612568848281518110612536576125356187da565b5b6020026020010151848484818110612551576125506187da565b5b905060200281019061256391906181e4565b613923565b8080612573906186a4565b915050612517565b50505050565b61259533600b61348090919063ffffffff16565b6125d4576040517f08c379a00000000000000000000000000000000000000000000000000000000081526004016125cb90617f69565b60405180910390fd5b8015806126075750612606337f99cdaa2200000000000000000000000000000000000000000000000000000000614ed4565b5b612646576040517f08c379a000000000000000000000000000000000000000000000000000000000815260040161263d90618149565b60405180910390fd5b801515601060003373ffffffffffffffffffffffffffffffffffffffff1673ffffffffffffffffffffffffffffffffffffffff16815260200190815260200160002060009054906101000a900460ff161515146127435780601060003373ffffffffffffffffffffffffffffffffffffffff1673ffffffffffffffffffffffffffffffffffffffff16815260200190815260200160002060006101000a81548160ff0219169083151502179055503373ffffffffffffffffffffffffffffffffffffffff167f072a7592283e2c2d1d56d21517ff6013325e0f55483f4828373ff4d98b0a1a368260405161273a9190617d91565b60405180910390a25b50565b60606002600154141561278e576040517f08c379a0000000000000000000000000000000000000000000000000000000008152600401612785906181a9565b60405180910390fd5b60026001819055503373ffffffffffffffffffffffffffffffffffffffff166127b56122cf565b73ffffffffffffffffffffffffffffffffffffffff1614806127e757506127e633600261348090919063ffffffff16565b5b612826576040517f08c379a000000000000000000000000000000000000000000000000000000000815260040161281d90618129565b60405180910390fd5b8161ffff1667ffffffffffffffff81111561284457612843618809565b5b6040519080825280602002602001820160405280156128725781602001602082028036833780820191505090505b50905060005b8261ffff168161ffff1610156128d7576128a18460405180602001604052806000815250614c56565b828261ffff16815181106128b8576128b76187da565b5b60200260200101818152505080806128cf90618679565b915050612878565b506001808190555092915050565b3373ffffffffffffffffffffffffffffffffffffffff166129046122cf565b73ffffffffffffffffffffffffffffffffffffffff161480612936575061293533600261348090919063ffffffff16565b5b612975576040517f08c379a000000000000000000000000000000000000000000000000000000000815260040161296c90618129565b60405180910390fd5b6129828585858585614448565b5050505050565b61299a61299461367e565b83613c52565b6129d9576040517f08c379a00000000000000000000000000000000000000000000000000000000081526004016129d090618189565b60405180910390fd5b6129e584848484614ef9565b50505050565b60606129f68261373f565b612a35576040517f08c379a0000000000000000000000000000000000000000000000000000000008152600401612a2c90617fa9565b60405180910390fd5b612a3e82614f55565b805480602002602001604051908101604052809291908181526020018280548015612abe57602002820191906000526020600020905b8160009054906101000a900473ffffffffffffffffffffffffffffffffffffffff1673ffffffffffffffffffffffffffffffffffffffff1681526020019060010190808311612a74575b50505050509050919050565b606080612ad68361373f565b612b15576040517f08c379a0000000000000000000000000000000000000000000000000000000008152600401612b0c90617fa9565b60405180910390fd5b612b1e836150cd565b81805480602002602001604051908101604052809291908181526020018280548015612b9f57602002820191906000526020600020905b8160009054906101000a900473ffffffffffffffffffffffffffffffffffffffff1673ffffffffffffffffffffffffffffffffffffffff1681526020019060010190808311612b55575b5050505050915080805480602002602001604051908101604052809291908181526020018280548015612bf157602002820191906000526020600020905b815481526020019060010190808311612bdd575b5050505050905091509150915091565b6060612c0c8261373f565b612c4b576040517f08c379a0000000000000000000000000000000000000000000000000000000008152600401612c4290617fa9565b60405180910390fd5b612c54826150eb565b9050919050565b3373ffffffffffffffffffffffffffffffffffffffff16612c7a6122cf565b73ffffffffffffffffffffffffffffffffffffffff161480612cac5750612cab33600261348090919063ffffffff16565b5b612ceb576040517f08c379a0000000000000000000000000000000000000000000000000000000008152600401612ce290618129565b60405180910390fd5b612cf48161556a565b50565b606080612d038361373f565b612d42576040517f08c379a0000000000000000000000000000000000000000000000000000000008152600401612d3990617fa9565b60405180910390fd5b612d4b836150cd565b81805480602002602001604051908101604052809291908181526020018280548015612dcc57602002820191906000526020600020905b8160009054906101000a900473ffffffffffffffffffffffffffffffffffffffff1673ffffffffffffffffffffffffffffffffffffffff1681526020019060010190808311612d82575b5050505050915080805480602002602001604051908101604052809291908181526020018280548015612e1e57602002820191906000526020600020905b815481526020019060010190808311612e0a575b5050505050905091509150915091565b606060026001541415612e76576040517f08c379a0000000000000000000000000000000000000000000000000000000008152600401612e6d906181a9565b60405180910390fd5b6002600181905550612e9233600b61348090919063ffffffff16565b612ed1576040517f08c379a0000000000000000000000000000000000000000000000000000000008152600401612ec890617f69565b60405180910390fd5b8161ffff1667ffffffffffffffff811115612eef57612eee618809565b5b604051908082528060200260200182016040528015612f1d5781602001602082028036833780820191505090505b50905060005b8261ffff168161ffff161015612f8257612f4c8460405180602001604052806000815250613f4e565b828261ffff1681518110612f6357612f626187da565b5b6020026020010181815250508080612f7a90618679565b915050612f23565b506001808190555092915050565b612fa433600b61348090919063ffffffff16565b612fe3576040517f08c379a0000000000000000000000000000000000000000000000000000000008152600401612fda90617f69565b60405180910390fd5b612fee838383614a46565b505050565b6000600960008473ffffffffffffffffffffffffffffffffffffffff1673ffffffffffffffffffffffffffffffffffffffff16815260200190815260200160002060008373ffffffffffffffffffffffffffffffffffffffff1673ffffffffffffffffffffffffffffffffffffffff16815260200190815260200160002060009054906101000a900460ff16905092915050565b3373ffffffffffffffffffffffffffffffffffffffff166130a66122cf565b73ffffffffffffffffffffffffffffffffffffffff1614806130d857506130d733600261348090919063ffffffff16565b5b613117576040517f08c379a000000000000000000000000000000000000000000000000000000000815260040161310e90618129565b60405180910390fd5b61312182826155f6565b5050565b61312d614113565b600073ffffffffffffffffffffffffffffffffffffffff168173ffffffffffffffffffffffffffffffffffffffff16141561319d576040517f08c379a000000000000000000000000000000000000000000000000000000000815260040161319490617e49565b60405180910390fd5b6131a681614b92565b50565b6000600260015414156131f1576040517f08c379a00000000000000000000000000000000000000000000000000000000081526004016131e8906181a9565b60405180910390fd5b600260018190555061320d33600b61348090919063ffffffff16565b61324c576040517f08c379a000000000000000000000000000000000000000000000000000000000815260040161324390617f69565b60405180910390fd5b61329a8484848080601f016020809104026020016040519081016040528093929190818152602001838380828437600081840152601f19601f82011690508083019250505050505050613f4e565b9050600180819055509392505050565b60007f9088c207000000000000000000000000000000000000000000000000000000007bffffffffffffffffffffffffffffffffffffffffffffffffffffffff1916827bffffffffffffffffffffffffffffffffffffffffffffffffffffffff1916148061331d575061331c8261586f565b5b9050919050565b60007f80ac58cd000000000000000000000000000000000000000000000000000000007bffffffffffffffffffffffffffffffffffffffffffffffffffffffff1916827bffffffffffffffffffffffffffffffffffffffffffffffffffffffff191614806133ef57507f5b5e139f000000000000000000000000000000000000000000000000000000007bffffffffffffffffffffffffffffffffffffffffffffffffffffffff1916827bffffffffffffffffffffffffffffffffffffffffffffffffffffffff1916145b806133ff57506133fe82613406565b5b9050919050565b60007f553e757e000000000000000000000000000000000000000000000000000000007bffffffffffffffffffffffffffffffffffffffffffffffffffffffff1916827bffffffffffffffffffffffffffffffffffffffffffffffffffffffff19161480613479575061347882615a25565b5b9050919050565b60006134a8836000018373ffffffffffffffffffffffffffffffffffffffff1660001b615a8f565b905092915050565b3073ffffffffffffffffffffffffffffffffffffffff168173ffffffffffffffffffffffffffffffffffffffff16141561351f576040517f08c379a000000000000000000000000000000000000000000000000000000000815260040161351690617de9565b60405180910390fd5b61353381600b61348090919063ffffffff16565b156135a8573373ffffffffffffffffffffffffffffffffffffffff168173ffffffffffffffffffffffffffffffffffffffff167fd19cf84cf0fec6bec9ddfa29c63adf83a55707c712f32c8285d6180a7890147960405160405180910390a36135a681600b61419190919063ffffffff16565b505b6135bc81600d61348090919063ffffffff16565b613630573373ffffffffffffffffffffffffffffffffffffffff168173ffffffffffffffffffffffffffffffffffffffff167f05ac7bc5a606cd92a63365f9fda244499b9add0526b22d99937b6bd88181059c60405160405180910390a361362e81600d614b6290919063ffffffff16565b505b50565b61363c8161373f565b61367b576040517f08c379a0000000000000000000000000000000000000000000000000000000008152600401613672906180a9565b60405180910390fd5b50565b600033905090565b816008600083815260200190815260200160002060006101000a81548173ffffffffffffffffffffffffffffffffffffffff021916908373ffffffffffffffffffffffffffffffffffffffff160217905550808273ffffffffffffffffffffffffffffffffffffffff166136f983611ae5565b73ffffffffffffffffffffffffffffffffffffffff167f8c5be1e5ebec7d5bd14f71427d1e84f3dd0314c0f7b2291e5b200ac8c7c3b92560405160405180910390a45050565b60008073ffffffffffffffffffffffffffffffffffffffff166006600084815260200190815260200160002060009054906101000a900473ffffffffffffffffffffffffffffffffffffffff1673ffffffffffffffffffffffffffffffffffffffff1614159050919050565b600080601960008481526020019081526020016000208054905011156137e55760196000838152602001908152602001600020905061391e565b6000601760006011600086815260200190815260200160002060009054906101000a900473ffffffffffffffffffffffffffffffffffffffff1673ffffffffffffffffffffffffffffffffffffffff1673ffffffffffffffffffffffffffffffffffffffff1681526020019081526020016000208054905011156138dc57601760006011600085815260200190815260200160002060009054906101000a900473ffffffffffffffffffffffffffffffffffffffff1673ffffffffffffffffffffffffffffffffffffffff1673ffffffffffffffffffffffffffffffffffffffff168152602001908152602001600020905061391e565b601760003073ffffffffffffffffffffffffffffffffffffffff1673ffffffffffffffffffffffffffffffffffffffff16815260200190815260200160002090505b919050565b3073ffffffffffffffffffffffffffffffffffffffff166011600085815260200190815260200160002060009054906101000a900473ffffffffffffffffffffffffffffffffffffffff1673ffffffffffffffffffffffffffffffffffffffff16146139c4576040517f08c379a00000000000000000000000000000000000000000000000000000000081526004016139bb90617f49565b60405180910390fd5b81816015600086815260200190815260200160002091906139e692919061661e565b50505050565b818190508484905014613a34576040517f08c379a0000000000000000000000000000000000000000000000000000000008152600401613a2b90618089565b60405180910390fd5b600080600090505b83839050811015613a8157838382818110613a5a57613a596187da565b5b9050602002013582613a6c919061842b565b91508080613a79906186a4565b915050613a3c565b506127108110613ac6576040517f08c379a0000000000000000000000000000000000000000000000000000000008152600401613abd906180e9565b60405180910390fd5b8484601860008981526020019081526020016000209190613ae89291906166a4565b508282601960008981526020019081526020016000209190613b0b929190616744565b50857fabb46fe0761d77584bde75697647804ffd8113abd4d8d06bc664150395eccdee86868686604051613b429493929190617cdb565b60405180910390a2505050505050565b60006011600083815260200190815260200160002060009054906101000a900473ffffffffffffffffffffffffffffffffffffffff1690503073ffffffffffffffffffffffffffffffffffffffff168173ffffffffffffffffffffffffffffffffffffffff161415613bf9576040517f08c379a0000000000000000000000000000000000000000000000000000000008152600401613bf090618069565b60405180910390fd5b613c0d81600d61348090919063ffffffff16565b15613c4d576040517f08c379a0000000000000000000000000000000000000000000000000000000008152600401613c4490617f29565b60405180910390fd5b919050565b600080613c5e83611ae5565b90508073ffffffffffffffffffffffffffffffffffffffff168473ffffffffffffffffffffffffffffffffffffffff161480613ca05750613c9f8185612ff3565b5b80613cde57508373ffffffffffffffffffffffffffffffffffffffff16613cc684610c2e565b73ffffffffffffffffffffffffffffffffffffffff16145b91505092915050565b8273ffffffffffffffffffffffffffffffffffffffff16613d0782611ae5565b73ffffffffffffffffffffffffffffffffffffffff1614613d5d576040517f08c379a0000000000000000000000000000000000000000000000000000000008152600401613d5490617e69565b60405180910390fd5b600073ffffffffffffffffffffffffffffffffffffffff168273ffffffffffffffffffffffffffffffffffffffff161415613dcd576040517f08c379a0000000000000000000000000000000000000000000000000000000008152600401613dc490617ee9565b60405180910390fd5b613dd8838383615ab2565b613de3600082613686565b6001600760008573ffffffffffffffffffffffffffffffffffffffff1673ffffffffffffffffffffffffffffffffffffffff1681526020019081526020016000206000828254613e33919061850c565b925050819055506001600760008473ffffffffffffffffffffffffffffffffffffffff1673ffffffffffffffffffffffffffffffffffffffff1681526020019081526020016000206000828254613e8a919061842b565b92505081905550816006600083815260200190815260200160002060006101000a81548173ffffffffffffffffffffffffffffffffffffffff021916908373ffffffffffffffffffffffffffffffffffffffff160217905550808273ffffffffffffffffffffffffffffffffffffffff168473ffffffffffffffffffffffffffffffffffffffff167fddf252ad1be2c89b69c2b068fc378daa952ba7f163c4a11628f55a4df523b3ef60405160405180910390a4613f49838383615ac2565b505050565b6000600a6000815480929190613f63906186a4565b9190505550600a549050613f778382615ac7565b336011600083815260200190815260200160002060006101000a81548173ffffffffffffffffffffffffffffffffffffffff021916908373ffffffffffffffffffffffffffffffffffffffff160217905550613fd38382615c2d565b6000825111156140065781601560008381526020019081526020016000209080519060200190614004929190616791565b505b6140108382615c4b565b92915050565b600080600061402485614f55565b905060018180549050111561406e576040517f08c379a000000000000000000000000000000000000000000000000000000000815260040161406590617fc9565b60405180910390fd5b60008180549050141561408857306000925092505061410c565b8060008154811061409c5761409b6187da565b5b9060005260206000200160009054906101000a900473ffffffffffffffffffffffffffffffffffffffff16612710856140d4886137ab565b6000815481106140e7576140e66187da565b5b90600052602060002001546140fc91906184b2565b6141069190618481565b92509250505b9250929050565b61411b61367e565b73ffffffffffffffffffffffffffffffffffffffff166141396122cf565b73ffffffffffffffffffffffffffffffffffffffff161461418f576040517f08c379a000000000000000000000000000000000000000000000000000000000815260040161418690618049565b60405180910390fd5b565b60006141b9836000018373ffffffffffffffffffffffffffffffffffffffff1660001b615c4f565b905092915050565b80601260003073ffffffffffffffffffffffffffffffffffffffff1673ffffffffffffffffffffffffffffffffffffffff1681526020019081526020016000209080519060200190614214929190616791565b5050565b3073ffffffffffffffffffffffffffffffffffffffff168473ffffffffffffffffffffffffffffffffffffffff161415614287576040517f08c379a000000000000000000000000000000000000000000000000000000000815260040161427e90618169565b60405180910390fd5b6142a68473ffffffffffffffffffffffffffffffffffffffff16615d63565b6142e5576040517f08c379a00000000000000000000000000000000000000000000000000000000081526004016142dc90618029565b60405180910390fd5b6142f984600b61348090919063ffffffff16565b614413578282601260008773ffffffffffffffffffffffffffffffffffffffff1673ffffffffffffffffffffffffffffffffffffffff168152602001908152602001600020919061434b92919061661e565b5080601360008673ffffffffffffffffffffffffffffffffffffffff1673ffffffffffffffffffffffffffffffffffffffff16815260200190815260200160002060006101000a81548160ff0219169083151502179055503373ffffffffffffffffffffffffffffffffffffffff168473ffffffffffffffffffffffffffffffffffffffff167fd8cb8ba4086944eabf43c5535b7712015e4d4c714b24bf812c040ea5b7a3e42a60405160405180910390a361441184600b614b6290919063ffffffff16565b505b50505050565b600061442782600001615d86565b9050919050565b600061443d8360000183615d97565b60001c905092915050565b818190508484905014614490576040517f08c379a000000000000000000000000000000000000000000000000000000000815260040161448790618089565b60405180910390fd5b600080600090505b838390508110156144dd578383828181106144b6576144b56187da565b5b90506020020135826144c8919061842b565b915080806144d5906186a4565b915050614498565b506127108110614522576040517f08c379a0000000000000000000000000000000000000000000000000000000008152600401614519906180e9565b60405180910390fd5b8484601660008973ffffffffffffffffffffffffffffffffffffffff1673ffffffffffffffffffffffffffffffffffffffff16815260200190815260200160002091906145709291906166a4565b508282601760008973ffffffffffffffffffffffffffffffffffffffff1673ffffffffffffffffffffffffffffffffffffffff16815260200190815260200160002091906145bf929190616744565b503073ffffffffffffffffffffffffffffffffffffffff168673ffffffffffffffffffffffffffffffffffffffff161415614636577f2b6849d5976d799a5b0ca4dfd6b40a3d7afe9ea72c091fa01a958594f9a2659b858585856040516146299493929190617cdb565b60405180910390a161468b565b8573ffffffffffffffffffffffffffffffffffffffff167f535a93d2cb000582c0ebeaa9be4890ec6a287f98eb2df00c54c300612fd78d8f868686866040516146829493929190617cdb565b60405180910390a25b505050505050565b8282601260003373ffffffffffffffffffffffffffffffffffffffff1673ffffffffffffffffffffffffffffffffffffffff16815260200190815260200160002091906146e192919061661e565b5080601360003373ffffffffffffffffffffffffffffffffffffffff1673ffffffffffffffffffffffffffffffffffffffff16815260200190815260200160002060006101000a81548160ff021916908315150217905550505050565b600061474982611ae5565b905061475781600084615ab2565b614762600083613686565b6001600760008373ffffffffffffffffffffffffffffffffffffffff1673ffffffffffffffffffffffffffffffffffffffff16815260200190815260200160002060008282546147b2919061850c565b925050819055506006600083815260200190815260200160002060006101000a81549073ffffffffffffffffffffffffffffffffffffffff021916905581600073ffffffffffffffffffffffffffffffffffffffff168273ffffffffffffffffffffffffffffffffffffffff167fddf252ad1be2c89b69c2b068fc378daa952ba7f163c4a11628f55a4df523b3ef60405160405180910390a461485781600084615ac2565b5050565b3073ffffffffffffffffffffffffffffffffffffffff166011600083815260200190815260200160002060009054906101000a900473ffffffffffffffffffffffffffffffffffffffff1673ffffffffffffffffffffffffffffffffffffffff16146149c55761491e6011600083815260200190815260200160002060009054906101000a900473ffffffffffffffffffffffffffffffffffffffff167f45a1b92c00000000000000000000000000000000000000000000000000000000614ed4565b156149c4576011600082815260200190815260200160002060009054906101000a900473ffffffffffffffffffffffffffffffffffffffff1673ffffffffffffffffffffffffffffffffffffffff166345a1b92c83836040518363ffffffff1660e01b8152600401614991929190617c90565b600060405180830381600087803b1580156149ab57600080fd5b505af11580156149bf573d6000803e3d6000fd5b505050505b5b60006015600083815260200190815260200160002080546149e590618616565b905014614a0c57601560008281526020019081526020016000206000614a0b9190616817565b5b6011600082815260200190815260200160002060006101000a81549073ffffffffffffffffffffffffffffffffffffffff02191690555050565b3373ffffffffffffffffffffffffffffffffffffffff166011600085815260200190815260200160002060009054906101000a900473ffffffffffffffffffffffffffffffffffffffff1673ffffffffffffffffffffffffffffffffffffffff1614614ae7576040517f08c379a0000000000000000000000000000000000000000000000000000000008152600401614ade90617f49565b60405180910390fd5b8181601560008681526020019081526020016000209190614b0992919061661e565b50505050565b8181601460003373ffffffffffffffffffffffffffffffffffffffff1673ffffffffffffffffffffffffffffffffffffffff1681526020019081526020016000209190614b5d92919061661e565b505050565b6000614b8a836000018373ffffffffffffffffffffffffffffffffffffffff1660001b615dc2565b905092915050565b60008060009054906101000a900473ffffffffffffffffffffffffffffffffffffffff169050816000806101000a81548173ffffffffffffffffffffffffffffffffffffffff021916908373ffffffffffffffffffffffffffffffffffffffff1602179055508173ffffffffffffffffffffffffffffffffffffffff168173ffffffffffffffffffffffffffffffffffffffff167f8be0079c531659141344cd1fd0a4f28419497f9722a3daafe3b4186f6b6457e060405160405180910390a35050565b6000600a6000815480929190614c6b906186a4565b9190505550600a549050306011600083815260200190815260200160002060006101000a81548173ffffffffffffffffffffffffffffffffffffffff021916908373ffffffffffffffffffffffffffffffffffffffff160217905550614cd18382615c2d565b600082511115614d045781601560008381526020019081526020016000209080519060200190614d02929190616791565b505b614d0e8382615e32565b92915050565b8181601460003073ffffffffffffffffffffffffffffffffffffffff1673ffffffffffffffffffffffffffffffffffffffff1681526020019081526020016000209190614d6292919061661e565b505050565b8173ffffffffffffffffffffffffffffffffffffffff168373ffffffffffffffffffffffffffffffffffffffff161415614dd6576040517f08c379a0000000000000000000000000000000000000000000000000000000008152600401614dcd90617f09565b60405180910390fd5b80600960008573ffffffffffffffffffffffffffffffffffffffff1673ffffffffffffffffffffffffffffffffffffffff16815260200190815260200160002060008473ffffffffffffffffffffffffffffffffffffffff1673ffffffffffffffffffffffffffffffffffffffff16815260200190815260200160002060006101000a81548160ff0219169083151502179055508173ffffffffffffffffffffffffffffffffffffffff168373ffffffffffffffffffffffffffffffffffffffff167f17307eab39ab6107e8899845ad3d59bd9653f200f220920489ca2b5937696c3183604051614ec79190617d91565b60405180910390a3505050565b6000614edf83615e36565b8015614ef15750614ef08383615e83565b5b905092915050565b614f04848484613ce7565b614f1084848484615f42565b614f4f576040517f08c379a0000000000000000000000000000000000000000000000000000000008152600401614f4690617e29565b60405180910390fd5b50505050565b60008060186000848152602001908152602001600020805490501115614f8f576018600083815260200190815260200160002090506150c8565b6000601660006011600086815260200190815260200160002060009054906101000a900473ffffffffffffffffffffffffffffffffffffffff1673ffffffffffffffffffffffffffffffffffffffff1673ffffffffffffffffffffffffffffffffffffffff16815260200190815260200160002080549050111561508657601660006011600085815260200190815260200160002060009054906101000a900473ffffffffffffffffffffffffffffffffffffffff1673ffffffffffffffffffffffffffffffffffffffff1673ffffffffffffffffffffffffffffffffffffffff16815260200190815260200160002090506150c8565b601660003073ffffffffffffffffffffffffffffffffffffffff1673ffffffffffffffffffffffffffffffffffffffff16815260200190815260200160002090505b919050565b6000806150d983614f55565b6150e2846137ab565b91509150915091565b606060006011600084815260200190815260200160002060009054906101000a900473ffffffffffffffffffffffffffffffffffffffff16905061513981600d61348090919063ffffffff16565b15615179576040517f08c379a000000000000000000000000000000000000000000000000000000000815260040161517090617f29565b60405180910390fd5b600060156000858152602001908152602001600020805461519990618616565b905014615311576000601460008373ffffffffffffffffffffffffffffffffffffffff1673ffffffffffffffffffffffffffffffffffffffff16815260200190815260200160002080546151ec90618616565b90501461526d57601460008273ffffffffffffffffffffffffffffffffffffffff1673ffffffffffffffffffffffffffffffffffffffff16815260200190815260200160002060156000858152602001908152602001600020604051602001615256929190617bce565b604051602081830303815290604052915050615565565b60156000848152602001908152602001600020805461528b90618616565b80601f01602080910402602001604051908101604052809291908181526020018280546152b790618616565b80156153045780601f106152d957610100808354040283529160200191615304565b820191906000526020600020905b8154815290600101906020018083116152e757829003601f168201915b5050505050915050615565565b61533b817fe9dc637500000000000000000000000000000000000000000000000000000000614ed4565b156153d8578073ffffffffffffffffffffffffffffffffffffffff1663e9dc637530856040518363ffffffff1660e01b815260040161537b929190617c90565b60006040518083038186803b15801561539357600080fd5b505afa1580156153a7573d6000803e3d6000fd5b505050506040513d6000823e3d601f19601f820116820180604052508101906153d0919061721c565b915050615565565b601360008273ffffffffffffffffffffffffffffffffffffffff1673ffffffffffffffffffffffffffffffffffffffff16815260200190815260200160002060009054906101000a900460ff1661549957601260008273ffffffffffffffffffffffffffffffffffffffff1673ffffffffffffffffffffffffffffffffffffffff168152602001908152602001600020615471846160d9565b604051602001615482929190617baa565b604051602081830303815290604052915050615565565b601260008273ffffffffffffffffffffffffffffffffffffffff1673ffffffffffffffffffffffffffffffffffffffff16815260200190815260200160002080546154e390618616565b80601f016020809104026020016040519081016040528092919081815260200182805461550f90618616565b801561555c5780601f106155315761010080835404028352916020019161555c565b820191906000526020600020905b81548152906001019060200180831161553f57829003601f168201915b50505050509150505b919050565b61557e81600b61348090919063ffffffff16565b156155f3573373ffffffffffffffffffffffffffffffffffffffff168173ffffffffffffffffffffffffffffffffffffffff167fd19cf84cf0fec6bec9ddfa29c63adf83a55707c712f32c8285d6180a7890147960405160405180910390a36155f181600b61419190919063ffffffff16565b505b50565b61560a82600b61348090919063ffffffff16565b615649576040517f08c379a000000000000000000000000000000000000000000000000000000000815260040161564090617ea9565b60405180910390fd5b600073ffffffffffffffffffffffffffffffffffffffff168173ffffffffffffffffffffffffffffffffffffffff1614806156aa57506156a9817ff029c2d800000000000000000000000000000000000000000000000000000000614ed4565b5b6156e9576040517f08c379a00000000000000000000000000000000000000000000000000000000081526004016156e090617e09565b60405180910390fd5b8073ffffffffffffffffffffffffffffffffffffffff16600f60008473ffffffffffffffffffffffffffffffffffffffff1673ffffffffffffffffffffffffffffffffffffffff16815260200190815260200160002060009054906101000a900473ffffffffffffffffffffffffffffffffffffffff1673ffffffffffffffffffffffffffffffffffffffff161461586b5780600f60008473ffffffffffffffffffffffffffffffffffffffff1673ffffffffffffffffffffffffffffffffffffffff16815260200190815260200160002060006101000a81548173ffffffffffffffffffffffffffffffffffffffff021916908373ffffffffffffffffffffffffffffffffffffffff1602179055503373ffffffffffffffffffffffffffffffffffffffff168173ffffffffffffffffffffffffffffffffffffffff168373ffffffffffffffffffffffffffffffffffffffff167f6a835c4fcf7e0d398db3762332fdaa1471814ad39f1e2d6d0b3fdabf8efee3e060405160405180910390a45b5050565b60007f28f10a21000000000000000000000000000000000000000000000000000000007bffffffffffffffffffffffffffffffffffffffffffffffffffffffff1916827bffffffffffffffffffffffffffffffffffffffffffffffffffffffff191614806158e257506158e182613324565b5b80615931575063bb3bafd660e01b7bffffffffffffffffffffffffffffffffffffffffffffffffffffffff1916827bffffffffffffffffffffffffffffffffffffffffffffffffffffffff1916145b80615980575063b779958460e01b7bffffffffffffffffffffffffffffffffffffffffffffffffffffffff1916827bffffffffffffffffffffffffffffffffffffffffffffffffffffffff1916145b806159cf575063d5a06d4c60e01b7bffffffffffffffffffffffffffffffffffffffffffffffffffffffff1916827bffffffffffffffffffffffffffffffffffffffffffffffffffffffff1916145b80615a1e5750632a55205a60e01b7bffffffffffffffffffffffffffffffffffffffffffffffffffffffff1916827bffffffffffffffffffffffffffffffffffffffffffffffffffffffff1916145b9050919050565b60007f01ffc9a7000000000000000000000000000000000000000000000000000000007bffffffffffffffffffffffffffffffffffffffffffffffffffffffff1916827bffffffffffffffffffffffffffffffffffffffffffffffffffffffff1916149050919050565b600080836001016000848152602001908152602001600020541415905092915050565b615abd83838361623a565b505050565b505050565b600073ffffffffffffffffffffffffffffffffffffffff16600f60003373ffffffffffffffffffffffffffffffffffffffff1673ffffffffffffffffffffffffffffffffffffffff16815260200190815260200160002060009054906101000a900473ffffffffffffffffffffffffffffffffffffffff1673ffffffffffffffffffffffffffffffffffffffff1614615c2957600f60003373ffffffffffffffffffffffffffffffffffffffff1673ffffffffffffffffffffffffffffffffffffffff16815260200190815260200160002060009054906101000a900473ffffffffffffffffffffffffffffffffffffffff1673ffffffffffffffffffffffffffffffffffffffff1663f029c2d83384846040518463ffffffff1660e01b8152600401615bf693929190617c0d565b600060405180830381600087803b158015615c1057600080fd5b505af1158015615c24573d6000803e3d6000fd5b505050505b5050565b615c478282604051806020016040528060008152506163c6565b5050565b5050565b60008083600101600084815260200190815260200160002054905060008114615d57576000600182615c81919061850c565b9050600060018660000180549050615c99919061850c565b9050818114615d08576000866000018281548110615cba57615cb96187da565b5b9060005260206000200154905080876000018481548110615cde57615cdd6187da565b5b90600052602060002001819055508387600101600083815260200190815260200160002081905550505b85600001805480615d1c57615d1b6187ab565b5b600190038181906000526020600020016000905590558560010160008681526020019081526020016000206000905560019350505050615d5d565b60009150505b92915050565b6000808273ffffffffffffffffffffffffffffffffffffffff163b119050919050565b600081600001805490509050919050565b6000826000018281548110615daf57615dae6187da565b5b9060005260206000200154905092915050565b6000615dce8383615a8f565b615e27578260000182908060018154018082558091505060019003906000526020600020016000909190919091505582600001805490508360010160008481526020019081526020016000208190555060019050615e2c565b600090505b92915050565b5050565b6000615e62827f01ffc9a700000000000000000000000000000000000000000000000000000000615e83565b8015615e7c5750615e7a8263ffffffff60e01b615e83565b155b9050919050565b6000806301ffc9a760e01b83604051602401615e9f9190617dac565b604051602081830303815290604052907bffffffffffffffffffffffffffffffffffffffffffffffffffffffff19166020820180517bffffffffffffffffffffffffffffffffffffffffffffffffffffffff838183161783525050505090506000806000602060008551602087018a617530fa92503d91506000519050828015615f2a575060208210155b8015615f365750600081115b94505050505092915050565b6000615f638473ffffffffffffffffffffffffffffffffffffffff16616421565b156160cc578373ffffffffffffffffffffffffffffffffffffffff1663150b7a02615f8c61367e565b8786866040518563ffffffff1660e01b8152600401615fae9493929190617c44565b602060405180830381600087803b158015615fc857600080fd5b505af1925050508015615ff957506040513d601f19601f82011682018060405250810190615ff69190617142565b60015b61607c573d8060008114616029576040519150601f19603f3d011682016040523d82523d6000602084013e61602e565b606091505b50600081511415616074576040517f08c379a000000000000000000000000000000000000000000000000000000000815260040161606b90617e29565b60405180910390fd5b805181602001fd5b63150b7a0260e01b7bffffffffffffffffffffffffffffffffffffffffffffffffffffffff1916817bffffffffffffffffffffffffffffffffffffffffffffffffffffffff1916149150506160d1565b600190505b949350505050565b60606000821415616121576040518060400160405280600181526020017f30000000000000000000000000000000000000000000000000000000000000008152509050616235565b600082905060005b6000821461615357808061613c906186a4565b915050600a8261614c9190618481565b9150616129565b60008167ffffffffffffffff81111561616f5761616e618809565b5b6040519080825280601f01601f1916602001820160405280156161a15781602001600182028036833780820191505090505b5090505b6000851461622e576001826161ba919061850c565b9150600a856161c991906186ed565b60306161d5919061842b565b60f81b8183815181106161eb576161ea6187da565b5b60200101907effffffffffffffffffffffffffffffffffffffffffffffffffffffffffffff1916908160001a905350600a856162279190618481565b94506161a5565b8093505050505b919050565b601060006011600084815260200190815260200160002060009054906101000a900473ffffffffffffffffffffffffffffffffffffffff1673ffffffffffffffffffffffffffffffffffffffff1673ffffffffffffffffffffffffffffffffffffffff16815260200190815260200160002060009054906101000a900460ff16156163c1576011600082815260200190815260200160002060009054906101000a900473ffffffffffffffffffffffffffffffffffffffff1673ffffffffffffffffffffffffffffffffffffffff1663825808058484846040518463ffffffff1660e01b815260040161632f93929190617c0d565b602060405180830381600087803b15801561634957600080fd5b505af115801561635d573d6000803e3d6000fd5b505050506040513d601f19601f8201168201806040525081019061638191906170e8565b6163c0576040517f08c379a00000000000000000000000000000000000000000000000000000000081526004016163b790617ec9565b60405180910390fd5b5b505050565b6163d08383616444565b6163dd6000848484615f42565b61641c576040517f08c379a000000000000000000000000000000000000000000000000000000000815260040161641390617e29565b60405180910390fd5b505050565b6000808273ffffffffffffffffffffffffffffffffffffffff163b119050919050565b600073ffffffffffffffffffffffffffffffffffffffff168273ffffffffffffffffffffffffffffffffffffffff1614156164b4576040517f08c379a00000000000000000000000000000000000000000000000000000000081526004016164ab90618009565b60405180910390fd5b6164bd8161373f565b156164fd576040517f08c379a00000000000000000000000000000000000000000000000000000000081526004016164f490617e89565b60405180910390fd5b61650960008383615ab2565b6001600760008473ffffffffffffffffffffffffffffffffffffffff1673ffffffffffffffffffffffffffffffffffffffff1681526020019081526020016000206000828254616559919061842b565b92505081905550816006600083815260200190815260200160002060006101000a81548173ffffffffffffffffffffffffffffffffffffffff021916908373ffffffffffffffffffffffffffffffffffffffff160217905550808273ffffffffffffffffffffffffffffffffffffffff16600073ffffffffffffffffffffffffffffffffffffffff167fddf252ad1be2c89b69c2b068fc378daa952ba7f163c4a11628f55a4df523b3ef60405160405180910390a461661a60008383615ac2565b5050565b82805461662a90618616565b90600052602060002090601f01602090048101928261664c5760008555616693565b82601f1061666557803560ff1916838001178555616693565b82800160010185558215616693579182015b82811115616692578235825591602001919060010190616677565b5b5090506166a09190616857565b5090565b828054828255906000526020600020908101928215616733579160200282015b8281111561673257823573ffffffffffffffffffffffffffffffffffffffff168260006101000a81548173ffffffffffffffffffffffffffffffffffffffff021916908373ffffffffffffffffffffffffffffffffffffffff160217905550916020019190600101906166c4565b5b5090506167409190616857565b5090565b828054828255906000526020600020908101928215616780579160200282015b8281111561677f578235825591602001919060010190616764565b5b50905061678d9190616857565b5090565b82805461679d90618616565b90600052602060002090601f0160209004810192826167bf5760008555616806565b82601f106167d857805160ff1916838001178555616806565b82800160010185558215616806579182015b828111156168055782518255916020019190600101906167ea565b5b5090506168139190616857565b5090565b50805461682390618616565b6000825580601f106168355750616854565b601f0160209004906000526020600020908101906168539190616857565b5b50565b5b80821115616870576000816000905550600101616858565b5090565b60006168876168828461826c565b618247565b905080838252602082019050828560208602820111156168aa576168a961884c565b5b60005b858110156168da57816168c08882616bdd565b8452602084019350602083019250506001810190506168ad565b5050509392505050565b60006168f76168f284618298565b618247565b90508281526020810184848401111561691357616912618856565b5b61691e8482856185d4565b509392505050565b6000616939616934846182c9565b618247565b90508281526020810184848401111561695557616954618856565b5b6169608482856185e3565b509392505050565b60008135905061697781618f3a565b92915050565b60008135905061698c81618f51565b92915050565b60008083601f8401126169a8576169a761883d565b5b8235905067ffffffffffffffff8111156169c5576169c4618838565b5b6020830191508360208202830111156169e1576169e061884c565b5b9250929050565b60008083601f8401126169fe576169fd61883d565b5b8235905067ffffffffffffffff811115616a1b57616a1a618838565b5b602083019150836020820283011115616a3757616a3661884c565b5b9250929050565b60008083601f840112616a5457616a5361883d565b5b8235905067ffffffffffffffff811115616a7157616a70618838565b5b602083019150836020820283011115616a8d57616a8c61884c565b5b9250929050565b600082601f830112616aa957616aa861883d565b5b8135616ab9848260208601616874565b91505092915050565b600081359050616ad181618f68565b92915050565b600081519050616ae681618f68565b92915050565b600081359050616afb81618f7f565b92915050565b600081519050616b1081618f7f565b92915050565b600082601f830112616b2b57616b2a61883d565b5b8135616b3b8482602086016168e4565b91505092915050565b60008083601f840112616b5a57616b5961883d565b5b8235905067ffffffffffffffff811115616b7757616b76618838565b5b602083019150836001820283011115616b9357616b9261884c565b5b9250929050565b600082601f830112616baf57616bae61883d565b5b8151616bbf848260208601616926565b91505092915050565b600081359050616bd781618f96565b92915050565b600081359050616bec81618fad565b92915050565b600060208284031215616c0857616c07618865565b5b6000616c1684828501616968565b91505092915050565b60008060408385031215616c3657616c35618865565b5b6000616c4485828601616968565b9250506020616c5585828601616968565b9150509250929050565b600080600060608486031215616c7857616c77618865565b5b6000616c8686828701616968565b9350506020616c9786828701616968565b9250506040616ca886828701616bdd565b9150509250925092565b60008060008060808587031215616ccc57616ccb618865565b5b6000616cda87828801616968565b9450506020616ceb87828801616968565b9350506040616cfc87828801616bdd565b925050606085013567ffffffffffffffff811115616d1d57616d1c61885b565b5b616d2987828801616b16565b91505092959194509250565b600080600080600060608688031215616d5157616d50618865565b5b6000616d5f88828901616968565b955050602086013567ffffffffffffffff811115616d8057616d7f61885b565b5b616d8c88828901616992565b9450945050604086013567ffffffffffffffff811115616daf57616dae61885b565b5b616dbb88828901616a3e565b92509250509295509295909350565b600080600060408486031215616de357616de2618865565b5b6000616df186828701616968565b935050602084013567ffffffffffffffff811115616e1257616e1161885b565b5b616e1e868287016169e8565b92509250509250925092565b60008060408385031215616e4157616e40618865565b5b6000616e4f85828601616968565b9250506020616e6085828601616ac2565b9150509250929050565b600080600060408486031215616e8357616e82618865565b5b6000616e9186828701616968565b935050602084013567ffffffffffffffff811115616eb257616eb161885b565b5b616ebe86828701616b44565b92509250509250925092565b60008060008060608587031215616ee457616ee3618865565b5b6000616ef287828801616968565b945050602085013567ffffffffffffffff811115616f1357616f1261885b565b5b616f1f87828801616b44565b93509350506040616f3287828801616ac2565b91505092959194509250565b60008060408385031215616f5557616f54618865565b5b6000616f6385828601616968565b9250506020616f7485828601616bc8565b9150509250929050565b60008060408385031215616f9557616f94618865565b5b6000616fa385828601616968565b9250506020616fb485828601616bdd565b9150509250929050565b60008060008060408587031215616fd857616fd7618865565b5b600085013567ffffffffffffffff811115616ff657616ff561885b565b5b61700287828801616992565b9450945050602085013567ffffffffffffffff8111156170255761702461885b565b5b61703187828801616a3e565b925092505092959194509250565b60008060006040848603121561705857617057618865565b5b600084013567ffffffffffffffff8111156170765761707561885b565b5b61708286828701616a94565b935050602084013567ffffffffffffffff8111156170a3576170a261885b565b5b6170af868287016169e8565b92509250509250925092565b6000602082840312156170d1576170d0618865565b5b60006170df84828501616ac2565b91505092915050565b6000602082840312156170fe576170fd618865565b5b600061710c84828501616ad7565b91505092915050565b60006020828403121561712b5761712a618865565b5b600061713984828501616aec565b91505092915050565b60006020828403121561715857617157618865565b5b600061716684828501616b01565b91505092915050565b6000806020838503121561718657617185618865565b5b600083013567ffffffffffffffff8111156171a4576171a361885b565b5b6171b085828601616b44565b92509250509250929050565b6000806000604084860312156171d5576171d4618865565b5b600084013567ffffffffffffffff8111156171f3576171f261885b565b5b6171ff86828701616b44565b9350935050602061721286828701616ac2565b9150509250925092565b60006020828403121561723257617231618865565b5b600082015167ffffffffffffffff8111156172505761724f61885b565b5b61725c84828501616b9a565b91505092915050565b60006020828403121561727b5761727a618865565b5b600061728984828501616bdd565b91505092915050565b6000806000806000606086880312156172ae576172ad618865565b5b60006172bc88828901616bdd565b955050602086013567ffffffffffffffff8111156172dd576172dc61885b565b5b6172e988828901616992565b9450945050604086013567ffffffffffffffff81111561730c5761730b61885b565b5b61731888828901616a3e565b92509250509295509295909350565b6000806000604084860312156173405761733f618865565b5b600061734e86828701616bdd565b935050602084013567ffffffffffffffff81111561736f5761736e61885b565b5b61737b86828701616b44565b92509250509250925092565b6000806040838503121561739e5761739d618865565b5b60006173ac85828601616bdd565b92505060206173bd85828601616bdd565b9150509250929050565b60006173d3838361740f565b60208301905092915050565b60006173eb838361741e565b60208301905092915050565b60006174038383617b8c565b60208301905092915050565b61741881618552565b82525050565b61742781618540565b82525050565b61743681618540565b82525050565b600061744782618349565b61745181856183b4565b935061745c836182fa565b8060005b8381101561748d57815161747488826173df565b975061747f83618380565b925050600181019050617460565b5085935050505092915050565b60006174a683856183c5565b93506174b18261830a565b8060005b858110156174ea576174c78284618414565b6174d188826173c7565b97506174dc8361838d565b9250506001810190506174b5565b5085925050509392505050565b600061750282618354565b61750c81856183c5565b935061751783618314565b8060005b8381101561754857815161752f88826173c7565b975061753a8361839a565b92505060018101905061751b565b5085935050505092915050565b600061756183856183d6565b93507f07ffffffffffffffffffffffffffffffffffffffffffffffffffffffffffffff83111561759457617593618860565b5b6020830292506175a58385846185d4565b82840190509392505050565b60006175bc8261835f565b6175c681856183d6565b93506175d183618324565b8060005b838110156176025781516175e988826173f7565b97506175f4836183a7565b9250506001810190506175d5565b5085935050505092915050565b61761881618564565b82525050565b61762781618570565b82525050565b60006176388261836a565b61764281856183e7565b93506176528185602086016185e3565b61765b8161886a565b840191505092915050565b600061767182618375565b61767b81856183f8565b935061768b8185602086016185e3565b6176948161886a565b840191505092915050565b60006176aa82618375565b6176b48185618409565b93506176c48185602086016185e3565b80840191505092915050565b600081546176dd81618616565b6176e78186618409565b94506001821660008114617702576001811461771357617746565b60ff19831686528186019350617746565b61771c85618334565b60005b8381101561773e5781548189015260018201915060208101905061771f565b838801955050505b50505092915050565b600061775c6019836183f8565b91506177678261887b565b602082019050919050565b600061777f600f836183f8565b915061778a826188a4565b602082019050919050565b60006177a26032836183f8565b91506177ad826188cd565b604082019050919050565b60006177c56026836183f8565b91506177d08261891c565b604082019050919050565b60006177e86025836183f8565b91506177f38261896b565b604082019050919050565b600061780b601c836183f8565b9150617816826189ba565b602082019050919050565b600061782e601e836183f8565b9150617839826189e3565b602082019050919050565b60006178516029836183f8565b915061785c82618a0c565b604082019050919050565b60006178746024836183f8565b915061787f82618a5b565b604082019050919050565b60006178976019836183f8565b91506178a282618aaa565b602082019050919050565b60006178ba6015836183f8565b91506178c582618ad3565b602082019050919050565b60006178dd600d836183f8565b91506178e882618afc565b602082019050919050565b6000617900601c836183f8565b915061790b82618b25565b602082019050919050565b60006179236029836183f8565b915061792e82618b4e565b604082019050919050565b60006179466011836183f8565b915061795182618b9d565b602082019050919050565b6000617969601c836183f8565b915061797482618bc6565b602082019050919050565b600061798c603e836183f8565b915061799782618bef565b604082019050919050565b60006179af6020836183f8565b91506179ba82618c3e565b602082019050919050565b60006179d26025836183f8565b91506179dd82618c67565b604082019050919050565b60006179f56020836183f8565b9150617a0082618cb6565b602082019050919050565b6000617a186016836183f8565b9150617a2382618cdf565b602082019050919050565b6000617a3b600d836183f8565b9150617a4682618d08565b602082019050919050565b6000617a5e6018836183f8565b9150617a6982618d31565b602082019050919050565b6000617a816021836183f8565b9150617a8c82618d5a565b604082019050919050565b6000617aa46017836183f8565b9150617aaf82618da9565b602082019050919050565b6000617ac76020836183f8565b9150617ad282618dd2565b602082019050919050565b6000617aea6024836183f8565b9150617af582618dfb565b604082019050919050565b6000617b0d603f836183f8565b9150617b1882618e4a565b604082019050919050565b6000617b306010836183f8565b9150617b3b82618e99565b602082019050919050565b6000617b53602e836183f8565b9150617b5e82618ec2565b604082019050919050565b6000617b76601f836183f8565b9150617b8182618f11565b602082019050919050565b617b95816185ca565b82525050565b617ba4816185ca565b82525050565b6000617bb682856176d0565b9150617bc2828461769f565b91508190509392505050565b6000617bda82856176d0565b9150617be682846176d0565b91508190509392505050565b6000602082019050617c07600083018461742d565b92915050565b6000606082019050617c22600083018661742d565b617c2f602083018561742d565b617c3c6040830184617b9b565b949350505050565b6000608082019050617c59600083018761742d565b617c66602083018661742d565b617c736040830185617b9b565b8181036060830152617c85818461762d565b905095945050505050565b6000604082019050617ca5600083018561742d565b617cb26020830184617b9b565b9392505050565b60006020820190508181036000830152617cd3818461743c565b905092915050565b60006040820190508181036000830152617cf681868861749a565b90508181036020830152617d0b818486617555565b905095945050505050565b60006020820190508181036000830152617d3081846174f7565b905092915050565b60006040820190508181036000830152617d5281856174f7565b90508181036020830152617d6681846175b1565b90509392505050565b60006020820190508181036000830152617d8981846175b1565b905092915050565b6000602082019050617da6600083018461760f565b92915050565b6000602082019050617dc1600083018461761e565b92915050565b60006020820190508181036000830152617de18184617666565b905092915050565b60006020820190508181036000830152617e028161774f565b9050919050565b60006020820190508181036000830152617e2281617772565b9050919050565b60006020820190508181036000830152617e4281617795565b9050919050565b60006020820190508181036000830152617e62816177b8565b9050919050565b60006020820190508181036000830152617e82816177db565b9050919050565b60006020820190508181036000830152617ea2816177fe565b9050919050565b60006020820190508181036000830152617ec281617821565b9050919050565b60006020820190508181036000830152617ee281617844565b9050919050565b60006020820190508181036000830152617f0281617867565b9050919050565b60006020820190508181036000830152617f228161788a565b9050919050565b60006020820190508181036000830152617f42816178ad565b9050919050565b60006020820190508181036000830152617f62816178d0565b9050919050565b60006020820190508181036000830152617f82816178f3565b9050919050565b60006020820190508181036000830152617fa281617916565b9050919050565b60006020820190508181036000830152617fc281617939565b9050919050565b60006020820190508181036000830152617fe28161795c565b9050919050565b600060208201905081810360008301526180028161797f565b9050919050565b60006020820190508181036000830152618022816179a2565b9050919050565b60006020820190508181036000830152618042816179c5565b9050919050565b60006020820190508181036000830152618062816179e8565b9050919050565b6000602082019050818103600083015261808281617a0b565b9050919050565b600060208201905081810360008301526180a281617a2e565b9050919050565b600060208201905081810360008301526180c281617a51565b9050919050565b600060208201905081810360008301526180e281617a74565b9050919050565b6000602082019050818103600083015261810281617a97565b9050919050565b6000602082019050818103600083015261812281617aba565b9050919050565b6000602082019050818103600083015261814281617add565b9050919050565b6000602082019050818103600083015261816281617b00565b9050919050565b6000602082019050818103600083015261818281617b23565b9050919050565b600060208201905081810360008301526181a281617b46565b9050919050565b600060208201905081810360008301526181c281617b69565b9050919050565b60006020820190506181de6000830184617b9b565b92915050565b6000808335600160200384360303811261820157618200618847565b5b80840192508235915067ffffffffffffffff82111561822357618222618842565b5b60208301925060018202360383131561823f5761823e618851565b5b509250929050565b6000618251618262565b905061825d8282618648565b919050565b6000604051905090565b600067ffffffffffffffff82111561828757618286618809565b5b602082029050602081019050919050565b600067ffffffffffffffff8211156182b3576182b2618809565b5b6182bc8261886a565b9050602081019050919050565b600067ffffffffffffffff8211156182e4576182e3618809565b5b6182ed8261886a565b9050602081019050919050565b6000819050602082019050919050565b6000819050919050565b6000819050602082019050919050565b6000819050602082019050919050565b60008190508160005260206000209050919050565b600081519050919050565b600081519050919050565b600081519050919050565b600081519050919050565b600081519050919050565b6000602082019050919050565b6000602082019050919050565b6000602082019050919050565b6000602082019050919050565b600082825260208201905092915050565b600082825260208201905092915050565b600082825260208201905092915050565b600082825260208201905092915050565b600082825260208201905092915050565b600081905092915050565b6000618423602084018461697d565b905092915050565b6000618436826185ca565b9150618441836185ca565b9250827fffffffffffffffffffffffffffffffffffffffffffffffffffffffffffffffff038211156184765761847561871e565b5b828201905092915050565b600061848c826185ca565b9150618497836185ca565b9250826184a7576184a661874d565b5b828204905092915050565b60006184bd826185ca565b91506184c8836185ca565b9250817fffffffffffffffffffffffffffffffffffffffffffffffffffffffffffffffff04831182151516156185015761850061871e565b5b828202905092915050565b6000618517826185ca565b9150618522836185ca565b9250828210156185355761853461871e565b5b828203905092915050565b600061854b826185aa565b9050919050565b600061855d826185aa565b9050919050565b60008115159050919050565b60007fffffffff0000000000000000000000000000000000000000000000000000000082169050919050565b600061ffff82169050919050565b600073ffffffffffffffffffffffffffffffffffffffff82169050919050565b6000819050919050565b82818337600083830152505050565b60005b838110156186015780820151818401526020810190506185e6565b83811115618610576000848401525b50505050565b6000600282049050600182168061862e57607f821691505b602082108114156186425761864161877c565b5b50919050565b6186518261886a565b810181811067ffffffffffffffff821117156186705761866f618809565b5b80604052505050565b60006186848261859c565b915061ffff8214156186995761869861871e565b5b600182019050919050565b60006186af826185ca565b91507fffffffffffffffffffffffffffffffffffffffffffffffffffffffffffffffff8214156186e2576186e161871e565b5b600182019050919050565b60006186f8826185ca565b9150618703836185ca565b9250826187135761871261874d565b5b828206905092915050565b7f4e487b7100000000000000000000000000000000000000000000000000000000600052601160045260246000fd5b7f4e487b7100000000000000000000000000000000000000000000000000000000600052601260045260246000fd5b7f4e487b7100000000000000000000000000000000000000000000000000000000600052602260045260246000fd5b7f4e487b7100000000000000000000000000000000000000000000000000000000600052603160045260246000fd5b7f4e487b7100000000000000000000000000000000000000000000000000000000600052603260045260246000fd5b7f4e487b7100000000000000000000000000000000000000000000000000000000600052604160045260246000fd5b600080fd5b600080fd5b600080fd5b600080fd5b600080fd5b600080fd5b600080fd5b600080fd5b600080fd5b600080fd5b6000601f19601f8301169050919050565b7f43616e6e6f7420626c61636b6c69737420796f757273656c6600000000000000600082015250565b7f496e76616c696420616464726573730000000000000000000000000000000000600082015250565b7f4552433732313a207472616e7366657220746f206e6f6e20455243373231526560008201527f63656976657220696d706c656d656e7465720000000000000000000000000000602082015250565b7f4f776e61626c653a206e6577206f776e657220697320746865207a65726f206160008201527f6464726573730000000000000000000000000000000000000000000000000000602082015250565b7f4552433732313a207472616e736665722066726f6d20696e636f72726563742060008201527f6f776e6572000000000000000000000000000000000000000000000000000000602082015250565b7f4552433732313a20746f6b656e20616c7265616479206d696e74656400000000600082015250565b7f43726561746f72436f72653a20496e76616c696420657874656e73696f6e0000600082015250565b7f45524337323143726561746f723a20457874656e73696f6e20617070726f766160008201527f6c206661696c7572650000000000000000000000000000000000000000000000602082015250565b7f4552433732313a207472616e7366657220746f20746865207a65726f2061646460008201527f7265737300000000000000000000000000000000000000000000000000000000602082015250565b7f4552433732313a20617070726f766520746f2063616c6c657200000000000000600082015250565b7f457874656e73696f6e20626c61636b6c69737465640000000000000000000000600082015250565b7f496e76616c696420746f6b656e00000000000000000000000000000000000000600082015250565b7f4d757374206265207265676973746572656420657874656e73696f6e00000000600082015250565b7f4552433732313a2061646472657373207a65726f206973206e6f74206120766160008201527f6c6964206f776e65720000000000000000000000000000000000000000000000602082015250565b7f4e6f6e6578697374656e7420746f6b656e000000000000000000000000000000600082015250565b7f4d6f7265207468616e203120726f79616c747920726563656976657200000000600082015250565b7f4552433732313a20617070726f76652063616c6c6572206973206e6f7420746f60008201527f6b656e206f776e6572206e6f7220617070726f76656420666f7220616c6c0000602082015250565b7f4552433732313a206d696e7420746f20746865207a65726f2061646472657373600082015250565b7f43726561746f723a20457874656e73696f6e206d757374206265206120636f6e60008201527f7472616374000000000000000000000000000000000000000000000000000000602082015250565b7f4f776e61626c653a2063616c6c6572206973206e6f7420746865206f776e6572600082015250565b7f4e6f20657874656e73696f6e20666f7220746f6b656e00000000000000000000600082015250565b7f496e76616c696420696e70757400000000000000000000000000000000000000600082015250565b7f4552433732313a20696e76616c696420746f6b656e2049440000000000000000600082015250565b7f4552433732313a20617070726f76616c20746f2063757272656e74206f776e6560008201527f7200000000000000000000000000000000000000000000000000000000000000602082015250565b7f496e76616c696420746f74616c20726f79616c74696573000000000000000000600082015250565b7f43616c6c6572206973206e6f74206f776e6572206e6f7220617070726f766564600082015250565b7f41646d696e436f6e74726f6c3a204d757374206265206f776e6572206f72206160008201527f646d696e00000000000000000000000000000000000000000000000000000000602082015250565b7f457874656e73696f6e206d75737420696d706c656d656e74204945524337323160008201527f43726561746f72457874656e73696f6e417070726f76655472616e7366657200602082015250565b7f43726561746f723a20496e76616c696400000000000000000000000000000000600082015250565b7f4552433732313a2063616c6c6572206973206e6f7420746f6b656e206f776e6560008201527f72206e6f7220617070726f766564000000000000000000000000000000000000602082015250565b7f5265656e7472616e637947756172643a207265656e7472616e742063616c6c00600082015250565b618f4381618540565b8114618f4e57600080fd5b50565b618f5a81618552565b8114618f6557600080fd5b50565b618f7181618564565b8114618f7c57600080fd5b50565b618f8881618570565b8114618f9357600080fd5b50565b618f9f8161859c565b8114618faa57600080fd5b50565b618fb6816185ca565b8114618fc157600080fd5b5056fea26469706673582212202c3eae85688d7fc15fd4952746dc5a6f9b7cdb1671fa3c0b3e6436323200694264736f6c63430008070033",
  "linkReferences": {},
  "deployedLinkReferences": {}
}